:020000040800F2
:10000000680800202902000813180008BF1400081F
:10001000111800081F040008391B00080000000028
:100020000000000000000000000000001718000899
:100030002104000800000000151800081918000825
:10004000430200084302000843020008430200087C
:10005000430200084302000843020008430200086C
:10006000430200084302000843020008430200085C
:10007000430200084302000843020008430200084C
:10008000430200084302000843020008430200083C
:10009000430200084302000843020008430200082C
:1000A000430200084302000843020008430200081C
:1000B000430200084302000843020008430200080C
:1000C00043020008430200084302000843020008FC
:1000D00043020008430200084302000843020008EC
:1000E00043020008430200084302000843020008DC
:1000F00043020008C1180008430200084302000838
:1001000043020008430200084302000843020008BB
:1001100043020008430200084302000843020008AB
:10012000430200084302000843020008430200089B
:10013000430200084302000843020008430200088B
:10014000430200084302000843020008430200087B
:10015000430200084302000843020008430200086B
:10016000430200084302000843020008430200085B
:100170004302000843020008430200080000000098
:10018000430200084302000800F002F800F03CF8C7
:100190000AA090E8000C82448344AAF10107DA45E2
:1001A00001D100F031F8AFF2090EBAE80F0013F0F8
:1001B000010F18BFFB1A43F001031847E8190000AC
:1001C000081A0000103A24BF78C878C1FAD852073C
:1001D00024BF30C830C144BF04680C6070470000C1
:1001E0000023002400250026103A28BF78C1FBD840
:1001F000520728BF30C148BF0B6070471FB501F0E0
:10020000BFFC1FBD10B510BD00F0CFF81146FFF7C1
:10021000F5FF01F0A2FC00F0EDF803B4FFF7F2FFE8
:1002200003BC00F0F5F80000094880470948004782
:10023000FEE7FEE7FEE7FEE7FEE7FEE7FEE7FEE796
:10024000FEE7FEE704480549054A064B70470000F3
:10025000B118000889010008680200206808002021
:10026000680400206804002053EA020C00F0698052
:100270002DE9F04B4FF00006002B1FBFB3FA83F5BA
:1002800003FA05F424FA05F65E4012BF1643B2FAEB
:1002900082F502FA05F4C5F120051EBF22FA05FC1D
:1002A00044EA0C04203556EA044C4FEA144418BFC3
:1002B000641C4FF000084FF00009904271EB030CF2
:1002C00039D3002919BFB1FA81F701FA07F6B0FA5C
:1002D00080F700FA07F6C7F120071EBF20FA07FCD7
:1002E00046EA0C062037B6FBF4FCA7EB0507103FE7
:1002F00007F01F0BCBF120060CFA0BFB2CFA06F6CD
:1003000044BFB3460026202FA4BF5E464FF0000B2B
:100310005BEA060C08BF4FF0010B19EB0B09ABFBB6
:10032000027C48EB0608C01B06FB02CC0BFB03CC8F
:1003300071EB0C01C1E70B46024641464846BDE859
:10034000F08B13B54FF000004FF00001AFF30080C9
:10035000BDE81C4070474FF0000200B513469446BC
:100360009646203922BFA0E80C50A0E80C50B1F10D
:100370002001BFF4F7AF090728BFA0E80C5048BF21
:100380000CC05DF804EB890028BF40F8042B08BFBF
:10039000704748BF20F8022B11F0804F18BF00F8BB
:1003A000012B7047704770477047754600F02CF876
:1003B000AE4605006946534620F00700854618B052
:1003C00020B5FFF73FFFBDE820404FF000064FF09B
:1003D00000074FF000084FF0000B21F00701AC467A
:1003E000ACE8C009ACE8C009ACE8C009ACE8C00999
:1003F0008D46704710B50446AFF300802046BDE837
:100400001040FFF70ABF00000048704708020020B4
:1004100001491820ABBEFEE7260002007047FEE748
:10042000704772B6FEE700002DE9F84FDFF8BCA177
:100430000022012503264FF00F090AF1040BAAF14F
:10044000040E00BF0B6805FA02F42340A34270D1EA
:100450000F7907F00307012F01D0022F16D187680B
:100460004FEA420806FA08FC27EA0C07D1F80CC04C
:100470000CFA08FC4CEA070CC0F808C04768A74310
:100480000C79C4F3001494403C4344600C79E44379
:10049000A4070AD0C4684FEA420C06FA0CF7BC4322
:1004A0008F6807FA0CF72743C7600C7904F0030440
:1004B000022C12D1D40800EB840CDCF82040570742
:1004C000FF0E09FA07F824EA0804D1F8108008FAA8
:1004D00007F848EA0408CCF8208004684FEA420C88
:1004E00006FA0CF7BC430F7907F0030707FA0CF77D
:1004F000274307604C6814F4403F70D03C4C276899
:1005000047F480472760246822F0030704F48044FE
:100510000094384C07EB040CDCF8084897074FEAC6
:10052000177809FA08F7BC43334FB84202D10027C5
:1005300024E054E0314FB84201D101271EE0304F92
:10054000B84201D1022719E02E4FB84201D103274A
:1005500014E02D4FB84201D104270FE02B4FB842D1
:1005600001D105270AE02A4FB84201D1062705E04C
:10057000284FB84201D1072700E0082707FA08F7FB
:100580002743CCF80878DAF800405746D1F804C081
:100590009C435FEACC2C00D51C433C60DBF8004058
:1005A0005F46D1F804C09C435FEA8C2C00D51C4305
:1005B0003C60DEF800407746D1F804C09C435FEA17
:1005C0008C3C00D51C433C60084F083F3C68D1F888
:1005D00004C09C435FEACC3C00D51C433C60521CE9
:1005E000102AFFF42FAFBDE8F88F0000083C01404F
:1005F0004438024000300140000002400004024044
:1006000000080240000C02400010024000140240AA
:1006100000180240001C024001488068704700003A
:100620000000002002488168027811448160704710
:10063000000000200B4810B5016841F40071016012
:10064000016841F480610160016841F480710160DA
:10065000032000F09BF80F2000F006F800F050F89F
:10066000002010BD003C024030B505461F4887B051
:100670000024016841F480710160006806A900F45B
:100680008070009001A800F02DF90498A8B100F046
:1006900049F940001649174AB0FBF1F11648491EC6
:1006A000026040F2E732C0E90324C0E9011484612A
:1006B00000F0A4FB040003D015E000F033F9E9E7F3
:1006C0000D4800F0C9FB04000DD12D2000F030F8DA
:1006D000102D07D2002229462D2000F037F80748B8
:1006E000056000E0012407B0204630BD40380240DC
:1006F00040420F0000200040C00100200400002004
:100700000A4808B5016841F480410160006800F4BE
:10071000804000900548001F016841F08051016051
:10072000006800F08050009008BD0000443802408E
:10073000002809DB00F01F020121914040098000E0
:1007400000F1E020C0F8001170470000F0B40E4B3B
:100750001B680C46C3F30223C3F10705042D00D91F
:100760000425191D072901D2002300E0DB1E012604
:1007700006FA05F1491E214099409E40761E16401A
:100780003143F0BC01F0D9B90CED00E0064900F0AE
:10079000070208684FF6FF03184040EA0220034AA8
:1007A00010430860704700000CED00E00000FA05FF
:1007B0002DE9F0470E46050065D0DFF81481D8F822
:1007C0000000F7B200F00700B04207D288F80070CE
:1007D000D8F8000000F00700B04254D128683D4C22
:1007E000810712D5400703D5206840F4E05020600F
:1007F0002878000703D5206840F460402060206816
:10080000A96820F0F000084320602878C0072DD0A8
:10081000304968680839012812D0022813D003280B
:1008200011D00968890700292DDA216821F0030118
:1008300001432160FFF7F0FE814641F2883A0EE065
:1008400009688903EFE709688901ECE7FFF7E4FE2F
:10085000A0EB0901514502D90320BDE8F0872068CB
:10086000696800F00C00B0EB810FEFD1D8F80010F0
:10087000404601F00701B14207D90770006800F057
:100880000700B04201D00120E7E72878400705D5EE
:100890002068E96820F4E0500843206028780007C9
:1008A00006D52068296920F4604040EAC100206034
:1008B00000F048F82168084AC1F30311515CC840B0
:1008C0000649086006480068FFF7CEFE0020C4E72E
:1008D000003C0240083802408A1B00080C0000203F
:1008E000040000200F2202600C4A136803F0030387
:1008F0004360136803F0F0038360136803F4E0536C
:10090000C36012684FF4E05303EAD2020261044864
:10091000006800F0070008607047000008380240D7
:10092000003C02400448054900680968044AC1F3D4
:100930008221515CC84070470C00002008380240FA
:100940009A1B0008154810B5006810F00C021448F6
:1009500013D01449042A0FD0082A0ED10F4C241F9B
:100960002268236802F03F025B0207D52068C0F3CB
:100970008810A0FB010106E0084610BD2168C1F304
:100980008811A1FB00010023FFF76EFC2168C1F371
:100990000141491C4900B0FBF1F010BD083802408C
:1009A0000024F400001BB7002DE9F84F04006ED0BE
:1009B0002078DFF84C93C007A9F104054AD009F16B
:1009C00004000168C1F38101012908D00068C0F367
:1009D000810002280AD1D9F80000400206D5286813
:1009E000800337D560680028E1D033E06068B0F557
:1009F000803F10D0B0F5A02F286810D020F48030B0
:100A00002860286820F4802028606068A8B1FFF77B
:100A100003FE06460DE0286840F48030F4E740F419
:100A200080202860F7E700BFFFF7F6FD801B6428F1
:100A300073D828688003F7D50CE0FFF7EDFD064674
:100A400005E000BFFFF7E8FD801B6428F0D82868A8
:100A50008003F7D42078DFF8AC8280074FF0000ADB
:100A60003ED5A748001D016811F00C0F08D00068A2
:100A7000C0F3810002280BD1D9F80000400207D44E
:100A80002868800716D5E068012800D112E033E11C
:100A9000E068B8B10120C8F80000FFF7BDFD0646C8
:100AA00005E000BFFFF7B8FD801B0228C0D828680A
:100AB0008007F7D52868216920F0F80040EAC100D6
:100AC00028600DE0C8F800A0FFF7A6FD064604E088
:100AD000FFF7A2FD801B02281FD828688007F7D4E3
:100AE0002078000722D5864F87486169703771B139
:100AF00001210160FFF790FD064604E0FFF78CFD41
:100B0000801B022809D838688007F7D50EE0C0F8A6
:100B100000A0FFF781FD064605E082E0FFF77CFDBF
:100B2000801B02287DD838688007F7D420784007DA
:100B300068D5DFF8CCB100270BF13C0BDBF80000E7
:100B4000C0000BD4DBF8001041F08051CBF800104E
:100B5000DBF80000012700F0805000906B4E3068F9
:100B6000C00510D4306840F480703060FFF754FD49
:100B7000009005E0FFF750FD0099401A022850D878
:100B80003068C005F6D55E4EA0686C3601280FD0DF
:100B90000528306810D020F001003060306820F067
:100BA00004003060A068B8B1FFF736FD00900FE098
:100BB000306840F00100F4E740F004003060F7E7EF
:100BC000FFF72AFD0099411A41F28830814266D828
:100BD00030688007F4D50EE0FFF71EFD009007E0B7
:100BE000FFF71AFD0099411A41F28830814256D828
:100BF00030688007F4D42FB1DBF8001021F0805169
:100C0000CBF80010A069C8B33D49091D0968C1F3BC
:100C1000810102294AD00228504607D0C8F8600056
:100C200000E03CE0FFF7F8FC04463BE04746C8F82C
:100C30006000FFF7F1FC064605E000BFFFF7ECFCA3
:100C4000801B02282BD828688001F7D4D4E907013B
:100C50000843A16A2E4A490802EB0141626A41EA4F
:100C60008211084394F82C1040EA0161C9F8001081
:100C700001203866FFF7D0FC044606E03EE000BFE6
:100C8000FFF7CAFC001B022809D828688001F7D5A5
:100C900034E000BFFFF7C0FC001B022802D903208C
:100CA000BDE8F88F28688001F4D427E00128F7D048
:100CB000D9F80000E26900F4800191421CD1226A57
:100CC00000F03F01914217D147F6C071626A0140BE
:100CD000B1EB821F10D1A26A4FF0FF3300F4403114
:100CE00003EB5202B1EB024F06D194F82C1000F046
:100CF0007060B0EB016F01D00120D1E70020CFE799
:100D00000438024000004742800E47420070004015
:100D10000000FFFF7047704710B590F83C20012A93
:100D200022D0012280F83C20CA688C6822F44072EC
:100D300022434C6822F4806222430C6822F4006251
:100D400022430C6922F4805222434C6922F400525F
:100D50002243C969002322F480420A4301684A649D
:100D600080F83C30002010BD022010BD70B590F816
:100D70003C20012A32D0012480F83C40022280F835
:100D80003D2003685A689D6822F070060A68324365
:100D90005A60134B02689A4214D0B2F1804F11D0BE
:100DA000104B9A420ED0104B9A420BD00F4B9A42E6
:100DB00008D00F4B9A4205D00E4B9A4202D00E4BF0
:100DC0009A4204D1496825F080031943916080F864
:100DD0003D40002180F83C10084670BD022070BDE7
:100DE000000001400004004000080040000C0040EA
:100DF00000040140004001400018004010B504000C
:100E000003D094F83D0010B107E0012010BD002090
:100E100084F83C00204600F01EF8022084F83D00D3
:100E2000211D206800F05AFD012084F8460084F856
:100E30003E0084F83F0084F8400084F8410084F8C4
:100E4000420084F8430084F8440084F8450084F8A4
:100E50003D00002010BD704790F83D10012901D0E1
:100E600001207047022180F83D100168CA6842F0F5
:100E70000102CA6000681149884214D0B0F1804F65
:100E800011D00F4988420ED00E4988420BD00E492E
:100E9000884208D00D49884205D00D49884202D0C9
:100EA0000C49884204D1816801F00701062903D06A
:100EB000016841F00101016000207047000001401D
:100EC0000004004000080040000C00400004014005
:100ED00000400140001800402DE9F0410D4604009B
:100EE00003D094F83D0018B108E00120BDE8F0817E
:100EF000002084F83C00204600F040F8022084F8EE
:100F00003D002068816844F2070291438160211D01
:100F1000206800F0E3FC226890689169166A2B68EB
:100F2000AF69034340F20330814341EA0721A868D7
:100F3000EF6908434FF6FC418843E96840EA07201F
:100F4000014328692F6A000140EA073008436968B5
:100F50006D6926F0AA0646EA0515294393602268C2
:100F6000906154F8460B0162012004F81F09E075F6
:100F70002076E0762077A0750020B7E7F0B587B03F
:100F8000044614216846FFF7E6F95B49236800240C
:100F9000594810390225594A594EB3F1804F19D09A
:100FA000584FBB4246D1026842F00202026000681C
:100FB00000F002000590086840F002000860086830
:100FC000694600F00200059030200090CDE9015400
:100FD000304649E0036843F001030360006800F015
:100FE00001000590086840F001000860086800F002
:100FF00001000590086840F00200086008680127B9
:1010000000F00200059020200090CDE90154CDE9C8
:10101000034769461046FFF707FA08200090CDE91C
:101020000154CDE903476946304600BFFFF7FCF99C
:1010300007B0F0BD344EB34219D1026842F0040249
:101040000260006800F004000590086840F00800A5
:1010500008600868694600F0080005904FF44050A9
:101060000090CDE901542948CDE90345DEE7284F3A
:101070000326BB4217D1036843F0080303600068EE
:1010800000F008000590086840F00100086008685A
:101090000096CDE9015400F00100CDE90450694605
:1010A00003941046C2E71B488342C1D11248001D79
:1010B000026842F002020260006800F0020005903F
:1010C000086840F0040008600868694600F0040001
:1010D0000590C0200090CDE90154CDE903460E48AB
:1010E000FFF7A2F900220F212D20FFF72FFB2D2063
:1010F000FFF71EFB9CE70000403802400000024062
:10110000000402400004004000080040000C0240BF
:10111000000C0040000401400008024070472DE927
:10112000F04104460068C66805694FF00007A9074A
:1011300013D5B10711D5F91E016101202077206870
:1011400080698007204602D0FFF7E8FF04E000F046
:10115000D2F8204600F0A6F92777680716D5700761
:1011600014D521686FF00400086102202077206800
:10117000806910F4407F204602D0FFF7CFFF04E0E3
:1011800000F0B9F8204600F08DF92777280715D52B
:10119000300713D521686FF008000861042020771C
:1011A0002068C0698007204602D0FFF7B7FF04E03F
:1011B00000F0A1F8204600F075F92777E80616D56B
:1011C000F00614D521686FF0100008610820207720
:1011D0002068C06910F4407F204602D0FFF79EFFD0
:1011E00004E000F088F8204600F05CF92777E80773
:1011F00008D0F00706D021686FF001000861204692
:1012000000F052F9280608D5300606D521686FF09F
:10121000800008612046FFF77DFD680608D570064E
:1012200006D521686FF040000861204600F046F9BD
:10123000A8060AD5B00608D521686FF0200008611D
:101240002046BDE8F041FFF766BDBDE8F081000033
:1012500010B586B0044614216846FFF77CF80E49A5
:101260002068884216D10D480021026842F0100221
:101270000260006800F0100005904FF4D440009028
:101280000220CDE901010120CDE90310694604489F
:10129000FFF7CAF806B010BD000001403038024028
:1012A0000010024070B5044690F83C00002501286B
:1012B0000FD0012084F83C006AB1042A0FD0082A1C
:1012C00011D00C2A13D00125002084F83C002846B8
:1012D00070BD022070BD206800F06CFBF4E7206850
:1012E00000F098FBF0E7206800F0CAFBECE720680C
:1012F00000F0FAFBE8E7704710B5040003D094F85B
:101300003D0010B107E0012010BD002084F83C0032
:10131000204600F01EF8022084F83D00211D2068C0
:1013200000F0DCFA012084F8460084F83E0084F8DE
:101330003F0084F8400084F8410084F8420084F8BB
:10134000430084F8440084F8450084F83D00002000
:1013500010BD704770B5044690F83C0000260D465D
:1013600001280FD0012084F83C006AB1042A1DD066
:10137000082A2FD00C2A3FD00126002084F83C00F8
:10138000304670BD022070BD206800F013FB20685D
:10139000816941F0080181612068816921F00401BF
:1013A0008161206881692A69114311E0206800F099
:1013B00031FB2068816941F40061816120688169A5
:1013C00021F480618161206881692A6941EA0221F2
:1013D0008161D2E7206800F053FB2068C16941F0C9
:1013E0000801C1612068C16921F00401C161206860
:1013F000C1692A69114311E0206800F075FB20687B
:10140000C16941F40061C1612068C16921F4806152
:10141000C1612068C1692A6941EA0221C161ACE762
:1014200010B5040003D094F83D0010B107E001208E
:1014300010BD002084F83C00204600F01FF8022078
:1014400084F83D00211D206800F048FA012084F84E
:10145000460084F83E0084F83F0084F8400084F899
:10146000410084F8420084F8430084F8440084F882
:10147000450084F83D00002010BD000008B500685C
:101480000649884208D10648016841F0010101601F
:10149000006800F00100009008BD0000000001405D
:1014A000443802407047000000680349884201D177
:1014B000FFF7B8B870470000002000407047FEE713
:1014C000194808B5016841F004010160016801F0A4
:1014D00004010091016841F080010160016801F0A0
:1014E00080010091016841F001010160016801F093
:1014F00001010091016841F010010160016801F0F3
:1015000010010091016841F008010160016801F0DB
:1015100008010091016841F002010160006800F0DB
:101520000200009008BD00003038024010B592B0B3
:1015300000240F941C2168461094FEF70CFF202114
:1015400007A8FEF708FF2F482D49C0E900144FF601
:10155000FF71C0E90241046144618461FFF760FFEB
:1015600008B1FEF75EFF2748FFF7C6FE08B1FEF799
:1015700058FF0F940FA923481094FFF7F7FB08B109
:10158000FEF74FFF6020CDE9000402940394049419
:101590000594002269461B480694FFF7DBFE08B15C
:1015A000FEF73FFF042269461648FFF7D3FE08B155
:1015B000FEF737FF082269461248FFF7CBFE08B155
:1015C000FEF72FFF0C2269460E480094FFF76AFED3
:1015D00008B1FEF726FF0794089409944FF40050D1
:1015E0000A94CDE90B4007A906480E94FFF794FB37
:1015F00008B1FEF716FF0348FFF72AFE12B010BD30
:10160000000001401000002010B58CB02421684675
:10161000FEF7A1FE0024144809944FF080410A947B
:10162000C0E90014611EC0E9024104618461012027
:10163000CDE90004CDE902040494CDE90540079406
:10164000694609480894FFF747FC08B1FEF7E9FE30
:10165000099409A904480A94FFF788FB002801D0DF
:10166000FEF7DFFE0CB010BD5800002010B58CB0A6
:1016700024216846FEF76FFE00241548099413499B
:101680000A94C0E900144FF6FF71C0E902410461F9
:1016900084610120CDE90004CDE902040494CDE980
:1016A0000540079469460A480894FFF715FC08B1FD
:1016B000FEF7B7FE099409A905480A94FFF756FBFF
:1016C000002801D0FEF7ADFE0CB010BD00040040B4
:1016D000A000002010B58CB024216846FEF73BFE28
:1016E00000241548099413490A94C0E900144FF6E0
:1016F000FF71C0E90241046184610120CDE9000469
:10170000CDE902040494CDE90540079469460A48EE
:101710000894FFF7E1FB08B1FEF783FE099409A9DD
:1017200005480A94FFF722FB002801D0FEF779FE56
:101730000CB010BD00080040E800002010B58CB0CF
:1017400024216846FEF707FE002415480994134932
:101750000A94C0E90014611EC0E902410461846179
:101760000120CDE90004CDE902040494CDE905404F
:10177000079469460A480894FFF7AEFB08B1FEF7E4
:1017800050FE099409A906480A94FFF7EFFA0028C9
:1017900001D0FEF746FE0CB010BD0000000C00406A
:1017A0003001002010B58CB024216846FEF7D3FD2F
:1017B00000241648099414490A94C0E900144FF60D
:1017C000FF71C0E902410461446184610120CDE9F7
:1017D0000004CDE902040494CDE90540079469466C
:1017E0000A480894FFF778FB08B1FEF71AFE09943F
:1017F00009A906480A94FFF7B9FA002801D0FEF7B4
:1018000010FE0CB010BD0000000401407801002063
:10181000FEE7FEE7704770477047000030B593B0B1
:1018200030216846FEF797FD14210CA8FEF793FDC2
:101830001D480025016841F080510160006800F0FA
:10184000805011901948016841F48041016000689E
:10185000022400F4804011900120009000040190C7
:101860008001CDE9064006200890A820CDE90904B2
:1018700004200B906846FFF797F808B172B6FEE7B0
:101880000CA90F2081E831004FF4A0500F904FF4C5
:101890008050109005210CA8FEF78AFF002801D087
:1018A00072B6FEE713B030BD403802400070004011
:1018B0000248016841F470010160704788ED00E062
:1018C00010B50448FFF72BFCBDE810400248FFF7B5
:1018D00026BC000078010020C0010020F0B502689D
:1018E000294C2A4D2A4E2B4F2B4B4FF0804CA042B7
:1018F00009D0604507D0A84205D0B04203D0B84215
:1019000001D0984204D122F0700E4A6842EA0E02D9
:10191000A0421BD0604519D0A84217D0B04215D0C4
:10192000B84213D0984211D01C4DA8420ED01C4D85
:10193000A8420BD01B4DA84208D01B4DA84205D091
:101940001A4DA84202D01A4DA84203D122F4407584
:10195000CA682A434D6922F080022A4302608A68DD
:10196000C2620A688262A04201D0984201D109692C
:101970000163012141610169C90703D0016921F0B7
:1019800001010161F0BD00000000014000040040C1
:1019900000080040000C00400004014000400140ED
:1019A000004401400048014000180040001C004075
:1019B00000200040F0B5036A026A22F001020262D0
:1019C00042688469124E24F073050C682C4323F09E
:1019D00002058B682B430D4DA84201D0B04205D1C2
:1019E00023F00807CB683B4323F00403A84201D04F
:1019F000B04205D14D6922F4407215438A692A43E9
:101A000042608461496841630362F0BD00000140A7
:101A100000040140F0B5026A036A23F01003036278
:101A2000436884690D6824F4E64444EA05248D681B
:101A300022F0200242EA05120F4D104EA84201D0BA
:101A4000B04206D1CF6822F0800242EA071222F0AB
:101A50004002A84201D0B04207D14D6923F440634F
:101A600043EA85038D6943EA8503436084614968DD
:101A700081630262F0BD00000000014000040140EB
:101A8000F0B5026A036A23F4807303624368C46991
:101A900022F4007224F073050C68124E2C438D68FA
:101AA00042EA05220E4DA84201D0B04206D1CF68CD
:101AB00022F4006242EA072222F48062A84201D0A6
:101AC000B04207D14D6923F4405343EA05138D69B1
:101AD00043EA05134360C4614968C1630262F0BD13
:101AE000000001400004014030B5046A026A22F49B
:101AF000805202624268C3690D6823F4E64343EAF8
:101B000005238D6824F4005444EA0534084DA842A6
:101B100002D0084DA84204D14D6922F4804242EA25
:101B200085124260C36149680164046230BD0000EF
:101B30000000014000040140FEE70907090E0028EB
:101B400004DB00F1E02080F80014704700F00F0083
:101B500000F1E02080F8141D7047FEF76BFDFFF7E1
:101B60005DFEFFF7ADFCFFF7E1FCFFF74DFDFFF772
:101B70007DFDFFF7AFFDFFF7E1FDFFF713FEFEE789
:101B80004FF04070E1EE100A7047000000000000C6
:101B9000000001020304060708090000000001021A
:101BA00003040000C41B0008000000201000000017
:101BB000C4010008D41B00081000002058080000D1
:101BC000E00100080100000010000000000000001B
:041BD0000024F400F9
:040000050800018965
:00000001FF
