:020000040800F2
:10000000A80C0020A10100081D2A000829200008D2
:100010001B2A0008C9070008AF31000800000000D3
:100020000000000000000000000000008D2C00080F
:1000300095080008000000008B2C00088F2C000899
:10004000BB010008BB010008BB010008BB010008A0
:10005000BB010008BB010008BB010008BB01000890
:10006000BB010008BB010008BB010008BB01000880
:10007000BB010008BB010008BB010008BB01000870
:10008000BB010008BB010008BB010008BB01000860
:10009000BB010008BB010008BB010008BB01000850
:1000A000BB010008352D0008BB010008BB0100089A
:1000B000BB010008BB010008BB010008BB01000830
:1000C000BB010008BB010008BB010008BB01000820
:1000D000BB010008BB010008BB010008BB01000810
:1000E000BB010008BB010008BB010008BB01000800
:1000F000BB010008BB010008BB010008BB010008F0
:10010000BB010008BB010008BB010008BB010008DF
:10011000BB010008BB010008512D00085D2D00083F
:10012000BB010008DD070008E9070008BB01000863
:10013000F5070008BB010008BB010008BB0100086F
:10014000BB010008BB010008BB010008BB0100089F
:10015000BB010008010800080D080008BB010008E9
:10016000BB010008BB010008BB010008BB0100087F
:10017000BB010008BB010008BB0100080000000033
:10018000BB010008BB010008DFF810D000F05EFAE8
:1001900000480047F13A0008AFF30080A80C0020A7
:1001A0000648804706480047FEE7FEE7FEE7FEE711
:1001B000FEE7FEE7FEE7FEE7FEE7FEE7252D000887
:1001C000890100082DE9F05F0546002092469B4614
:1001D00088460646814640241BE02846414647465D
:1001E000224600F06AF853465A46C01A914110D38D
:1001F00011461846224600F051F82D1A67EB010807
:100200004F4622460120002100F048F817EB000974
:100210004E41201EA4F10104DFDC484631462A4647
:100220004346BDE8F09FD2B201E000F8012B491E21
:10023000FBD270470022F6E710B513460A46044683
:100240001946FFF7F0FF204610BD00F0004230F0E5
:1002500000400AD0C10D01F56071C0F3160042EAFA
:100260000151C20840071143704700200146704702
:1002700030B50B46014600202022012409E021FA76
:1002800002F59D4205D303FA02F5491B04FA02F573
:100290002844151EA2F10102F1DC30BD202A04DB46
:1002A000203A00FA02F1002070479140C2F1200389
:1002B00020FA03F3194390407047202A04DB203AC8
:1002C00021FA02F00021704721FA02F3D040C2F176
:1002D000200291400843194670472DE9FE4F8046A1
:1002E00081EA0300C00F0C46009021F0004123F08A
:1002F0000045B8EB0200A94105D240462146904690
:100300001C460B46024623F00040104347D0270D01
:10031000C7F30A00C3F30A510290401A0190402823
:100320006BDAC3F3130040F4801B0098924620B1AF
:100330000023D2EB030A63EB0B0B01985946C0F183
:1003400040025046FFF7AAFF06460D465046594662
:10035000019A00F08DF910EB08006141002487EA52
:10036000115284EAE7731A4340D0009A62B3019AAB
:10037000012A4FEA075215DC001B61EB02014FF026
:10038000004202EA0752CDE90042001C41F580110B
:1003900032462B4600F08DF903B0BDE8F08F4046A1
:1003A0002146F9E7001B61EB0201001C41F58013B7
:1003B00000185B412018A2F5001747EB030140EA43
:1003C000D570B6196D4111E06D084FEA360645EA61
:1003D000C0754FEA0752001B61EB0201001C41F59A
:1003E000801149084FEA30000019514132462B462E
:1003F00003B0BDE8F04F00F04DB900980122400075
:100400000023D0EB020263EBE073009821464FEA31
:10041000E074B8EB000061EB0401E9E783F000430E
:100420005BE781F0004158E72DE9FE4F81EA0304C4
:1004300004F0004421F0004100944FF0000B23F041
:10044000004350EA01045ED052EA03045BD0C3F3D8
:100450000A54C1F30A552C44A4F2F3340194A0FBCE
:100460000254C1F3130141F48011C3F3130343F4A5
:10047000801301FB024400FB034E840A970A44EAFE
:10048000815447EA8357A4FB076802958D0A05FB50
:1004900007854FEA932C04FB0C542705029D4FEA75
:1004A000065847EA1637B5EB08056EEB070C870EC2
:1004B000920E47EA811742EA8312A7FB0201B6EBCC
:1004C0000B0164EB00042B0D43EA0C335E1844EB84
:1004D0001C50DA465146E7FB0201C5F313044FEA0C
:1004E0000B3343EA14534FEA0432019C43EA0603F8
:1004F000A4F10C040294009CCDE900B400F0D9F8FA
:1005000003B0BDE8F08F00200146F9E72DE9F04D7A
:1005100081EA030404F0004B21F0004514464FF03B
:10052000000A23F0004150EA050220D054EA0102FB
:100530001DD0C5F30A570246C5F31303C1F31300D8
:10054000C1F30A5640F4801543F48013A7EB060864
:10055000101BD64608F2FD3873EB050002D308F1F4
:10056000010801E092185B41B8F1000F03DA0020A6
:100570000146BDE8F08D00204FF480110646844608
:100580000EE0171B73EB050705D3121B63EB050386
:1005900006434CEA010C49084FEA300092185B41CF
:1005A00050EA0107EDD152EA030012D082EA0400BA
:1005B00083EA0501084305D0101BAB4106D2012296
:1005C000002306E000224FF0004302E06FF001023A
:1005D00053101AEB06004CEB085110EB0A0041EBEC
:1005E0000B01BDE8F04D00F055B8C1F30A52C1F35C
:1005F000130140F2FF3341F480119A4202DA0020E5
:100600000146704740F233439A42A2F2334202DC81
:100610005242FFF752BEFFF741BE000030B5041E44
:1006200071F1000404DB4FF00044404264EB01012F
:10063000141E73F1000405DB1C464FF000435242C8
:1006400063EB0403994208BF904230BD064C074D4E
:1006500006E0E06840F0010394E807009847103492
:10066000AC42F6D3FFF794FD983D0008B83D000872
:10067000202A06DBCB17203A41FA02F043EAE07366
:1006800006E041FA02F3D040C2F120029140084353
:100690001946704710B5141E73F1000408DA401CA7
:1006A00041F1000192185B411A4301D120F0010091
:1006B00010BD2DE9F04D92469B4611B1B1FA81F281
:1006C00002E0B0FA80F220329046FFF7E7FD0446E0
:1006D0000F4640EA0A0041EA0B0153465A460843D6
:1006E00013D0114653EA010019D0C8F14002504618
:1006F000FFF7E3FD05460E46504659464246FFF7D2
:10070000CDFD084305D0012004E020463946BDE870
:10071000F08D0020054346EAE0762C4337430A98E3
:100720006305E40AA0EB08000022FD0A44EA4754EE
:100730000A3002D500200146E9E701051019694198
:10074000DDE9084500196941BDE8F04DA2E7000068
:1007500091EC020A70EE600A9FED1A0A80EE801A90
:10076000D1ED020A71EE200AC0ED000AD1EC020AB6
:1007700070EE810A80EE801AD1ED020A71EE200A35
:10078000C0ED010AD1ED010A91ED001A70EEC10A27
:1007900080EE801AD1ED020A71EE200AC0ED020A45
:1007A000D1ED000A91ED011AF1EE600A70EEC10A76
:1007B00080EE801A91ED020A31EE000A80ED030A04
:1007C000704700008104B53FFEE710B500F1040C4E
:1007D000029C8CE81E000121017010BD014800F050
:1007E0005DB80000A4050020014800F057B80000E3
:1007F00004060020014800F051B80000C4060020A3
:10080000014800F04BB8000064060020014800F0E9
:1008100045B80000FC07002001681823CAB2103A4E
:10082000B2FBF3F2054B6FF30901032A9B5CC3652E
:1008300000D9091D8165084670470000763D000813
:1008400010B5014600208B698A6A4FF0C07453B11D
:10085000B3F5005F15D072B1012A0CD0022A0AD07C
:10086000032A09D104E01AB1012A06D0022A03D1D1
:10087000C96AC90100D5012010BDC96AA142FAD0D8
:1008800010BD002AF7D0012AF2D0022AF3D0032AA1
:10089000F3D010BD704772B6FEE700002DE9F843B3
:1008A00004464FF00009CDF8009063484FF416510C
:1008B000A56D0068B0FBF1F72E6894F85C10082075
:1008C00000FA01F131420FD021680A6852070BD5B6
:1008D0000A6822F004020A6094F85C108840A8605C
:1008E000606D40F00100606594F85C104FF0010805
:1008F00008FA01F0304208D021684969090604D598
:10090000A860606D40F00200606594F85C100420FF
:100910008840304208D021680968890704D5A8605A
:10092000606D40F00400606594F85C101020884011
:10093000304218D021680968090714D5A8602068DA
:100940000168490304D50068000308D5A16C07E0DD
:100950000168C90503D4016821F008010160216C18
:1009600009B12046884794F85C1020208840304226
:1009700031D021680968C9062DD5A86094F83500E2
:1009800005282068016806D0490347D500680003A0
:100990001DD4616C1CE021F01601016020684169E2
:1009A00021F080014161206C08B9A06C20B1206861
:1009B000016821F00801016094F85C103F20884034
:1009C000A86084F8358084F83490216D1FE0E16BD5
:1009D00009B120468847606D00282BD0606DC007A4
:1009E00014D0052084F835002068016821F0010149
:1009F00001600098401C0090B84203D8206800684D
:100A0000C007F6D184F8358084F83490E16C002971
:100A100010D001B02046BDE8F04308470168C90581
:100A2000D5D4016821F01001016084F8358084F884
:100A30003490CCE7BDE8F883180000202DE9F041A0
:100A4000044600F063F906465CB1022084F83500E4
:100A5000002584F834502068016821F0010101600C
:100A60000DE00120BDE8F08100F050F9801B052861
:100A700005D920206065032084F83500F2E720685E
:100A80000068C007F0D12268116820480140D4E90D
:100A900001031843D4E90336334318436369184309
:100AA000A3691843E3691843236A18430843616A3A
:100AB000042903D1D4E90B131943084310602068BB
:100AC0004069666A20F0070130460E43012704287A
:100AD0000CD1A06A0643E06A40B12046FFF7B0FEA1
:100AE00020B14020606584F83570BAE7206846611F
:100AF0002046FFF791FE94F85C203F2191408160F1
:100B0000656584F835700020ACE700003F8010F088
:100B10002DE9F84FDFF8BCA10022012503264FF094
:100B20000F090AF1040BAAF1040E00BF0B6805FAC5
:100B300002F42340A34270D10F7907F00307012F7D
:100B400001D0022F16D187684FEA420806FA08FC46
:100B500027EA0C07D1F80CC00CFA08FC4CEA070C89
:100B6000C0F808C04768A7430C79C4F30014944048
:100B70003C4344600C79E443A4070AD0C4684FEABC
:100B8000420C06FA0CF7BC438F6807FA0CF72743B0
:100B9000C7600C7904F00304022C12D1D40800EBD6
:100BA000840CDCF820405707FF0E09FA07F824EA06
:100BB0000804D1F8108008FA07F848EA0408CCF8CD
:100BC000208004684FEA420C06FA0CF7BC430F7908
:100BD00007F0030707FA0CF7274307604C6814F483
:100BE000403F70D03C4C276847F48047276024681A
:100BF00022F0030704F480440094384C07EB040C03
:100C0000DCF8084897074FEA177809FA08F7BC4359
:100C1000334FB84202D1002724E054E0314FB842AC
:100C200001D101271EE0304FB84201D1022719E05F
:100C30002E4FB84201D1032714E02D4FB84201D105
:100C400004270FE02B4FB84201D105270AE02A4FB5
:100C5000B84201D1062705E0284FB84201D1072745
:100C600000E0082707FA08F72743CCF80878DAF8F5
:100C700000405746D1F804C09C435FEACC2C00D515
:100C80001C433C60DBF800405F46D1F804C09C4345
:100C90005FEA8C2C00D51C433C60DEF800407746B0
:100CA000D1F804C09C435FEA8C3C00D51C433C60F7
:100CB000084F083F3C68D1F804C09C435FEACC3C35
:100CC00000D51C433C60521C102AFFF42FAFBDE836
:100CD000F88F0000083C01404438024000300140D9
:100CE000000002400004024000080240000C0240E4
:100CF000001002400014024000180240001C024094
:100D00000AB1816170470904FBE70000014880686F
:100D1000704700000C0000200248816802781144EE
:100D2000816070470C0000200B4810B5016841F449
:100D300000710160016841F480610160016841F463
:100D400080710160032000F095F80F2000F006F894
:100D500000F04AF8002010BD003C024030B50546C6
:100D60001C4887B00024016841F40031016000682C
:100D700006A900F40030009001A800F027F900F067
:100D800055F915494000B0FBF1F11548134A491EC9
:100D9000026040F2E732C0E90324C0E90114846133
:100DA00000F0AEFB040012D10D4800F017FC040067
:100DB0000DD1192000F030F8102D07D2002229465D
:100DC000192000F037F80748056000E0012407B05B
:100DD000204630BD4438024040420F0000440140EC
:100DE0005C080020100000200A4808B5016841F4A2
:100DF00080410160006800F4804000900548001FB9
:100E0000016841F080510160006800F0805000905E
:100E100008BD000044380240002809DB00F01F0232
:100E2000012191404009800000F1E020C0F800114C
:100E300070470000F0B40E4B1B680C46C3F302234E
:100E4000C3F10705042D00D90425191D072901D276
:100E5000002300E0DB1E012606FA05F1491E2140B1
:100E600099409E40761E16403143F0BC02F0B0B966
:100E70000CED00E0064900F0070208684FF6FF039A
:100E8000184040EA0220034A1043086070470000FF
:100E90000CED00E00000FA052DE9F0470E460500D4
:100EA00065D0DFF81481D8F80000F7B200F0070031
:100EB000B04207D288F80070D8F8000000F00700B0
:100EC000B04254D128683D4C810712D5400703D564
:100ED000206840F4E05020602878000703D520689F
:100EE00040F4604020602068A96820F0F0000843CA
:100EF00020602878C0072DD030496868083901285B
:100F000012D0022813D0032811D0096889070029BC
:100F10002DDA216821F0030101432160FFF7F6FE7D
:100F2000814641F2883A0EE009688903EFE70968D3
:100F30008901ECE7FFF7EAFEA0EB0901514502D970
:100F40000320BDE8F0872068696800F00C00B0EB72
:100F5000810FEFD1D8F80010404601F00701B142EF
:100F600007D90770006800F00700B04201D00120E7
:100F7000E7E72878400705D52068E96820F4E050C5
:100F8000084320602878000706D52068296920F4E6
:100F9000604040EAC100206000F058F82168084A2B
:100FA000C1F30311515CC840064908600648006857
:100FB000FFF7D4FE0020C4E7003C0240083802409E
:100FC0007E3D000818000020100000200F22026063
:100FD0000C4A136803F003034360136803F0F00343
:100FE0008360136803F4E053C36012684FF4E05366
:100FF00003EAD20202610448006800F007000860BA
:101000007047000008380240003C0240044805498F
:1010100000680968044AC1F38221515CC8407047E6
:1010200018000020083802408E3D00080448054999
:1010300000680968044AC1F34231515CC8407047F6
:1010400018000020083802408E3D0008154810B5F1
:10105000006810F00C02144813D04110042A0FD07D
:10106000082A0ED10F4C241F2268236802F03F0289
:101070005B0207D52068C0F38810A0FB010106E0E1
:10108000084610BD2168C1F38811A1FB00010023AF
:10109000FFF798F82168C1F30141491C4900B0FBF2
:1010A000F1F010BD083802400024F4002DE9F84F9B
:1010B00004006ED02078DFF84C93C007A9F1040536
:1010C0004AD009F104000168C1F38101012908D067
:1010D0000068C0F3810002280AD1D9F8000040025C
:1010E00006D52868800337D560680028E1D033E052
:1010F0006068B0F5803F10D0B0F5A02F286810D000
:1011000020F480302860286820F4802028606068FF
:10111000A8B1FFF7FBFD06460DE0286840F48030DB
:10112000F4E740F480202860F7E700BFFFF7EEFD0A
:10113000801B642873D828688003F7D50CE0FFF77C
:10114000E5FD064605E000BFFFF7E0FD801B6428D3
:10115000F0D828688003F7D42078DFF8AC828007C5
:101160004FF0000A3ED5A748001D016811F00C0F92
:1011700008D00068C0F3810002280BD1D9F8000024
:10118000400207D42868800716D5E068012800D1FE
:1011900012E033E1E068B8B10120C8F80000FFF7C1
:1011A000B5FD064605E000BFFFF7B0FD801B022835
:1011B000C0D828688007F7D52868216920F0F80092
:1011C00040EAC10028600DE0C8F800A0FFF79EFDCE
:1011D000064604E0FFF79AFD801B02281FD8286806
:1011E0008007F7D42078000722D5864F87486169A9
:1011F000703771B101210160FFF788FD064604E0F8
:10120000FFF784FD801B022809D838688007F7D5CE
:101210000EE0C0F800A0FFF779FD064605E082E089
:10122000FFF774FD801B02287DD838688007F7D44B
:101230002078400768D5DFF8CCB100270BF13C0BD4
:10124000DBF80000C0000BD4DBF8001041F0805147
:10125000CBF80010DBF80000012700F08050009070
:101260006B4E3068C00510D4306840F48070306038
:10127000FFF74CFD009005E0FFF748FD0099401A8C
:10128000022850D83068C005F6D55E4EA0686C368E
:1012900001280FD00528306810D020F00100306000
:1012A000306820F004003060A068B8B1FFF72EFD70
:1012B00000900FE0306840F00100F4E740F00400D7
:1012C0003060F7E7FFF722FD0099411A41F28830BC
:1012D000814266D830688007F4D50EE0FFF716FD2E
:1012E000009007E0FFF712FD0099411A41F28830A3
:1012F000814256D830688007F4D42FB1DBF8001053
:1013000021F08051CBF80010A069C8B33D49091DF8
:101310000968C1F3810102294AD00228504607D04A
:10132000C8F8600000E03CE0FFF7F0FC04463BE05A
:101330004746C8F86000FFF7E9FC064605E000BF35
:10134000FFF7E4FC801B02282BD828688001F7D423
:10135000D4E907010843A16A2E4A490802EB01417A
:10136000626A41EA8211084394F82C1040EA016154
:10137000C9F8001001203866FFF7C8FC044606E0F3
:101380003EE000BFFFF7C2FC001B022809D8286816
:101390008001F7D534E000BFFFF7B8FC001B02283E
:1013A00002D90320BDE8F88F28688001F4D427E033
:1013B0000128F7D0D9F80000E26900F480019142D9
:1013C0001CD1226A00F03F01914217D147F6C0714B
:1013D000626A0140B1EB821F10D1A26A4FF0FF3365
:1013E00000F4403103EB5202B1EB024F06D194F806
:1013F0002C1000F07060B0EB016F01D00120D1E73C
:101400000020CFE70438024000004742800E4742E8
:10141000007000400000FFFF7047704710B590F863
:101420003C20012A22D0012280F83C20CA688C6826
:1014300022F4407222434C6822F4806222430C68FA
:1014400022F4006222430C6922F4805222434C6948
:1014500022F400522243C969002322F480420A4345
:1014600001684A6480F83C30002010BD022010BDA5
:1014700070B590F83C20012A32D0012480F83C401D
:10148000022280F83D2003685A689D6822F07006A9
:101490000A6832435A60134B02689A4214D0B2F180
:1014A000804F11D0104B9A420ED0104B9A420BD065
:1014B0000F4B9A4208D00F4B9A4205D00E4B9A42DE
:1014C00002D00E4B9A4204D1496825F0800319439B
:1014D000916080F83D40002180F83C10084670BDC6
:1014E000022070BD000001400004004000080040E0
:1014F000000C004000040140004001400018004082
:1015000010B5040003D094F83D0010B107E00120AD
:1015100010BD002084F83C00204600F01FF8022097
:1015200084F83D00211D206801F01EFC012084F894
:10153000460084F83E0084F83F0084F8400084F8B8
:10154000410084F8420084F8430084F8440084F8A1
:10155000450084F83D00002010BD000008B51B4A7E
:1015600001681B4891420ED1016841F010010160F1
:101570000068002200F0100000900A213620FFF7DA
:1015800059FC362010E0134A914211D1016841F014
:10159000200101600068002200F020000090092175
:1015A0003720FFF747FC3720BDE80840FFF734BC81
:1015B0000948814209D10648001D016841F4802193
:1015C0000160006800F48020009008BD0010004019
:1015D00040380240001400400048014090F83D109F
:1015E000012901D001207047022180F83D100168D7
:1015F000CA6842F00102CA6000681149884214D0EA
:10160000B0F1804F11D00F4988420ED00E49884268
:101610000BD00E49884208D00D49884205D00D49AB
:10162000884202D00C49884204D1816801F0070148
:10163000062903D0016841F00101016000207047D4
:10164000000001400004004000080040000C004081
:101650000004014000400140001800402DE9F04125
:101660000D46040003D094F83D0018B108E00120B5
:10167000BDE8F081002084F83C00204600F040F8EE
:10168000022084F83D002068816844F207029143FB
:101690008160211D206801F067FB226890689169D4
:1016A000166A2B68AF69034340F20330814341EA75
:1016B0000721A868EF6908434FF6FC418843E968B1
:1016C00040EA0720014328692F6A000140EA0730F9
:1016D000084369686D6926F0AA0646EA051529439C
:1016E00093602268906154F8460B0162012004F86F
:1016F0001F09E0752076E0762077A0750020B7E717
:1017000070B586B0044614216846FEF793FD44493F
:1017100023680024424A103902254248B3F1804F21
:1017200019D0414EB34245D1106840F0020010601C
:10173000106800F002000590086840F0040008609E
:101740000868694600F004000590C0200090CDE9CB
:101750000154364861E0136843F0010313601268D6
:1017600002F0010205920A6842F001020A600A686A
:1017700002F0010205920A6842F002020A6009685A
:10178000012601F0020105914FF400410091CDE9DD
:101790000154CDE903466946FFF7BAF908200090E5
:1017A000CDE90154CDE9034669462148FFF7B0F978
:1017B00006B070BD1F4EB34217D1106840F0040050
:1017C0001060106800F004000590086840F0080000
:1017D00008600868694600F0080005904FF4405022
:1017E0000090CDE90154144817E0144EB342DFD104
:1017F000136843F008031360126802F008020592B0
:101800000A6842F001020A60096801F001010591CD
:1018100003210091CDE901546946CDE90345C5E7AF
:10182000403802400000024000040040000802402E
:101830000004024000080040000C0240000C004080
:1018400070B590F83E60044690F83F5090F84230F2
:1018500090F84320022021B104290ED0012E1BD183
:1018600014E0012E18D1012B16D184F83E0084F823
:10187000420001220021206820E0012D0CD1012A24
:101880000AD184F83F0084F8430014E0012D03D10D
:10189000012B01D1012A01D0012070BD84F83E0046
:1018A00084F83F0084F8420084F8430001220021BC
:1018B000206801F0C5FA01220421206801F0C0FA75
:1018C0002068016841F001010160002070BD70478F
:1018D0002DE9F04104460068C66805694FF000072D
:1018E000A90713D5B10711D5F91E01610120207791
:1018F000206880698007204602D0FFF7E8FF04E0F7
:1019000000F0A8F8204600F0C3F92777680716D53D
:10191000700714D521686FF0040008610220207759
:101920002068806910F4407F204602D0FFF7CFFF87
:1019300004E000F08FF8204600F0AAF92777280786
:1019400015D5300713D521686FF008000861042011
:1019500020772068C0698007204602D0FFF7B7FFD4
:1019600004E000F077F8204600F092F92777E806C7
:1019700016D5F00614D521686FF010000861082014
:1019800020772068C06910F4407F204602D0FFF71E
:101990009EFF04E000F05EF8204600F079F927771A
:1019A000E80708D0F00706D021686FF00100086151
:1019B000204600F0D3F9280608D5300606D5216860
:1019C0006FF0800008612046FFF726FD680608D505
:1019D000700606D521686FF040000861204600F0CF
:1019E0000DFAA8060AD5B00608D521686FF02000C8
:1019F00008612046BDE8F041FFF70FBDBDE8F0816A
:101A000010B586B0044614216846FEF713FC0E4953
:101A10002068884216D10D480021026842F0100269
:101A20000260006800F0100005904FF4D440009070
:101A30000220CDE901010120CDE9031069460448E7
:101A4000FFF766F806B010BD0000014030380240D4
:101A500000100240704770B5044690F83C00002624
:101A60000D4601280FD0012084F83C006AB1042AF9
:101A70001DD0082A2FD00C2A3FD00126002084F840
:101A80003C00304670BD022070BD206801F0E6F9D0
:101A90002068816941F0080181612068816921F035
:101AA00004018161206881692A69114311E020687D
:101AB00001F004FA2068816941F4006181612068C5
:101AC000816921F480618161206881692A6941EA24
:101AD00002218161D2E7206801F026FA2068C169FD
:101AE00041F00801C1612068C16921F00401C161B0
:101AF0002068C1692A69114311E0206801F048FAA1
:101B00002068C16941F40061C1612068C16921F4A4
:101B10008061C1612068C1692A6941EA0221C1610D
:101B2000ACE710B5040003D094F83D0010B107E015
:101B3000012010BD002084F83C00204600F01EF873
:101B4000022084F83D00211D206801F00DF90120DC
:101B500084F8460084F83E0084F83F0084F8400092
:101B600084F8410084F8420084F8430084F844007B
:101B700084F8450084F83D00002010BD2DE9F84FA1
:101B8000054600683D49884276D13D4800260168F7
:101B900041F00101016000683B4C00F00100009041
:101BA000384820604FF04067C4E901764FF4006880
:101BB0004FF4806AC4F81480C4E9036A4FF40059F2
:101BC000C4E90696266220466662FEF737FF08B132
:101BD000FEF761FE6C62A5632B4C2A486034183016
:101BE0002060C4E90176C4F81480C4E9036AC4E93A
:101BF0000696266220466662FEF720FF08B1FEF7D1
:101C00004AFEAC62A563204C1E48C0347830206088
:101C1000C4E90176BB4604F10C01574681E8C003D4
:101C2000E661266220466662FEF708FF08B1FEF70D
:101C300032FEEC62A563154C124804F10C014830E9
:101C40002060C4E901B681E8C003E661266220464F
:101C50006662FEF7F3FE08B1FEF71DFE2C63AC636F
:101C60006C6300220F211920A563FFF7E3F8BDE89C
:101C7000F84F1920FFF7D0B8BDE8F88F00000140F9
:101C80004438024028640240A4050020C406002015
:101C90007047000010B50446022249B104290ED055
:101CA000082913D094F84100012816D0012010BD56
:101CB00094F83E000128F9D184F83E200FE094F812
:101CC0003F000128F2D184F83F2008E094F840005A
:101CD0000128EBD184F8402001E084F84120012262
:101CE000206801F0ADF816492068164A884201D0F4
:101CF000904203D1436C43F400434364206888421C
:101D000013D0B0F1804F10D00F4988420DD00F4949
:101D100088420AD00E49884207D0904205D00D492A
:101D2000884202D00C49884204D1816801F0070141
:101D3000062903D0016841F001010160002010BDB7
:101D40000000014000040140000400400008004081
:101D5000000C0040004001400018004070B50446EF
:101D60001D4888B0844211D11C491D4800F03EFA3C
:101D70001B481C49CC3000F039FA1B491B4800F0C5
:101D800035FA1A481A49CC3000F030FA1948844222
:101D900017D1164A00216B4604ADF83202EB8100E0
:101DA0004068C61C43F82160A03045F82100491C5A
:101DB0000429F3DB2946184600F072F9684600F062
:101DC00037FA0D492068884204D108B0BDE8704058
:101DD000FEF7A2BF08B070BDCC040020AC03002009
:101DE000C0000020F40300203C0400205802002022
:101DF000840400201405002000440140704770B5A1
:101E0000040004D094F84100002510B106E0012040
:101E100070BD84F84050204600F024F8242084F857
:101E200041002068C16821F40051C160204601F0E2
:101E3000FFF82068016921F490410161206841693F
:101E400021F02A0141612068C16841F40051C1605C
:101E50006564202084F8410084F842006563002016
:101E600070BD0000F0B587B0064614216846FEF745
:101E7000E1F93D48D6F800C000253C490222032381
:101E800007273B4C844536D138481430D0F800C081
:101E90004CF0100CC0F800C0006800F01000059075
:101EA000086840F0010008600868694600F0010019
:101EB000059058028DE82500CDE903372046FEF74E
:101EC00027FE2D4C2B4820604FF0006060604020C2
:101ED000C4E902050001C4E90405A561E5612562C4
:101EE00020466562FEF7AAFD08B1FEF7D4FCB46394
:101EF000A66307B0F0BD1D48204E1030B44515D183
:101F0000066846F400360660006800F4003005906C
:101F1000086840F0010008600868694600F00100A8
:101F200005900C208DE82500204618E0144CA445AF
:101F3000DFD1046844F480240460006800F4802049
:101F40000590086840F0080008600868694600F0DD
:101F5000080005904FF440708DE825000948CDE950
:101F60000337FEF7D5FDC4E70010014030380240CA
:101F700000000240B8640240FC070020004400401A
:101F800000480040000C02402DE9F843044690F858
:101F90004100984616460D46202802D00220BDE892
:101FA000F88385B17EB100206064212084F841006F
:101FB000FEF7ACFEA6848146E684A0682027B0F533
:101FC000805F02D003E00120E9E7206910B12E46CE
:101FD00000250EE000260CE08021204601F0AEF83E
:101FE000A8B9C6B116F8010B21684860E08C401E04
:101FF000E084E08C4B464FF00002CDF800800028D2
:10200000EAD14FF04001204601F098F840B184F841
:1020100041700320C3E735F8020BC0F30800E3E783
:1020200084F841700020BAE7FEE701F027BE000007
:1020300010B500211348FFF72DFE04211148FFF7CA
:1020400029FE08210F48FFF725FE0C210D48FFF758
:1020500021FE3C210C48FFF7F3FB3C210B48FFF726
:10206000EFFB3C210A48FFF7EBFB3C210948FFF757
:10207000E7FB0948FFF7B2FABDE810400748FFF751
:10208000ADBA000064030020AC030020F40300207C
:102090003C04002084040020CC040020140500200F
:1020A00010B504460868D0ED0A0A9FED4D0A20EEEF
:1020B000801ADFED4C0A61EE201AB5EE001A21EE0F
:1020C000812AF3EE0E1AC2EE212AB2EE0A2AC2EEDD
:1020D000823ADFED452A226883EEA23A13EE100A17
:1020E000C2F845004868626890ED0A3A23EE003A6B
:1020F00023EE203A63EE013A83EEA13AC3EE023AB0
:1021000083EEA23A13EE100AC2F845008868A2686E
:1021100090ED0A3A23EE003A23EE203A63EE013ABC
:1021200083EEA13AC3EE023A83EEA23A13EE100A0E
:10213000C2F84500C868E16890ED0A3A23EE000A4B
:1021400020EE200A60EE010A80EEA10AC0EE020A2B
:1021500080EEA20A10EE100AC1F845002068D0F8FF
:10216000151000EE901AD0F8451000EE101A00F08D
:1021700057FC216810EE100AC1F81D006068D0F805
:10218000151000EE901AD0F8451000EE101A00F06D
:1021900047FC616810EE100AC1F81D00A068D0F875
:1021A000151000EE901AD0F8451000EE101A00F04D
:1021B00037FCA16810EE100AC1F81D00E068D0F8E5
:1021C000151000EE901AD0F8451000EE101A00F02D
:1021D00027FCE16810EE100AC1F81D0010BD0000D8
:1021E000D80F49408FC2753D17B7D1380A68526A77
:1021F000DFED0C0A00EE102A0B4BB8EE400A30EE71
:10220000600A10EE102A80ED000A9A4205DA096889
:1022100047F230524A6200F0C3BB9FED040A80EDE2
:10222000000A70470060EA4600401C4600000000BB
:1022300070B504460068724E724DD0F81D0000EE75
:10224000100AB5EEC00AF1EE10FA06DC00EE100A34
:10225000B5EEC00AF1EE10FA0FD10122102130467E
:10226000FEF74EFD002208213046FEF749FD2068AA
:10227000D0F81D0000EE100A10E0002210213046B8
:10228000FEF73EFD012208213046FEF739FD2068A9
:10229000D0F81D0000EE100AB1EE400A2968BCEE2D
:1022A000C00A10EE100A48636068D0F81D0000EE06
:1022B000100AB5EEC00AF1EE10FA06DC00EE100AC4
:1022C000B5EEC00AF1EE10FA0FD1002220213046FF
:1022D000FEF716FD012240213046FEF711FD606831
:1022E000D0F81D0000EE100A10E001222021304637
:1022F000FEF706FD002240213046FEF701FD606832
:10230000D0F81D0000EE100AB1EE400A2968BCEEBC
:10231000C00A10EE100A8863A0683B4ED0F81D007A
:1023200000EE100AB5EEC00AF1EE10FA06DC00EE7F
:10233000100AB5EEC00AF1EE10FA0FD101224021C9
:102340003046FEF7DDFC002220213046FEF7D8FCA7
:10235000A068D0F81D0000EE100A10E00022402115
:102360003046FEF7CDFC012220213046FEF7C8FCA6
:10237000A068D0F81D0000EE100AB1EE400A2968EE
:10238000BCEEC00A10EE100AC863E0681F4ED0F819
:102390001D0000EE100AB5EEC00AF1EE10FA06DCE0
:1023A00000EE100AB5EEC00AF1EE10FA0FD10122CC
:1023B00002213046FEF7A4FC002204213046FEF73D
:1023C0009FFCE068D0F81D0000EE100A10E000222B
:1023D00002213046FEF794FC012204213046FEF72C
:1023E0008FFCE068D0F81D0000EE100AB1EE400A44
:1023F0002968BCEEC00A10EE100A086470BD000027
:102400000010024064030020000C0240000802405B
:10241000194808B5016841F4800101600068002294
:1024200000F48000009011463920FEF703FD3920AA
:10243000FEF7F2FC002211463A20FEF7FBFC3A20A0
:10244000FEF7EAFC002211463C20FEF7F3FC3C209C
:10245000FEF7E2FC002211464520FEF7EBFC45208A
:10246000FEF7DAFC002211464620FEF7E3FCBDE849
:1024700008404620FEF7D0BC303802402DE9F04F2E
:1024800087B014216846FDF7D5FE4748002401684F
:1024900041F010010160016801F01001059101682F
:1024A00041F004010160016801F004010591016837
:1024B00041F080010160016801F08001059101682F
:1024C00041F001010160016801F00101059101681D
:1024D00041F002010160016801F00201059101680B
:1024E00041F0080101600068304F00F008000590DD
:1024F000002278213846FEF703FCDFF8B480002282
:1025000016214046FEF7FCFBDFF8A8900022502180
:102510004846FEF7F5FBDFF8A0A04FF46056002216
:1025200031465046FEF7ECFBDFF890B00022602108
:102530005846FEF7E5FB782000900125CDE90154CF
:10254000694638460394FEF7E3FA16200090CDE979
:102550000154694640460394FEF7DAFA5020009091
:10256000CDE90154694648460394FEF7D1FA009636
:10257000CDE90154694650460394FEF7C9FAA80311
:10258000CDE90004694650460294FEF7C1FA602086
:102590000090CDE90154694658460394FEF7B8FA15
:1025A00007B0BDE8F08F0000303802400010024054
:1025B000000802400000024000040240000C0240FB
:1025C0000B4810B50949016000214FF6FF724160C8
:1025D000C0E9021201618161FEF792FF002803D079
:1025E000BDE81040FEF757B910BD0000004801409B
:1025F0005C05002010B592B000240F941C216846A1
:102600001094FDF717FE202107A8FDF713FE2C48B4
:102610002A4901602921C0E9011440F2E731C0E9EB
:10262000031444618461FFF77CFA08B1FEF733F9C3
:102630000F940FA922481094FEF71AFF08B1FEF775
:102640002AF96020CDE900040294039404940594CF
:10265000002269461A480694FFF7FDF908B1FEF713
:102660001AF9042269461648FFF7F5F908B1FEF792
:1026700012F9082269461248FFF7EDF908B1FEF792
:102680000AF90C2269460E48FFF7E5F908B1FEF792
:1026900002F90794089409944FF400500A94CDE984
:1026A0000B4007A906480E94FEF7B8FE08B1FEF7E6
:1026B000F2F80348FFF7A4F912B010BD0000014082
:1026C0006403002010B58CB024216846FDF7B2FDEC
:1026D0000024154809944FF080410A94C0E9001481
:1026E0004FF6FF71C0E90241046184610320CDE926
:1026F00000040120CDE902040494CDE905400794CB
:10270000694609480894FEF7A9FF08B1FEF7C3F827
:10271000099409A904480A94FEF7AAFE002801D0EA
:10272000FEF7B9F80CB010BDAC03002010B58CB0AA
:1027300024216846FDF77EFD0024164809941449BB
:102740000A94C0E900144FF6FF71C0E90241046128
:1027500084610320CDE900040120CDE90204049442
:10276000CDE90540079469460A480894FEF776FFCC
:1027700008B1FEF790F8099409A906480A94FEF7F3
:1027800077FE002801D0FEF786F80CB010BD0000DF
:1027900000040040F403002010B58CB024216846EA
:1027A000FDF748FD00241648099414490A94C0E92D
:1027B00000144FF6FF71C0E90241046184610320F7
:1027C000CDE900040120CDE902040494CDE90540DF
:1027D000079469460A480894FEF740FF08B1FEF7DF
:1027E0005AF8099409A906480A94FEF741FE002800
:1027F00001D0FEF750F80CB010BD000000080040FA
:102800003C04002010B58CB024216846FDF712FD71
:1028100000241648099414490A94C0E900144FF69C
:10282000FF71C0E90241046184610320CDE9000425
:102830000120CDE902040494CDE9054007946946DE
:102840000A480894FEF70AFF08B1FEF724F8099435
:1028500009A906480A94FEF70BFE002801D0FEF7EE
:102860001AF80CB010BD0000000C004084040020D9
:102870001CB500240E4800940C4901940160A72166
:10288000C0E9011463218461C160FEF739FE08B11B
:10289000FEF701F80094694605480194FEF7E8FD4B
:1028A000002801D0FDF7F7FF1CBD0000001000401C
:1028B000CC0400201CB500240E4800940C4901945F
:1028C0000160A721C0E9011440F2E7318461C160D1
:1028D000FEF716FE08B1FDF7DEFF009469460548D5
:1028E0000194FEF7C5FD002801D0FDF7D4FF1CBD03
:1028F00000140040140500200C4810B50A4901607E
:102900004FF4E1314160002181600C22C160C0E9D7
:1029100004128161C161FFF772FA002803D0BDE89B
:102920001040FDF7B8BF10BD001001402407002083
:102930000C4810B50A4901604FF4E13141600021B3
:1029400081600C22C160C0E904128161C161FFF79E
:1029500056FA002803D0BDE81040FDF79CBF10BD1B
:10296000004400406C0700200C4810B50A49016083
:102970004FF4E1314160002181600C22C160C0E967
:1029800004128161C161FFF73AFA002803D0BDE863
:102990001040FDF780BF10BD00480040B407002084
:1029A000D0ED080AC0ED090AD0ED073AC0ED083AAB
:1029B00090ED063A80ED073AD0ED052AC0ED062AE3
:1029C00090ED042A80ED052AD0ED031AC0ED041A1B
:1029D00090ED021A80ED031A90ED014A80ED024A53
:1029E00090ED000A80ED010A30EE000A30EE040A94
:1029F00030EE010A30EE210A30EE020A30EE220AF1
:102A000030EE030A30EE230A30EE200AF2EE040A1A
:102A100080EE201A80ED0A1A7047FEE7FEE70000FC
:102A200070B5D0B1D0F83D20C0F84120D0F8393091
:102A300010EE901AC0F83D30C0F8151010EE101AC4
:102A400030EEC00AC0F8191010EE101AC0F8391094
:102A500004782CB1012C6FD179E09FED6C0A70BD28
:102A600050F8012F00EE101A00EE902A20EE800A96
:102A700000EE901A10EE104A0462426A00EE102A2C
:102A8000426801EE102A01EE200A00EE903A10EEA4
:102A9000102A00EE101A4262056B30EE600A4563A0
:102AA000C56A10EE101A0563C162836800EE101A41
:102AB00000EE903A20EE800A10EE103A00EE102A56
:102AC00083620169401E00EE901AB4EEE00AF1EE56
:102AD00010FA02DDC0F8251011E000EE901A00EEA9
:102AE000102AF1EE600AB4EEE00AF1EE10FA06D216
:102AF00000EE101AB1EE400A10EE101AEAE7D0F814
:102B0000251000EE104A00EE901A70EE200A00EE3A
:102B1000103A30EE800A10EE102AC0F81D2000EEA8
:102B2000102AD0F80D1000BF00EE901AB4EEE00AA3
:102B3000F1EE10FA08DC59E063E000BF00EE101A75
:102B4000B1EE400A10EE101AC0F81D1059E000EE68
:102B5000101A00EE903A50F8014FB0EE001A70EEE5
:102B6000600A00EE104A20EE800A10EE104A00EED5
:102B7000101A0462456800EE905A60EE800A00EE7A
:102B8000101A10EE905A00EE903A4562066B00EE75
:102B9000C10A00EE902A4663C66A066330EE200A38
:102BA00010EE101AC162826800EE101A00EE902A30
:102BB00020EE800A00EE905A10EE101A00EE104A35
:102BC000816270EE200A00EE101A50F81C1F70EEA1
:102BD000800A00EE101A30EE800A10EE102A40F83B
:102BE000102900EE102A50F80D199DE700EE901AFA
:102BF00000EE102AF1EE600AB4EEE00AF1EE10FAEF
:102C00009CD3D0F81D0000EE100A70BD000000003B
:102C100000281BD00021C0F84110C0F83D10C0F8BA
:102C20003910C0F83510C0F83110C0F82D10C0F8B8
:102C30002910C0F82510C0F82110C0F81D1040F868
:102C4000151F416080F83810016341637047002808
:102C50001AD0002A18D000F8011B116801605168D1
:102C600041609168816010EE101AC16010EE901AF8
:102C70000161002141630163C162C16181624162FE
:102C800001620164C1638163704770477047704798
:102C900030B593B030216846FDF7CCFA14210CA86A
:102CA000FDF7C8FA1D480025016841F08051016018
:102CB000006800F0805011901948016841F480418B
:102CC00001600068022400F480401190012000900F
:102CD000000401908001CDE9064004200890A8205E
:102CE000CDE9090407200B906846FEF7DFF908B12B
:102CF00072B6FEE70CA90F2081E831004FF4A05016
:102D00000F904FF48050109005210CA8FEF7C4F8E6
:102D1000002801D072B6FEE713B030BD4038024043
:102D2000007000400248016841F470010160704782
:102D300088ED00E010B50448FEF7CAFDBDE810407C
:102D40000248FEF7C5BD0000640300205C080020B7
:102D50000148FEF7BDBD0000CC0400200148FEF78D
:102D6000B7BD000014050020F0B50268294C2A4DBB
:102D70002A4E2B4F2B4B4FF0804CA04209D0604580
:102D800007D0A84205D0B04203D0B84201D0984243
:102D900004D122F0700E4A6842EA0E02A0421BD013
:102DA000604519D0A84217D0B04215D0B84213D010
:102DB000984211D01C4DA8420ED01C4DA8420BD0F9
:102DC0001B4DA84208D01B4DA84205D01A4DA84261
:102DD00002D01A4DA84203D122F44075CA682A4392
:102DE0004D6922F080022A4302608A68C2620A6842
:102DF0008262A04201D0984201D109690163012198
:102E000041610169C90703D0016921F00101016134
:102E1000F0BD000000000140000400400008004038
:102E2000000C00400004014000400140004401400B
:102E30000048014000180040001C004000200040F5
:102E400010B501F01F030121046A99408C4304620C
:102E5000016A9A401143016210BD0000F0B5036A97
:102E6000026A22F00102026242688469124E24F072
:102E700073050C682C4323F002058B682B430D4D22
:102E8000A84201D0B04205D123F00807CB683B43EC
:102E900023F00403A84201D0B04205D14D6922F4C9
:102EA000407215438A692A434260846149684163DC
:102EB0000362F0BD0000014000040140F0B5026A69
:102EC000036A23F010030362436884690D6824F4E5
:102ED000E64444EA05248D6822F0200242EA051205
:102EE0000F4D104EA84201D0B04206D1CF6822F05B
:102EF000800242EA071222F04002A84201D0B0420A
:102F000007D14D6923F4406343EA85038D6943EAA1
:102F1000850343608461496881630262F0BD0000FB
:102F20000000014000040140F0B5026A036A23F486
:102F3000807303624368C46922F4007224F073054D
:102F40000C68124E2C438D6842EA05220E4DA842B1
:102F500001D0B04206D1CF6822F4006242EA0722D3
:102F600022F48062A84201D0B04207D14D6923F417
:102F7000405343EA05138D6943EA05134360C46176
:102F80004968C1630262F0BD0000014000040140D5
:102F900030B5046A026A22F4805202624268C36950
:102FA0000D6823F4E64343EA05238D6824F40054B6
:102FB00044EA0534084DA84202D0084DA84204D185
:102FC0004D6922F4804242EA85124260C361496839
:102FD0000164046230BD00000000014000040140B3
:102FE00001680C3151E8002F22F4907241E800236F
:102FF000002BF5D10168143151E8002F22F00102B5
:1030000041E80023002BF5D1016B012909D10168AA
:103010000C3151E8002F22F0100241E80023002B70
:10302000F5D1202180F84210002101637047000093
:1030300070B5044600680169E26821F4405111430B
:1030400001612169A068E26908436169114308438D
:103050002168CA6849F20C639A430243CA60206837
:103060004169A26921F440711143416131492068ED
:10307000884202D03049884202D1FDF7D7FF01E0F3
:10308000FDF7C4FFE2690023192164253226B2F559
:10309000004F626828D0A0FB0101930F9200FDF75A
:1030A00091F80146B0FBF5F06FF01802504301EBC8
:1030B000800006EB0010B0FBF5F000F0F002B1FB71
:1030C000F5F002EB0012B1FBF5F06FF01803584376
:1030D00001EB800006EB0010B0FBF5F000F00F00F4
:1030E00021681044886070BDA0FB010192185B410B
:1030F000FDF768F80146B0FBF5F00201B1FBF5F011
:103100006FF01803584301EB800006EBC000B0FBE2
:10311000F5F000F0F80002EB4002B1FBF5F0584387
:1031200001EB800006EBC000B0FBF5F000F00700FB
:10313000D6E7000000100140001401402DE9F843DB
:10314000984617460D460446089E24E0701C22D07F
:10315000FDF7DCFDA0EB0800B0421AD8CEB1206824
:10316000C168490717D5802D15D0402D13D00168AF
:10317000C94309070FD40168002540680090204624
:10318000FFF72EFF0820606484F840500120BDE85E
:10319000F8830320FBE72068006835EA000004D0CC
:1031A0000020B842D2D00020F1E70120F9E7FEE785
:1031B0000FB4054B10B503A9044A029800F0EAF8D1
:1031C00010BC5DF814FB0000D93A00081C00002078
:1031D0000907090E002804DB00F1E02080F8001444
:1031E000704700F00F0000F1E02080F8141D7047D8
:1031F00002E008C8121F08C1002AFAD170477047C0
:10320000002001E001C1121F002AFBD1704700001D
:103210002DE9FF5F82B00021DDE90430020DDDF809
:1032200040B0034318D044F61050A2F2FF3242439C
:103230001514119801281FD0A5EB0B00401C5FEA64
:10324000000A4FF000064E4FDFF83891B046504666
:1032500015D5CAF1000413E0119801244AA30128EE
:1032600001D16FEA0B010298119AC0E90031C0E95F
:10327000024206B0BDE8F09FCBF10000DFE7044654
:103280000021404A491842EB0450CDE9001012E0F9
:10329000E00707D032463B4640464946FDF7C4F8B2
:1032A0008046894632463B4610461946FDF7BCF833
:1032B00006460F466410002CEAD1DDE90401DDE981
:1032C0000023BAF1000F06DAFDF7AEF842464B468E
:1032D000FDF7AAF805E0FDF719F942464B46FDF760
:1032E00015F904460E460022284BFDF797F903D83E
:1032F0004FF0FF30014607E00022254B20463146C3
:10330000FCF7EBFFFDF771F9102409E0002C0ADB54
:103310000A220023FCF756FF039B30321A55641E25
:1033200050EA0102F2D1641C039AC4F1110314445F
:10333000119A012A03D0012208430DD10AE0084363
:1033400004D000204FF0110B119072E7A3EB0B0596
:103350006D1E0DE05B4504DD4FF0000205F1010537
:1033600004E003DA4FF00002A5F10105002AECD0D9
:1033700002981199C0E90231C0E9004579E70000DF
:10338000000014400000F03F300000000000F04357
:103390000000E03F2DE9FF4F95B09A46884606466B
:1033A0000025EEE1252877D100242746F94A01219E
:1033B000039400E0044316F8013F203B01FA03F0B8
:1033C0001042F7D130782A2811D06FF02F033078CF
:1033D000A0F13002092A16D8039A44F0020402EB45
:1033E000820203EB42021044761C0390EFE758F888
:1033F000042B0392002A03DA504244F40054039051
:1034000044F00204761C30782E2816D116F8010FED
:1034100044F004042A280DD06FF02F023078A0F178
:103420003003092B09D807EB870302EB4303C718C6
:10343000761CF3E758F8047B761C30786C280FD0A4
:1034400006DC4C2817D068280DD06A2814D104E077
:10345000742810D07A280FD10DE044F400140AE04B
:1034600044F4801401E044F440147278824202D1A2
:1034700004F58014761C761C307866280BD013DC9B
:10348000582877D009DC002875D04528F6D0462882
:10349000F4D047281AD193E118E0632835D0642886
:1034A00079D0652812D18BE1702873D008DC6728A9
:1034B000F1D069286FD06E280DD06F2806D1ACE00E
:1034C00073282CD0752874D0782853D05246179979
:1034D00090476D1C54E1C4F30250022809D0032820
:1034E0000DD0D8F8001004280DD00D6008F10408A4
:1034F00046E1D8F80010EA17C1E90052F6E7D8F81B
:1035000000100D80F2E70D70F0E718F8041B8DF83D
:10351000001000208DF80100EB46012003E058F870
:1035200004BB4FF0FF3061074FF0000102D40DE003
:1035300009F101018946B9420FDA8145F8DB1BF830
:1035400009100029F4D108E009F1010189468142FE
:10355000FADB1BF809100029F6D103985346A0EBBB
:10356000090721463846179A00F080FA284400EBF4
:10357000090507E044E008E10DE01BF8010B5246A5
:1035800017999047B9F10109F7D2534621463846B9
:10359000179AF2E039E00A21C4F302524FF0000B0F
:1035A0000091022A06D058F8040BC117032A09D04B
:1035B0000AE023E008F1070020F00702F2E8020128
:1035C000904605E000B2C117042A01D140B2C117EC
:1035D000002906DA0A460021404261EB02012D2251
:1035E00002E0220504D52B228DF80420012203E0FD
:1035F000E20701D02022F7E7914657E00A2100E0D8
:1036000010214FF0000B00910BE010214FF0000B48
:1036100044F004040827009103E008204FF0000B59
:103620000090C4F30252022A05D058F8040B00217E
:10363000032A08D008E008F1070020F00702F2E8AA
:103640000201904603E080B2042A00D1C0B24FF0DC
:10365000000922072AD53278702A07D0DDF800C089
:103660008CF0100C5CEA0B0C05D00EE040228DF8BB
:103670000420012208E050EA010306D030238DF82F
:1036800004308DF8052002229146009B83F0080348
:1036900053EA0B030AD150EA010201D1620705D5B2
:1036A00030228DF804204FF001097F1E3278582A0D
:1036B00004D039A20C920CAA02920BE03BA2F9E7CB
:1036C0005B46009AFCF77EFD0C9B9B5C029A521EA7
:1036D0000292137050EA0102F2D1029804A9081A6A
:1036E00000F1200B600702D524F4803400E00127AC
:1036F0005F4502DDA7EB0B0000E0002000EB0B01B3
:10370000009003984944401A0390E00306D45346BE
:103710002146179A039800F0A9F90544002706E00E
:1037200001A85246C05D179990476D1C7F1C4F45FC
:10373000F6DBE0030CD553462146179A039800F0B8
:1037400095F9054404E030205246179990476D1CC6
:103750000099481E00900029F5DC08E002980299C3
:1037600052460078491C0291179990476D1CBBF195
:103770000001ABF1010BF1DC5BE100F065F9054400
:10378000761C307800287FF40DAE19B02846BDE8CD
:10379000F08F0000092801003031323334353637DC
:1037A000383961626364656600000000303132338D
:1037B000343536373839414243444546000000002D
:1037C000600700D4062708F1070020F00700F0E8A2
:1037D0000223804603F0004C5FEA0C0001D097A062
:1037E00009E0200501D596A005E0E00701D095A0ED
:1037F00001E0AFF24C001390307823F000436528CD
:103800000CD006DC452809D046281DD047287FD19A
:103810003BE0662818D067287AD136E00021112FC6
:1038200001DB112000E0781CCDE9000104A90CA8FF
:10383000FFF7EEFCDDE90D010C9A4FF0000B07F1EC
:103840000109109200914EE04FF000400097CDE941
:10385000011004A90CA8FFF7DBFCDDE90D020C9BAD
:103860000F994FF0000B91461093009211B9791CFB
:1038700000EB0109B7EB090003D4C0F1FF3B07F1EE
:103880000109A9EB0700019042E0012F00DA0127AE
:103890000021112F01DD112000E03846CDE90001A3
:1038A00004A90CA8FFF7B4FCDDE90D010C9A009106
:1038B0004FF0000BB946109221070FD4009A4A45E9
:1038C00003DA914601E0A9F10109B9F1010F05DD23
:1038D000109AA9F10101515C3029F4D0B84202DA02
:1038E00010F1040F03DA0121CDE9011010E00028E6
:1038F00003DC8344A9EB000102E0411C494500DDE3
:103900008946A0EB0B00401C01904FF00040029054
:10391000200705D40198484502DB4FF0FF300190A5
:1039200000208DF84B0002980DF14B07B0F1004FCD
:1039300025D002200C902B200D90029800280CDA44
:10394000404202902D200D9007E00A210298FCF7DA
:103950008FFC3031029007F8011D0C99481E0C9025
:103960000029F2DC02980028EFD1791E0D9808702A
:10397000307800F0200040F0450007F8020D11A853
:10398000C01BC01D02901398007800B1012000EB0D
:103990000901019801EBE071029801440398401A73
:1039A000401E0390E00306D453462146179A03981D
:1039B00000F05CF805441398007818B15246179946
:1039C00090476D1CE00323D553462146179A039870
:1039D00000F04CF805441BE0BBF1000F07DB00983A
:1039E000584504DD1098179910F80B0001E017995D
:1039F00030205246904701980BF1010B401E05F113
:103A00000105019004D12E205246179990476D1C54
:103A1000B9F10001A9F10109DEDC05E017F8010B9D
:103A20005246179990476D1C0299481E0290002932
:103A3000F4DC53462146179A03989EE62D000000B9
:103A40002B000000200000002DE9F0410446002575
:103A50001E461746880404D405E039462020B047A6
:103A60006D1C641EF9D52846BDE8F0812DE9F041B2
:103A7000044600251E469046C80301D5302700E0C5
:103A80002027880404D505E041463846B0476D1C20
:103A9000641EF9D52846BDE8F08100B587B004A9B9
:103AA000024681EC030A00200090019002900390EE
:103AB0006846FCF74DFE0021684600EB810393ED5C
:103AC000000A02EB8103491C5B68C9B2042983ED3B
:103AD000060AF2D307B000BD13B56423012269467C
:103AE0000248FEF751FA00981CBD00002407002090
:103AF0002DED048B86B0FDF717F9FFF7C9F8FEF737
:103B0000BDFCFEF785FCFEF775FDFEF7DBFDFEF75D
:103B10000DFEFEF741FEFEF775FEFEF7A9FEFEF76D
:103B2000EBFEFEF7C7FEFEF74BFDFEF701FFFEF7CB
:103B30001BFF9FED428AF0EE482A9FED419AB0EEBE
:103B4000492ADFED408A404CF7EE000AF0EE681A91
:103B5000B0EE681AB0EE480A0022E11C2046FEF7DB
:103B600064FA04F1CF01F0EE482AB0EE492AF0EEF3
:103B7000681AB0EE681ADFED350AB0EE480A002286
:103B8000C81EFEF752FA04F29B11F0EE482AB0EE7E
:103B9000492AF0EE681AB0EE681ADFED2D0AB0EE91
:103BA000480A0022C81EFEF740FA04F51976F0EE26
:103BB000482AB0EE492AF0EE681AB0EE681ADFED36
:103BC000250AB0EE480A0022F11C3046FEF72DFA15
:103BD00004F5CC732146A3F1CC0201F54C7000969C
:103BE000FCF7F3FDFEF724FAA346B2461A4890EC20
:103BF000030A1A48FFF751FFDAF82000FCF725FB0B
:103C0000804617488946006AFCF71FFB06460E48A7
:103C10000F46CC30006AFCF718FB04460D46DBF873
:103C20002000FCF712FB8DE8F00341EC100B0DA017
:103C300053EC102BFFF7BCFAD8E700000000484314
:103C400000002F440000000020000020B246853F05
:103C50004300803F3B00803F0000002050030020D5
:103C6000B80100203130302C2D3130302C25662C1D
:103C700025662C25662C25660A00000070B50446D2
:103C80002DED028BB0EE408A0078012800D0227022
:103C900021780120D1B3012935D1A07084F85120B9
:103CA00010EE901A11EE903A11EE105A12EE100A20
:103CB000C4F8521012EE902A02EE100A01EE903A69
:103CC000C4F85650C4F85A3002EE902A03EE905AC7
:103CD000C4F85E00B0EE424AB0EE613A00EE101A4F
:103CE000C4F86220B0EE622AF0EE441AB0EE431A35
:103CF000F0EE630A002104F1510000F02DF818EEF7
:103D0000100AC4F86600BDEC028B70BDFFE760705E
:103D1000E270C4ED010AB0EE610A84ED021A84ED8E
:103D2000030AB0EE414A84ED042AF0EE423AB0EEC6
:103D3000603AB0EE401AC4ED052AB0EE622AF0EE09
:103D4000631AF0EE440AB0EE430A0021E01C00F0D2
:103D500003F884ED068AD6E70EB503468DEC030A18
:103D6000F0EE420AB0EE610A6A46FEF770FF1846AE
:103D7000FEF74EFF0EBD00061016000610160000DE
:103D8000000000000000010203040607080900000B
:103D90000000010203040000B83D000800000020FC
:103DA00020000000F0310008D83D0008200000206D
:103DB000880C00000032000800000000856B0D43F5
:103DC00000000000010000001000000000000000E2
:083DD0000024F40000000000D3
:040000050800018965
:00000001FF
