:020000040800F2
:10000000D80E002029020008FD230008891B0008E3
:10001000FB2300081F040008DD2800080000000082
:100020000000000000000000000000007B24000829
:10003000E104000800000000792400087D24000885
:10004000430200084302000843020008430200087C
:10005000430200084302000843020008430200086C
:10006000430200084302000843020008430200085C
:10007000430200084302000843020008430200084C
:10008000430200084302000843020008430200083C
:10009000430200084302000843020008430200082C
:1000A0004302000825250008430200084302000817
:1000B000430200084302000843020008430200080C
:1000C00043020008430200084302000843020008FC
:1000D00043020008430200084302000843020008EC
:1000E00043020008430200084302000843020008DC
:1000F00043020008430200084302000843020008CC
:1001000043020008430200084302000843020008BB
:100110004302000843020008412500084D2500085D
:1001200043020008350400084104000843020008A7
:100130004D0400084302000843020008430200087F
:10014000430200084302000843020008430200087B
:100150004302000859040008430200084302000853
:10016000430200084302000843020008430200085B
:100170004302000843020008430200080000000098
:10018000430200084302000800F002F800F03CF8C7
:100190000AA090E8000C82448344AAF10107DA45E2
:1001A00001D100F031F8AFF2090EBAE80F0013F0F8
:1001B000010F18BFFB1A43F0010318474429000040
:1001C00064290000103A24BF78C878C1FAD85207D1
:1001D00024BF30C830C144BF04680C6070470000C1
:1001E0000023002400250026103A28BF78C1FBD840
:1001F000520728BF30C148BF0B6070471FB502F0DF
:100200006AFC1FBD10B510BD00F0CFF81146FFF716
:10021000F5FF02F075FB00F0EDF803B4FFF7F2FF15
:1002200003BC00F0F5F80000094880470948004782
:10023000FEE7FEE7FEE7FEE7FEE7FEE7FEE7FEE796
:10024000FEE7FEE704480549054A064B70470000F3
:100250001525000889010008D8080020D80E0020C4
:10026000D80A0020D80A002053EA020C00F0698066
:100270002DE9F04B4FF00006002B1FBFB3FA83F5BA
:1002800003FA05F424FA05F65E4012BF1643B2FAEB
:1002900082F502FA05F4C5F120051EBF22FA05FC1D
:1002A00044EA0C04203556EA044C4FEA144418BFC3
:1002B000641C4FF000084FF00009904271EB030CF2
:1002C00039D3002919BFB1FA81F701FA07F6B0FA5C
:1002D00080F700FA07F6C7F120071EBF20FA07FCD7
:1002E00046EA0C062037B6FBF4FCA7EB0507103FE7
:1002F00007F01F0BCBF120060CFA0BFB2CFA06F6CD
:1003000044BFB3460026202FA4BF5E464FF0000B2B
:100310005BEA060C08BF4FF0010B19EB0B09ABFBB6
:10032000027C48EB0608C01B06FB02CC0BFB03CC8F
:1003300071EB0C01C1E70B46024641464846BDE859
:10034000F08B13B54FF000004FF00001AFF30080C9
:10035000BDE81C4070474FF0000200B513469446BC
:100360009646203922BFA0E80C50A0E80C50B1F10D
:100370002001BFF4F7AF090728BFA0E80C5048BF21
:100380000CC05DF804EB890028BF40F8042B08BFBF
:10039000704748BF20F8022B11F0804F18BF00F8BB
:1003A000012B7047704770477047754600F02CF876
:1003B000AE4605006946534620F00700854618B052
:1003C00020B5FFF73FFFBDE820404FF000064FF09B
:1003D00000074FF000084FF0000B21F00701AC467A
:1003E000ACE8C009ACE8C009ACE8C009ACE8C00999
:1003F0008D46704710B50446AFF300802046BDE837
:100400001040FFF70ABF0000004870477408002042
:1004100001491820ABBEFEE7260002007047FEE748
:1004200010B500F1040C029C8CE81E000121017043
:1004300010BD0000014800F057B80000D4050020AE
:10044000014800F051B8000034060020014800F0D7
:100450004BB80000F4060020014800F045B8000049
:100460009406002001681823CAB2103AB2FBF3F2D6
:10047000054B6FF30901032A9B5CC36500D9091D75
:100480008165084670470000E02A000810B5014663
:1004900000208B698A6A4FF0C07453B1B3F5005FD6
:1004A00015D072B1012A0CD0022A0AD0032A09D130
:1004B00004E01AB1012A06D0022A03D1C96AC9018F
:1004C00000D5012010BDC96AA142FAD010BD002A92
:1004D000F7D0012AF2D0022AF3D0032AF3D010BDBC
:1004E000704772B6FEE700002DE9F84304464FF06E
:1004F0000009CDF8009063484FF41651A56D0068CF
:10050000B0FBF1F72E6894F85C10082000FA01F1B6
:1005100031420FD021680A6852070BD50A6822F0D1
:1005200004020A6094F85C108840A860606D40F096
:100530000100606594F85C104FF0010808FA01F0C2
:10054000304208D021684969090604D5A860606D69
:1005500040F00200606594F85C100420884030424E
:1005600008D021680968890704D5A860606D40F04B
:100570000400606594F85C1010208840304218D068
:1005800021680968090714D5A86020680168490333
:1005900004D50068000308D5A16C07E00168C9050F
:1005A00003D4016821F008010160216C09B12046E3
:1005B000884794F85C1020208840304231D0216870
:1005C0000968C9062DD5A86094F83500052820686B
:1005D000016806D0490347D5006800031DD4616C4B
:1005E0001CE021F0160101602068416921F08001C2
:1005F0004161206C08B9A06C20B12068016821F02D
:100600000801016094F85C103F208840A86084F8DD
:10061000358084F83490216D1FE0E16B09B12046EC
:100620008847606D00282BD0606DC00714D005206E
:1006300084F835002068016821F00101016000980C
:10064000401C0090B84203D820680068C007F6D16B
:1006500084F8358084F83490E16C002910D001B022
:100660002046BDE8F04308470168C905D5D40168B4
:1006700021F01001016084F8358084F83490CCE7D3
:10068000BDE8F8830C0000202DE9F041044600F09D
:1006900063F906465CB1022084F83500002584F831
:1006A00034502068016821F0010101600DE0012053
:1006B000BDE8F08100F050F9801B052805D9202005
:1006C0006065032084F83500F2E720680068C00701
:1006D000F0D12268116820480140D4E90103184391
:1006E000D4E903363343184363691843A3691843B5
:1006F000E3691843236A18430843616A042903D154
:10070000D4E90B1319430843106020684069666AF6
:1007100020F0070130460E43012704280CD1A06ABF
:100720000643E06A40B12046FFF7B0FE20B140200A
:10073000606584F83570BAE7206846612046FFF7A7
:1007400091FE94F85C203F2191408160656584F8BA
:1007500035700020ACE700003F8010F02DE9F84F25
:10076000DFF8BCA10022012503264FF00F090AF192
:10077000040BAAF1040E00BF0B6805FA02F4234033
:10078000A34270D10F7907F00307012F01D0022F88
:1007900016D187684FEA420806FA08FC27EA0C07D8
:1007A000D1F80CC00CFA08FC4CEA070CC0F808C0E1
:1007B0004768A7430C79C4F3001494403C43446059
:1007C0000C79E443A4070AD0C4684FEA420C06FA45
:1007D0000CF7BC438F6807FA0CF72743C7600C7906
:1007E00004F00304022C12D1D40800EB840CDCF8D2
:1007F00020405707FF0E09FA07F824EA0804D1F849
:10080000108008FA07F848EA0408CCF82080046849
:100810004FEA420C06FA0CF7BC430F7907F00307C6
:1008200007FA0CF7274307604C6814F4403F70D078
:100830003C4C276847F480472760246822F0030770
:1008400004F480440094384C07EB040CDCF80848AE
:1008500097074FEA177809FA08F7BC43334FB842B5
:1008600002D1002724E054E0314FB84201D10127E2
:100870001EE0304FB84201D1022719E02E4FB84296
:1008800001D1032714E02D4FB84201D104270FE016
:100890002B4FB84201D105270AE02A4FB84201D1B7
:1008A000062705E0284FB84201D1072700E00827B6
:1008B00007FA08F72743CCF80878DAF800405746DB
:1008C000D1F804C09C435FEACC2C00D51C433C60AB
:1008D000DBF800405F46D1F804C09C435FEA8C2CF3
:1008E00000D51C433C60DEF800407746D1F804C0D8
:1008F0009C435FEA8C3C00D51C433C60084F083F9A
:100900003C68D1F804C09C435FEACC3C00D51C4352
:100910003C60521C102AFFF42FAFBDE8F88F000096
:10092000083C0140443802400030014000000240D1
:100930000004024000080240000C02400010024087
:100940000014024000180240001C02400AB18161FC
:1009500070470904FBE70000014880687047000009
:1009600000000020024881680278114481607047CD
:10097000000000200B4810B5016841F400710160CF
:10098000016841F480610160016841F48071016097
:10099000032000F095F80F2000F006F800F04AF868
:1009A000002010BD003C024030B505461C4887B011
:1009B0000024016841F400310160006806A900F4D8
:1009C0000030009001A800F027F900F055F9154912
:1009D0004000B0FBF1F11548134A491E026040F295
:1009E000E732C0E90324C0E90114846100F0AEFBE2
:1009F000040012D10D4800F017FC04000DD119209D
:100A000000F030F8102D07D200222946192000F0FE
:100A100037F80748056000E0012407B0204630BDE4
:100A20004438024040420F00004401402C0800209E
:100A3000040000200A4808B5016841F480410160C3
:100A4000006800F4804000900548001F016841F0F4
:100A500080510160006800F08050009008BD0000E7
:100A600044380240002809DB00F01F0201219140B8
:100A70004009800000F1E020C0F80011704700003C
:100A8000F0B40E4B1B680C46C3F30223C3F10705F9
:100A9000042D00D90425191D072901D2002300E0E7
:100AA000DB1E012606FA05F1491E214099409E40B1
:100AB000761E16403143F0BC01F011BF0CED00E092
:100AC000064900F0070208684FF6FF03184040EAA5
:100AD0000220034A10430860704700000CED00E05C
:100AE0000000FA052DE9F0470E46050065D0DFF855
:100AF0001481D8F80000F7B200F00700B04207D226
:100B000088F80070D8F8000000F00700B04254D117
:100B100028683D4C810712D5400703D5206840F472
:100B2000E05020602878000703D5206840F460403A
:100B300020602068A96820F0F00008432060287831
:100B4000C0072DD0304968680839012812D0022822
:100B500013D0032811D00968890700292DDA2168EC
:100B600021F0030101432160FFF7F6FE814641F2C7
:100B7000883A0EE009688903EFE709688901ECE724
:100B8000FFF7EAFEA0EB0901514502D90320BDE8B9
:100B9000F0872068696800F00C00B0EB810FEFD19E
:100BA000D8F80010404601F00701B14207D907709C
:100BB000006800F00700B04201D00120E7E7287884
:100BC000400705D52068E96820F4E050084320601C
:100BD0002878000706D52068296920F4604040EA9B
:100BE000C100206000F058F82168084AC1F30311E1
:100BF000515CC8400649086006480068FFF7D4FE0B
:100C00000020C4E7003C024008380240E82A0008FF
:100C10000C000020040000200F2202600C4A136820
:100C200003F003034360136803F0F0038360136869
:100C300003F4E053C36012684FF4E05303EAD202B6
:100C400002610448006800F0070008607047000077
:100C500008380240003C0240044805490068096821
:100C6000044AC1F38221515CC84070470C00002047
:100C700008380240F82A0008044805490068096855
:100C8000044AC1F34231515CC84070470C00002057
:100C900008380240F82A0008154810B5006810F01E
:100CA0000C02144813D04110042A0FD0082A0ED188
:100CB0000F4C241F2268236802F03F025B0207D515
:100CC0002068C0F38810A0FB010106E0084610BDB3
:100CD0002168C1F38811A1FB00010023FFF7C4FACA
:100CE0002168C1F30141491C4900B0FBF1F010BD7E
:100CF000083802400024F4002DE9F84F04006ED0BB
:100D00002078DFF84C93C007A9F104054AD009F117
:100D100004000168C1F38101012908D00068C0F313
:100D2000810002280AD1D9F80000400206D52868BF
:100D3000800337D560680028E1D033E06068B0F503
:100D4000803F10D0B0F5A02F286810D020F480305C
:100D50002860286820F4802028606068A8B1FFF728
:100D6000FBFD06460DE0286840F48030F4E740F4CF
:100D700080202860F7E700BFFFF7EEFD801B6428A6
:100D800073D828688003F7D50CE0FFF7E5FD064629
:100D900005E000BFFFF7E0FD801B6428F0D828685D
:100DA0008003F7D42078DFF8AC8280074FF0000A88
:100DB0003ED5A748001D016811F00C0F08D000684F
:100DC000C0F3810002280BD1D9F80000400207D4FB
:100DD0002868800716D5E068012800D112E033E1C9
:100DE000E068B8B10120C8F80000FFF7B5FD06467D
:100DF00005E000BFFFF7B0FD801B0228C0D82868BF
:100E00008007F7D52868216920F0F80040EAC10082
:100E100028600DE0C8F800A0FFF79EFD064604E03C
:100E2000FFF79AFD801B02281FD828688007F7D497
:100E30002078000722D5864F87486169703771B1E5
:100E400001210160FFF788FD064604E0FFF784FDFD
:100E5000801B022809D838688007F7D50EE0C0F853
:100E600000A0FFF779FD064605E082E0FFF774FD7C
:100E7000801B02287DD838688007F7D42078400787
:100E800068D5DFF8CCB100270BF13C0BDBF8000094
:100E9000C0000BD4DBF8001041F08051CBF80010FB
:100EA000DBF80000012700F0805000906B4E3068A6
:100EB000C00510D4306840F480703060FFF74CFDFE
:100EC000009005E0FFF748FD0099401A022850D82D
:100ED0003068C005F6D55E4EA0686C3601280FD08C
:100EE0000528306810D020F001003060306820F014
:100EF00004003060A068B8B1FFF72EFD00900FE04D
:100F0000306840F00100F4E740F004003060F7E79B
:100F1000FFF722FD0099411A41F28830814266D8DC
:100F200030688007F4D50EE0FFF716FD009007E06B
:100F3000FFF712FD0099411A41F28830814256D8DC
:100F400030688007F4D42FB1DBF8001021F0805115
:100F5000CBF80010A069C8B33D49091D0968C1F369
:100F6000810102294AD00228504607D0C8F8600003
:100F700000E03CE0FFF7F0FC04463BE04746C8F8E1
:100F80006000FFF7E9FC064605E000BFFFF7E4FC60
:100F9000801B02282BD828688001F7D4D4E90701E8
:100FA0000843A16A2E4A490802EB0141626A41EAFC
:100FB0008211084394F82C1040EA0161C9F800102E
:100FC00001203866FFF7C8FC044606E03EE000BF9B
:100FD000FFF7C2FC001B022809D828688001F7D55A
:100FE00034E000BFFFF7B8FC001B022802D9032041
:100FF000BDE8F88F28688001F4D427E00128F7D0F5
:10100000D9F80000E26900F4800191421CD1226A03
:1010100000F03F01914217D147F6C071626A01406A
:10102000B1EB821F10D1A26A4FF0FF3300F44031C0
:1010300003EB5202B1EB024F06D194F82C1000F0F2
:101040007060B0EB016F01D00120D1E70020CFE745
:101050000438024000004742800E474200700040C2
:101060000000FFFF7047704710B590F83C20012A40
:1010700022D0012280F83C20CA688C6822F4407299
:1010800022434C6822F4806222430C6822F40062FE
:1010900022430C6922F4805222434C6922F400520C
:1010A0002243C969002322F480420A4301684A644A
:1010B00080F83C30002010BD022010BD70B590F8C3
:1010C0003C20012A32D0012480F83C40022280F8E2
:1010D0003D2003685A689D6822F070060A68324312
:1010E0005A60134B02689A4214D0B2F1804F11D06B
:1010F000104B9A420ED0104B9A420BD00F4B9A4293
:1011000008D00F4B9A4205D00E4B9A4202D00E4B9C
:101110009A4204D1496825F080031943916080F810
:101120003D40002180F83C10084670BD022070BD93
:10113000000001400004004000080040000C004096
:1011400000040140004001400018004010B50400B8
:1011500003D094F83D0010B107E0012010BD00203D
:1011600084F83C00204600F01FF8022084F83D007F
:10117000211D206801F0F0F9012084F8460084F870
:101180003E0084F83F0084F8400084F8410084F871
:10119000420084F8430084F8440084F8450084F851
:1011A0003D00002010BD000008B51B4A01681B4827
:1011B00091420ED1016841F01001016000680022E7
:1011C00000F0100000900A213620FFF759FC36206D
:1011D00010E0134A914211D1016841F020010160F1
:1011E0000068002200F02000009009213720FFF75E
:1011F00047FC3720BDE80840FFF734BC094881426E
:1012000009D10648001D016841F480210160006891
:1012100000F48020009008BD0010004040380240DB
:10122000001400400048014090F83D10012901D011
:1012300001207047022180F83D100168CA6842F021
:101240000102CA6000681149884214D0B0F1804F91
:1012500011D00F4988420ED00E4988420BD00E495A
:10126000884208D00D49884205D00D49884202D0F5
:101270000C49884204D1816801F00701062903D096
:10128000016841F001010160002070470000014049
:101290000004004000080040000C00400004014031
:1012A00000400140001800402DE9F0410D460400C7
:1012B00003D094F83D0018B108E00120BDE8F081AA
:1012C000002084F83C00204600F040F8022084F81A
:1012D0003D002068816844F2070291438160211D2E
:1012E000206801F039F9226890689169166A2B68C4
:1012F000AF69034340F20330814341EA0721A86804
:10130000EF6908434FF6FC418843E96840EA07204B
:10131000014328692F6A000140EA073008436968E1
:101320006D6926F0AA0646EA0515294393602268EE
:10133000906154F8460B0162012004F81F09E07522
:101340002076E0762077A0750020B7E770B586B0EC
:10135000044614216846FEF7FEFF44492368002432
:10136000424A103902254248B3F1804F19D0414E0C
:10137000B34245D1106840F002001060106800F0E0
:1013800002000590086840F004000860086869469B
:1013900000F004000590C0200090CDE901543648CB
:1013A00061E0136843F001031360126802F0010268
:1013B00005920A6842F001020A600A6802F001021E
:1013C00005920A6842F002020A600968012601F0EB
:1013D000020105914FF400410091CDE90154CDE99E
:1013E00003466946FFF7BAF908200090CDE9015499
:1013F000CDE9034669462148FFF7B0F906B070BD54
:101400001F4EB34217D1106840F0040010601068FE
:1014100000F004000590086840F0080008600868C3
:10142000694600F0080005904FF440500090CDE967
:101430000154144817E0144EB342DFD1136843F04F
:1014400008031360126802F0080205920A6842F06D
:1014500001020A60096801F0010105910321009170
:10146000CDE901546946CDE90345C5E7403802405E
:101470000000024000040040000802400004024056
:1014800000080040000C0240000C004070B590F8CD
:101490003E60044690F83F5090F8423090F8432068
:1014A000022021B104290ED0012E1BD114E0012EFF
:1014B00018D1012B16D184F83E0084F84200012295
:1014C0000021206820E0012D0CD1012A0AD184F8E6
:1014D0003F0084F8430014E0012D03D1012B01D11A
:1014E000012A01D0012070BD84F83E0084F83F003D
:1014F00084F8420084F8430001220021206801F0B2
:1015000097F801220421206801F092F82068016810
:1015100041F001010160002070BD70472DE9F041EC
:1015200004460068C66805694FF00007A90713D58F
:10153000B10711D5F91E016101202077206880696B
:101540008007204602D0FFF7E8FF04E000F0A8F88B
:10155000204600F0C3F92777680716D5700714D521
:1015600021686FF0040008610220207720688069FC
:1015700010F4407F204602D0FFF7CFFF04E000F0D8
:101580008FF8204600F0AAF92777280715D53007ED
:1015900013D521686FF008000861042020772068C7
:1015A000C0698007204602D0FFF7B7FF04E000F0D3
:1015B00077F8204600F092F92777E80616D5F0066E
:1015C00014D521686FF0100008610820207720688A
:1015D000C06910F4407F204602D0FFF79EFF04E070
:1015E00000F05EF8204600F079F92777E80708D088
:1015F000F00706D021686FF001000861204600F076
:10160000D3F9280608D5300606D521686FF080008A
:1016100008612046FFF726FD680608D5700606D546
:1016200021686FF040000861204600F005FAA80626
:101630000AD5B00608D521686FF020000861204661
:10164000BDE8F041FFF70FBDBDE8F08110B586B0F1
:10165000044614216846FEF77EFE0E492068884243
:1016600016D10D480021026842F0100202600068A5
:1016700000F0100005904FF4D44000900220CDE916
:1016800001010120CDE9031069460448FFF766F81F
:1016900006B010BD0000014030380240001002408A
:1016A000704770B5044690F83C0000260D460128AE
:1016B0000FD0012084F83C006AB1042A1DD0082A0A
:1016C0002FD00C2A3FD00126002084F83C00304661
:1016D00070BD022070BD206800F0B8FF20688169ED
:1016E00041F0080181612068816921F00401816174
:1016F000206881692A69114311E0206800F0D6FF53
:101700002068816941F4006181612068816921F468
:1017100080618161206881692A6941EA02218161D1
:10172000D2E7206800F0F8FF2068C16941F00801A5
:10173000C1612068C16921F00401C1612068C169EB
:101740002A69114311E0206801F01AF82068C16984
:1017500041F40061C1612068C16921F48061C16107
:101760002068C1692A6941EA0221C161ACE710B56C
:10177000040003D094F83D0010B107E0012010BD33
:10178000002084F83C00204600F01EF8022084F877
:101790003D00211D206800F0DFFE012084F8460096
:1017A00084F83E0084F83F0084F8400084F841004B
:1017B00084F8420084F8430084F8440084F845002B
:1017C00084F83D00002010BD2DE9F84F0546006863
:1017D0003D49884276D13D480026016841F001012B
:1017E000016000683B4C00F0010000903848206028
:1017F0004FF04067C4E901764FF400684FF4806A07
:10180000C4F81480C4E9036A4FF40059C4E9069689
:10181000266220466662FEF737FF08B1FEF761FEDA
:101820006C62A5632B4C2A48603418302060C4E9F0
:101830000176C4F81480C4E9036AC4E906962662F6
:1018400020466662FEF720FF08B1FEF74AFEAC6252
:10185000A563204C1E48C03478302060C4E901766E
:10186000BB4604F10C01574681E8C003E6612662DD
:1018700020466662FEF708FF08B1FEF732FEEC6212
:10188000A563154C124804F10C0148302060C4E9EE
:1018900001B681E8C003E661266220466662FEF773
:1018A000F3FE08B1FEF71DFE2C63AC636C630022EF
:1018B0000F211920A563FFF7E3F8BDE8F84F1920C1
:1018C000FFF7D0B8BDE8F88F00000140443802406F
:1018D00028640240D4050020F40600207047000070
:1018E00010B50446022249B104290ED0082913D0AC
:1018F00094F84100012816D0012010BD94F83E0054
:101900000128F9D184F83E200FE094F83F00012827
:10191000F2D184F83F2008E094F840000128EBD190
:1019200084F8402001E084F841200122206800F082
:101930007FFE16492068164A884201D0904203D1A2
:10194000436C43F4004343642068884213D0B0F1F1
:10195000804F10D00F4988420DD00F4988420AD0DD
:101960000E49884207D0904205D00D49884202D0E6
:101970000C49884204D1816801F00701062903D08F
:10198000016841F001010160002010BD000001402C
:10199000000401400004004000080040000C00402A
:1019A00000400140001800401FB50446184884421A
:1019B00011D11849184800F023F917481749DC30AD
:1019C00000F01EF91649174800F01AF91548164993
:1019D000DC3000F015F9154884420FD1144800217D
:1019E0006A4600BF00EB81035B68DB1C42F82130D4
:1019F000491C0429F6DB104600F014F90D49206853
:101A0000884203D1BDE81F40FEF7ACBF1FBD0000F8
:101A1000FC040020DC030020C0000020240400207F
:101A20006C04002078020020B4040020440500204B
:101A30008003002000440140704770B5040004D0CA
:101A400094F84100002510B106E0012070BD84F833
:101A50004050204600F024F8242084F841002068FB
:101A6000C16821F40051C160204600F0B1FE206839
:101A7000016921F4904101612068416921F02A0146
:101A800041612068C16841F40051C1606564202053
:101A900084F8410084F842006563002070BD0000B6
:101AA000F0B587B0044614216846FEF754FC304B6D
:101AB000276800222F490224032507262E489F422B
:101AC00019D12C4B14331F6847F010071F601B6897
:101AD00003F0100305930B6843F001030B600968E2
:101AE00002AB01F0010105916902CDE9001483E820
:101AF000640069461AE01F4BDFF880C01033674569
:101B000018D11F6847F400371F601B6803F40033C7
:101B100005930B6843F001030B60096801F00101B4
:101B200005910C21CDE9001469461CE0FEF716FE74
:101B300007B0F0BD12488742FAD1186840F48020FF
:101B40001860186800F480200590086840F00800CC
:101B500008600868694600F0080005904FF440707E
:101B6000CDE90004074802AF87E86400DEE7000023
:101B700000100140303802400000024000440040A4
:101B800000480040000C0240FEE700F03BBF0000B0
:101B900010B500211348FFF7A3FE04211148FFF7F9
:101BA0009FFE08210F48FFF79BFE0C210D48FFF711
:101BB00097FE3C210C48FFF769FC3C210B48FFF7DE
:101BC00065FC3C210A48FFF761FC3C210948FFF70E
:101BD0005DFC0948FFF728FBBDE810400748FFF708
:101BE00023BB000094030020DC0300202404002019
:101BF0006C040020B4040020FC04002044050020F4
:101C000070B50C46054600F0BBFB2068406A00EE4C
:101C1000100A0020B8EE400A85ED000A21684862EB
:101C200070BD00002DE9F04104460068724E734D0E
:101C3000D0F81D0000EE100AB5EEC00AF1EE10FA61
:101C400006DC00EE100AB5EEC00AF1EE10FA0FD174
:101C5000012202213046FEF779FE0022042130469F
:101C6000FEF774FE2068D0F81D0000EE100A10E0A8
:101C7000002202213046FEF769FE0122042130468F
:101C8000FEF764FE2068D0F81D0000EE100AB1EEE9
:101C9000400A2968BCEEC00A10EE100A486360686A
:101CA000574ED0F81D0000EE100AB5EEC00AF1EE56
:101CB00010FA06DC00EE100AB5EEC00AF1EE10FADA
:101CC0000FD1012202213046FEF740FE00220421FE
:101CD0003046FEF73BFE6068D0F81D0000EE100AAB
:101CE00010E0002202213046FEF730FE01220421DE
:101CF0003046FEF72BFE6068D0F81D0000EE100A9B
:101D0000B1EE400A2968BCEEC00A10EE100A8863E2
:101D1000A0683C4FD0F81D0000EE100AB5EEC00AD6
:101D2000F1EE10FA06DC00EE100AB5EEC00AF1EE94
:101D300010FA0FD1012240213846FEF707FE00229B
:101D400020213846FEF702FEA068D0F81D0000EE04
:101D5000100A10E0002240213846FEF7F7FD01226C
:101D600020213846FEF7F2FDA068D0F81D0000EEF5
:101D7000100AB1EE400A2968BCEEC00A10EE100A43
:101D8000C863E068D0F81D0000EE100AB5EEC00A86
:101D9000F1EE10FA06DC00EE100AB5EEC00AF1EE24
:101DA00010FA0FD1012220213046FEF7CFFD00228C
:101DB00040213046FEF7CAFDE068D0F81D0000EE75
:101DC000100A10E0002220213046FEF7BFFD01225C
:101DD00040213046FEF7BAFDE068D0F81D0000EE65
:101DE000100AB1EE400A2968BCEEC00A10EE100AD3
:101DF0000864BDE8F0810000000802409403002060
:101E000000100240000C0240154808B5016841F47A
:101E1000800101600068002200F4800000901146FB
:101E20003920FEF72DFE3920FEF71CFE0022114658
:101E30003A20FEF725FE3A20FEF714FE0022114656
:101E40003C20FEF71DFE3C20FEF70CFE0022114652
:101E50004520FEF715FEBDE808404520FEF702BE0E
:101E6000303802402DE9F04F87B014216846FEF764
:101E700072FA47480024016841F0100101600168CE
:101E800001F010010591016841F004010160016851
:101E900001F004010591016841F0800101600168D1
:101EA00001F080010591016841F0010101600168C4
:101EB00001F001010591016841F002010160016832
:101EC00001F002010591016841F00801016000681C
:101ED000304F00F008000590002266213846FEF7DA
:101EE00035FDDFF8B480002216214046FEF72EFDB6
:101EF000DFF8A890002250214846FEF727FDDFF8C2
:101F0000A0A04FF46056002231465046FEF71EFD59
:101F1000DFF890B0002260215846FEF717FD6620DA
:101F200000900125CDE90154694638460394FEF737
:101F300015FC16200090CDE90154694640460394F3
:101F4000FEF70CFC50200090CDE90154694648464C
:101F50000394FEF703FC0096CDE901546946504610
:101F60000394FEF7FBFBA803CDE900046946504645
:101F70000294FEF7F3FB60200090CDE9015469461E
:101F800058460394FEF7EAFB07B0BDE8F08F000067
:101F900030380240001002400008024000000240B9
:101FA00000040240000C02400B4810B509490160D2
:101FB00000214FF6FF724160C0E9021201618161A8
:101FC000FFF7C4F8002803D0BDE81040FEF789BA37
:101FD00010BD0000004801408C05002010B592B0F3
:101FE00000240F941C2168461094FEF7B4F92021B8
:101FF00007A8FEF7B0F92C482A4901602A21C0E958
:1020000001144FF4C871C0E9031444618461FFF7FF
:10201000AEFB08B1FEF765FA0F940FA922481094A1
:10202000FFF74CF808B1FEF75CFA6020CDE9000438
:102030000294039404940594002269461A48069475
:10204000FFF72FFB08B1FEF74CFA04226946164849
:10205000FFF727FB08B1FEF744FA08226946124849
:10206000FFF71FFB08B1FEF73CFA0C2269460E4849
:10207000FFF717FB08B1FEF734FA079408940994A8
:102080004FF400500A94CDE90B4007A906480E947E
:10209000FEF7EAFF08B1FEF724FA0348FFF7D6FA85
:1020A00012B010BD000001409403002010B58CB0A8
:1020B00024216846FEF74FF90024144809944FF094
:1020C00080410A94C0E90014611EC0E90241046124
:1020D00084610120CDE90004CDE902040494CDE936
:1020E00005400794694609480894FFF7DDF808B1F0
:1020F000FEF7F7F9099409A904480A94FEF7DEFFF0
:10210000002801D0FEF7EDF90CB010BDDC03002073
:1021100010B58CB024216846FEF71DF9002416483E
:10212000099414490A94C0E900144FF6FF71C0E9FC
:102130000241046184610320CDE900040120CDE95E
:1021400002040494CDE90540079469460A480894BE
:10215000FFF7AAF808B1FEF7C4F9099409A90648DF
:102160000A94FEF7ABFF002801D0FEF7BAF90CB0D5
:1021700010BD0000000400402404002010B58CB005
:1021800024216846FEF7E7F800241648099414490C
:102190000A94C0E900144FF6FF71C0E902410461DE
:1021A00084610320CDE900040120CDE902040494F8
:1021B000CDE90540079469460A480894FFF774F88A
:1021C00008B1FEF78EF9099409A906480A94FEF7AA
:1021D00075FF002801D0FEF784F90CB010BD000097
:1021E000000800406C04002010B58CB02421684623
:1021F000FEF7B1F800241548099413490A94C0E980
:102200000014611EC0E90241046184610120CDE92E
:102210000004CDE902040494CDE905400794694621
:102220000A480894FFF740F808B1FEF75AF90994F4
:1022300009A906480A94FEF741FF002801D0FEF7DD
:1022400050F90CB010BD0000000C0040B404002098
:102250001CB500240E4800940C4901940160A7218C
:10226000C0E9011440F2E7318461C160FEF76EFFFE
:1022700008B1FEF736F90094694605480194FEF767
:102280001DFF002801D0FEF72CF91CBD00100040F6
:10229000FC0400201CB500240E4800940C49019455
:1022A0000160A721C0E9011463218461C160FEF7C8
:1022B0004DFF08B1FEF715F90094694605480194F1
:1022C000FEF7FCFE002801D0FEF70BF91CBD000054
:1022D00000140040440500200C4810B50A49016074
:1022E0004FF4E1314160002181600C22C160C0E9FE
:1022F00004128161C161FFF7A0FB002803D0BDE893
:102300001040FEF7EEB810BD001001405407002049
:102310000C4810B50A4901604FF4E13141600021D9
:1023200081600C22C160C0E904128161C161FFF7C4
:1023300084FB002803D0BDE81040FEF7D2B810BDE2
:10234000004400409C0700200C4810B50A49016079
:102350004FF4E1314160002181600C22C160C0E98D
:1023600004128161C161FFF768FB002803D0BDE85A
:102370001040FEF7B6B810BD00480040E40700204A
:10238000D0ED080AC0ED090AD0ED073AC0ED083AD1
:1023900090ED063A80ED073AD0ED052AC0ED062A09
:1023A00090ED042A80ED052AD0ED031AC0ED041A41
:1023B00090ED021A80ED031A90ED014A80ED024A79
:1023C00090ED000A80ED010A30EE000A30EE040ABA
:1023D00030EE010A30EE210A30EE020A30EE220A17
:1023E00030EE030A30EE230A30EE200AF2EE040A41
:1023F00080EE201A80ED0A1A7047FEE7FEE70028FB
:102400001BD00021C0F84110C0F83D10C0F83910B1
:10241000C0F83510C0F83110C0F82D10C0F82910E0
:10242000C0F82510C0F82110C0F81D1040F8151F85
:10243000416080F8381001634163704700281AD06A
:10244000002A18D000F8011B116801605168416032
:102450009168816010EE101AC16010EE901A01614F
:10246000002141630163C162C16181624162016215
:102470000164C16381637047704770477047000013
:1024800030B593B030216846FDF765FF14210CA8E4
:10249000FDF761FF1D480025016841F08051016092
:1024A000006800F0805011901948016841F48041A3
:1024B00001600068022400F4804011900120009027
:1024C000000401908001CDE9064004200890A82076
:1024D000CDE9090407200B906846FEF70DFC08B112
:1024E00072B6FEE70CA90F2081E831004FF4A0502E
:1024F0000F904FF48050109005210CA8FEF7F2FACF
:10250000002801D072B6FEE713B030BD403802405B
:10251000007000400248016841F47001016070479A
:1025200088ED00E010B50448FEF7F8FFBDE8104064
:102530000248FEF7F3BF0000940300202C0800209F
:102540000148FEF7EBBF0000FC0400200148FEF745
:10255000E5BF000044050020F0B50268294C2A4D73
:102560002A4E2B4F2B4B4FF0804CA04209D0604598
:1025700007D0A84205D0B04203D0B84201D098425B
:1025800004D122F0700E4A6842EA0E02A0421BD02B
:10259000604519D0A84217D0B04215D0B84213D028
:1025A000984211D01C4DA8420ED01C4DA8420BD011
:1025B0001B4DA84208D01B4DA84205D01A4DA84279
:1025C00002D01A4DA84203D122F44075CA682A43AA
:1025D0004D6922F080022A4302608A68C2620A685A
:1025E0008262A04201D0984201D1096901630121B0
:1025F00041610169C90703D0016921F0010101614D
:10260000F0BD000000000140000400400008004050
:10261000000C004000040140004001400044014023
:102620000048014000180040001C0040002000400D
:1026300010B501F01F030121046A99408C43046224
:10264000016A9A401143016210BD0000F0B5036AAF
:10265000026A22F00102026242688469124E24F08A
:1026600073050C682C4323F002058B682B430D4D3A
:10267000A84201D0B04205D123F00807CB683B4304
:1026800023F00403A84201D0B04205D14D6922F4E1
:10269000407215438A692A434260846149684163F4
:1026A0000362F0BD0000014000040140F0B5026A81
:1026B000036A23F010030362436884690D6824F4FD
:1026C000E64444EA05248D6822F0200242EA05121D
:1026D0000F4D104EA84201D0B04206D1CF6822F073
:1026E000800242EA071222F04002A84201D0B04222
:1026F00007D14D6923F4406343EA85038D6943EABA
:10270000850343608461496881630262F0BD000013
:102710000000014000040140F0B5026A036A23F49E
:10272000807303624368C46922F4007224F0730565
:102730000C68124E2C438D6842EA05220E4DA842C9
:1027400001D0B04206D1CF6822F4006242EA0722EB
:1027500022F48062A84201D0B04207D14D6923F42F
:10276000405343EA05138D6943EA05134360C4618E
:102770004968C1630262F0BD0000014000040140ED
:1027800030B5046A026A22F4805202624268C36968
:102790000D6823F4E64343EA05238D6824F40054CE
:1027A00044EA0534084DA84202D0084DA84204D19D
:1027B0004D6922F4804242EA85124260C361496851
:1027C0000164046230BD00000000014000040140CB
:1027D00070B5044600680169E26821F44051114374
:1027E00001612169A068E2690843616911430843F6
:1027F0002168CA6849F20C639A430243CA602068A0
:102800004169A26921F44071114341613149206855
:10281000884202D03049884202D1FEF72DFA01E009
:10282000FEF71AFAE2690023192164253226B2F56F
:10283000004F626828D0A0FB0101930F9200FDF7C2
:1028400013FD0146B0FBF5F06FF01802504301EBA9
:10285000800006EB0010B0FBF5F000F0F002B1FBD9
:10286000F5F002EB0012B1FBF5F06FF018035843DE
:1028700001EB800006EB0010B0FBF5F000F00F005C
:1028800021681044886070BDA0FB010192185B4173
:10289000FDF7EAFC0146B0FBF5F00201B1FBF5F0F3
:1028A0006FF01803584301EB800006EBC000B0FB4B
:1028B000F5F000F0F80002EB4002B1FBF5F05843F0
:1028C00001EB800006EBC000B0FBF5F000F0070064
:1028D000D6E700000010014000140140FEE70907A0
:1028E000090E002804DB00F1E02080F80014704796
:1028F00000F00F0000F1E02080F8141D7047000088
:102900002DED028B82B0FEF735F8FFF7B9FDFFF72A
:10291000A9FAFFF779FAFFF761FBFFF7C7FBFFF7AB
:10292000F7FBFFF72BFCFFF75FFCFFF791FCFFF7CE
:10293000D3FCFFF7AFFCFFF737FBFFF7E9FCFFF72E
:1029400003FD9FED2D8ADFED2B8A2C49F0EE481A0E
:10295000F0EE682AB0EE682AB0EE481AF0EE480AA7
:10296000B0EE480A0022C81EFFF70FF92349F0EE27
:10297000682ADC31B0EE682AF0EE481AB0EE481A48
:10298000F0EE480AB0EE480A0022C81EFFF7FDF834
:102990001B49F0EE682AB0EE682AF0EE481AB0EE55
:1029A000481AF0EE480AB0EE480A0022C81EFFF7A7
:1029B000ECF8134CF0EE682AD934B0EE682AF0EE49
:1029C000481AB0EE481AF0EE480AB0EE480A002263
:1029D000E11C2046FFF7D9F8A4F1DC03A3F1DC02E7
:1029E000A2F1DC0101F55C700094FDF719FDFFF721
:1029F000CFF8FEE70000484300000000130000206D
:102A0000CB01002030B40178012900D00270037896
:102A10000121ABB3012B4DD100F8021F11EE103A8A
:102A200000F84F2F11EE901A10EE905A12EE104A45
:102A300012EE902AC0F8015002EE104A01EE901AF0
:102A400001EE103AC0F80530C0F8091002EE902AE5
:102A5000F0EE423AB0EE613AB0EE414AC0F80D40B5
:102A600000EE105AC0F81120B0EE622AF0EE631AA0
:102A7000B0EE431AF0EE440A002130BC00F01CB85E
:102A80004170C270B0EE600A80ED010A0830B0EE0D
:102A9000424A80EC041AF0EE613AB0EE413A00216D
:102AA000B0EE622AF0EE441AB0EE631AF0EE430A7A
:102AB000401FE2E730BC70470EB503468DEC030AB9
:102AC000F0EE420AB0EE610A6A46FFF7B7FC18461C
:102AD000FFF795FC0EBD4FF04070E1EE100A704715
:102AE000000610160006101600000000000000008E
:102AF00001020304060708090000000001020304A4
:102B0000202B00080000002010000000C401000875
:102B1000302B000810000020C80E0000E001000863
:102B20000100000010000000000000000024F4007C
:040000050800018965
:00000001FF
