:020000040800F2
:100000008008002079020008B32800083521000884
:10001000B12800088D050008BD320008000000006E
:10002000000000000000000000000000CB2B0008D2
:100030008F05000800000000B5280008CD2B00083F
:10004000930200089302000893020008930200083C
:10005000930200089302000893020008930200082C
:10006000930200089302000893020008930200081C
:10007000930200089302000893020008930200080C
:100080009302000800000000930200089302000899
:1000900093020008930200089302000893020008EC
:1000A00093020008930200089302000893020008DC
:1000B00093020008930200089302000893020008CC
:1000C00093020008930200089302000893020008BC
:1000D00093020008930200089302000893020008AC
:1000E000930200089302000893020008930200089C
:1000F0009302000893020008930200080000000029
:1001000000000000930200080000000093020008B5
:100110009302000800000000930200089302000808
:10012000930200089302000893020008930200085B
:100130009302000800000000000000009302000885
:100140009302000893020008000000000000000075
:10015000000000000000000000000000000000009F
:1001600000000000000000000000000093020008F2
:1001700093020008000000000000000000000000E2
:1001800000000000930200080000000000000000D2
:10019000000000000000000000000000000000005F
:1001A0000000000000000000930200089302000815
:1001B0009302000893020008930200080000000068
:1001C0000000000093020008000000000000000092
:1001D000930200089302000800F002F800F03CF8D7
:1001E0000AA090E8000C82448344AAF10107DA4592
:1001F00001D100F031F8AFF2090EBAE80F0013F0A8
:10020000010F18BFFB1A43F0010318479C4400007C
:10021000BC440000103A24BF78C878C1FAD852070D
:1002200024BF30C830C144BF04680C607047000070
:100230000023002400250026103A28BF78C1FBD8EF
:10024000520728BF30C148BF0B6070471FB503F08D
:100250001DF91FBD10B510BD00F0CFF81146FFF716
:10026000F5FF03F03DF800F0EDF803B4FFF7F2FFFF
:1002700003BC00F0F5F80000094880470948004732
:10028000FEE7FEE7FEE7FEE7FEE7FEE7FEE7FEE746
:10029000FEE7FEE704480549054A064B70470000A3
:1002A000392C0008D90100088002002080080020B5
:1002B000800400208004002053EA020C00F06980D2
:1002C0002DE9F04B4FF00006002B1FBFB3FA83F56A
:1002D00003FA05F424FA05F65E4012BF1643B2FA9B
:1002E00082F502FA05F4C5F120051EBF22FA05FCCD
:1002F00044EA0C04203556EA044C4FEA144418BF73
:10030000641C4FF000084FF00009904271EB030CA1
:1003100039D3002919BFB1FA81F701FA07F6B0FA0B
:1003200080F700FA07F6C7F120071EBF20FA07FC86
:1003300046EA0C062037B6FBF4FCA7EB0507103F96
:1003400007F01F0BCBF120060CFA0BFB2CFA06F67C
:1003500044BFB3460026202FA4BF5E464FF0000BDB
:100360005BEA060C08BF4FF0010B19EB0B09ABFB66
:10037000027C48EB0608C01B06FB02CC0BFB03CC3F
:1003800071EB0C01C1E70B46024641464846BDE809
:10039000F08B13B54FF000004FF00001AFF3008079
:1003A000BDE81C4070474FF0000200B5134694466C
:1003B0009646203922BFA0E80C50A0E80C50B1F1BD
:1003C0002001BFF4F7AF090728BFA0E80C5048BFD1
:1003D0000CC05DF804EB890028BF40F8042B08BF6F
:1003E000704748BF20F8022B11F0804F18BF00F86B
:1003F000012B7047704770477047754600F02CF826
:10040000AE4605006946534620F00700854618B001
:1004100020B5FFF73FFFBDE820404FF000064FF04A
:1004200000074FF000084FF0000B21F00701AC4629
:10043000ACE8C009ACE8C009ACE8C009ACE8C00948
:100440008D46704710B50446AFF300802046BDE8E6
:100450001040FFF70ABF000000487047200200204C
:1004600001491820ABBEFEE72600020070470000DD
:1004700070B50446006881688268C1F3400112F0DB
:10048000010F28D039BB816801F00D01012914D179
:100490008168124A1140891C81602168032008602C
:1004A00000F074FE054612E000F070FE401B0228CA
:1004B0000DD920688068C00709D0E06D40F01000B9
:1004C000E065206E40F001002066012070BD2068CC
:1004D0008068C007E8D1002070BD0000C0FFFF7F2A
:1004E000F8B50446002000902068816811F0010FE3
:1004F00041D18168214A11422ED18168D5432940DA
:10050000491C81601E48806800F0E07000020DD533
:100510001C481D490068B0FBF1F0401C00EB400096
:10052000800000E0401E00900028FBD100F02EFE6D
:1005300006461BE0816811F0010F03D18168294054
:10054000491C816000F022FE801B02280ED9206821
:100550000068C043C00709D0E06D40F01000E065BE
:10056000206E40F0010020660120F8BD206801687F
:10057000C943C907DED10020F8BD00003F0000805C
:100580000003005010000020400D0300FEE77047FC
:10059000002240F6B83306E00021491C89B2994296
:1005A000FBD3521C92B28242F6D3704772B6FEE77A
:1005B000F8B500260446009690F858000D4601282C
:1005C0000BD0012084F858002046FFF751FF0100AE
:1005D000E06D04D040F010002AE00220F8BD20F4C5
:1005E000885040F00200E06520688268134B1A4092
:1005F00005F080431A4342F000428260104A2068AE
:100600000EE0009B5B1C0093934209D3E06D20F049
:10061000020040F01000E06584F858600120F8BD49
:100620008368DB0FEDD1E06D20F0020040F00100A7
:10063000E06584F858600846F8BD0000C0FFFF3F41
:1006400002DE04002DE9F047044690F858009CB003
:100650000E464FF00009012815D0012084F85800FB
:1006600000251795189520684FF0A04840450ED1F9
:10067000284F0097384601F049FF8246206801F074
:1006800045FF60B10EE002201CB0BDE8F087E06DD0
:1006900040F02000E06584F858500120F4E7BAF1FA
:1006A000000F09D0E06D40F02000E0654FF0010937
:1006B00084F858504846E7E71748326840F61F71FB
:1006C000002A826822F4604216D094F8383042EA58
:1006D000433273681A438260D8F80820BB6802F07E
:1006E000010203F001031A43E2D1B36832681A43EE
:1006F00083688B431A430BE08260D8F80820BB68FC
:1007000002F0010203F001031A43D1D182688A4347
:100710008260CDE700010050000300502DE9F84F42
:1007200000270446009790F85800DFF8E0930D4644
:10073000B846012811D0012684F85860206801F0DD
:10074000E1FE60B1E06D40F02000E0655FF0010780
:1007500084F858803846BDE8F88F0220FBE7D5E9D9
:1007600000210C23206803EA91131844036B01F065
:100770001F014FF01F0C0CFA01FCC2F3846223EA44
:100780000C038A4013430363206801F0BBFE8246DA
:10079000206801F0B3FE5AEA00003CD1AA6829683B
:1007A0002068B2F1004F37D001F0B4FE20684169F3
:1007B00021F00041416120686969C268C2F3C10249
:1007C000520091402A69042A31D000EB82002B6844
:1007D000026EDFF83CC303F0F84302EA0C020B435D
:1007E0001A4342F00041016620682A69A96900EBBA
:1007F0008200026E22F080720A430266297F22681C
:100800002869012910D0002102EB8000026E22F03D
:1008100000720A4302667DE0002201F07BFE206840
:10082000416941F00041C5E74FF00071ECE700215C
:1008300001F05EFE400320684FF0000172D001F02D
:1008400057FE90FAA0F0B0FA80F1286842036ED00B
:1008500090FAA0F0B0FA80F0814204D10022114653
:10086000206801F066FE0121206801F041FE40038E
:1008700020684FF001015DD001F03AFE90FAA0F03F
:10088000B0FA80F12868420359D090FAA0F0B0FA8B
:1008900080F0814204D100220121206801F049FE4C
:1008A0000221206801F024FE400320684FF002017D
:1008B00048D001F01DFE90FAA0F0B0FA80F128684F
:1008C000420344D090FAA0F0B0FA80F0814204D103
:1008D00000220221206801F02CFE0321206801F093
:1008E00007FE400320684FF0030133D001F000FE03
:1008F00090FAA0F0B0FA80F1286842032FD090FA65
:10090000A0F0B0FA80F0814204D1002203212068D7
:1009100001F00FFE2068816811F0010F22D0ACE0D9
:1009200000E004E001F0E4FDC0F384618DE7C0F372
:10093000846091E701F0DCFDC0F38461A2E7C0F3BD
:100940008460A6E701F0D4FDC0F38461B7E7C0F38B
:100950008460BBE701F0CCFDC0F38461CCE7C0F359
:100960008460D0E72A7B296850F8B03FC1F3120CAD
:1009700023EA0C0302F0180C664A22FA0CF20A4031
:1009800013430360E968494577D1286841031CD0C7
:1009900090FAA0F1B1FA81F1491C01F01F01092977
:1009A0004FEA403132D8002912D000BF90FAA0F1AE
:1009B000B1FA81F101F1010101F01F0106FA01F61E
:1009C00009D100BFC0F3846109E0C0F38461E3E7AB
:1009D000C0F38461EEE790FAA0F1B1FA81F101F180
:1009E000010101F01F0146EA816102D1C0F3846078
:1009F00003E090FAA0F0B0FA80F000F1010000F0FE
:100A00001F0000EB400041EA005132E000290ED007
:100A100090FAA0F1B1FA81F101F1010101F01F0199
:100A200006FA01F606D100BFC0F3846106E0C0F308
:100A30008461F1E790FAA0F1B1FA81F101F10101CD
:100A400001F01F0146EA816102D1C0F3846003E036
:100A500090FAA0F0B0FA80F000F1010000F01F0061
:100A60002D4A00EB400002EB005041EA000141F04A
:100A70000071AA68206801F04DFD28482A680242EA
:100A80003FF466AE26488168264B01F0E0719A4239
:100A900002D0254B9A421CD10B021AD42268B2F123
:100AA000A04F7FF455AE826841F4000122F0E0725D
:100AB0000A4382601D481E490068B0FBF1F0401CEB
:100AC00000EB4000800000E0401E00900028FBD1B9
:100AD0003EE6184D184BAA4207D1CD0105D4226835
:100AE0009A42F5D041F0807109E0144DAA42EFD14D
:100AF0004A02EDD422689A42EAD041F48001826829
:100B000022F0E0720A43826022E6000000007F408B
:100B100000F0FF03FFFF0700000020FE0000088038
:100B200000030050000021C31000C09010000020FE
:100B3000400D0300000052C700010050000084CBAC
:100B40000068006C70470000F8B54FF00005040025
:100B50002E46009502D0E06D10B107E00120F8BDEF
:100B6000204600F0EBF8266684F85860206881681B
:100B7000C1F3407119B18168684A114081602068F1
:100B80008168C1F3007189B98168654A114041F0FB
:100B900080518160634864490068B0FBF1F0400017
:100BA000801C00E0401E00900028FBD12068816876
:100BB000C1F3007141B9E16D41F01001E165216EB1
:100BC00041F001012166012501F09CFCE16DC9069F
:100BD00000D430B1E06D40F01000E06501252846FA
:100BE000F8BDE06D20F4807040F00200E065206800
:100BF000806810F0010F11D14FF0A04080684B4980
:100C000000F00100896801F00101084306D148485D
:100C10006168826822F47C120A438260E168E06BBA
:100C2000627F0843A16841EA4231084394F82410E6
:100C300040EA0140012904D1218D3E4A02EB4141A5
:100C40000843E16A29B101F47871226B014342EA59
:100C500001002268D168384B19400143D1602068F7
:100C60000169626B21F0406111430161206801F06C
:100C700045FC70BB207F94F83810800340EA4102A5
:100C80002168C86844F2020398431043C860206991
:100C90000028206801690AD041F480310161206890
:100CA00050F8C01F22696FF30D01114307E021F4D2
:100CB00080310161206850F8C01F6FF30D010160A1
:100CC00094F8400001280CD02068016921F001014E
:100CD0000161606901282068016B21F00F0111D0CA
:100CE00013E0D4E911010843D4E913121143084376
:100CF00021680A6940F2FC739A43104340F00100F6
:100D00000861E6E7226A521E11430163E06D20F09C
:100D1000020040F00100E06561E70000C0FFFF5FF6
:100D2000C0FFFF7F10000020400D030000010050B5
:100D3000000300500000FEFF0740F0FF2DE9F043E4
:100D400097B00446142111A8FFF72DFB44216846F3
:100D5000FFF729FB4FF0005021682D4D0327DFF8E6
:100D6000B49086132C4C4FF00008B1F1A04F10D076
:100D70002A4A914248D100960F90684600F0F6FA50
:100D800008B1FFF713FC2868401C2860012824D014
:100D90002BE000960F90684600F0E8FA08B1FFF7E4
:100DA00005FC2868401C2860012807D1E06C40F44D
:100DB0000050E064E06C00F400501690E06C40F0ED
:100DC0000200E064E06C11A900F0020016904FF4FC
:100DD000805081E88101484614E0E06C40F4005006
:100DE000E064E06C00F400501690E06C40F002000B
:100DF000E064E06C11AA00F00200169082E8C001E5
:100E000011A9484600F098F817B0BDE8F08300003B
:100E100000000020000400480010024000010050C3
:100E20002DE9F04104463848806800F01F0520682D
:100E300001F068FB18B102210846BDE8F08194F882
:100E4000580001280CD0012084F858002046FFF7F4
:100E500047FB01004FF0000304D084F85830EBE763
:100E60000220EAE7E06D40F60162904340F48070B2
:100E7000E065264A20684FF0A046904201D13746EF
:100E800000E00746874200D01DB9E76D27F48017C0
:100E9000E765E76DFF0404D5276E27F00607276690
:100EA00000E023661C27076084F8583020689042D1
:100EB00001D1334600E00346834215D0A5B1052D8C
:100EC00012D0092D10D0E36D43F48013E3659042F6
:100ED00000D13046C0688001AED5E06D20F40050EE
:100EE00040F48050E065A7E7C268920105D5E26D45
:100EF00022F4005242F48052E2658268044B1A40A8
:100F0000121D826098E700000003005000010050AD
:100F1000C0FFFF7F70B5044600F038F90546601C3D
:100F200002D004484068044400F030F9401BA0425D
:100F3000FAD370BD040000202DE9F04FDFF82092B5
:100F4000002301260324A9F1040B85B00F2709F122
:100F5000040AABF1040EFAE006FA03F52A407CD04D
:100F600091F804C00CF0030CBCF1010F02D0BCF1ED
:100F7000020F26D1D0F808C0CDF800C04FEA430CCC
:100F800004FA0CF8CDF810C0DDF800C02CEA080C0B
:100F9000CDF800C0D1F80C80DDF810C008FA0CF8CC
:100FA000DDF800C048EA0C08C0F80880D0F804C09A
:100FB0002CEA050C0D79C5F300159D4045EA0C059A
:100FC00045600D79ED43AD070ED0C5684FEA430883
:100FD00004FA08FC25EA0C05D1F808C00CFA08FC54
:100FE0004CEA050CC0F80CC00D7905F00305022D84
:100FF00016D1DD0800EB850CCDF808C0DCF82080A8
:101000005D074FEAD56C07FA0CF528EA05080D696B
:1010100005FA0CF5DDF808C045EA0805CCF82050C3
:1010200005684FEA430CCDF808C004FA0CFC25EA29
:101030000C0591F804C00CF00308DDF808C008FAAC
:101040000CF848EA0508C0F800804D6815F4403FE8
:101050007CD0444DD5F860C000E077E04CF0010C46
:10106000C5F860C02D6E23F0030C05F00105009556
:101070003D4D65440295AD684FEA837C4FEA1C788C
:1010800007FA08FC25EA0C05B0F1904F06D0DFF80E
:10109000DCC0604505D14FF0010C20E04FF0000CA2
:1010A0001DE0DFF8CCC0604502D14FF0020C16E025
:1010B000DFF8C0C0604502D14FF0030C0FE0DFF84D
:1010C000B8C0604502D14FF0040C08E0DFF8ACC0B6
:1010D000604502D14FF0050C01E04FF0060C0CFA10
:1010E00008FC4CEA050C029DC5F808C0D9F8005070
:1010F000CC46D1F8048095435FEAC82800D5154353
:10110000CCF80050DAF80050D446D1F8048095436A
:101110005FEA882800D51543CCF80050DBF8005072
:10112000DC46D1F8048095435FEA883800D5154342
:10113000CCF80050DEF80050F446D1F80480954316
:101140005FEAC83800D51543CCF800505B1C0A682C
:1011500032FA03F57FF400AF05B0BDE8F08F000070
:101160000804014000100240000001400004004853
:1011700000080048000C0048001000480014004817
:101180000AB1816170478162704700000148806840
:101190007047000004000020024881684268114442
:1011A000816070470400002010B50024032000F087
:1011B00065F80F2000F008F808B1012401E000F004
:1011C00025F8204610BD000070B50E4E05460024DF
:1011D000706898B14FF47A71B1FBF0F00A49096870
:1011E000B1FBF0F000F052FD40B9102D06D2002204
:1011F0002946501E00F022F8356000E00124204608
:1012000070BD000004000020100000200A4882B0D9
:10121000016E41F001010166016E01F001010091D2
:10122000816D41F080518165806D00F080500090AB
:1012300002B000F093B8000000100240F0B40E4B72
:101240001B680C46C3F30223C3F10705042D00D924
:101250000425191D072901D2002300E0DB1E012609
:1012600006FA05F1491E214099409E40761E16401F
:101270003143F0BC02F023B80CED00E0064900F069
:10128000070208684FF6FF03184040EA0220034AAD
:1012900010430860704700000CED00E00000FA0504
:1012A0002B492C4B0A6832214A432B4940B1B0F5F7
:1012B000007F086829D020F4C06040F480602CE0F2
:1012C0000868C0F34120022804D051F8800F20F4B0
:1012D000807022E0D1F8800020F48070C1F8800096
:1012E000086820F4C06040F400700860B2FBF3F0BE
:1012F000401C00E0401E4A69520501D50028F9D182
:10130000486940050AD503207047C0F341200228F0
:1013100006D051F8800F40F48070086000207047BC
:10132000D1F8800040F48070C1F88000086820F493
:10133000C06040F400700860B2FBF3F0401C00E0B5
:10134000401E4A695205DBD50028F9D1D8E70000D4
:101350001000002040420F000070004002488168E9
:1013600041F4804181607047007000402DE9F843EE
:101370000446006800269D4D00035ED5A86D002739
:10138000C00008D4A86D40F08050A865A86D012762
:1013900000F080500090DFF85892D9F8001041F426
:1013A0008071C9F80010FFF7F1FE804606E000BF2B
:1013B000FFF7ECFEA0EB080002282BD8D9F80000BC
:1013C000C005F5D5D5F8900010F4407014D0216C0C
:1013D000814211D0D5F89000D5F8901020F44070DB
:1013E00041F48031C5F89010D5F8901021F4803187
:1013F000C5F89010C5F89000C00711D0FFF7C6FEE1
:10140000804641F2883907E0FFF7C0FEA0EB0801F3
:10141000494501D903260BE0D5F890008007F3D5A4
:10142000D5F89000216C20F440700843C5F8900076
:101430001FB1A86D20F08050A8652078C00707D0A4
:10144000D5F88800616820F003000843C5F88800DB
:101450002078800707D5D5F88800A16820F00C0017
:101460000843C5F888002078400707D5D5F88800DC
:10147000E16820F030000843C5F8880020780007B4
:1014800007D5D5F88800216920F0C0000843C5F8C9
:1014900088002078800607D5D5F88800616920F497
:1014A00040600843C5F888002078400607D5D5F885
:1014B0008800A16920F440500843C5F888002078CE
:1014C000000607D5D5F88800E16920F440400843BC
:1014D000C5F888002088C00507D5D5F88800216A9E
:1014E00020F440300843C5F888002088800507D5DF
:1014F000D5F88800616A20F440200843C5F88800C8
:10150000208840050FD5D5F88800A16A20F4401046
:101510000843C5F88800A06AB0F5801F03D1E868C9
:1015200040F48010E860208800050FD5D5F88800C9
:10153000E16A20F440000843C5F88800E06AB0F58D
:10154000800F03D1E86840F48010E8602088C00470
:101550000FD5D5F88800216B20F040700843C5F8FE
:101560008800206BB0F1807F03D1E86840F48010E0
:10157000E86020884FF0006180040ED5D5F888001F
:10158000626B20F040601043C5F88800606B8842B1
:1015900003D1E86840F48010E860208840040ED54C
:1015A000D5F88800A26B20F040601043C5F8880091
:1015B000A06B884203D1E86840F48010E86020887E
:1015C00000040FD5D5F88800E16B20F040500843A7
:1015D000C5F88800E06BB0F1805F03D1E86840F4A3
:1015E0008030E8603046BDE8F8830000001002401B
:1015F000007000402DE9F0470E4605004FF000074F
:1016000025D0DFF8AC81D8F8000000F00F00B04220
:101610000CD2D8F8001021F00F013143C8F80010A7
:10162000D8F8000000F00F00B04210D12968614CDA
:10163000C80741F2883A5AD06868DFF87C910328DD
:1016400008D0022820682DD0400500282CDB01207E
:10165000BDE8F08720688001F9D5E06800F003025A
:10166000E068C0F30310401C032A19D0534A00BF9E
:10167000B2FBF0F0E268C2F306225043E268C2F324
:101680004162521C5200B0FBF2F0484517D9A068E5
:1016900010F0F00F0CD0880711D5A86840B10EE00B
:1016A000474AE5E78003D0E700F0B6F8484506D999
:1016B000A06820F0F00040F08000A0608027A068C3
:1016C000696820F003000843A060FFF75FFD8146D2
:1016D00006E000BFFFF75AFDA0EB090151453AD8DB
:1016E000A068696800F00C00B0EB810FF2D12868A7
:1016F000810714D5400703D5A06840F4E060A060DE
:101700002878000705D5A06820F4605040F4E06018
:10171000A060A068A96820F0F000084304E0802FD2
:1017200003D1A06820F0F000A060D8F80010404677
:1017300001F00F01B14216D9016821F00F013143C8
:101740000160FFF723FD074607E000BFFFF71EFD1E
:10175000C11B514501D903207AE7D8F8000000F0F9
:101760000F00B042F2D12878400705D5A068E9689B
:1017700020F4E0600843A0602878000706D5A06840
:10178000296920F4605040EAC100A06000F044F8EC
:10179000A1680C4AC1F30311515C01F01F01C8405C
:1017A0000949086009480068BDE8F047FFF70CBD2B
:1017B000002002400010024000B4C4040024F400E1
:1017C00000366E01BE340008100000200400002026
:1017D0000548064900688968054AC1F30221515C41
:1017E00001F01F01C84070471000002000100240A7
:1017F000CE3400080548064900688968054AC1F3E7
:10180000C221515C01F01F01C84070471000002048
:1018100000100240CE340008184910B58868C0F3A3
:1018200081021748012A0BD08A68164BC2F3810245
:10183000022A06D08A68C2F38102032A03D000205C
:1018400010BD184610BDCA6802F00304CA68C2F38E
:101850000312521C032C02D0B0FBF2F001E0B3FBE8
:10186000F2F0CA68C968C2F306225043C1F341616D
:10187000491C4900B0FBF1F010BD0000001002400F
:101880000024F40000366E012DE9F84304007AD0FC
:101890002078F84DC00747D0A868E96800F00C0030
:1018A00001F003010C2802D0082817D001E0032919
:1018B00014D06068B0F5803F17D0B0F5A02F28682D
:1018C00017D020F480302860286820F48020286019
:1018D0006068E0B1FFF75AFC064614E02868800310
:1018E00022D560680028D2D01EE0286840F48030FD
:1018F000EDE740F480202860F7E700BFFFF746FCE3
:10190000801B642870D828688003F7D50CE0FFF7A7
:101910003DFC064605E000BFFFF738FC801B64284D
:10192000F0D828688003F7D4207880074CD5A868C1
:10193000E96800F00C0001F003010C2802D0042833
:101940000DD001E002290AD0E068002828682BD0D9
:1019500040F480702860FFF719FC064619E02868FB
:10196000400502D5E068002891D06868217C20F00D
:10197000FE4040EA01606860BF480068FFF724FC51
:10198000002800D120E072E1FFF700FC801B022854
:10199000B8D828684005F7D56868217C20F0FE405B
:1019A00040EA016068600FE020F480702860FFF773
:1019B000EDFB064605E000BFFFF7E8FB801B0228B1
:1019C000A0D828684005F7D42078000729D5606999
:1019D0000028D5F8940013D040F00100C5F8940019
:1019E000FFF7D4FB064606E090E000BFFFF7CEFB12
:1019F000801B022886D8D5F894008007F6D510E021
:101A000020F00100C5F89400FFF7C0FB064604E093
:101A1000FFF7BCFB801B022878D8D5F8940080071C
:101A2000F6D42078400761D5A86D0026C00008D400
:101A3000A86D40F08050A865A86D012600F0805088
:101A400000908E480168C90511D40168804641F4B0
:101A500080710160FFF79AFB074604E0FFF796FBF1
:101A6000C01B022852D8D8F80000C005F6D5A068DF
:101A7000012815D00528D5F8900016D020F00100D7
:101A8000C5F89000D5F8900020F00400C5F890004B
:101A9000A06841F28838B8B1FFF778FB07460EE03E
:101AA000D5F8900040F00100F0E740F00400C5F8E0
:101AB0009000F5E7FFF76AFBC11B414526D8D5F832
:101AC00090008007F6D50CE0FFF760FB074604E0C6
:101AD000FFF75CFBC11B414518D8D5F89000800783
:101AE000F6D41EB1A86D20F08050A865207880063D
:101AF00029D5A0690028D5F8980013D040F001003E
:101B0000C5F89800FFF742FB064606E075E000BF07
:101B1000FFF73CFB801B02286FD8D5F898008007A0
:101B2000F6D510E020F00100C5F89800FFF72EFB75
:101B3000064604E0FFF72AFB801B02285DD8D5F893
:101B400098008007F6D4E069F0B3A968C1F3810179
:101B500003295DD00228286820F08070286003D017
:101B6000FFF714FB04464BE0FFF710FB064604E0CA
:101B7000FFF70CFB801B02283FD828688001F7D4B0
:101B8000F4E908016FF00F0202EB01110843218A0A
:101B90005204490802EB4151A26841EA022108437C
:101BA000217D4FF07E42490802EB41610843217BD1
:101BB00040EAC160E968324A11400843E860286899
:101BC00040F08070286000E05EE0E86840F08070DF
:101BD000E860FFF7DBFA044605E000BFFFF7D6FA3E
:101BE000001B022809D828688001F7D54CE000BF07
:101BF000FFF7CCFA001B022802D90320BDE8F883C6
:101C000028688001F4D4E8681E490840E8603BE099
:101C10000128F3D0E868226A00F00301914226D13E
:101C2000616A00F0F0020901103991421FD1A26AE5
:101C300000F4FE41B1EB022F19D194F82C2000F0F2
:101C40007841B1EBC26F12D1218E00F4C002490875
:101C50004905A1F50011914209D194F8341000F022
:101C6000C06049084906A1F1007181420CD00120F1
:101C7000C4E7000000100240040000200070004093
:101C80000C809F01FCFFEEFE0020B7E710B5401E60
:101C9000B0F1807F01D3012010BD4FF0E0246061DE
:101CA0000F21601701F00BFB0020A06107202061CD
:101CB000002010BDF0B590F83C20012A3AD0012553
:101CC00080F83C50022280F83D2003685A689C68E6
:101CD000194E1A4FB34201D0BB4204D122F4700C0A
:101CE0004A6842EA0C02DFF858C002EA0C02D1F856
:101CF00000C04CEA020CC3F804C00268B2420DD026
:101D0000B2F1804F0AD00F4B9A4207D00E4B9A4245
:101D100004D0BA4202D00D4B9A4204D1896824F013
:101D200080031943916080F83D50002180F83C10F9
:101D30000846F0BD0220F0BD002C014000340140F7
:101D40008FFFFFFD000400400008004000400140FC
:101D50002DE9F041054690F83C0000260C4601288C
:101D600010D0012085F83C0072B1042A1CD0082A4A
:101D70002CD00C2A50D00126002085F83C0030469B
:101D8000BDE8F0810220FBE7D4E90012E36828688F
:101D900000F0B8FF2868816921F00C018161286892
:101DA0008169A26811430FE0D4E90012E368286852
:101DB00000F0DEFF2868816921F4406181612868B4
:101DC0008169A26841EA02218161D5E72868D4E9E6
:101DD000002C277B036A016A21F480710162C169CA
:101DE00023F4206321F0030141EA0C0121F0F00CFF
:101DF00039074FF420674CEA116107EA02221A43BF
:101E0000C16102622868C16921F00C01C1612868C2
:101E1000C169A26811432BE02868D4E90021E76872
:101E2000036AD0F820C02CF4805CC0F820C0D0F841
:101E30001CC023F420432CF4407C4CEA012121F403
:101E4000704C4FF6FF7101EA07314FF4204741EA29
:101E50000C0107EA02321A43C16102622868C169B3
:101E600021F44061C1612868C169A26841EA022188
:101E7000C16181E710B5040003D094F83D0010B1B2
:101E800007E0012010BD002084F83C00204600F04F
:101E900023F8022084F83D00211D206800F0D4FEC4
:101EA000012084F8480084F83E0084F83F0084F85C
:101EB000400084F8410084F8420084F8430084F82C
:101EC000440084F8450084F8460084F8470084F80C
:101ED0003D00002010BD000010B586B0044614215E
:101EE0006846FEF760FA2368002120480222B3F119
:101EF000804F1FD01E4CA3421AD1836D43F00203C2
:101F00008365836D03F002030593C36C43F0020302
:101F1000C364C06C00F00200059010200090CDE971
:101F20000121CDE903121348694600BFFFF704F809
:101F300006B010BD836D43F001038365836D03F02C
:101F400001030593C36C43F00103C364C06C00F04C
:101F5000010005904FF400400090CDE901210120DF
:101F6000CDE9031069464FF09040DFE700100240D2
:101F7000000400400004004890F88410012918D0A3
:101F8000012180F884102421C0F8881001680A68B3
:101F90000B6823F001030B6022F00051002242661F
:101FA000036819602021C0F8881080F8842010464A
:101FB00070470220704770B5044690F884000128ED
:101FC0001DD0012084F884002420C4F888002068F3
:101FD0000568026822F0010202602068826822F02F
:101FE00060620A438260204600F0DEFE20680560E1
:101FF0002020C4F88800002084F8840070BD0220EE
:1020000070BD70B5044690F8840001281DD00120F1
:1020100084F884002420C4F88800206805680268D9
:1020200022F0010202602068826822F060420A43C6
:102030008260204600F0B8FE206805602020C4F8C9
:102040008800002084F8840070BD022070BD10B5A7
:10205000040003D0D4F8880010B107E0012010BDBF
:10206000002084F88400204600F026F82420C4F8DC
:1020700088002068016821F001010160A06A10B1A8
:10208000204600F0B3FE204600F094FF0128E6D081
:102090002068416821F4904141602068816821F006
:1020A0002A0181602068016841F001010160204639
:1020B000BDE8104000F0FEBE10B598B004461421F3
:1020C00011A8FEF770F944216846FEF76CF916492D
:1020D0002068884226D101200024CDE9000468460A
:1020E000FFF744F908B1FEF761FA1048016E41F4B8
:1020F00080410166016E01F480411691C16C41F08E
:102100000401C164C06C11A900F0040016903020D5
:1021100011900220CDE912040720CDE914400448B3
:10212000FEF70AFF18B010BD003801400010024051
:1021300000080048FEE7000000B585B0142168469D
:10214000FEF731F94FF6FF70009000200321CDE932
:102150000201019069460248FEF7EEFE05B000BD9F
:102160000008004800B585B014216846FEF71BF949
:102170004FF6FF7000900120019003200390002093
:10218000029069460248FEF7D7FE05B000BD000088
:102190000008004870B5002406462146204600F09D
:1021A00003F900F041F94FF49635304600F010F98C
:1021B000641CAC42F9D370BD30B587B014216846B9
:1021C000FEF7F1F81E48C16C41F00401C164C16C16
:1021D00001F004010591C16C41F00101C164C16CC1
:1021E00001F001010591C16C41F00201C164C06CB4
:1021F000012500F0020005904FF44870CDE900057C
:1022000000240394694602940E48FEF795FE2802C6
:1022100003940090CDE901544FF090446946204664
:10222000FEF78AFEFFF79EFFA06940F48070A06170
:1022300004481830016841F40871016007B030BDEE
:102240000010024000040048203AD2B2034B02EBD7
:10225000420203EB021200F019B80000D634000865
:10226000F0B50E460746002540F23F1407E0214630
:102270003846FFF7E9FF103C6D1CA4B2761C32789B
:10228000002A01D0142DF2D3F0BD00002DE9F04753
:1022900091468A460026044600F086F8DFF8408022
:1022A000012700BF00F0C0F85FF0000539F8160004
:1022B00007FA05F10842404601D1408800E0008855
:1022C00000F086F86D1C102DF0D3641CE4B251466A
:1022D000204600F069F8761C182EE3D3BDE8F0879D
:1022E0001400002010B5FFF767FF002000F014F87D
:1022F000084CA080A088A0F50241303906D000F03B
:1023000063FB002000F008F8A08010BD00F0D3FAB5
:10231000F7E700001400002070B51D490A6842F478
:1023200000720A600A6842F480720A60184C103C1D
:10233000226842F020022260164A1060086840F0CD
:102340002000086000BF00BF00BF206840F02000F0
:102350002060206840F480702060FFF7EDFE4FF0B1
:102360009041886A40F48070886200BF00BF00BF5F
:102370000848001F006885B2886940F48070886151
:10238000FFF7F0FE206840F400702060284670BD22
:10239000280400481408004801B5BDF800000149B0
:1023A000488008BD1400002010B50C4601462020CE
:1023B00000F068F82146BDE81040212000F062B826
:1023C00001B5BDF800000149088008BD14000020D7
:1023D000134A116841F400711160114910390B68FA
:1023E00043F480730B600B6843F020030B600D4BCC
:1023F0001860106840F02000106000BF00BF00BFF0
:10240000086840F020000860086840F480700860A8
:1024100000BF00BF00BF086840F40070086070474C
:1024200028040048140800481449086840F4007063
:102430000860086840F4807008601048103802682E
:1024400042F0200202600E4B22221A600A6842F01B
:1024500020020A6000BF00BF00BF016841F02001F8
:102460000160016841F48071016000BF00BF00BFDE
:10247000016841F4007101607047000028040048C1
:1024800014080048184B10B51A6842F400721A601C
:102490001A6842F480721A60134A103A146844F0C1
:1024A00020041460114C2060186840F0200018606F
:1024B00000BF00BF00BF106840F02000106010682F
:1024C00040F4807010602160186840F020001860AF
:1024D00000BF00BF00BF106840F02000106010680F
:1024E00040F48070106010BD2804004814080048B3
:1024F00000EB8100006E00F0F84070478068C0F388
:10250000C00070478068C0F3800070478068C0F3E7
:1025100080007047042303EAD15310B5184443697F
:10252000C1F3045107248C40A3438A401343436101
:1025300010BD00EB8100016E21F0004111430166E6
:102540007047000030B58BB0002408940994202116
:1025500068460A94FDF727FF1D484FF0A041042567
:1025600001604FF40031C0E90114C4600461C0E9A6
:102570000545047701214177016280F82440C46257
:10258000046380F83840C46380F84040FEF7DCFA0A
:1025900008B1FEF70BF808A90D480894FEF752F8A9
:1025A00008B1FEF703F80B480090062001900520C3
:1025B00002907F200594CDE9030569460448FEF7A3
:1025C000ADF8002801D0FDF7F1FF0BB030BD0000E1
:1025D0001C0000200008302E30B589B0202168464C
:1025E000FDF7E1FE19481849002401604902C0E9DD
:1025F0000114C46004250461C0E905450477012184
:102600004177016280F82440C462046380F8384056
:10261000C46380F84040FEF797FA08B1FDF7C6FFA3
:102620000B48009006200190052002907F20059421
:10263000CDE9030569460548FEF770F8002801D08A
:10264000FDF7B4FF09B030BD000100508800002044
:102650000080F03E2DE9F04F87B014216846FDF769
:10266000A2FE4048C16C41F00401C164C16C01F09C
:1026700004010591C16C41F02001C164C16C01F0FD
:1026800020010591C16C41F00101C164C16C01F0F0
:1026900001010591C16C41F00201C164C16C01F0FE
:1026A00002010591C16C41F00801C164C06CDFF802
:1026B000B88000F008004FF6CF7405900022214644
:1026C0004046FEF75DFD4FF480764FF090490022C2
:1026D00031464846FEF754FDDFF890A00022042161
:1026E0005046FEF74DFDDFF888B04FF448770022E2
:1026F00039465846FEF744FD0125CDE90045002442
:102700000294694640460394FEF716FCCDE9005456
:10271000694648460294FEF70FFC0720CDE9000405
:10272000694658460294FEF707FC0096CDE901542D
:10273000694648460394FEF7FFFB04200090CDE96C
:102740000154694650460394FEF7F6FB0097CDE925
:102750000154694658460394FEF7EEFB07B0BDE806
:10276000F08F00000010024000080048000C0048F4
:102770000004004810B588B000241748059406945A
:1027800004940094019402944FF080410394C0E9B2
:102790000014611EC0E9024104618461FFF76AFB15
:1027A00008B1FDF703FF049404A90B480694FFF752
:1027B00081FA08B1FDF7FAFE0120CDE9004002944C
:1027C0000022694604480394FFF7C2FA002801D0AA
:1027D000FDF7ECFE08B010BDF400002010B588B085
:1027E00000241848059406940494009401940294DB
:1027F00013490394C0E900144FF6FF71C0E9024188
:1028000004618461FFF736FB08B1FDF7CFFE049445
:1028100004A90C480694FFF74DFA08B1FDF7C6FE6F
:102820000120CDE900400294002269460548039446
:10283000FFF78EFA002801D0FDF7B8FE08B010BDF2
:102840000004004040010020184810B516490160FE
:102850004FF4E1314160002181600C22C160C0E988
:1028600004128161C161016241628162FFF7EFFB85
:1028700008B1FDF79BFE00210C48FFF7C2FB08B131
:10288000FDF794FE00210948FFF795FB08B1FDF71D
:102890008DFE0648FFF770FB002803D0BDE810400E
:1028A000FDF784BE10BD0000003801408C010020FF
:1028B000FEE7FEE7704730B501210020FFF7E2FD9B
:1028C0004FF47A70FDF764FE00210120FFF7DAFD76
:1028D00041F290711020FFF7D5FD4FF41C5160209C
:1028E000FFF7D0FD01216120FFF7CCFD022146203A
:1028F000FFF7C8FD48F210011320FFF7C3FD48F2AF
:10290000FE011220FFF7BEFD4FF4A0610220FFF789
:10291000B9FD41F230010320FFF7B4FD40F203346A
:1029200021463020FFF7AEFD21463120FFF7AAFDFA
:1029300021463220FFF7A6FDE51E29463320FFF78A
:10294000A1FD03213420FFF79DFD21463520FFF72F
:1029500099FD14213620FFF795FD21463720FFF71A
:1029600091FD21463820FFF78DFD21463920FFF7E4
:1029700089FD29463A20FFF785FD03213B20FFF71B
:1029800081FD21463C20FFF77DFD4FF4A0513D2005
:10299000FFF778FD4FF400719220FFF773FD214699
:1029A0009320FFF76FFD40F60D019020FFF76AFDC1
:1029B00041F218010320FFF765FDBDE8304040F209
:1029C00073110720FFF75EBD10B543F20801E32045
:1029D000FFF758FD1221E720FFF754FD41F23121A6
:1029E000EF20FFF74FFD00210120FFF74BFD4FF4D3
:1029F000E0610220FFF746FD41F230010320FFF7BE
:102A000041FD00210420FFF73DFD40F20721082091
:102A1000FFF738FD00210920FFF734FD00210A20CF
:102A2000FFF730FD00210C20FFF72CFD00210D20C9
:102A3000FFF728FD00210F20FFF724FD00211020C3
:102A4000FFF720FD07211120FFF71CFD00211220B8
:102A5000FFF718FD00211320FFF714FDC820FEF733
:102A600059FA41F290611020FFF70CFD40F2272146
:102A70001120FFF707FD3220FEF74CFA1D2112202E
:102A8000FFF700FD3220FEF745FA4FF400611320F6
:102A9000FFF7F8FC14212920FFF7F4FC0B212B2071
:102AA000FFF7F0FC3220FEF735FA00212020FFF777
:102AB000E9FC00212120FFF7E5FC07213020FFF78A
:102AC000E1FC40F207713120FFF7DCFC06213220E7
:102AD000FFF7D8FC40F204713520FFF7D3FC41F634
:102AE00004713620FFF7CEFC04213720FFF7CAFC23
:102AF00000213820FFF7C6FC40F206713920FFF7AD
:102B0000C1FC40F201713C20FFF7BCFC0F213D20CD
:102B1000FFF7B8FC00215020FFF7B4FCEF21512053
:102B2000FFF7B0FC00215220FFF7ACFC40F23F1150
:102B30005320FFF7A7FC4FF41C516020FFF7A2FCC5
:102B400001216120FFF79EFC00216A20FFF79AFC1B
:102B500000218020FFF796FC00218120FFF792FCE6
:102B600000218220FFF78EFC00218320FFF78AFCE2
:102B700000218420FFF786FC00218520FFF782FCDE
:102B800010219020FFF77EFC00219220FFF77AFCB5
:102B900003219320FFF776FC4FF488719520FFF70F
:102BA00071FC00219720FFF76DFC00219820FFF7B2
:102BB00069FC41F218010320FFF764FCBDE81040F6
:102BC00040F273110720FFF75DBC7047FEF7E4BACF
:102BD00010B594B038216846FDF7E5FB14210EA826
:102BE000FDF7E1FB4FF40070FEF75AFB0120009067
:102BF0000004019002200324CDE907041421CDE94B
:102C00000A100C900D9009946846FEF73DFE08B13D
:102C100072B6FEE70F20CDE90E040020109011904F
:102C2000129002210EA8FEF7E5FC002801D072B632
:102C3000FEE714B010BD00000248016841F47001C5
:102C40000160704788ED00E02DE9F0430268264BF3
:102C5000264D274E274C4FF08049984207D04845D3
:102C600005D0A84203D0B04201D0A04203D122F047
:102C700070074A683A43204FDFF880C0DFF8808051
:102C800098420DD048450BD0A84209D0B04207D099
:102C9000A04205D0B84203D0604501D0404503D1E1
:102CA00022F44075CA682A434D6922F080022A4303
:102CB00002608A68C2620A688262984207D0A042B3
:102CC00005D0B84203D0604501D0404501D1096923
:102CD0000163012141610169C90703D0016921F044
:102CE00001010161BDE8F083002C014000040040B7
:102CF0000008004000340140004001400044014011
:102D00000048014070B5056A046A24F001040462B9
:102D10008469124EB0420ED0B0F1804F0BD0104EED
:102D2000B04208D00F4EB04205D00F4EB04202D094
:102D30000E4EB04203D124F00304144301E044F0EA
:102D400001041A0724F0F00444EA126225F00A0391
:102D500001F00A0119438261016270BD002C01403B
:102D600000040040000800400034014000400140E1
:102D700030B5046A056A25F010050562856925F4F9
:102D8000407545EA022222F470454FF6FF7202EACE
:102D9000033224F0A0032A43A02404EA01111943BA
:102DA0008261016230BD000030B5416EB9B1026888
:102DB00091689268C1F342610B4B520F9C5CE50035
:102DC00003F10804A25CB5FBF2F2A0F86A205A5C99
:102DD000615CD200B2FBF1F1A0F8681030BD0121B6
:102DE000A0F86A10F8E70000AE34000890F8281048
:102DF000090706D501684A68836B22F400421A432A
:102E00004A6090F82810C90706D001684A68C36A6A
:102E100022F400321A434A6090F82810890706D538
:102E200001684A68036B22F480321A434A6090F8C2
:102E30002810490706D501684A68436B22F48022AE
:102E40001A434A6090F82810C90606D501688A68B6
:102E5000C36B22F480521A438A6090F828108906C6
:102E600006D501688A68036C22F400521A438A600E
:102E700090F82810490611D501684A68436C22F47D
:102E800080121A434A60416CB1F5801F06D1016877
:102E90004A68836C22F4C0021A434A6090F82810F2
:102EA000090606D501684A68C06C22F40022024374
:102EB0004A6070472DE9F84300260446C0F8906048
:102EC000FEF764F98046206800684FF0200500078F
:102ED0006FF07E4713D54346002229042046009711
:102EE00000F0A2F958B1216851E8000F20F08000ED
:102EF00041E80002002AF6D1C4F8885021E0206899
:102F00000068400722D5434600224FF48001204646
:102F1000009700F089F9C8B1216851E8000F20F44A
:102F2000907041E80002002AF6D12068083050E88D
:102F3000001F21F0010140E80012002AF5D1C4F879
:102F40008C5084F884600320BDE8F883C4F888506E
:102F5000C4F88C5044F86C6F666026760020F3E766
:102F600010B5026852E8001F21F4907142E8001386
:102F7000002BF6D10E4B0268083252E8001F1940B0
:102F800042E80014002CF6D1C16E012908D1016875
:102F900051E8002F22F0100241E80023002BF6D167
:102FA0002021C0F88C100021C166416710BD0000CF
:102FB000FEFFFFEF2DE9F0410446016880682269B9
:102FC000E3691043626900251A431043DFF82CC2FD
:102FD0000A688B4B1A4002430A6020684168E26825
:102FE00021F44051114341602168A069614501D03D
:102FF000226A10438A68834B1A4002438A60206821
:10300000C16A626A21F00F011143C1627E492368DF
:103010007E488B420DD1D0F8880010F0030006D016
:10302000012855D0022842D003283FD152E0012088
:103030003DE077498B420BD1D0F8880010F00C00AE
:1030400035D0042833D0082840D00C282ED141E0B8
:1030500070498B420BD1D0F8880010F0300026D098
:10306000102835D0202831D030281FD132E06A49CD
:103070008B420BD1D0F8880010F0C00017D0402848
:1030800026D0802822D0C02810D123E063450DD15E
:10309000D0F8880010F4406009D0B0F5806F17D0E8
:1030A000B0F5006F12D0B0F5406F13D010205B491F
:1030B0005B4F00264FF4004263453BD160B10228CC
:1030C00013D004280BD0082872D10DE00220EEE7BF
:1030D0000420ECE70820EAE7FEF77AFB01E0FEF7C0
:1030E0009BFB010001D17CE01146606A37F810209B
:1030F0006768B1FBF2F007EB4703834270D8B0EB8F
:10310000073F6DD8002308461946FDF7D5F8090298
:1031100041EA106102027808101871413A46002312
:10312000FDF7CAF83F4AA0F54071914258D821688E
:10313000C86056E0E3694FF6EF7893422CD1092836
:103140004ED2DFE800F00508114D0D4D4D4D100039
:10315000FEF73EFB01E0FEF74DFB010004D140E02D
:10316000FEF75AFBF9E71146606A37F81000B1FB29
:10317000F0F04100606801EB5001B1FBF0F0A0F10C
:10318000100141452CD84FF6F0710140C0F34200C8
:1031900001432068C16024E0092821D2DFE800F063
:1031A000050912200E2020201100FEF711FB02E07D
:1031B00016E0FEF71FFB010004D112E0FEF72CFB26
:1031C000F9E71146606A37F81000B1FBF0F160686A
:1031D00001EB5001B1FBF0F0A0F1100141450AD91B
:1031E00001250120A4F86A0024F8680F2846E6604B
:1031F0002661BDE8F08180B299E7000000800040C0
:10320000F369FFCFFFF4FF110038014000100240C6
:103210000044004000480040004C00400024F400FE
:1032200096340008FFFC0F002DE9F0479946174639
:103230000D4604464FF00008089E33E0701C31D064
:10324000FDF7A4FFA0EB0900B04218D8BEB120687A
:103250000168490726D5802D24D0402D22D0C16990
:10326000C94309070DD4082505622046FFF778FEFB
:10327000C4F8905084F884800120BDE8F0870320D2
:10328000FBE7C069C04300050CD421684FF400601F
:1032900008622046FFF764FE2020C4F8900084F8FE
:1032A0008480ECE72068C06935EA000004D0002083
:1032B000B842C3D00020E0E70120F9E7FEE70907A4
:1032C000090E002804DB00F1E02080F800147047AC
:1032D00000F00F0000F1E02080F8141D704700009E
:1032E00094B0FDF761FFFFF773FCFFF7B3F9FFF749
:1032F000ABFAFFF73FFAFFF771FAFFF723F9FFF791
:103300006BF9FEF7EFFF7F213E48FDF751F93D488D
:10331000FDF786FD7F213C48FDF74AF93A48FDF765
:103320007FFD1F20FEF736FF0020FFF735F84FF630
:10333000FF70FFF745F8012204213448FDF720FF14
:103340000120FDF7E7FD324C012211022046FDF776
:1033500017FF0120FDF7DEFD012251022046FDF797
:103360000FFF0120FDF7D6FD012291022046FDF757
:1033700007FF0120FDF7CEFD0122D1022046FDF717
:10338000FFFE0120FDF7C6FD012211032046FDF7D7
:10339000F7FE0120FDF7BEFD012251032046FDF797
:1033A000EFFE0120FDF7B6FD1648FDF7C9FB0090C2
:1033B00069460020FEF754FF16A11820FEF750FFC3
:1033C0001AA13020FEF74CFF1EA14820FEF748FF4F
:1033D00022A16020FEF744FF14A17820FEF740FFF1
:1033E00012A19020FEF73CFF10A1A820FEF738FFA5
:1033F0000EA1C020FEF734FF1EA1D820FEF730FF3B
:10340000D2E700001C00002088000020000C0048CB
:103410000008004820202020202020204441544142
:10342000202020202020202000000000202020201C
:10343000202020202020202020202020202020208C
:10344000000000002020202020413D2020202020BE
:1034500020202020202020200000000020202020EC
:1034600020423D202020202020202020202020201D
:1034700000000000313233343536373839303132DC
:103480003334353637383930000000004FF04070A3
:10349000E1EE100A70470100020004000600080077
:1034A0000A000C0010002000400080000001010113
:1034B00001030701000008040204080101010000E3
:1034C00000000000000001020304060708090000D4
:1034D00000000102030400000000000000000000E2
:1034E00000000000000000000000000000000000DC
:1034F00000000000000000000000000000000000CC
:1035000000000000000000008001800180018001B7
:1035100080018001800180018001800180018001A3
:103520008001000000008001800100000000000018
:1035300000000000000000000000CC00CC00CC0027
:10354000CC00CC00CC000000000000000000000017
:10355000000000000000000000000000000000006B
:10356000000000000000000000000000000000005B
:103570000000600C600C600C30063006FE1FFE1F61
:10358000300638071803FE1FFE1F180318038C01AE
:103590008C018C01000000008000E003F80F9C0EFD
:1035A0008C1C8C188C009800F801E007800E801CA1
:1035B0008C188C189C18B80CF00FE0038000800069
:1035C0000000000000000000000000000E181B0CAE
:1035D000110C11061106110311039B018E01C03855
:1035E000C06C60446044304430441844186C0C385B
:1035F0000000000000000000E001F003380718069A
:1036000018063003F001F000F8009C310E33061E5E
:10361000061C061C063FFC73F021000000000000A1
:10362000000000000000000000000C000C000C0076
:103630000C000C000C000000000000000000000066
:10364000000000000000000000000000000000007A
:103650000000000000000000000200038001C00024
:10366000C0006000600030003000300030003000EA
:1036700030003000300060006000C000C0008001F9
:10368000000300020000000020006000C000800174
:103690008001000300030006000600060006000685
:1036A0000006000600060003000380018001C00040
:1036B000600020000000000000000000000000008A
:1036C0000000C000C000D806F807E001300338074A
:1036D00000000000000000000000000000000000EA
:1036E00000000000000000000000000000000000DA
:1036F000000080018001800180018001FC3FFC3FCF
:103700008001800180018001800100000000000034
:1037100000000000000000000000000000000000A9
:103720000000000000000000000000000000000099
:103730000000000000000000800180010001000185
:1037400080000000000000000000000000000000F9
:103750000000000000000000000000000000E00782
:10376000E007000000000000000000000000000072
:103770000000000000000000000000000000000049
:103780000000000000000000000000000000000039
:103790000000000000000000C000C00000000000A9
:1037A0000000000000000000000C000C00060006F5
:1037B00000060003000300038003800180018001F4
:1037C000C000C000C00060006000000000000000F9
:1037D0000000000000000000E003F007380E180CA5
:1037E0000C180C180C180C180C180C180C180C18B9
:1037F0000C18180C380EF007E00300000000000061
:10380000000000000000000000018001C001F00184
:103810009801880180018001800180018001800180
:103820008001800180018001800100000000000013
:103830000000000000000000E003F80F180C0C1856
:103840000C1800180018000C000600038001C000CE
:10385000600030001800FC1FFC1F0000000000008A
:103860000000000000000000E001F807180E0C0C3A
:103870000C0C000C0006C003C007000C0018001858
:103880000C180C18180CF807E003000000000000EA
:103890000000000000000000000C000E000F000FF0
:1038A000800DC00C600C600C300C180C0C0CFC3F34
:1038B000FC3F000C000C000C000C0000000000009D
:1038C0000000000000000000F80FF80F18001800BA
:1038D0000C00EC03FC071C0E001C0018001800185C
:1038E0000C181C0C180EF807E00300000000000084
:1038F0000000000000000000C007F00F381C18187E
:1039000018000C00CC03EC0F3C0E1C1C0C180C18FF
:103910000C18181C380EF007E0030000000000002F
:103920000000000000000000FC1FFC1F000C00064F
:103930000006000380038001C001C000E0006000B9
:103940006000700030003000300000000000000017
:103950000000000000000000E003F007380E180C23
:10396000180C180C3806F007F007180C0C180C1877
:103970000C180C18380CF80FE003000000000000D1
:103980000000000000000000E003F007380E1C0CEF
:103990000C180C180C181C1C381EF81BE019001809
:1039A000000C000C1C0EF807F001000000000000E5
:1039B0000000000000000000000000000000000007
:1039C00000008001800100000000000000000000F5
:1039D00000000000000080018001000000000000E5
:1039E00000000000000000000000000000000000D7
:1039F00000008001800100000000000000000000C5
:103A00000000000000008001800100010001800032
:103A100000000000000000000000000000000000A6
:103A20000000000000000010001C800FE003F80000
:103A30001800F800E003800F001C001000000000D8
:103A40000000000000000000000000000000000076
:103A5000000000000000F81F000000000000F81F38
:103A60000000000000000000000000000000000056
:103A70000000000000000000000000000000000046
:103A800000000000000008003800F001C007001F1F
:103A90000018001FC007F0013800080000000000F7
:103AA0000000000000000000E003F80F180C0C18E4
:103AB0000C180018000C000600038001C000C000B4
:103AC000C00000000000C000C000000000000000B6
:103AD00000000000000000000000E00718180420AB
:103AE000C229224A114409440944094409221113F4
:103AF000E20C024004201818E0070000000000005B
:103B0000000000000000000080038003C006C00623
:103B1000C006600C600C301830183018F83FF83FC1
:103B20001C700C600C6006C006C0000000000000A5
:103B30000000000000000000FC03FC0F0C0C0C183F
:103B40000C180C180C0CFC07FC0F0C180C300C306B
:103B50000C300C300C18FC1FFC07000000000000AB
:103B60000000000000000000C007F01F38381C30C3
:103B70000C7006600600060006000600060006003F
:103B800006600C701C30F01FE00700000000000011
:103B90000000000000000000FE03FE0F060E0618E5
:103BA000061806300630063006300630063006307D
:103BB00006180618060EFE0FFE03000000000000A7
:103BC0000000000000000000FC3FFC3F0C000C0067
:103BD0000C000C000C00FC1FFC1F0C000C000C0067
:103BE0000C000C000C00FC3FFC3F0000000000003B
:103BF0000000000000000000F83FF83F1800180027
:103C0000180018001800F81FF81F180018001800F6
:103C1000180018001800180018000000000000002C
:103C20000000000000000000E00FF83F3C780E604C
:103C300006E007C00300030003FE03FE03C007C045
:103C400006C00EC03CF0F83FE00F0000000000008E
:103C500000000000000000000C300C300C300C3074
:103C60000C300C300C30FC3FFC3F0C300C300C3076
:103C70000C300C300C300C300C3000000000000018
:103C80000000000000000000800180018001800130
:103C9000800180018001800180018001800180011C
:103CA000800180018001800180010000000000008F
:103CB00000000000000000000006000600060006EC
:103CC00000060006000600060006000600060006C4
:103CD000180618063807F003E00100000000000095
:103CE000000000000000000006300618060C060662
:103CF00006038601C60066007600DE008E0106031C
:103D00000606060C061806300660000000000000DB
:103D10000000000000000000180018001800180043
:103D200018001800180018001800180018001800D3
:103D3000180018001800F81FF81F0000000000000D
:103D400000000000000000000EE01EF01EF01EF05B
:103D500036D836D836D836D866CC66CC66CCC6C609
:103D6000C6C6C6C6C6C686C386C30000000000001D
:103D700000000000000000000C301C303C303C30E3
:103D80006C306C30CC30CC308C310C330C330C3686
:103D90000C360C3C0C3C0C380C30000000000000D1
:103DA0000000000000000000E007F81F1C380E7043
:103DB000066003C003C003C003C003C003C003C048
:103DC00006600E701C38F81FE007000000000000BD
:103DD0000000000000000000FC0FFC1F0C380C303D
:103DE0000C300C300C300C18FC1FFC070C000C00C5
:103DF0000C000C000C000C000C0000000000000087
:103E00000000000000000000E007F81F1C380E70E2
:103E1000066003E003C003C003C003C003C007E0A3
:103E200006630E3F1C3CF83FE0F700C000000000B6
:103E30000000000000000000FE0FFE1F06380630E4
:103E4000063006300638FE1FFE0706030606060C7F
:103E50000618061806300630066000000000000054
:103E60000000000000000000E003F80F1C0C0C181C
:103E70000C180C001C00F803E00F001E0038063080
:103E800006300E301C1CF80FE00700000000000098
:103E90000000000000000000FE7FFE7F8001800126
:103EA000800180018001800180018001800180010A
:103EB000800180018001800180010000000000007D
:103EC00000000000000000000C300C300C300C3002
:103ED0000C300C300C300C300C300C300C300C3002
:103EE0000C300C301818F81FE0070000000000002C
:103EF00000000000000000000360063006300630BD
:103F00000C180C180C18180C180C380E300630064B
:103F1000700760036003C001C001000000000000E2
:103F200000000000000000000360C361C361C361C2
:103F30006633663366336633663366336C1B6C1BDD
:103F40006C1B2C1A3C1E380E380E000000000000BE
:103F500000000000000000000FE00C701830301866
:103F6000700C600EC00780038003C003E006700C75
:103F7000301C18180C300E6007E000000000000034
:103F8000000000000000000003C006600C301C3878
:103F90003818300C6006E007C00380018001800102
:103FA000800180018001800180010000000000008C
:103FB0000000000000000000FC7FFC7F006000307B
:103FC0000018000C000600038001C00060003000F3
:103FD00018000C000600FE7FFE7F000000000000BD
:103FE0000000000000000000E003E003600060004B
:103FF00060006000600060006000600060006000C1
:1040000060006000600060006000600060006000B0
:10401000E003E003000000003000300060006000BA
:104020006000C000C000C000C001800180018001AC
:10403000000300030003000600060000000000006B
:104040000000000000000000E003E00300030003A4
:104050000003000300030003000300030003000348
:104060000003000300030003000300030003000338
:10407000E003E003000000000000C001C001600395
:104080006003600330063006180C180C00000000B6
:104090000000000000000000000000000000000020
:1040A0000000000000000000000000000000000010
:1040B0000000000000000000000000000000000000
:1040C0000000000000000000FFFFFFFF00000000F4
:1040D00000000000000000000C000C000C000C00B0
:1040E0000C000C00000000000000000000000000B8
:1040F00000000000000000000000000000000000C0
:1041000000000000000000000000000000000000AF
:104110000000F003F8071C0C0C0C000FF00FF80C5B
:104120000C0C0C0C1C0FF80FF01800000000000025
:10413000000000000000000018001800180018001F
:104140001800D803F80F380C181818181818181871
:1041500018181818380CF80FD803000000000000D9
:10416000000000000000000000000000000000004F
:104170000000C003F007300E180C180018001800DB
:104180001800180C300EF007C003000000000000FB
:1041900000000000000000000018001800180018BF
:1041A0000018C01BF01F301C181818181818181801
:1041B00018181818301CF01FC01B00000000000069
:1041C00000000000000000000000000000000000EF
:1041D0000000C003F00F300C1818F81FF81F18006B
:1041E00018003818301CF00FC00700000000000055
:1041F0000000000000000000800FC00FC000C000E1
:10420000C000F007F007C000C000C000C000C00040
:10421000C000C000C000C000C000000000000000DE
:10422000000000000000000000000000000000008E
:104230000000E00DF80F180E0C0C0C0C0C0C0C0C04
:104240000C0C0C0C180EF80FE00D000C0C0C1C06DE
:10425000F807F0010000000018001800180018000E
:104260001800D807F80F381C18181818181818183C
:10427000181818181818181818180000000000004E
:104280000000000000000000C000C00000000000AE
:104290000000C000C000C000C000C000C000C000DE
:1042A000C000C000C000C000C0000000000000004E
:1042B0000000000000000000C000C000000000007E
:1042C0000000C000C000C000C000C000C000C000AE
:1042D000C000C000C000C000C000C000C000C000DE
:1042E000F8007800000000000C000C000C000C002E
:1042F0000C000C0C0C060C038C01CC006C00FC00B8
:104300009C018C030C030C060C0C00000000000048
:104310000000000000000000C000C000C000C0009D
:10432000C000C000C000C000C000C000C000C0008D
:10433000C000C000C000C000C000000000000000BD
:10434000000000000000000000000000000000006D
:1043500000007C3CFF7EC7E383C183C183C183C16E
:1043600083C183C183C183C183C1000000000000F9
:10437000000000000000000000000000000000003D
:1043800000009807F80F381C181818181818181873
:10439000181818181818181818180000000000002D
:1043A000000000000000000000000000000000000D
:1043B0000000C003F00F300C18181818181818183F
:1043C00018181818300CF00FC0030000000000008F
:1043D00000000000000000000000000000000000DD
:1043E0000000D803F80F380C1818181818181818E7
:1043F00018181818380CF80FD803180018001800EF
:10440000180018000000000000000000000000007C
:104410000000C01BF01F301C1818181818181818A6
:1044200018181818301CF01FC01B001800180018AE
:10443000001800180000000000000000000000004C
:104440000000B007F0037000300030003000300092
:10445000300030003000300030000000000000006C
:10446000000000000000000000000000000000004C
:104470000000E003F003380E180C3800F003C0070A
:10448000000C180C380EF007E003000000000000DC
:10449000000000000000000000008000C000C0001C
:1044A000C000F007F007C000C000C000C000C0009E
:1044B000C000C000C000C00780070000000000006E
:1044C00000000000000000000000000000000000EC
:1044D000000018181818181818181818181818188C
:1044E00018181818381CF01FE01900000000000010
:1044F00000000000000000000000000000000000BC
:1045000000000C18180C180C180C30063006300679
:10451000600360036003C001C001000000000000F0
:10452000000000000000000000000000000000008B
:104530000000C141C141C361636363636363363695
:10454000363636361C1C1C1C1C1C000000000000EB
:10455000000000000000000000000000000000005B
:1045600000001C38381C300C6006600360036003D8
:1045700060036006300C381C1C380000000000008E
:10458000000000000000000000000000000000002B
:1045900000001830301830187018600C600CE00CF7
:1045A000C006C00680038003800380018001C00133
:1045B000F00070000000000000000000000000009B
:1045C0000000FC1FFC1F000C000600038001C0005F
:1045D000600030001800FC1FFC1F000000000000FD
:1045E000000000000000000000038001C000C000C7
:1045F000C000C000C000C00060006000300060006B
:104600004000C000C000C000C000C000C000800169
:104610000003000000000000800180018001800193
:104620008001800180018001800180018001800182
:104630008001800180018001800180018001800172
:1046400080018001000000006000C000C001800106
:104650008001800180018001000300030006000347
:104660000001800180018001800180018001C00083
:1046700060000000000000000000000000000000DA
:10468000000000000000F010F81F080F00000000FC
:10469000000000000000000000000000000000001A
:1046A0000000000000000000C846000800000020D4
:1046B0001C00000014020008E44600081C00002052
:1046C0006408000030020008000000001000000034
:1046D00001000000000000000024F4000000FFFFC3
:0446E00000000000D6
:04000005080001D915
:00000001FF
