:020000040800F2
:1000000010260020A10100089931000829290008C4
:10001000973100084F070008555500080000000000
:10002000000000000000000000000000853500080E
:1000300035080008000000008335000891350008ED
:10004000BB010008BB010008BB010008BB010008A0
:10005000BB010008BB010008BB010008BB01000890
:10006000BB010008BB010008BB010008BB01000880
:10007000BB010008BB010008BB010008BB01000870
:10008000AD070008BB010008BB010008BB01000868
:10009000BB010008BB010008BB010008BB01000850
:1000A000BB010008BB010008BB010008BB01000840
:1000B000BB010008BB010008BB010008BB01000830
:1000C000BB010008BB010008BB010008BB01000820
:1000D000BB010008BB010008BB010008BB01000810
:1000E000BB010008BB010008BB010008BB01000800
:1000F000BB01000851360008BB010008BB01000825
:10010000BB010008BB010008BB010008BB010008DF
:10011000BB010008BB01000839360008453600085D
:10012000BB010008BB010008BB010008BB010008BF
:10013000BB010008BB010008BB010008BB010008AF
:10014000BB010008BB010008BB0100089D3100088D
:10015000BB010008BB010008BB010008BB0100088F
:10016000BB010008BB010008BB010008BB0100087F
:10017000BB010008BB010008BB0100080000000033
:10018000BB010008BB010008DFF810D000F05EFAE8
:10019000004800475D5E0008AFF300801026002095
:1001A0000648804706480047FEE7FEE7FEE7FEE711
:1001B000FEE7FEE7FEE7FEE7FEE7FEE7293600087A
:1001C000890100082DE9F05F0546002092469B4614
:1001D00088460646814640241BE02846414647465D
:1001E000224600F06AF853465A46C01A914110D38D
:1001F00011461846224600F051F82D1A67EB010807
:100200004F4622460120002100F048F817EB000974
:100210004E41201EA4F10104DFDC484631462A4647
:100220004346BDE8F09FD2B201E000F8012B491E21
:10023000FBD270470022F6E710B513460A46044683
:100240001946FFF7F0FF204610BD00F0004230F0E5
:1002500000400AD0C10D01F56071C0F3160042EAFA
:100260000151C20840071143704700200146704702
:1002700030B50B46014600202022012409E021FA76
:1002800002F59D4205D303FA02F5491B04FA02F573
:100290002844151EA2F10102F1DC30BD202A04DB46
:1002A000203A00FA02F1002070479140C2F1200389
:1002B00020FA03F3194390407047202A04DB203AC8
:1002C00021FA02F00021704721FA02F3D040C2F176
:1002D000200291400843194670472DE9FE4F8046A1
:1002E00081EA0300C00F0C46009021F0004123F08A
:1002F0000045B8EB0200A94105D240462146904690
:100300001C460B46024623F00040104347D0270D01
:10031000C7F30A00C3F30A510290401A0190402823
:100320006BDAC3F3130040F4801B0098924620B1AF
:100330000023D2EB030A63EB0B0B01985946C0F183
:1003400040025046FFF7AAFF06460D465046594662
:10035000019A00F08DF910EB08006141002487EA52
:10036000115284EAE7731A4340D0009A62B3019AAB
:10037000012A4FEA075215DC001B61EB02014FF026
:10038000004202EA0752CDE90042001C41F580110B
:1003900032462B4600F08DF903B0BDE8F08F4046A1
:1003A0002146F9E7001B61EB0201001C41F58013B7
:1003B00000185B412018A2F5001747EB030140EA43
:1003C000D570B6196D4111E06D084FEA360645EA61
:1003D000C0754FEA0752001B61EB0201001C41F59A
:1003E000801149084FEA30000019514132462B462E
:1003F00003B0BDE8F04F00F04DB900980122400075
:100400000023D0EB020263EBE073009821464FEA31
:10041000E074B8EB000061EB0401E9E783F000430E
:100420005BE781F0004158E72DE9FE4F81EA0304C4
:1004300004F0004421F0004100944FF0000B23F041
:10044000004350EA01045ED052EA03045BD0C3F3D8
:100450000A54C1F30A552C44A4F2F3340194A0FBCE
:100460000254C1F3130141F48011C3F3130343F4A5
:10047000801301FB024400FB034E840A970A44EAFE
:10048000815447EA8357A4FB076802958D0A05FB50
:1004900007854FEA932C04FB0C542705029D4FEA75
:1004A000065847EA1637B5EB08056EEB070C870EC2
:1004B000920E47EA811742EA8312A7FB0201B6EBCC
:1004C0000B0164EB00042B0D43EA0C335E1844EB84
:1004D0001C50DA465146E7FB0201C5F313044FEA0C
:1004E0000B3343EA14534FEA0432019C43EA0603F8
:1004F000A4F10C040294009CCDE900B400F0D9F8FA
:1005000003B0BDE8F08F00200146F9E72DE9F04D7A
:1005100081EA030404F0004B21F0004514464FF03B
:10052000000A23F0004150EA050220D054EA0102FB
:100530001DD0C5F30A570246C5F31303C1F31300D8
:10054000C1F30A5640F4801543F48013A7EB060864
:10055000101BD64608F2FD3873EB050002D308F1F4
:10056000010801E092185B41B8F1000F03DA0020A6
:100570000146BDE8F08D00204FF480110646844608
:100580000EE0171B73EB050705D3121B63EB050386
:1005900006434CEA010C49084FEA300092185B41CF
:1005A00050EA0107EDD152EA030012D082EA0400BA
:1005B00083EA0501084305D0101BAB4106D2012296
:1005C000002306E000224FF0004302E06FF001023A
:1005D00053101AEB06004CEB085110EB0A0041EBEC
:1005E0000B01BDE8F04D00F055B8C1F30A52C1F35C
:1005F000130140F2FF3341F480119A4202DA0020E5
:100600000146704740F233439A42A2F2334202DC81
:100610005242FFF752BEFFF741BE000030B5041E44
:1006200071F1000404DB4FF00044404264EB01012F
:10063000141E73F1000405DB1C464FF000435242C8
:1006400063EB0403994208BF904230BD064C074D4E
:1006500006E0E06840F0010394E807009847103492
:10066000AC42F6D3FFF794FD80600008A06000085C
:10067000202A06DBCB17203A41FA02F043EAE07366
:1006800006E041FA02F3D040C2F120029140084353
:100690001946704710B5141E73F1000408DA401CA7
:1006A00041F1000192185B411A4301D120F0010091
:1006B00010BD2DE9F04D92469B4611B1B1FA81F281
:1006C00002E0B0FA80F220329046FFF7E7FD0446E0
:1006D0000F4640EA0A0041EA0B0153465A460843D6
:1006E00013D0114653EA010019D0C8F14002504618
:1006F000FFF7E3FD05460E46504659464246FFF7D2
:10070000CDFD084305D0012004E020463946BDE870
:10071000F08D0020054346EAE0762C4337430A98E3
:100720006305E40AA0EB08000022FD0A44EA4754EE
:100730000A3002D500200146E9E701051019694198
:10074000DDE9084500196941BDE8F04DA2E7FEE783
:10075000002070470020704710B50022044905486A
:1007600003F07EFB0449034803F06DFB002010BD3D
:10077000081300202C060020080B002010B50146AD
:10078000034803F060FB024803F036FB002010BD75
:100790002C0600200020704710B500F1040C029CCC
:1007A0008CE81E000121017010BD0000014800F01E
:1007B00045B800008405002001681823CAB2103A29
:1007C000B2FBF3F2054B6FF30901032A9B5CC3658F
:1007D00000D9091D81650846704700005E60000869
:1007E00010B5014600208B698A6A4FF0C07453B17E
:1007F000B3F5005F15D072B1012A0CD0022A0AD0DD
:10080000032A09D104E01AB1012A06D0022A03D131
:10081000C96AC90100D5012010BDC96AA142FAD038
:1008200010BD002AF7D0012AF2D0022AF3D0032A01
:10083000F3D010BD704772B6FEE700002DE9F84313
:1008400004464FF00009CDF8009063484FF416516C
:10085000A56D0068B0FBF1F72E6894F85C100820D5
:1008600000FA01F131420FD021680A6852070BD516
:100870000A6822F004020A6094F85C108840A860BC
:10088000606D40F00100606594F85C104FF0010865
:1008900008FA01F0304208D021684969090604D5F8
:1008A000A860606D40F00200606594F85C10042060
:1008B0008840304208D021680968890704D5A860BB
:1008C000606D40F00400606594F85C101020884072
:1008D000304218D021680968090714D5A86020683B
:1008E0000168490304D50068000308D5A16C07E03E
:1008F0000168C90503D4016821F008010160216C79
:1009000009B12046884794F85C1020208840304286
:1009100031D021680968C9062DD5A86094F8350042
:1009200005282068016806D0490347D50068000300
:100930001DD4616C1CE021F0160101602068416942
:1009400021F080014161206C08B9A06C20B12068C1
:10095000016821F00801016094F85C103F20884094
:10096000A86084F8358084F83490216D1FE0E16B35
:1009700009B120468847606D00282BD0606DC00704
:1009800014D0052084F835002068016821F00101A9
:1009900001600098401C0090B84203D820680068AD
:1009A000C007F6D184F8358084F83490E16C0029D2
:1009B00010D001B02046BDE8F04308470168C905E2
:1009C000D5D4016821F01001016084F8358084F8E5
:1009D0003490CCE7BDE8F8830C0000202DE9F0410D
:1009E000044600F075F906465CB1022084F8350033
:1009F000002584F834502068016821F0010101606D
:100A00000DE00120BDE8F08100F062F9801B0528AF
:100A100005D920206065032084F83500F2E72068BE
:100A20000068C007F0D12268116820480140D4E96D
:100A300001031843D4E90336334318436369184369
:100A4000A3691843E3691843236A18430843616A9A
:100A5000042903D1D4E90B1319430843106020681B
:100A60004069666A20F0070130460E4301270428DA
:100A70000CD1A06A0643E06A40B12046FFF7B0FE01
:100A800020B14020606584F83570BAE7206846617F
:100A90002046FFF791FE94F85C203F219140816051
:100AA000656584F835700020ACE700003F8010F0E9
:100AB00070B5044600F00CF90546601C02D00448ED
:100AC0000078044400F004F9401BA042FAD370BD42
:100AD000000000202DE9F84FDFF8BCA1002201251D
:100AE00003264FF00F090AF1040BAAF1040E00BF10
:100AF0000B6805FA02F42340A34270D10F7907F086
:100B00000307012F01D0022F16D187684FEA420850
:100B100006FA08FC27EA0C07D1F80CC00CFA08FC0E
:100B20004CEA070CC0F808C04768A7430C79C4F327
:100B3000001494403C4344600C79E443A4070AD079
:100B4000C4684FEA420C06FA0CF7BC438F6807FAF8
:100B50000CF72743C7600C7904F00304022C12D170
:100B6000D40800EB840CDCF820405707FF0E09FA8C
:100B700007F824EA0804D1F8108008FA07F848EAD0
:100B80000408CCF8208004684FEA420C06FA0CF7FF
:100B9000BC430F7907F0030707FA0CF727430760F8
:100BA0004C6814F4403F70D03C4C276847F48047B1
:100BB0002760246822F0030704F480440094384C32
:100BC00007EB040CDCF8084897074FEA177809FA96
:100BD00008F7BC43334FB84202D1002724E054E069
:100BE000314FB84201D101271EE0304FB84201D148
:100BF000022719E02E4FB84201D1032714E02D4FF0
:100C0000B84201D104270FE02B4FB84201D105278C
:100C10000AE02A4FB84201D1062705E0284FB84222
:100C200001D1072700E0082707FA08F72743CCF887
:100C30000878DAF800405746D1F804C09C435FEAD0
:100C4000CC2C00D51C433C60DBF800405F46D1F85B
:100C500004C09C435FEA8C2C00D51C433C60DEF84A
:100C600000407746D1F804C09C435FEA8C3C00D535
:100C70001C433C60084F083F3C68D1F804C09C43CB
:100C80005FEACC3C00D51C433C60521C102AFFF4A8
:100C90002FAFBDE8F88F0000083C01404438024007
:100CA0000030014000000240000402400008024001
:100CB000000C0240001002400014024000180240E4
:100CC000001C02400AB1816170470904FBE7000083
:100CD00001488068704700000000002002488168D9
:100CE0000278114481607047000000200B4810B565
:100CF000016841F400710160016841F480610160A4
:100D0000016841F480710160032000F09BF80F201E
:100D100000F006F800F050F8002010BD003C024042
:100D200030B505461F4887B00024016841F4807142
:100D30000160006806A900F48070009001A800F02E
:100D400049FE0498A8B100F06BFE40001649174A0E
:100D5000B0FBF1F11648491E026040F2E732C0E9EB
:100D60000324C0E90114846101F0D4F8040003D025
:100D700015E000F055FEE9E70D4801F02BF90400FD
:100D80000DD12D2000F030F8102D07D20022294679
:100D90002D2000F037F80748056000E0012407B077
:100DA000204630BD4038024040420F000020004045
:100DB000E4050020040000200A4808B5016841F459
:100DC00080410160006800F4804000900548001FE9
:100DD000016841F080510160006800F0805000908F
:100DE00008BD000044380240002809DB00F01F0263
:100DF000012191404009800000F1E020C0F800117D
:100E000070470000F0B40E4B1B680C46C3F302237E
:100E1000C3F10705042D00D90425191D072901D2A6
:100E2000002300E0DB1E012606FA05F1491E2140E1
:100E300099409E40761E16403143F0BC04F09CBBA6
:100E40000CED00E0064900F0070208684FF6FF03CA
:100E5000184040EA0220034A10430860704700002F
:100E60000CED00E00000FA057047006841620020C8
:100E70007047F0B50368586A39B19C6A4FF48276BE
:100E800000EB144400204D1E0AE040EA0240986244
:100E90000FE006EB8007DF59401C04EB1744C0B29B
:100EA000A842F6D344EA02404FF4807202EB81017B
:100EB00058500020F0BDD0F8E00403F0ACBA01EBCC
:100EC000C10200EB8202D0F8E004126A03F001BA1A
:100ED00001EBC10200EB8202D0F8E004D2F86022FC
:100EE00003F052BAD0F8E00403F097BA0A0601F012
:100EF0000F0101EBC10100EB810101D5143101E0CB
:100F000001F51571006804F073B970B504460B065D
:100F100001F00F0000EBC00104EB81014FF0010272
:100F20004FF0000502D54A75143103E081F855529F
:100F300001F51571087094F89404012808D084F81C
:100F40009424206803F06EFE84F89454002070BD51
:100F5000022070BD70B5044601F00F002279904266
:100F600001D9012070BD0B0601F00F0101EBC10199
:100F700004EB81014FF001024FF0000502D54A75E4
:100F8000143103E081F8555201F515718D70087028
:100F900094F89404012808D084F89424206803F07D
:100FA000B3FF84F89454002070BD022070BD01F09E
:100FB0000F0101EBC10100EB8100D0F8680270471E
:100FC0002DE9F04104460F0601F00F0000EBC001CF
:100FD00004EB81014FF001064FF0000502D54E757C
:100FE000143103E081F8555201F51571C2F30A027C
:100FF00008708A600B714A7802B14883022B00D1D5
:101000004D7194F89404012809D084F89464206800
:1010100003F05AFD284684F89454BDE8F08102207C
:10102000FBE710B501F00F0404EBC40100EB8101F4
:10103000C1E998230023C1F8683281F8553281F85C
:101040005442837901F51571012B00D1CA6182796F
:10105000006803F0B1FF002010BD70B504460D46D6
:1010600001F00F002179884201D9012070BD2906C5
:101070004FF000064FF0010206D500EBC00104EB73
:1010800081014A75143107E005EBC50104EB8101CC
:1010900081F8556201F515718A70087094F894040E
:1010A000012807D084F89424206803F059FF28070A
:1010B00002D007E0022070BDA17904F29C422068B2
:1010C00003F0F6FE84F89464002070BD10B501F0C2
:1010D0000F0404EBC40100EB8101C1E908230023E4
:1010E0008B6201234B7501F8144F8379012B00D1DA
:1010F000CA618279006803F05FFF002010BD000024
:101100002DE9FC5F05680446284604F00DF9002827
:101110007DD1206804F034F9002878D0D5F808088B
:10112000C0F30D20C4F8D404206804F029F9800726
:1011300004D52068416901F002014161206804F092
:101140001FF9C10604F29C40009034D520688169E3
:1011500021F0100181612F6A07F00F0000EBC00041
:1011600004EB8006C7F3434006F51576022802D04B
:10117000062811D01AE047F6F070074216D0C7F3E0
:101180000A1217462846F16804F0FEF8F068384461
:10119000F0607069384408E008222846009904F09D
:1011A000F3F87069C7F30A11084470612068816917
:1011B00041F010018161206804F0E2F800034FF073
:1011C000080B4FF0000A4FF001097CD5002620687B
:1011D00004F0B5F8074674E0F80770D0F1B2206863
:1011E00004F0C6F88046C00707D005EB4611C1F8E9
:1011F000089B3146204601F0D7FF5FEA087024D5EE
:1012000005EB4611C1F808BB2068016C00E023E241
:1012100000EB46100191D0F8082BFB4B994205D901
:10122000110403D54FF40041C0F8081B204600F01C
:10123000F6FAF5490198884207D9A079012804D126
:1012400020680121009A03F033FE5FEAC86004D5EC
:1012500005EB46111020C1F8080B5FEA88701DD518
:101260006869000605D5D5F8040840F48061C5F822
:10127000041806EBC60004EB800090F8571200F546
:101280001570012905D180F803A0F1B2204600F0C5
:10129000E9F905EB46110220C1F8080B5FEA886006
:1012A00004D505EB46102021C0F8081B5FEA8840F2
:1012B00005D505EB46104FF40051C0F8081B7F0818
:1012C000761C002F88D1206804F05AF840036ED5B0
:1012D000206804F02DF80746002666E0F80762D083
:1012E000F1B2206804F032F88046C00723D006F03F
:1012F0000F01D5F8342809FA01F18A43C5F83428DA
:1013000005EB4611C1F80899A07901280FD106EB29
:10131000C60004EB8000D0E907211144016236B910
:10132000606A20B920680121009A03F0C1FDF1B282
:101330002046FFF7C4FD5FEA087003D505EB4611B0
:10134000C1F808B95FEAC86004D505EB4611102062
:10135000C1F808095FEA486004D505EB4610402152
:10136000C0F808195FEA887016D53146284603F0A0
:10137000B0FF06EBC60004EB8000C17D14300129EC
:1013800005D180F803A0F1B2204600F067F905EB23
:1013900046110220C1F808095FEA086003D531460A
:1013A000204601F067FF7F08761C002F96D1206849
:1013B00003F0E6FF002811DAD5F8040820F0010157
:1013C000C5F8041894F8CC0401282BD0204600F06E
:1013D0000BFA2068416901F000414161206803F087
:1013E000CFFF00050BD5D5F80808C00702D020466E
:1013F00000F03EFA2068416901F400614161206813
:1014000003F0BEFFC00467D5D5F8040820F0010042
:10141000C5F804081021206803F05BFF00214FF697
:101420007F3220E084F8CCA400212046FFF71CFD89
:10143000CFE700BF05EB4110C0F80829D0F800390C
:1014400023F40013C0F80039C0F8082BD0F8003B93
:1014500023F40013C0F8003BD0F8003B43F00063D6
:10146000C0F8003B491C20798842E3D8D5F81C0815
:1014700040F00111C5F81C18E07B002828460DD06B
:10148000D0F8840840F00B01C5F88418D5F844085A
:1014900040F00B012846C5F844180DE0D0F81408B8
:1014A00042F22B010843C5F81408D5F8100840F0A3
:1014B0000B012846C5F81018D0F8000820F4FE618A
:1014C000C5F80018A1792068009A03F0F1FC2068A3
:1014D000416901F480514161206803F051FF8004AB
:1014E00015D5206803F030FB206803F010FFE07191
:1014F00000F090FA0146E279206803F0A3FF20464D
:1015000000F05CF92068416901F4005141612068F4
:1015100003F036FF000707D5204600F069F9206880
:10152000416901F008014161206803F029FF0006CC
:1015300016D5A86920F08001A96101260DE000BF41
:1015400006EBC60004EB800090F85702012803D197
:10155000F1B22046FFF7CAFC761C2079B042EFD8E2
:10156000206803F00DFFC0021FD501264F4614E08E
:1015700005EB4610D0F8001906EBC60004EB80021C
:10158000107E012808D1002906DAF0B240F080016F
:10159000D7752046FFF7AAFC761C2079B042E7D821
:1015A0002068416901F480114161206803F0E8FE80
:1015B000800234D501204A4629E000BF05EB4011E6
:1015C000D1F8001B00EBC00304EB830393F85862CF
:1015D000012E1BD1002919DA94F8D46401F480316A
:1015E00006F00106B14211D183F85722A96941F0F2
:1015F0008003AB616969090608D4D5F8040840F492
:101600000070C5F8040805E00A30544F401C2179E9
:101610008142D3D82068416901F4001141612068FA
:1016200003F0AEFE400007D52046FFF744FC2068DB
:10163000416901F080414161206803F0A1FE40074B
:101640000AD520684568680702D52046FFF74AFC9E
:101650002068416829434160BDE8FC9FD0F8E00460
:1016600002F02DBFD0F8E00402F03DBFF8B5040051
:1016700005D094F895042668002510B106E00120F5
:10168000F8BD84F89454204600F056F8032084F8FE
:101690009504B6F1A04F00D1A571206803F002FCBB
:1016A000207C8DF8000094E80F0003F05BFA02261E
:1016B000B8BB0021206803F086FE90BB0020012704
:1016C0000DE000BF00EBC00104EB81014F75087510
:1016D000C8850D76CD610D62401CC0B24D62217986
:1016E0008142EFD8002011E000EBC00104EB810142
:1016F00081F8555281F8540281F85852C1F85C5271
:10170000C1F86052401CC0B2C1F8645221798142D4
:10171000EAD8207C8DF8000094E80F0003F004FB69
:1017200010B184F89564AAE7657484F8957420680C
:1017300003F0ECFA0020F8BD10B586B00446142181
:101740006846FEF777FD2068B0F1A04F2FD1194809
:101750000021026842F001020260006800F001000E
:1017600005904FF4C05000900220CDE90101032004
:1017700003900A20049069460F48FFF7ABF90D4823
:10178000001D016841F0800101600A4814300168C1
:1017900041F4804101600068002200F4804005901F
:1017A00011464320FFF72EFB4320FFF71DFB06B039
:1017B00010BD0000303802400000024070B5044601
:1017C000C079012570B1022801D0FFF734F829460D
:1017D000D4F8E00402F0F5FED4F8E004BDE870406F
:1017E00002F0AABE0025F2E7D0F8E00402F0D2BE73
:1017F000D0F8E00402F0D8BE10B5044690F8940486
:1018000001280AD0012084F894046174206803F050
:1018100008FE002084F8940410BD022010BDD0F80A
:10182000E02400F29C41104602F0D7BE10B50446F9
:10183000006894F89414012909D0012184F89414C3
:10184000C168490609D5617B012902D005E0022063
:1018500010BD816B41F480318163206803F017FD76
:10186000206803F045FA002084F8940410BD0000BD
:1018700010B50446D0F8E00402F0F1FE2068D0F87C
:10188000001E41F00101C0F8001EE07A002804D0DB
:101890000248016841F00601016010BD10ED00E052
:1018A0002DE9F0470E46050065D0DFF81481D8F821
:1018B0000000F7B200F00700B04207D288F80070CD
:1018C000D8F8000000F00700B04254D128683D4C21
:1018D000810712D5400703D5206840F4E05020600E
:1018E0002878000703D5206840F460402060206815
:1018F000A96820F0F000084320602878C0072DD0A8
:10190000304968680839012812D0022813D003280A
:1019100011D00968890700292DDA216821F0030117
:1019200001432160FFF7D4F9814641F2883A0EE085
:1019300009688903EFE709688901ECE7FFF7C8F94F
:10194000A0EB0901514502D90320BDE8F0872068CA
:10195000696800F00C00B0EB810FEFD1D8F80010EF
:10196000404601F00701B14207D90770006800F056
:101970000700B04201D00120E7E72878400705D5ED
:101980002068E96820F4E0500843206028780007C8
:1019900006D52068296920F4604040EAC100206033
:1019A00000F05EF82168084AC1F30311515CC84099
:1019B0000649086006480068FFF7B2F90020C4E74E
:1019C000003C024008380240666000080C0000201D
:1019D000040000200F2202600C4A136803F0030386
:1019E0004360136803F0F0038360136803F4E0536B
:1019F000C36012684FF4E05303EAD2020261044864
:101A0000006800F0070008607047000008380240D6
:101A1000003C024001480068704700000C000020B4
:101A20000448054900680968044AC1F38221515CF1
:101A3000C84070470C00002008380240766000085B
:101A40000448054900680968044AC1F34231515C01
:101A5000C84070470C00002008380240766000083B
:101A6000154810B5006810F00C02144813D041104E
:101A7000042A0FD0082A0ED10F4C241F2268236895
:101A800002F03F025B0207D52068C0F38810A0FB7C
:101A9000010106E0084610BD2168C1F38811A1FBD1
:101AA00000010023FEF78EFB2168C1F30141491CB0
:101AB0004900B0FBF1F010BD083802400024F400EA
:101AC0002DE9F84F04006ED02078DFF84C93C00762
:101AD000A9F104054AD009F104000168C1F38101AC
:101AE000012908D00068C0F3810002280AD1D9F882
:101AF0000000400206D52868800337D560680028BA
:101B0000E1D033E06068B0F5803F10D0B0F5A02F91
:101B1000286810D020F480302860286820F48020C5
:101B200028606068A8B1FFF7D3F806460DE0286882
:101B300040F48030F4E740F480202860F7E700BFED
:101B4000FFF7C6F8801B642873D828688003F7D590
:101B50000CE0FFF7BDF8064605E000BFFFF7B8F858
:101B6000801B6428F0D828688003F7D42078DFF839
:101B7000AC8280074FF0000A3ED5A748001D0168DF
:101B800011F00C0F08D00068C0F3810002280BD1BF
:101B9000D9F80000400207D42868800716D5E0680D
:101BA000012800D112E033E1E068B8B10120C8F8A3
:101BB0000000FFF78DF8064605E000BFFFF788F844
:101BC000801B0228C0D828688007F7D528682169BB
:101BD00020F0F80040EAC10028600DE0C8F800A03D
:101BE000FFF776F8064604E0FFF772F8801B02283C
:101BF0001FD828688007F7D42078000722D5864FA1
:101C000087486169703771B101210160FFF760F8A1
:101C1000064604E0FFF75CF8801B022809D8386804
:101C20008007F7D50EE0C0F800A0FFF751F8064690
:101C300005E082E0FFF74CF8801B02287DD8386869
:101C40008007F7D42078400768D5DFF8CCB10027AB
:101C50000BF13C0BDBF80000C0000BD4DBF80010EC
:101C600041F08051CBF80010DBF80000012700F0B4
:101C7000805000906B4E3068C00510D4306840F43E
:101C800080703060FFF724F8009005E0FFF720F83F
:101C90000099401A022850D83068C005F6D55E4E2B
:101CA000A0686C3601280FD00528306810D020F0CD
:101CB00001003060306820F004003060A068B8B1E6
:101CC000FFF706F800900FE0306840F00100F4E7FD
:101CD00040F004003060F7E7FEF7FAFF0099411A80
:101CE00041F28830814266D830688007F4D50EE032
:101CF000FEF7EEFF009007E0FEF7EAFF0099411AB9
:101D000041F28830814256D830688007F4D42FB130
:101D1000DBF8001021F08051CBF80010A069C8B3A7
:101D20003D49091D0968C1F3810102294AD00228F1
:101D3000504607D0C8F8600000E03CE0FEF7C8FF5E
:101D400004463BE04746C8F86000FEF7C1FF064680
:101D500005E000BFFEF7BCFF801B02282BD82868D7
:101D60008001F7D4D4E907010843A16A2E4A490843
:101D700002EB0141626A41EA8211084394F82C1097
:101D800040EA0161C9F8001001203866FEF7A0FFA3
:101D9000044606E03EE000BFFEF79AFF001B022863
:101DA00009D828688001F7D534E000BFFEF790FF1E
:101DB000001B022802D90320BDE8F88F28688001A3
:101DC000F4D427E00128F7D0D9F80000E26900F444
:101DD000800191421CD1226A00F03F01914217D14B
:101DE00047F6C071626A0140B1EB821F10D1A26A4E
:101DF0004FF0FF3300F4403103EB5202B1EB024FDE
:101E000006D194F82C1000F07060B0EB016F01D097
:101E10000120D1E70020CFE704380240000047420C
:101E2000800E4742007000400000FFFF704770477F
:101E300010B590F83C20012A22D0012280F83C20E5
:101E4000CA688C6822F4407222434C6822F4806293
:101E500022430C6822F4006222430C6922F480526F
:101E600022434C6922F400522243C969002322F420
:101E700080420A4301684A6480F83C30002010BD6B
:101E8000022010BD70B590F83C20012A32D0012408
:101E900080F83C40022280F83D2003685A689D6823
:101EA00022F070060A6832435A60134B02689A4265
:101EB00014D0B2F1804F11D0104B9A420ED0104B7B
:101EC0009A420BD00F4B9A4208D00F4B9A4205D042
:101ED0000E4B9A4202D00E4B9A4204D1496825F02B
:101EE00080031943916080F83D40002180F83C1048
:101EF000084670BD022070BD000001400004004093
:101F000000080040000C0040000401400040014077
:101F10000018004010B5040003D094F83D0010B143
:101F200007E0012010BD002084F83C00204600F0AE
:101F30001FF8022084F83D00211D206801F08EFB6F
:101F4000012084F8460084F83E0084F83F0084F8BD
:101F5000400084F8410084F8420084F8430084F88B
:101F6000440084F8450084F83D00002010BD0000C6
:101F700008B5154A0168154891420ED1016841F033
:101F8000100101600068002200F0100000900A219A
:101F90003620FEF737FF362010E00D4A914211D16E
:101FA000016841F0200101600068002200F020007B
:101FB000009009213720FEF725FF3720BDE80840B3
:101FC000FEF712BF08BD000000100040403802407C
:101FD0000014004090F83D10012901D00120704705
:101FE000022180F83D100168CA6842F00102CA600F
:101FF00000681149884214D0B0F1804F11D00F49C8
:1020000088420ED00E4988420BD00E49884208D033
:102010000D49884205D00D49884202D00C498842BA
:1020200004D1816801F00701062903D0016841F05D
:1020300001010160002070470000014000040040E1
:1020400000080040000C0040000401400040014036
:10205000001800402DE9F0410D46040003D094F82B
:102060003D0018B108E00120BDE8F081002084F8AF
:102070003C00204600F040F8022084F83D00206833
:10208000816844F2070291438160211D206801F0BC
:10209000E5FA226890689169166A2B68AF69034374
:1020A00040F20330814341EA0721A868EF69084301
:1020B0004FF6FC418843E96840EA0720014328695C
:1020C0002F6A000140EA0730084369686D6926F00D
:1020D000AA0646EA0515294393602268906154F8E0
:1020E000460B0162012004F81F09E0752076E076B6
:1020F0002077A0750020B7E770B586B0044614219C
:102100006846FEF797F8444923680024424A10398C
:1021100002254248B3F1804F19D0414EB34245D118
:10212000106840F002001060106800F00200059096
:10213000086840F0040008600868694600F0040080
:102140000590C0200090CDE90154364861E0136845
:1021500043F001031360126802F0010205920A685D
:1021600042F001020A600A6802F0010205920A6860
:1021700042F002020A600968012601F0020105919D
:102180004FF400410091CDE90154CDE90346694681
:10219000FEF7A0FC08200090CDE90154CDE90346EC
:1021A00069462148FEF796FC06B070BD1F4EB3424B
:1021B00017D1106840F004001060106800F00400AF
:1021C0000590086840F0080008600868694600F05B
:1021D000080005904FF440500090CDE90154144898
:1021E00017E0144EB342DFD1136843F008031360C5
:1021F000126802F0080205920A6842F001020A60C1
:10220000096801F00101059103210091CDE9015414
:102210006946CDE90345C5E7403802400000024069
:102220000004004000080240000402400008004092
:10223000000C0240000C004070B590F83E6004466F
:1022400090F83F5090F8423090F84320022021B19E
:1022500004290ED0012E1BD114E0012E18D1012B20
:1022600016D184F83E0084F8420001220021206843
:1022700020E0012D0CD1012A0AD184F83F0084F816
:10228000430014E0012D03D1012B01D1012A01D01B
:10229000012070BD84F83E0084F83F0084F84200BD
:1022A00084F8430001220021206801F043FA012252
:1022B0000421206801F03EFA2068016841F0010124
:1022C0000160002070BD70472DE9F04104460068B0
:1022D000C66805694FF00007A90713D5B10711D5E6
:1022E000F91E01610120207720688069800720465F
:1022F00002D0FFF7E8FF04E000F0A8F8204600F065
:102300004DF92777680716D5700714D521686FF047
:1023100004000861022020772068806910F4407F63
:10232000204602D0FFF7CFFF04E000F08FF82046F0
:1023300000F034F92777280715D5300713D5216821
:102340006FF008000861042020772068C0698007CA
:10235000204602D0FFF7B7FF04E000F077F82046F0
:1023600000F01CF92777E80616D5F00614D5216889
:102370006FF010000861082020772068C06910F411
:10238000407F204602D0FFF79EFF04E000F05EF899
:10239000204600F003F92777E80708D0F00706D0B9
:1023A00021686FF001000861204600F05DF9280601
:1023B00008D5300606D521686FF0800008612046F8
:1023C000FFF734FD680608D5700606D521686FF062
:1023D00040000861204600F08FF9A8060AD5B00633
:1023E00008D521686FF0200008612046BDE8F04163
:1023F000FFF71DBDBDE8F08110B586B0044614217D
:102400006846FDF717FF0E492068884216D10D482F
:102410000021026842F010020260006800F0100023
:1024200005904FF4D44000900220CDE90101012035
:10243000CDE9031069460448FEF74CFB06B010BD19
:10244000000001403038024000100240704770B573
:10245000044690F83C0000260D4601280FD00120CC
:1024600084F83C006AB1042A1DD0082A2FD00C2A17
:102470003FD00126002084F83C00304670BD022089
:1024800070BD206801F064F92068816941F008019D
:1024900081612068816921F004018161206881697E
:1024A0002A69114311E0206801F082F920688169EE
:1024B00041F4006181612068816921F4806181615A
:1024C000206881692A6941EA02218161D2E7206896
:1024D00001F0A4F92068C16941F00801C1612068D8
:1024E000C16921F00401C1612068C1692A691143F1
:1024F00011E0206801F0C6F92068C16941F400616B
:10250000C1612068C16921F48061C1612068C1692D
:102510002A6941EA0221C161ACE710B5040003D089
:1025200094F83D0010B107E0012010BD002084F8B0
:102530003C00204600F01EF8022084F83D00211DDA
:10254000206801F08BF8012084F8460084F83E00F2
:1025500084F83F0084F8400084F8410084F8420089
:1025600084F8430084F8440084F8450084F83D0072
:10257000002010BD08B500680649884208D1064809
:10258000016841F001010160006800F00100009065
:1025900008BD0000000001404438024070470000C0
:1025A00010B50446022249B104290ED0082913D0DF
:1025B00094F84100012816D0012010BD94F83E0087
:1025C0000128F9D184F83E200FE094F83F0001285B
:1025D000F2D184F83F2008E094F840000128EBD1C4
:1025E00084F8402001E084F841200122206801F0B5
:1025F000A1F816492068164A884201D0904203D1BA
:10260000436C43F4004343642068884213D0B0F124
:10261000804F10D00F4988420DD00F4988420AD010
:102620000E49884207D0904205D00D49884202D019
:102630000C49884204D1816801F00701062903D0C2
:10264000016841F001010160002010BD000001405F
:10265000000401400004004000080040000C00405D
:1026600000400140001800407FB505461C481D4C45
:10267000854209D160681C49A03000F0C9F9A06802
:102680001A49A03000F0C4F9194885421ED160688B
:1026900000F1A001C01C00F065F9A06800F1A001E4
:1026A000C01C00F05FF90020009001900290694684
:1026B000CDF80C0004EB80025268D21C41F82020B7
:1026C000401C0428F6DB084600F0CCF909492868CC
:1026D000884203D1BDE87F40FEF700BB7FBD00000C
:1026E0001C040020A0020020FC0200204403002063
:1026F0006404002000200040704770B5040004D03E
:1027000094F84100002510B106E0012070BD84F866
:102710004050204600F024F8242084F8410020682E
:10272000C16821F40051C160204601F0FBF8206827
:10273000016921F4904101612068416921F02A0179
:1027400041612068C16841F40051C1606564202086
:1027500084F8410084F842006563002070BD0000E9
:10276000F0B587B0064614216846FDF763FD3E4884
:10277000D6F800C000253D490222032307273C4C20
:10278000844517D139481430066846F010060660B3
:10279000006800F010000590086840F00100086033
:1027A0000868694600F00100059058028DE8250090
:1027B000204654E02D48DFF8BCE01030F44535D118
:1027C000D0F800C04CF4003CC0F800C0006800F431
:1027D00000300590086840F001000860086869460C
:1027E00000F0010005900C208DE82500CDE90337AD
:1027F0002046FEF76FF9214C1F4820604FF0006023
:10280000C4E901054014C4E9035080106561C4E9BE
:1028100006504002C4E908052046FEF7DFF808B17B
:10282000FEF709F8F463A66307B0F0BD144CA445A5
:10283000FAD1046844F480240460006800F4802025
:102840000590086840F0080008600868694600F0D4
:10285000080005904FF440708DE825000948CDE947
:102860000337FEF737F9DFE7001001403038024048
:1028700000000240004400408860024084050020BF
:1028800000480040000C02402DE9F843044690F84F
:102890004100984616460D46202802D00220BDE889
:1028A000F88385B17EB100206064212084F8410066
:1028B000FEF70EFAA6848146E684A0682027B0F5CC
:1028C000805F02D003E00120E9E7206910B12E46C5
:1028D00000250EE000260CE08021204601F0A8F83B
:1028E000A8B9C6B116F8010B21684860E08C401EFB
:1028F000E084E08C4B464FF00002CDF800800028C9
:10290000EAD14FF04001204601F092F840B184F83E
:1029100041700320C3E735F8020BC0F30800E3E77A
:1029200084F841700020BAE7FEE70000F0B500230C
:102930000A24302537261F4611E000BFB4EB107F74
:1029400002D905EB107C01E006EB107C01F813C006
:1029500001EB430C00015B1C8CF80170DBB293426D
:10296000ECD3F0BD10B591ED0A0ADFED150AB3EE18
:102970000E1A044620EE200ADFED120A20EE200A8D
:10298000F5EE000A60EE200A80EE810AB2EE0A1A25
:10299000C0EE010A9FED0C1A80EE810A10EE101AAB
:1029A000C0F84510D4F8150000EE101A00EE900A99
:1029B000204600F0B1FC10EE100AC4F81D0010BD56
:1029C000D80F4940B81E853D6F12833A03F0CABA4A
:1029D00010B500210B48FFF7E3FD04210948FFF77C
:1029E000DFFD3C210848FFF727FC3C210748FFF7A3
:1029F00023FC054947F230500968486203490968D9
:102A0000486210BDB4020020FC02002044030020F4
:102A10000A68526ADFED0F0A00EE102A0E4BB8EE7C
:102A2000400A30EE600A10EE102A80ED000A9A4249
:102A30000ADA10EE102A094B9A4205D2096847F2C9
:102A400030524A6200F06ABB9FED050A80ED000A31
:102A5000704700000060EA4600401C4600401CC66B
:102A6000000000002DE9F04104460068394E3A4F5D
:102A7000D0F81D00394D00EE100A4FF48071B5EE0C
:102A8000C00AF1EE10FA06DC00EE100AB5EEC00A3C
:102A9000F1EE10FA0ED101223046FEF713F90022B2
:102AA00004213846FEF70EF92068D0F81D0000EE2C
:102AB000100A0FE000223046FEF704F9012204213B
:102AC0003846FEF7FFF82068D0F81D0000EE100A27
:102AD000B1EE400A2968BCEEC00A10EE100A486345
:102AE0006068D0F81D0000EE100AB5EEC00AF1EEE5
:102AF00010FA06DC00EE100AB5EEC00AF1EE10FA8C
:102B00000FD1002202213846FEF7DCF80122802195
:102B10003046FEF7D7F86068D0F81D0000EE100AC6
:102B200010E0012202213846FEF7CCF80022802175
:102B30003046FEF7C7F86068D0F81D0000EE100AB6
:102B4000B1EE400A2968BCEEC00A10EE100A886394
:102B5000BDE8F0810010024000040240B4020020F1
:102B6000094808B5016841F40011016000680022BD
:102B700000F40010009011461020FEF743F9BDE864
:102B800008401020FEF730B9303802402DE9F047F8
:102B900086B014216846FDF74DFB5C4800240168AF
:102BA00041F010010160016801F010010591016818
:102BB00041F004010160016801F004010591016820
:102BC00041F080010160016801F080010591016818
:102BD00041F001010160016801F001010591016806
:102BE00041F002010160016801F0020105910168F4
:102BF00041F0080101600068DFF8148100F008006E
:102C00000590012228214046FEF75CF8414F002242
:102C100043F628413846FEF755F80122022138468E
:102C2000FEF750F8DFF8F090002247F2070148461F
:102C3000FEF748F84FF4C076002231464046FEF7D2
:102C400041F8DFF8D8A0002201215046FEF73AF8FB
:102C500001252820CDE9000569464046CDE9024519
:102C6000FDF738FF4FF470500090CDE901546946EC
:102C700038460394FDF72EFF0A20CDE9000569468A
:102C80003846CDE90245FDF725FF2020CDE90005B6
:102C90000220CDE9024069463846FDF71BFF0720B8
:102CA0000090CDE90154694648460394FDF712FFB0
:102CB0000096CDE90154694640460394FDF70AFFAA
:102CC0004FF4E040CDE900050320CDE9025069460C
:102CD0004846FDF7FFFEE803CDE900046946484693
:102CE0000294FDF7F7FE0095CDE901546946504680
:102CF0000394FDF7EFFE0820CDE900046946504635
:102D00000294FDF7E7FE06B0BDE8F08730380240D8
:102D1000001002400008024000040240000C024083
:102D200010B592B000240F941C2168461094FDF752
:102D300081FA202107A8FDF77DFA2C482A49016075
:102D40002921C0E9011440F28F11C0E90314446144
:102D50008461FFF7E2FB08B1FDF76DFD0F940FA949
:102D600022481094FFF78EF808B1FDF764FD60204B
:102D7000CDE900040294039404940594002269466A
:102D80001A480694FFF763FB08B1FDF754FD0422CF
:102D900069461648FFF75BFB08B1FDF74CFD0822BA
:102DA00069461248FFF753FB08B1FDF744FD0C22BA
:102DB00069460E48FFF74BFB08B1FDF73CFD079451
:102DC000089409944FF400500A94CDE90B4007A9E8
:102DD00006480E94FFF72CF808B1FDF72CFD0348C8
:102DE000FFF70AFB12B010BD00000140B402002042
:102DF00010B58CB024216846FDF71CFA0024154854
:102E000009944FF080410A94C0E90014611EC0E9A2
:102E10000241046184610320CDE900040120CDE971
:102E200002040494CDE905400794694609480894D2
:102E3000FFF710F908B1FDF7FEFC099409A9054850
:102E40000A94FFF71FF8002801D0FDF7F4FC0CB03E
:102E500010BD0000FC02002010B58CB02421684693
:102E6000FDF7E8F900241648099414490A94C0E9CA
:102E700000144FF6FF71C0E9024104618461032030
:102E8000CDE900040120CDE902040494CDE9054018
:102E9000079469460A480894FFF7DCF808B1FDF783
:102EA000CAFC099409A906480A94FEF7EBFF00281A
:102EB00001D0FDF7C0FC0CB010BD000000040040C4
:102EC0004403002010B58CB024216846FDF7B2F908
:102ED00000241648099414490A94C0E900144FF6D6
:102EE000FF71C0E90241046184610320CDE900045F
:102EF0000120CDE902040494CDE905400794694618
:102F00000A480894FFF7A6F808B1FDF794FC099465
:102F100009A906480A94FEF7B5FF002801D0FDF77D
:102F20008AFC0CB010BD0000000800408C0300209B
:102F300010B58CB024216846FDF77CF900241548B3
:102F4000099413490A94C0E90014611EC0E90241C2
:102F5000046184610320CDE900040120CDE902046D
:102F60000494CDE90540079469460A480894FFF7A0
:102F700071F808B1FDF75FFC099409A905480A94A6
:102F8000FEF780FF002801D0FDF755FC0CB010BD06
:102F9000000C0040D40300201CB500240E4800940F
:102FA0000C4901940160A721C0E9011440F2E73106
:102FB0008461C160FEF7AEFF08B1FDF73CFC0094F0
:102FC000694605480194FEF75DFF002801D0FDF732
:102FD00032FC1CBD001000401C0400201CB5002465
:102FE0000E4800940C4901940160A721C0E9011426
:102FF00042F20F718461C160FEF78CFF08B1FDF7EA
:103000001AFC0094694605480194FEF73BFF00282E
:1030100001D0FDF710FC1CBD00140040640400202A
:103020000C4810B50A4901604FF4E13141600021BC
:1030300081600C22C160C0E904128161C161FFF7A7
:103040005CFB002803D0BDE81040FDF7F4BB10BDC9
:1030500000100140AC0400200C4810B50A49016082
:103060004FF4E1314160002181600C22C160C0E970
:1030700004128161C161FFF740FB002803D0BDE865
:103080001040FDF7D8BB10BD00440040F404002000
:103090000C4810B50A4901604FF4E131416000214C
:1030A00081600C22C160C0E904128161C161FFF737
:1030B00024FB002803D0BDE81040FDF7BCBB10BDC9
:1030C000004800403C05002010B500220F49104880
:1030D00001F0DAF808B1FDF7AEFB0E490C4801F03B
:1030E000EAFA08B1FDF7A7FB0B49094800F0A0FE7A
:1030F00008B1FDF7A0FB064801F060FB002803D0F3
:10310000BDE81040FDF797BB10BD00001000002087
:103110002C060020CC00002060000020D0ED080A22
:10312000C0ED090AD0ED073AC0ED083A90ED063A35
:1031300080ED073AD0ED052AC0ED062A90ED042A6D
:1031400080ED052AD0ED031AC0ED041A90ED021AA5
:1031500080ED031A90ED014A80ED024A90ED000ADD
:1031600080ED010A30EE000A30EE040A30EE010A6A
:1031700030EE210A30EE020A30EE220A30EE030A67
:1031800030EE230A30EE200AF2EE040A80EE201A16
:1031900080ED0A1A7047FEE7FEE700000148FDF7E0
:1031A000AFBF0000281D00202DE9F04103680D4647
:1031B00004461E6C03EB4511D1F8080B94F806E0A9
:1031C0004FF400474FF0200C04F29C42BEF1010F77
:1031D00009D0DFF898E0764539D1020432D500BF36
:1031E000C1F8087B3FE0224B5FEA007E04D59E4297
:1031F00039D90004F4D436E05FEA806E02D5C1F814
:1032000008CB30E010F0280F2DD19E4201D90004E8
:10321000E6D405EBC50004EB8000D1F8101BD0F814
:103220007432C1F31201591AC0F8681200F5157012
:10323000ADB903691BB1C2681144C1600FE001213F
:1032400020680AE080060AD5C1F808CB07E035B946
:10325000D4F8640218B90021184601F029FEE9B239
:103260002046FDF735FE0020BDE8F0810A31544FBD
:103270000A30544F2DE9F84F0E4601EBC60100EB22
:10328000810481460568D4E909101434884202D9C2
:103290000120BDE8F88F081AA168814200D20846D3
:1032A000C01C870805EB46181BE000BFA0EB010A15
:1032B000A068504500D282460AF10300870899F8B9
:1032C000060000901FFA8AF3F2B22846E16802F085
:1032D0002DF9E16801EB0A00E060616901EB0A0089
:1032E0006061D8F8180980B2B84205D3D4E9040166
:1032F000814201D20028D9D1D4E90401884208D8FA
:1033000006F00F0101208840D5F834188143C5F834
:1033100034180020BDE7000070B5D0B1D0F83D20D2
:10332000C0F84120D0F8393010EE901AC0F83D3086
:10333000C0F8151010EE101A30EEC00AC0F81910BF
:1033400010EE101AC0F8391004782CB1012C6FD18E
:1033500079E09FED6C0A70BD50F8012F00EE101A55
:1033600000EE902A20EE800A00EE901A10EE104A2D
:103370000462426A00EE102A426801EE102A01EE51
:10338000200A00EE903A10EE102A00EE101A426267
:10339000056B30EE600A4563C56A10EE101A0563CE
:1033A000C162836800EE101A00EE903A20EE800AA7
:1033B00010EE103A00EE102A83620169401E00EE02
:1033C000901AB4EEE00AF1EE10FA02DDC0F8251012
:1033D00011E000EE901A00EE102AF1EE600AB4EE51
:1033E000E00AF1EE10FA06D200EE101AB1EE400A31
:1033F00010EE101AEAE7D0F8251000EE104A00EEA1
:10340000901A70EE200A00EE103A30EE800A10EEAC
:10341000102AC0F81D2000EE102AD0F80D1000BFB1
:1034200000EE901AB4EEE00AF1EE10FA08DC59E072
:1034300063E000BF00EE101AB1EE400A10EE101A61
:10344000C0F81D1059E000EE101A00EE903A50F846
:10345000014FB0EE001A70EE600A00EE104A20EE46
:10346000800A10EE104A00EE101A0462456800EE61
:10347000905A60EE800A00EE101A10EE905A00EE9C
:10348000903A4562066B00EEC10A00EE902A466350
:10349000C66A066330EE200A10EE101AC162826816
:1034A00000EE101A00EE902A20EE800A00EE905AEC
:1034B00010EE101A00EE104A816270EE200A00EE43
:1034C000101A50F81C1F70EE800A00EE101A30EE31
:1034D000800A10EE102A40F8102900EE102A50F849
:1034E0000D199DE700EE901A00EE102AF1EE600A29
:1034F000B4EEE00AF1EE10FA9CD3D0F81D0000EE15
:10350000100A70BD0000000000281BD00021C0F888
:103510004110C0F83D10C0F83910C0F83510C0F89F
:103520003110C0F82D10C0F82910C0F82510C0F8CF
:103530002110C0F81D1040F8151F416080F83810A8
:1035400001634163704700281AD0002A18D000F8A0
:10355000011B11680160516841609168816010EE43
:10356000101AC16010EE901A0161002141630163DD
:10357000C162C1618162416201620164C1638163B0
:103580007047704770470178407841EA00207047E3
:103590007047000030B593B030216846FCF74AFE12
:1035A00014210CA8FCF746FE1D480025016841F0D7
:1035B00080510160006800F0805011901948016846
:1035C00041F4804101600068022400F480401190C1
:1035D00001200090000401908001CDE90640042004
:1035E0000890A820CDE9090407200B906846FEF753
:1035F00067FA08B172B6FEE70CA90F2081E8310026
:103600004FF4A0500F904FF48050109005210CA85B
:10361000FEF746F9002801D072B6FEE713B030BDC0
:1036200040380240007000400248016841F47001D7
:103630000160704788ED00E00148FEF745BE0000DC
:103640001C0400200148FEF73FBE00006404002077
:103650000148FEF739BE0000E4050020F0B502681D
:10366000294C2A4D2A4E2B4F2B4B4FF0804CA04219
:1036700009D0604507D0A84205D0B04203D0B84277
:1036800001D0984204D122F0700E4A6842EA0E023C
:10369000A0421BD0604519D0A84217D0B04215D027
:1036A000B84213D0984211D01C4DA8420ED01C4DE8
:1036B000A8420BD01B4DA84208D01B4DA84205D0F4
:1036C0001A4DA84202D01A4DA84203D122F44075E7
:1036D000CA682A434D6922F080022A4302608A6840
:1036E000C2620A688262A04201D0984201D109698F
:1036F0000163012141610169C90703D0016921F01A
:1037000001010161F0BD0000000001400004004023
:1037100000080040000C004000040140004001404F
:10372000004401400048014000180040001C0040D7
:103730000020004010B501F01F030121046A9940E8
:103740008C430462016A9A401143016210BD00007B
:10375000F0B5036A026A22F00102026242688469DB
:10376000124E24F073050C682C4323F002058B687D
:103770002B430D4DA84201D0B04205D123F00807DC
:10378000CB683B4323F00403A84201D0B04205D1EB
:103790004D6922F4407215438A692A43426084616C
:1037A000496841630362F0BD00000140000401402C
:1037B000F0B5026A036A23F0100303624368846968
:1037C0000D6824F4E64444EA05248D6822F02002C2
:1037D00042EA05120F4D104EA84201D0B04206D168
:1037E000CF6822F0800242EA071222F04002A8428B
:1037F00001D0B04207D14D6923F4406343EA850309
:103800008D6943EA8503436084614968816302628C
:10381000F0BD00000000014000040140F0B5026A64
:10382000036A23F4807303624368C46922F400725C
:1038300024F073050C68124E2C438D6842EA052271
:103840000E4DA84201D0B04206D1CF6822F40062EA
:1038500042EA072222F48062A84201D0B04207D196
:103860004D6923F4405343EA05138D6943EA051378
:103870004360C4614968C1630262F0BD0000014059
:103880000004014030B5046A026A22F480520262E8
:103890004268C3690D6823F4E64343EA05238D6853
:1038A00024F4005444EA0534084DA84202D0084DDF
:1038B000A84204D14D6922F4804242EA8512426056
:1038C000C36149680164046230BD0000000001402A
:1038D0000004014001680C3151E8002F22F490727D
:1038E00041E80023002BF5D10168143151E8002F85
:1038F00022F0010241E80023002BF5D1016B0129E0
:1039000009D101680C3151E8002F22F0100241E882
:103910000023002BF5D1202180F842100021016303
:103920007047000070B5044600680169E26821F440
:103930004051114301612169A068E269084361694E
:10394000114308432168CA6849F20C639A43024351
:10395000CA6020684169A26921F440711143416144
:1039600031492068884202D03049884202D1FEF7AE
:1039700067F801E0FEF754F8E26900231921642595
:103980003226B2F5004F626828D0A0FB0101930FE8
:103990009200FCF717FC0146B0FBF5F06FF018023F
:1039A000504301EB800006EB0010B0FBF5F000F097
:1039B000F002B1FBF5F002EB0012B1FBF5F06FF095
:1039C0001803584301EB800006EB0010B0FBF5F044
:1039D00000F00F0021681044886070BDA0FB010159
:1039E00092185B41FCF7EEFB0146B0FBF5F00201DB
:1039F000B1FBF5F06FF01803584301EB800006EBC4
:103A0000C000B0FBF5F000F0F80002EB4002B1FBA3
:103A1000F5F0584301EB800006EBC000B0FBF5F079
:103A200000F00700D6E7000000100140001401403C
:103A30002DE9F843984617460D460446089E24E0B3
:103A4000701C22D0FDF744F9A0EB0800B0421AD850
:103A5000CEB12068C168490717D5802D15D0402DFB
:103A600013D00168C94309070FD4016800254068D5
:103A700000902046FFF72EFF0820606484F8405035
:103A80000120BDE8F8830320FBE72068006835EAE1
:103A9000000004D00020B842D2D00020F1E701207D
:103AA000F9E72DE9F0410C46D0F8D412D0F8C8223D
:103AB00000EB8101D1F8C01229B304F00F0606EB28
:103AC000860300EB83050027AB694BB106EBC60606
:103AD00002EB8602D269B3FBF2F602FB1632A2B108
:103AE000C1F81472D0F8D42200EB8200D0F8C402DE
:103AF00003692BB1D1F80802224601F504719847F9
:103B00000020BDE8F0810320FBE700231A46214690
:103B1000AF6100F0B1FDF3E770B50546D0F8D4020F
:103B200005EB8000D0F8C04294B1284600F084FC38
:103B3000C4F80C02D5F8D412D4F8040205EB8101C4
:103B4000D1F8C412CA6804F503719047002070BD13
:103B5000032070BD70B5224D0446297800F0B0FBFB
:103B60002878002600F00F0000EB800004EB8000B6
:103B700086846978204600F0A3FB687800F00F0087
:103B800000EB800004EB8000A0F86461A978204677
:103B900000F096FBA87800F00F0000EB800004EB2B
:103BA00080008684C684D4F8D40204EB8000D0F868
:103BB000C01299B1D0F8C40240688047D4F8D4024A
:103BC00004EB8000D0F8C00200F079FFD4F8D402F2
:103BD00004EB8000C0F8C062C4F8BC62002070BD75
:103BE0007800002010B5D0F8D41200EB8100D0F896
:103BF000C04284B1D0F8C41259B194F80002FF2831
:103C000007D08B6894F8012221469847FF2084F85A
:103C10000002002010BD032010BD00000A21018019
:103C2000004870477C00002070B5064682210C4891
:103C300000F0C9FA05460121094800F0C4FA04461B
:103C40008121074800F0BFFA0DB11021A971402170
:103C500004B1A18000B1818043203080004870BD54
:103C60008800002070B5064682210D4800F0ABFAAE
:103C7000054601210A4800F0A6FA044681210848B9
:103C800000F0A1FA0DB11021A9714FF4007104B137
:103C9000A18000B1818043203080014870BD0000C8
:103CA0008800002070B5064682210C4800F08BFA8F
:103CB00005460121094800F086FA0446812107489B
:103CC00000F081FA0DB11021A971402104B1A18049
:103CD00000B1818043203080004870BD8800002002
:103CE0002DE9F04704464FF40775284600F0E8FE3A
:103CF00006004FF0000863D02946FCF79BFAD4F881
:103D0000D4023C4D04EB80004FF01009C0F8C062B3
:103D1000C4F8BC62207C4FF4007A0127F0B3402342
:103D200002222978204600F0F2FB2878402300F098
:103D30000F0000EB800004EB80008784022269788A
:103D4000204600F0E4FB6878082300F00F0000EB49
:103D5000800004EB80000322A0F86471A97820465B
:103D600001F00F0101EB810104EB8101A1F8269024
:103D7000A97800F0CCFBA87800F00F0000EB8000E1
:103D800004EB80008784C6F80482D4F8D402474646
:103D900004EB8000D0F8C402006800E018E006F5EB
:103DA000017680473761776132687AB1207CF8B15B
:103DB00040236978204600F0B6FB0020BDE8F0877C
:103DC000D4F8D41204EB8101C1F8C0820220F5E7D7
:103DD000534602222978204600F099FB2878534662
:103DE00000F00F0000EB800004EB80008784A5E763
:103DF0005346DEE77800002010B5D0F8D41200EB6F
:103E00008101D1F8C01259B1027C084C002AD1F8C6
:103E1000042207D04023617800F085FB002010BD0C
:103E2000032010BD4FF40073F5E700007800002078
:103E300039B1D0F8D42200EB8200C0F8C4120020BF
:103E4000704703207047D0F8D42200EB8200D0F8EE
:103E5000C00218B1C0F80412002070470320704758
:103E6000D0F8D43200EB8300D0F8C00228B1C0F8FB
:103E70001022C0F8081200207047032070472DE977
:103E8000FC410646D0F8D4020C4606EB8000002127
:103E9000D0F8C0728DF80010ADF804100D4637B19F
:103EA000217811F060022FD0202A4BD102E00320AC
:103EB000BDE8FC81E288F2B109060DD5D0F8C40254
:103EC00063783946D0F808C01846E047E288072AE8
:103ED00000D9072239462DE0607887F80002E08893
:103EE000402800D34020C2B287F80122394630462C
:103EF00000F058F82BE0D0F8C402637800228668FE
:103F000021461846B04722E0607830B101281ED023
:103F10000A2809D00B2815D110E096F89C02032836
:103F200010D1022201A905E096F89C02032809D1CC
:103F300001226946304600F04FF808E096F89C02EE
:103F4000032804D02146304600F021F803252846F6
:103F5000AEE710B5D0F8B82200245268904700B1FF
:103F60000324204610BD00207047002070471346F0
:103F700010B50A46002100F0D6FA002010BD134605
:103F800010B50A46002100F077FB002010BD10B5E7
:103F90000446802100F051FB2046BDE8104000217E
:103FA00000F04BBB10B50323C0F89432C0F8582181
:103FB0001346C0F85C210A46002100F0B4FA002044
:103FC00010BD10B50521C0F8941200231A461946F9
:103FD00000F0A9FA002010BD10B50223C0F89432F9
:103FE00082611346C2610A46002100F045FB0020B1
:103FF00010BD10B50421C0F8941200231A461946CA
:1040000000F03AFB002010BD10B50A46024903A09B
:1040100000F007F9004810BD080900204344432080
:10402000436F6E6669670000122008800048704781
:104030003000002010B50A46024903A000F0F1F854
:10404000004810BD0809002043444320496E7465B0
:1040500072666163650000000420088000487047B4
:104060002C00002010B50A46024903A000F0D9F840
:10407000004810BD0809002053544D6963726F65F4
:104080006C656374726F6E696373000010B50A46E5
:10409000024903A000F0C5F8004810BD080900203F
:1040A00053544D3332205669727475616C20436FDE
:1040B0006D506F727400000010B51A20088040180F
:1040C00009D008220549FEF731FC044904221031C9
:1040D0002046FEF72BFC0148801E10BD4600002044
:1040E000F8B504460020ADF8000048880D46010AE6
:1040F00008295FD2DFE801F05E0409175E5E3C45E7
:10410000D4F8B412207C0A6819E0207C022600282A
:10411000D4F8B80205D0C16A68468847014646709F
:1041200039E0816AF8E7C0B2062843D2DFE800F040
:10413000030A1014181CD4F8B402426805E069465A
:1041400090471CE0D4F8B402826892B3207CF6E772
:10415000D4F8B402C268F8E7D4F8B4020269F4E70C
:10416000D4F8B4024269F0E7D4F8B4028269ECE70B
:10417000207CF0B9D4F8B802416B68468847014604
:1041800009E0207CA8B9D4F8B802016B68468847DA
:10419000014607204870EA888AB1BDF8000040B1A6
:1041A000824200D90246ADF800202046FFF714FFF6
:1041B000F8BDFFE729462046FFF7E9FEF8E720466D
:1041C000FFF717FFF4E778B50E464288017800251F
:1041D00004468A4212D9ADF800100AE0694600F0A0
:1041E00019F84178052904D181780546B14205D0F6
:1041F00000256188BDF800209142EFD8284678BD9F
:104200000146002002E0401CC0B2491C0A78002A86
:10421000F9D170470A8803781A440A800178084463
:10422000704770B516460D46002820D00446FFF7AB
:10423000E7FF022101EB40014FF40070814204D8F6
:104240002046FFF7DDFF4000801C3080307828706A
:10425000032068700220002206E02954401CC0B2EE
:104260002A54401CC0B2641C21780029F5D170BDCD
:1042700001004FF0000004D0012901D0022901D033
:10428000032070470120704778B10023C0F8B8328E
:10429000C0F8C432C0F8D03209B1C0F8B41201215C
:1042A00080F89C12027000F0CBB80320704710B564
:1042B000D0F8C802FCF74EFEBDE81040FFF7D8BFAB
:1042C00010B5D0F8C802FCF720FEBDE81040FFF79B
:1042D000CFBF2DE9F04117460446002521B194F8DF
:1042E0009C02032842D04CE0D4F8941204F114004C
:1042F000022935D1D0E902639E4206D9F21A8260C2
:1043000039462046FFF73BFE0FE0B34214D1406828
:10431000984211D3D4F8981288420DD20022114647
:104320002046FFF72CFEC4F8985200231A4619467F
:10433000204600F0F8F813E094F89C02032808D116
:10434000D4F8B802C16821B1C4F8D452C16820467B
:1043500088478021204600F070F92046FFF731FEA3
:1043600094F8A00268B184F8A0520AE0D4F8B80228
:10437000426932B1C4F8D4524269204690470028BD
:1043800000D10020BDE8F08170B51346044600223C
:1043900021B194F89C02032830D03AE0D4F894126A
:1043A00004F5AA70032934D1D0E902518D420AD90B
:1043B0006A1A82600846824200D3024619462046A5
:1043C000FFF7D5FD25E094F8AA0210F01F0003D0F6
:1043D000012802D0022800D0002294F89C02032871
:1043E00008D1D4F8B802016921B1C4F8D422016916
:1043F000204688472046FFF7FCFD0AE0D4F8B802C3
:10440000836933B1C4F8D4228269204690470028DA
:1044100000D1002070BD0020704710B5002401219C
:1044200080F89C12D0F8B82222B1526801799047E6
:1044300000B10324204610BDD0F8C802FCF7B7BD78
:1044400010B5017839BB15490222C1F8E004C0F863
:10445000C8124FF0A040086004200871CA71002003
:1044600088714A728872C87208738873C873084664
:10447000FDF7FCF808B1FCF7DEF980210748FCF7EE
:10448000F4FC402200210548FCF7F3FC80220121C6
:104490000248FCF7EEFC002010BD0000281D0020A3
:1044A0000A0601F07F01D0F8C80201EBC10100EB60
:1044B000810001D5807D704790F85602704710B595
:1044C000D0F8D42200EB8202D2F8B82222B190F8C0
:1044D0009C32032B02D004E0032010BD126A02B10B
:1044E0009047002010BD10B5D0F8D42200EB820216
:1044F000D2F8B82222B190F89C32032B02D004E00B
:10450000032010BD526A02B19047002010BD10B5C3
:104510001C461346D0F8C8022246FCF751FDBDE800
:104520001040FFF7A5BE10B5D0F8C802FCF779FD22
:10453000BDE81040FFF79CBE2DE9F04100260125A3
:10454000044680F89C52C4F894626660C4F8A46281
:1045500080F8A062D0F8B80230B1426822B10021E0
:104560002046904700B103260022402311462046F2
:10457000FFF7CDFF4027A4F864513B46002280217D
:104580002046C4F86071FFF7C2FFA5843046276259
:10459000BDE8F08190F89C12042903D190F89D1297
:1045A00080F89C120020704710B590F89C120329E7
:1045B00005D1D0F8B81211B1C96901B188470020FE
:1045C00010BD01740020704710B5D0F8C802FDF787
:1045D00013F9BDE81040FFF74BBE70B5044600F27A
:1045E000AA20054600F051F80120C4F89402B4F85E
:1045F000B002C4F8980294F8AA0210F01F010AD081
:1046000001290ED0022912D000F080012046BDE819
:10461000704000F012B829462046BDE8704000F016
:10462000CFB829462046BDE8704000F00FBA2946B1
:104630002046BDE8704000F059B910B5D0F8C80266
:10464000FCF70BFDBDE81040FFF712BE10B5D0F827
:10465000C802FDF7EBF8BDE81040FFF709BE90F87F
:104660009C12042903D090F89C1280F89D1204211A
:1046700080F89C120020704710B5D0F8C802FCF7F3
:1046800025FDBDE81040FFF7F3BD70B5054611F8F4
:10469000010B2870087868704C1C2046FEF773FFE9
:1046A0006880A41C2046FEF76EFFA880A01CFEF7C1
:1046B0006AFFE88070BD38B504460020ADF8000000
:1046C000A1B1C4F8B812D4F8D40204EB8000D0F839
:1046D000B802C16A19B168468847C4F8D002D4F854
:1046E000D802401CC4F8D802002038BD032038BDD1
:1046F00002460020D2F8B832002B02D01B681046C8
:10470000184770472DE9F04188462B4E89780025DF
:1047100004463170012906D941462046FFF737FC8F
:104720000320BDE8F08194F89C02022702280CD0F7
:1047300003281DD041462046FFF729FC317820464A
:10474000FFF707FC03252846EBE789B320466160A5
:10475000FFF7CEFF050004D041462046FFF717FCC7
:104760001DE02046FFF745FC032084F89C02EAE7A1
:10477000C1B1606888421BD0C1B22046FFF7E9FB97
:10478000317820466160FFF7B3FF050010D0414645
:104790002046FFF7FCFB21792046FFF7DAFB84F87F
:1047A0009C72D0E784F89C7220466160FFF7D1FBD1
:1047B0002046FFF71EFCC6E774000020FFF746BF47
:1047C0002DE9F0410A78002512F060020CD0202A71
:1047D00001D0402A7DD1D0F8D42200EB8202D2F859
:1047E000B8229268904731E04B78002201260A2BCC
:1047F0006FD2DFE803F041666E586E08056E2D2912
:10480000FFF76EFC67E004468888D8B9C888C8B945
:104810004888802816D200F07F0794F89C0203286D
:1048200010D084F89E7239462046FFF7CDFE204610
:10483000FFF7DFFB1FB1022084F89C024BE084F8F5
:104840009C6248E0204644E0FFF75CFF054642E0FA
:10485000CB88012B3DD190F89C32012B04D0022B48
:1048600002D0032B35D104E08260012200F108015F
:1048700016E00122011D13E090F89C22012A03D0CA
:10488000022A01D0032A24D1CA88022A21D1C66073
:10489000D0F8A41209B10321C160022200F10C0179
:1048A000FFF79AFB17E04A88012A02D0022A03D0B8
:1048B0000FE0C0F8A46216E08988090A80F8A01207
:1048C00011E090F89C32012B08D0022B06D0032B6C
:1048D00004D0FFF75CFB2846BDE8F0814988012938
:1048E000F9D1C0F8A422FFF784FBF4E72DE9F041E9
:1048F000054608780C790E464FF0000810F060006D
:104900000BD0202801D040286AD121462846FFF745
:104910002AFBFF2800D0D8B395E07078C8B30128EF
:1049200024D003285CD195F89C02022802D00328E9
:1049300056D10CE0002C53D0802C51D02146284673
:10494000FFF77BFE80212846FFF777FE7BE070882B
:1049500040B93CB1802C05D0C88818B921462846FA
:10496000FFF76BFE2846FFF744FB6CE095F89C02CE
:104970000228DFD0032863D1708880BB600603D093
:1049800021462846FFF793FC2846FFF732FBBCE799
:1049900000E00AE0C5F8D402D5F8B8028268F2B1A6
:1049A00031462846904780464DE095F89C02002706
:1049B000022802D0032843D113E00CB1802C3FD150
:1049C000200604F07F0000EB800005EB800101D59C
:1049D000143101E001F5AA7102220F602CE032E0EF
:1049E0002EE0200604F00F0000EB800005EB8000B5
:1049F00009D5808C20B304F07F0000EB800005EB2C
:104A0000800614360AE0B0F86401C8B104F07F00F3
:104A100000EB800005EB800606F5AA764CB1802CF1
:104A200007D021462846FFF73BFD10B1012030603A
:104A300000E03760022231462846FFF7CDFA02E057
:104A40002846FFF7A4FA4046BDE8F08170B5054658
:104A5000087800240E4610F0600003D0202801D012
:104A6000402827D195F89C02012803D0022801D0C4
:104A700003281FD1B088C1B201291AD8C1B2284673
:104A8000FFF773FAFF280CD058B9D5F8B8128A6826
:104A90003AB1C5F8D4028A683146284690470446A0
:104AA00000E00324F088204307D12846FFF7A1FA4D
:104AB00003E031462846FFF76AFA204670BD70478A
:104AC00000487047081B002070B50A78012302F0E7
:104AD0000F054E78AB401B4CD0F81C58012E17D058
:104AE00045EA0343C0F81C3800EB4210D0F8002B15
:104AF00012040BD4D0F8002B0B890979C3F30A03F5
:104B00001A4344EA81410A43C0F8002B002070BDDB
:104B10009BB21D43C0F81C5800EB4210D0F800397E
:104B20001B04F3D4D0F800390D890979C5F30A05BF
:104B300089042B4341EA82510B432343C0F80039D7
:104B4000E4E7000000800010D0F800196FF30A01BC
:104B5000C0F80019D0F8041841F48071C0F80418A6
:104B60000020704770B50D460446C2F30721049833
:104B70001E4601291BD0E06840F04000E06020465E
:104B800000F032F8C6F307210029A16B26D021F4EA
:104B90008031A163C5F30741012907D1A16841F024
:104BA0000601A160A16841F02001A16070BDA16B68
:104BB00021F48031A163E1680A4A1140E160E168B3
:104BC00021F44011E160C0B2012803D1E06840F453
:104BD0008010E060204600F007F8DBE741F4803108
:104BE000D7E70000BFFFBDFF08B500214FF070629E
:104BF0000091009B5B1C009393420CD80369002B2F
:104C0000F7DA0091016941F0010101610099491C45
:104C10000091914201D9032008BD0169C907F5D16E
:104C2000002008BD30B54C780A78012300EB421211
:104C3000012C2CD0D2F8004B002C0BDAD2F8004B10
:104C400044F00064C2F8004BD2F8004B44F08044BA
:104C5000C2F8004BD0F83C580C7804F00F0403FA6B
:104C600004F425EA0444C0F83C48D0F81C4809780C
:104C700001F00F018B4024EA0341C0F81C18D2F860
:104C8000000B19490840C2F8000B002030BDD2F8D3
:104C90000049002C0BDAD2F8004944F00064C2F855
:104CA0000049D2F8004944F08044C2F80049D0F8E5
:104CB0003C480D7805F00F0503FA05F5ADB2AC439D
:104CC000C0F83C48D0F81C48097801F00F018B402F
:104CD00099B28C43C0F81C48D2F800090349084037
:104CE000C2F80009D1E700000078F3EF007833EC58
:104CF000D0F8001E21F00301C0F8001ED0F80418FF
:104D000021F00201C0F8041800207047D0F8001EFE
:104D100021F00301C0F8001ED0F8041841F0020190
:104D2000C0F80418002070472DE9F04F00250E460A
:104D3000044617462846294604EB8002C2F80411AF
:104D4000401C0F28F8D3C3F307405FEA0009204650
:104D500016D0806B20F40012A263A06B40F40022F6
:104D6000A263084688462146C4F8000EC7F3072010
:104D7000012817D00846D1F8001841F0030118E0C7
:104D8000D0F8040840F00202C4F80428A06B40F4F4
:104D90000012A263A06B20F40022A263A06B20F497
:104DA0008022DDE7300E0846D1F8001801D041F02E
:104DB0000101C0F80018102100F08BFA00B10125A4
:104DC000204600F06AFA00B101254046C4F8108878
:104DD000C4F81488C4F81C8800214FF0006B4FF011
:104DE000904E4FF67F3AF2B215E000BF04EB41134C
:104DF000D3F800C9BCF1000F06DA11B1C3F800E91D
:104E000004E0C4F800B901E0C3F80009C3F81009D0
:104E1000C3F808A9491C8A42E8D8002115E000BF60
:104E200004EB4113D3F800CBBCF1000F06DA11B14B
:104E3000C3F800EB04E0C4F800BB01E0C3F8000BCA
:104E4000C3F8100BC3F808AB491C8A42E8D8D4F861
:104E5000101821F48072C4F81028A0616FF080400F
:104E60006061C6F3074018B9A06940F01000A06166
:104E7000A0690A490843A061C7F3074018B1A069B7
:104E800040F00800A061B9F1010F03D1A069044905
:104E90000843A0612846BDE8F08F000000383C8040
:104EA00004000040816821F001018160002070470A
:104EB00010B5036C134CA34203D9D0F8003B002B70
:104EC0001EDB0023C0F8103BD0F8103B43F4002356
:104ED000C0F8103BD0F8103B43F01803C0F8103B6B
:104EE000D0F8103B43F0C043C0F8103B012907D174
:104EF000C0F8142BD0F8001B41F08021C0F8001B33
:104F0000002010BD0A30544F4A780B78012A00EB7C
:104F100043100BD0D0F8002B22F40012C0F8002B65
:104F20000979032914D0022912D017E0D0F80029FA
:104F300022F40012C0F800290979032901D00229BE
:104F40000CD1D0F8001941F08051C0F8001905E0EB
:104F5000D0F8001B41F08051C0F8001B00207047C2
:104F60000A784B78D1B200EB4110012B12D0D0F867
:104F7000001B002906DB2AB1D0F8001B21F080417C
:104F8000C0F8001BD0F8001B41F40011C0F8001B52
:104F900000207047D0F80019002906DB2AB1D0F8AC
:104FA000001921F08041C0F80019D0F8001941F42F
:104FB0000011C0F80019EBE7F8B50C784F788B4D6D
:104FC000E3B26FF0604600EB4313012F29D0D3F812
:104FD000107B6FF31207C3F8107BD3F8107B2F40C0
:104FE000C3F8107B002C7DD00D69002D7BD08C6820
:104FF00025446D1EB5FBF4F5ADB26C430C62D3F8DD
:10500000104B06EAC5452C43C3F8104BD3F8104BA0
:105010000D6AC5F312052C43C3F8104B012A70D05A
:10502000CBE00F69EFB1D3F810796FF31207C3F833
:105030001079D3F810792F40C3F810790CB30F69A9
:105040008D682F447F1EB7FBF5F5D3F81079ADB20C
:1050500006EAC5463743C3F810790E79012E1CD0F5
:105060002AE0D3F810692E40C3F81069D3F810591C
:1050700045F40025C3F81059D3F810596FF3120501
:1050800020E00E698D68AE4200D90D61D0F810594C
:1050900045F40026C0F810690EE0D3F8106926F038
:1050A000C046C3F81069D3F810694FF0C04707EA4B
:1050B00045752E43C3F81069D3F810590E69C6F32D
:1050C00012063543C3F81059012A1BD000EB4413D4
:1050D000D3F8004944F00444C3F800490C79012C8A
:1050E00031D001E044E057E00A695AB3D0F83428DF
:1050F000097801F00F03012199400A43C0F83428D0
:1051000071E056E0CA691AB100EB4413C3F81429E0
:10511000097901290ED1D0F80818C90500EB44110E
:10512000D1F8002902D442F0005201E042F080524E
:10513000C1F8002900EB4410D0F8001941F00441F7
:10514000C0F800194FE0D0F80848E405D3F800494A
:1051500002D444F0005401E044F08054C3F8004904
:1051600000920A8A93B20A78C96800F0DFF93AE03F
:105170000C690CB18C680C618C680C62D0F8105B07
:10518000C4F312042543C0F8105BD0F8104B44F46C
:105190000024C0F8104B41E7D3F8104B8D68C5F3DD
:1051A00012052C43C3F8104BD3F8104B44F40024E1
:1051B00032E7CA680AB1C3F8142B097901290CD166
:1051C000D0F80808C005D3F8000B02D440F0005016
:1051D00001E040F08050C3F8000BD3F8000B40F022
:1051E0000440C3F8000B0020F8BD0000FFFF07E0FB
:1051F00038B50022009213464D780A7842F21074B6
:1052000000EB4212012D19D0D2F8005B002D3CDAE0
:10521000D2F8005B45F00065C2F8005B0A7800EB4D
:105220004212D2F8005B45F08045C2F8005B009A5C
:10523000521C0092A24221D9012326E0D2F8005943
:10524000002D22DAD2F8005945F00065C2F8005965
:105250000A7800EB4212D2F8005945F08045C2F8B6
:105260000059009A521C0092A242E5D80A7800EB3D
:105270004212D2F80029002AF3DB06E00A7800EB9C
:105280004212D2F8002B002AD1DB184638BD8168C3
:1052900041F0010181600020704708B500214FF006
:1052A00070620091009B5B1C009393420AD80369D3
:1052B000002BF7DA0091102101610099491C00913F
:1052C000914201D9032008BD0169C906F5D4002027
:1052D00008BD18B500224FF070630092009C641C5A
:1052E00000949C420CD80469002CF7DA009220222A
:1052F00042EA811101610099491C0091994201D94A
:10530000032018BD01698906F5D4002018BDD0F826
:10531000080810F0060004D0022803D0062801D0A7
:105320000F20704702207047406900F0010070476D
:10533000D0F81818D0F81C08084080B27047D0F890
:105340001818D0F81C080840000C704710B5D0F8A9
:105350001038D0F8342801F00F0400EB4110E2407F
:1053600002F00102D0F8080943EAC212104010BD51
:1053700000EB4111D1F8081BD0F814080840704721
:10538000416980690840704730B503460846940873
:1053900002F00301002203F5805303E01D6840F88A
:1053A000045B521CA242F9D300290BD01C680022D6
:1053B000D50024FA05F3491E521C090400F8013BEC
:1053C000090CF5D130BD70B50446C068002520F049
:1053D000C040E060012901D079B120E0E06840F0F0
:1053E0000050E0600A20FBF763FB60690A3510F0AB
:1053F000010F10D1C82DF5D30DE0E06840F08040DA
:10540000E0600A20FBF754FB60690A3510F0010FD9
:1054100001D0C82DF5D3C82D01D0002070BD0120CA
:1054200070BDD0F8002822F4FE62C0F80028D0F841
:1054300000284FF4FE6303EA01110A43C0F8002874
:1054400000207047022A3ED1264A274B0A449A423E
:1054500001D20F2138E0254A254B0A449A4201D255
:105460000E2131E0234A244B0A449A4201D20D21F5
:105470002AE0224A224B0A449A4201D20C2123E01C
:10548000204A214B0A449A4201D20B211CE01F4AB8
:105490001F4B0A449A4201D20A2115E01D4A1E4BB5
:1054A0000A449A420FD31D4A1D4B0A449A4201D224
:1054B000082109E01B4A11441B4A914201D20721ED
:1054C00002E0062100E00921C26822F47052C260A5
:1054D000C2684FF4705303EA81210A43C26000207E
:1054E00070470000405327FF00350C00401E1BFF93
:1054F00040420F0000DC0BFF804F1200808CF9FE51
:1055000020D6130060B6E5FE60E3160000D3CEFEA1
:1055100040771B00C05BB3FEC091210000CA91FE22
:1055200020753800E05459FEE09C410010B5029C03
:1055300074B9DB1C9C0800EB0230002300F580509E
:1055400004E000BF51F8042B02605B1CA342F9D3B6
:10555000002010BDFEE700000FB4054B10B503A9F5
:10556000044A029800F0EAF810BC5DF814FB000051
:10557000455E0008040100200907090E002804DB2D
:1055800000F1E02080F80014704700F00F0000F1F7
:10559000E02080F8141D704702E008C8121F08C1FF
:1055A000002AFAD170477047002001E001C1121FA4
:1055B000002AFBD1704700002DE9FF5F82B0002177
:1055C000DDE90430020DDDF840B0034318D044F6A5
:1055D0001050A2F2FF3242431514119801281FD037
:1055E000A5EB0B00401C5FEA000A4FF000064E4F8F
:1055F000DFF83891B046504615D5CAF1000413E0E3
:10560000119801244AA3012801D16FEA0B010298E5
:10561000119AC0E90031C0E9024206B0BDE8F09F2E
:10562000CBF10000DFE704460021404A491842EB75
:105630000450CDE9001012E0E00707D032463B46A7
:1056400040464946FAF7F0FE8046894632463B46D8
:1056500010461946FAF7E8FE06460F466410002C7D
:10566000EAD1DDE90401DDE90023BAF1000F06DA31
:10567000FAF7DAFE42464B46FAF7D6FE05E0FAF7AD
:1056800045FF42464B46FAF741FF04460E460022CC
:10569000284BFAF7C3FF03D84FF0FF30014607E06D
:1056A0000022254B20463146FAF717FEFAF79DFFF8
:1056B000102409E0002C0ADB0A220023FAF782FDFD
:1056C000039B30321A55641E50EA0102F2D1641C69
:1056D000039AC4F111031444119A012A03D0012240
:1056E00008430DD10AE0084304D000204FF0110B0D
:1056F000119072E7A3EB0B056D1E0DE05B4504DD19
:105700004FF0000205F1010504E003DA4FF000025A
:10571000A5F10105002AECD002981199C0E90231E7
:10572000C0E9004579E70000000014400000F03FA8
:10573000300000000000F0430000E03F2DE9FF4F83
:1057400095B09A46884606460025EEE1252877D191
:1057500000242746F94A0121039400E0044316F887
:10576000013F203B01FA03F01042F7D130782A289C
:1057700011D06FF02F033078A0F13002092A16D82B
:10578000039A44F0020402EB820203EB420210444B
:10579000761C0390EFE758F8042B0392002A03DAF3
:1057A000504244F40054039044F00204761C3078D4
:1057B0002E2816D116F8010F44F004042A280DD023
:1057C0006FF02F023078A0F13003092B09D807EBD6
:1057D000870302EB4303C718761CF3E758F8047BF2
:1057E000761C30786C280FD006DC4C2817D068283F
:1057F0000DD06A2814D104E0742810D07A280FD173
:105800000DE044F400140AE044F4801401E044F490
:1058100040147278824202D104F58014761C761C02
:10582000307866280BD013DC582877D009DC0028A4
:1058300075D04528F6D04628F4D047281AD193E1F0
:1058400018E0632835D0642879D0652812D18BE11F
:10585000702873D008DC6728F1D069286FD06E28D3
:105860000DD06F2806D1ACE073282CD0752874D0E9
:10587000782853D05246179990476D1C54E1C4F3D1
:105880000250022809D003280DD0D8F800100428AF
:105890000DD00D6008F1040846E1D8F80010EA17B1
:1058A000C1E90052F6E7D8F800100D80F2E70D705C
:1058B000F0E718F8041B8DF8001000208DF80100A7
:1058C000EB46012003E058F804BB4FF0FF306107BE
:1058D0004FF0000102D40DE009F101018946B942FF
:1058E0000FDA8145F8DB1BF809100029F4D108E034
:1058F00009F1010189468142FADB1BF809100029F0
:10590000F6D103985346A0EB090721463846179A6B
:1059100000F080FA284400EB090507E044E008E1C4
:105920000DE01BF8010B524617999047B9F1010998
:10593000F7D2534621463846179AF2E039E00A2159
:10594000C4F302524FF0000B0091022A06D058F81F
:10595000040BC117032A09D00AE023E008F107006D
:1059600020F00702F2E80201904605E000B2C117FC
:10597000042A01D140B2C117002906DA0A460021E3
:10598000404261EB02012D2202E0220504D52B22C8
:105990008DF80420012203E0E20701D02022F7E77E
:1059A000914657E00A2100E010214FF0000B0091D2
:1059B0000BE010214FF0000B44F004040827009185
:1059C00003E008204FF0000B0090C4F30252022ABB
:1059D00005D058F8040B0021032A08D008E008F18C
:1059E000070020F00702F2E80201904603E080B2CF
:1059F000042A00D1C0B24FF0000922072AD532781C
:105A0000702A07D0DDF800C08CF0100C5CEA0B0C9B
:105A100005D00EE040228DF80420012208E050EA73
:105A2000010306D030238DF804308DF805200222C2
:105A30009146009B83F0080353EA0B030AD150EA16
:105A4000010201D1620705D530228DF804204FF004
:105A500001097F1E3278582A04D039A20C920CAA70
:105A600002920BE03BA2F9E75B46009AFAF7AAFB29
:105A70000C9B9B5C029A521E0292137050EA010228
:105A8000F2D1029804A9081A00F1200B600702D590
:105A900024F4803400E001275F4502DDA7EB0B0012
:105AA00000E0002000EB0B01009003984944401AED
:105AB0000390E00306D453462146179A039800F05A
:105AC000A9F90544002706E001A85246C05D1799D0
:105AD00090476D1C7F1C4F45F6DBE0030CD5534609
