:020000040800F2
:10000000B008002029020008A316000869120008A1
:10001000A11600081F040008B91A0008000000001B
:10002000000000000000000000000000A71600080B
:100030002104000800000000A5160008A916000809
:10004000430200084302000843020008430200087C
:10005000430200084302000843020008430200086C
:10006000430200084302000843020008430200085C
:10007000430200084302000843020008430200084C
:10008000430200084302000843020008430200083C
:10009000430200084302000843020008430200082C
:1000A000430200084302000843020008430200081C
:1000B000430200084302000843020008430200080C
:1000C00043020008430200084302000843020008FC
:1000D00043020008430200084302000843020008EC
:1000E00043020008430200084302000843020008DC
:1000F00043020008430200084302000843020008CC
:1001000043020008430200084302000843020008BB
:1001100043020008430200084302000843020008AB
:10012000430200084302000843020008430200089B
:10013000430200084302000843020008430200088B
:10014000430200084302000843020008430200087B
:10015000430200084302000843020008430200086B
:10016000430200084302000843020008430200085B
:100170004302000843020008430200080000000098
:10018000430200084302000800F002F800F03CF8C7
:100190000AA090E8000C82448344AAF10107DA45E2
:1001A00001D100F031F8AFF2090EBAE80F0013F0F8
:1001B000010F18BFFB1A43F0010318477019000024
:1001C00090190000103A24BF78C878C1FAD85207B5
:1001D00024BF30C830C144BF04680C6070470000C1
:1001E0000023002400250026103A28BF78C1FBD840
:1001F000520728BF30C148BF0B6070471FB501F0E0
:1002000083FC1FBD10B510BD00F0CFF81146FFF7FD
:10021000F5FF01F062FC00F0EDF803B4FFF7F2FF28
:1002200003BC00F0F5F80000094880470948004782
:10023000FEE7FEE7FEE7FEE7FEE7FEE7FEE7FEE796
:10024000FEE7FEE704480549054A064B70470000F3
:100250004117000889010008B0020020B008002002
:10026000B0040020B004002053EA020C00F06980C2
:100270002DE9F04B4FF00006002B1FBFB3FA83F5BA
:1002800003FA05F424FA05F65E4012BF1643B2FAEB
:1002900082F502FA05F4C5F120051EBF22FA05FC1D
:1002A00044EA0C04203556EA044C4FEA144418BFC3
:1002B000641C4FF000084FF00009904271EB030CF2
:1002C00039D3002919BFB1FA81F701FA07F6B0FA5C
:1002D00080F700FA07F6C7F120071EBF20FA07FCD7
:1002E00046EA0C062037B6FBF4FCA7EB0507103FE7
:1002F00007F01F0BCBF120060CFA0BFB2CFA06F6CD
:1003000044BFB3460026202FA4BF5E464FF0000B2B
:100310005BEA060C08BF4FF0010B19EB0B09ABFBB6
:10032000027C48EB0608C01B06FB02CC0BFB03CC8F
:1003300071EB0C01C1E70B46024641464846BDE859
:10034000F08B13B54FF000004FF00001AFF30080C9
:10035000BDE81C4070474FF0000200B513469446BC
:100360009646203922BFA0E80C50A0E80C50B1F10D
:100370002001BFF4F7AF090728BFA0E80C5048BF21
:100380000CC05DF804EB890028BF40F8042B08BFBF
:10039000704748BF20F8022B11F0804F18BF00F8BB
:1003A000012B7047704770477047754600F02CF876
:1003B000AE4605006946534620F00700854618B052
:1003C00020B5FFF73FFFBDE820404FF000064FF09B
:1003D00000074FF000084FF0000B21F00701AC467A
:1003E000ACE8C009ACE8C009ACE8C009ACE8C00999
:1003F0008D46704710B50446AFF300802046BDE837
:100400001040FFF70ABF000000487047500200206C
:1004100001491820ABBEFEE7260002007047FEE748
:10042000704772B6FEE700002DE9F84FDFF8BCA177
:100430000022012503264FF00F090AF1040BAAF14F
:10044000040E00BF0B6805FA02F42340A34270D1EA
:100450000F7907F00307012F01D0022F16D187680B
:100460004FEA420806FA08FC27EA0C07D1F80CC04C
:100470000CFA08FC4CEA070CC0F808C04768A74310
:100480000C79C4F3001494403C4344600C79E44379
:10049000A4070AD0C4684FEA420C06FA0CF7BC4322
:1004A0008F6807FA0CF72743C7600C7904F0030440
:1004B000022C12D1D40800EB840CDCF82040570742
:1004C000FF0E09FA07F824EA0804D1F8108008FAA8
:1004D00007F848EA0408CCF8208004684FEA420C88
:1004E00006FA0CF7BC430F7907F0030707FA0CF77D
:1004F000274307604C6814F4403F70D03C4C276899
:1005000047F480472760246822F0030704F48044FE
:100510000094384C07EB040CDCF8084897074FEAC6
:10052000177809FA08F7BC43334FB84202D10027C5
:1005300024E054E0314FB84201D101271EE0304F92
:10054000B84201D1022719E02E4FB84201D103274A
:1005500014E02D4FB84201D104270FE02B4FB842D1
:1005600001D105270AE02A4FB84201D1062705E04C
:10057000284FB84201D1072700E0082707FA08F7FB
:100580002743CCF80878DAF800405746D1F804C081
:100590009C435FEACC2C00D51C433C60DBF8004058
:1005A0005F46D1F804C09C435FEA8C2C00D51C4305
:1005B0003C60DEF800407746D1F804C09C435FEA17
:1005C0008C3C00D51C433C60084F083F3C68D1F888
:1005D00004C09C435FEACC3C00D51C433C60521CE9
:1005E000102AFFF42FAFBDE8F88F0000083C01404F
:1005F0004438024000300140000002400004024044
:1006000000080240000C02400010024000140240AA
:1006100000180240001C02400AB1816170470904C1
:10062000FBE70000014880687047000000000020E0
:100630000248816802781144816070470000002000
:100640000B4810B5016841F400710160016841F484
:1006500080610160016841F480710160032000F055
:1006600061F80F2000F006F800F024F8002010BD1B
:10067000003C024070B50D4D04464FF47A71287865
:10068000B1FBF0F00A490968B1FBF0F000F0FCFAA8
:1006900048B9102C07D200222146501E00F022F843
:1006A00000206C6070BD012070BD000000000020C3
:1006B0000C0000200A4808B5016841F4804101603F
:1006C000006800F4804000900548001F016841F078
:1006D00080510160006800F08050009008BD00006B
:1006E00044380240F0B40E4B1B680C46C3F302239F
:1006F000C3F10705042D00D90425191D072901D2CE
:10070000002300E0DB1E012606FA05F1491E214008
:1007100099409E40761E16403143F0BC01F0CDB9A1
:100720000CED00E0064900F0070208684FF6FF03F1
:10073000184040EA0220034A104308607047000056
:100740000CED00E00000FA052DE9F0470E4605002B
:1007500065D0DFF81481D8F80000F7B200F0070088
:10076000B04207D288F80070D8F8000000F0070007
:10077000B04254D128683D4C810712D5400703D5BB
:10078000206840F4E05020602878000703D52068F6
:1007900040F4604020602068A96820F0F000084321
:1007A00020602878C0072DD03049686808390128B2
:1007B00012D0022813D0032811D009688907002914
:1007C0002DDA216821F0030101432160FFF72AFFA0
:1007D000814641F2883A0EE009688903EFE709682B
:1007E0008901ECE7FFF71EFFA0EB0901514502D993
:1007F0000320BDE8F0872068696800F00C00B0EBCA
:10080000810FEFD1D8F80010404601F00701B14246
:1008100007D90770006800F00700B04201D001203E
:10082000E7E72878400705D52068E96820F4E0501C
:10083000084320602878000706D52068296920F43D
:10084000604040EAC100206000F038F82168084AA2
:10085000C1F30311515CC8400649086006480068AE
:10086000FFF708FF0020C4E7003C024008380240C0
:10087000121B00080C000020040000200448054959
:1008800000680968044AC1F38221515CC84070477E
:100890000C00002008380240221B000804480549CB
:1008A00000680968044AC1F34231515CC84070478E
:1008B0000C00002008380240221B0008154810B523
:1008C000006810F00C02144813D04110042A0FD015
:1008D000082A0ED10F4C241F2268236802F03F0221
:1008E0005B0207D52068C0F38810A0FB010106E079
:1008F000084610BD2168C1F38811A1FB0001002347
:10090000FFF7B2FC2168C1F30141491C4900B0FB6B
:10091000F1F010BD083802400024F4002DE9F84F32
:1009200004006ED02078DFF84C93C007A9F10405CD
:100930004AD009F104000168C1F38101012908D0FE
:100940000068C0F3810002280AD1D9F800004002F3
:1009500006D52868800337D560680028E1D033E0E9
:100960006068B0F5803F10D0B0F5A02F286810D097
:1009700020F480302860286820F480202860606897
:10098000A8B1FFF74FFE06460DE0286840F480301E
:10099000F4E740F480202860F7E700BFFFF742FE4D
:1009A000801B642873D828688003F7D50CE0FFF714
:1009B00039FE064605E000BFFFF734FE801B6428C1
:1009C000F0D828688003F7D42078DFF8AC8280075D
:1009D0004FF0000A3ED5A748001D016811F00C0F2A
:1009E00008D00068C0F3810002280BD1D9F80000BC
:1009F000400207D42868800716D5E068012800D196
:100A000012E033E1E068B8B10120C8F80000FFF758
:100A100009FE064605E000BFFFF704FE801B022822
:100A2000C0D828688007F7D52868216920F0F80029
:100A300040EAC10028600DE0C8F800A0FFF7F2FD11
:100A4000064604E0FFF7EEFD801B02281FD8286849
:100A50008007F7D42078000722D5864F8748616940
:100A6000703771B101210160FFF7DCFD064604E03B
:100A7000FFF7D8FD801B022809D838688007F7D512
:100A80000EE0C0F800A0FFF7CDFD064605E082E0CD
:100A9000FFF7C8FD801B02287DD838688007F7D48F
:100AA0002078400768D5DFF8CCB100270BF13C0B6C
:100AB000DBF80000C0000BD4DBF8001041F08051DF
:100AC000CBF80010DBF80000012700F08050009008
:100AD0006B4E3068C00510D4306840F480703060D0
:100AE000FFF7A0FD009005E0FFF79CFD0099401A7C
:100AF000022850D83068C005F6D55E4EA0686C3626
:100B000001280FD00528306810D020F00100306097
:100B1000306820F004003060A068B8B1FFF782FDB3
:100B200000900FE0306840F00100F4E740F004006E
:100B30003060F7E7FFF776FD0099411A41F28830FF
:100B4000814266D830688007F4D50EE0FFF76AFD71
:100B5000009007E0FFF766FD0099411A41F28830E6
:100B6000814256D830688007F4D42FB1DBF80010EA
:100B700021F08051CBF80010A069C8B33D49091D90
:100B80000968C1F3810102294AD00228504607D0E2
:100B9000C8F8600000E03CE0FFF744FD04463BE09D
:100BA0004746C8F86000FFF73DFD064605E000BF78
:100BB000FFF738FD801B02282BD828688001F7D466
:100BC000D4E907010843A16A2E4A490802EB014112
:100BD000626A41EA8211084394F82C1040EA0161EC
:100BE000C9F8001001203866FFF71CFD044606E036
:100BF0003EE000BFFFF716FD001B022809D8286859
:100C00008001F7D534E000BFFFF70CFD001B022880
:100C100002D90320BDE8F88F28688001F4D427E0CA
:100C20000128F7D0D9F80000E26900F48001914270
:100C30001CD1226A00F03F01914217D147F6C071E2
:100C4000626A0140B1EB821F10D1A26A4FF0FF33FC
:100C500000F4403103EB5202B1EB024F06D194F89D
:100C60002C1000F07060B0EB016F01D00120D1E7D3
:100C70000020CFE70438024000004742800E474280
:100C8000007000400000FFFF10B5401EB0F1807FF3
:100C900001D3012010BD4FF0E02460610F216017E7
:100CA00000F00BFF0020A06107202061002010BD94
:100CB00010B590F83C20012A22D0012280F83C2077
:100CC000CA688C6822F4407222434C6822F4806225
:100CD00022430C6822F4006222430C6922F4805201
:100CE00022434C6922F400522243C969002322F4B2
:100CF00080420A4301684A6480F83C30002010BDFD
:100D0000022010BD70B590F83C20012A32D0012499
:100D100080F83C40022280F83D2003685A689D68B4
:100D200022F070060A6832435A60134B02689A42F6
:100D300014D0B2F1804F11D0104B9A420ED0104B0C
:100D40009A420BD00F4B9A4208D00F4B9A4205D0D3
:100D50000E4B9A4202D00E4B9A4204D1496825F0BC
:100D600080031943916080F83D40002180F83C10D9
:100D7000084670BD022070BD000001400004004024
:100D800000080040000C0040000401400040014009
:100D9000001800402DE9F0410D46040003D094F8FE
:100DA0003D0018B108E00120BDE8F081002084F882
:100DB0003C00204600F040F8022084F83D00206806
:100DC000816844F2070291438160211D206800F090
:100DD000BFFC226890689169166A2B68AF6903436B
:100DE00040F20330814341EA0721A868EF690843D4
:100DF0004FF6FC418843E96840EA0720014328692F
:100E00002F6A000140EA0730084369686D6926F0DF
:100E1000AA0646EA0515294393602268906154F8B2
:100E2000460B0162012004F81F09E0752076E07688
:100E30002077A0750020B7E770B586B0044614216E
:100E40006846FFF788FA444923680024424A10396B
:100E500002254248B3F1804F19D0414EB34245D1EB
:100E6000106840F002001060106800F00200059069
:100E7000086840F0040008600868694600F0040053
:100E80000590C0200090CDE90154364861E0136818
:100E900043F001031360126802F0010205920A6830
:100EA00042F001020A600A6802F0010205920A6833
:100EB00042F002020A600968012601F00201059170
:100EC0004FF400410091CDE90154CDE90346694654
:100ED000FFF7AAFA08200090CDE90154CDE90346B6
:100EE00069462148FFF7A0FA06B070BD1F4EB34215
:100EF00017D1106840F004001060106800F0040082
:100F00000590086840F0080008600868694600F02D
:100F1000080005904FF440500090CDE9015414486A
:100F200017E0144EB342DFD1136843F00803136097
:100F3000126802F0080205920A6842F001020A6093
:100F4000096801F00101059103210091CDE90154E7
:100F50006946CDE90345C5E740380240000002403C
:100F60000004004000080240000402400008004065
:100F7000000C0240000C004010B586B0044614215D
:100F80006846FFF7E8F90E492068884216D10D48F7
:100F90000021026842F010020260006800F01000B8
:100FA00005904FF4D44000900220CDE901010120CA
:100FB000CDE9031069460448FFF736FA06B010BDC4
:100FC00000000140303802400010024070B5044675
:100FD00090F83C0000260D4601280FD0012084F82F
:100FE0003C006AB1042A1DD0082A2FD00C2A3FD019
:100FF0000126002084F83C00304670BD022070BD00
:10100000206800F011FC2068816941F008018161CD
:101010002068816921F004018161206881692A6961
:10102000114311E0206800F02FFC2068816941F431
:10103000006181612068816921F48061816120689B
:1010400081692A6941EA02218161D2E7206800F0C2
:1010500051FC2068C16941F00801C1612068C16983
:1010600021F00401C1612068C1692A69114311E0BE
:10107000206800F073FC2068C16941F40061C1611F
:101080002068C16921F48061C1612068C1692A6951
:1010900041EA0221C161ACE710B5040003D094F825
:1010A0003D0010B107E0012010BD002084F83C0095
:1010B000204600F01FF8022084F83D00211D206822
:1010C00000F046FB012084F8460084F83E0084F8D6
:1010D0003F0084F8400084F8410084F8420084F81E
:1010E000430084F8440084F8450084F83D00002063
:1010F00010BD000008B500680649884208D10648BE
:10110000016841F001010160006800F001000090F9
:1011100008BD0000000001404438024070B50400E2
:1011200004D094F84100002510B106E0012070BD04
:1011300084F84050204600F023F8242084F8410031
:101140002068C16821F40051C160204600F02EFCE7
:101150002068016921F4904101612068416921F012
:101160002A0141612068C16841F40051C160656491
:10117000202084F8410084F842006563002070BD9F
:10118000F0B587B0044614216846FFF7E4F8304B09
:10119000276800222F490224032507262E489F4254
:1011A00019D12C4B14331F6847F010071F601B68C0
:1011B00003F0100305930B6843F001030B6009680B
:1011C00002AB01F0010105916902CDE9001483E849
:1011D000640069461AE01F4BDFF880C01033674592
:1011E00018D11F6847F400371F601B6803F40033F1
:1011F00005930B6843F001030B60096801F00101DE
:1012000005910C21CDE9001469461CE0FFF70CF9AB
:1012100007B0F0BD12488742FAD1186840F4802028
:101220001860186800F480200590086840F00800F5
:1012300008600868694600F0080005904FF44070A7
:10124000CDE90004074802AF87E86400DEE700004C
:1012500000100140303802400000024000440040CD
:1012600000480040000C0240FEE700002DE9F04776
:1012700086B014216846FFF76EF83F4800240168E5
:1012800041F010010160016801F010010591016851
:1012900041F004010160016801F004010591016859
:1012A00041F080010160016801F080010591016851
:1012B00041F001010160016801F00101059101683F
:1012C00041F002010160016801F00201059101682D
:1012D00041F0080101600068284F00F00800059007
:1012E000002278213846FFF797F9DFF89480002232
:1012F00016214046FFF790F9DFF888900022502130
:101300004846FFF789F9DFF880A04FF460560022C5
:1013100031465046FFF780F9782000900125CDE94D
:101320000154694638460394FFF77EF81620009072
:10133000CDE90154694640460394FFF775F8502003
:101340000090CDE90154694648460394FFF76CF8D4
:101350000096CDE90154694650460394FFF764F8BE
:10136000A803CDE90004694650460294FFF75CF8F3
:1013700006B0BDE8F087000030380240001002409F
:1013800000080240000002400004024010B592B084
:1013900000240F941C2168461094FEF7DCFF2021E6
:1013A00007A8FEF7D8FF2C482A49C0E900144FF6D9
:1013B000FF71C0E90241046144618461FFF76CFE82
:1013C00008B1FFF72EF80F940FA923481094FFF7E8
:1013D00099FC08B1FFF725F86020CDE900040294DC
:1013E000039404940594002269461B480694FFF771
:1013F000EDFD08B1FFF715F8042269461648FFF71E
:10140000E5FD08B1FFF70DF8082269461248FFF71D
:10141000DDFD08B1FFF705F80C2269460E48FFF71D
:10142000D5FD08B1FEF7FDFF0794089409944FF429
:1014300000500A94CDE90B4007A907480E94FFF726
:1014400037FC08B1FEF7EDFF0348FFF795FD12B03A
:1014500010BD0000000001401000002010B58CB04D
:1014600024216846FEF777FF0024144809944FF0C2
:1014700080410A94C0E90014611EC0E90241046180
:1014800084610120CDE90004CDE902040494CDE992
:1014900005400794694609480894FFF77BFC08B1AA
:1014A000FEF7BFFF099409A904480A94FFF72AFC34
:1014B000002801D0FEF7B5FF0CB010BD5800002089
:1014C00010B58CB024216846FEF745FF002415486E
:1014D000099413490A94C0E900144FF6FF71C0E95A
:1014E0000241046184610120CDE90004CDE90204D8
:1014F0000494CDE90540079469460A480894FFF72B
:1015000049FC08B1FEF78DFF099409A905480A9422
:10151000FFF7F8FB002801D0FEF783FF0CB010BDE9
:1015200000040040A000002010B58CB024216846C3
:10153000FEF711FF00241548099413490A94C0E9E5
:1015400000144FF6FF71C0E902410461846101207B
:10155000CDE90004CDE902040494CDE905400794E7
:1015600069460A480894FFF715FC08B1FEF759FFD1
:10157000099409A905480A94FFF7C4FB002801D083
:10158000FEF74FFF0CB010BD00080040E80000203F
:1015900010B58CB024216846FEF7DDFE0024154806
:1015A000099413490A94C0E90014611EC0E902417C
:1015B000046184610120CDE90004CDE902040494B2
:1015C000CDE90540079469460A480894FFF7E2FB15
:1015D00008B1FEF726FF099409A906480A94FFF707
:1015E00091FB002801D0FEF71CFF0CB010BD0000DD
:1015F000000C0040300100200C4810B50A49016081
:101600004FF4E1314160002181600C22C160C0E9EA
:1016100004128161C161FFF781FD002803D0BDE89C
:101620001040FEF7FEBE10BD001001407801002002
:101630000C4810B50A4901604FF4E13141600021C6
:1016400081600C22C160C0E904128161C161FFF7B1
:1016500065FD002803D0BDE81040FEF7E2BE10BDD6
:1016600000440040C00100200C4810B50A49016048
:101670004FF4E1314160002181600C22C160C0E97A
:1016800004128161C161FFF749FD002803D0BDE864
:101690001040FEF7C6BE10BD004800400802002002
:1016A000FEE7FEE770477047FEF7C2BF30B593B064
:1016B00030216846FEF74FFE14210CA8FEF74BFEC2
:1016C0001D480025016841F080510160006800F06C
:1016D000805011901948016841F480410160006810
:1016E000022400F480401190012000900004019039
:1016F0008001CDE9064008AA0420A82182E8130051
:101700000B906846FFF70AF908B172B6FEE70CA91C
:101710000F2081E831004FF4A0500F904FF480501B
:10172000109005210CA8FFF70FF8002801D072B621
:10173000FEE713B030BD00004038024000700040AA
:101740000248016841F470010160704788ED00E0D3
:10175000F0B50268294C2A4D2A4E2B4F2B4B4FF0E7
:10176000804CA04209D0604507D0A84205D0B042C5
:1017700003D0B84201D0984204D122F0700E4A68DA
:1017800042EA0E02A0421BD0604519D0A84217D0F1
:10179000B04215D0B84213D0984211D01C4DA84287
:1017A0000ED01C4DA8420BD01B4DA84208D01B4D9B
:1017B000A84205D01A4DA84202D01A4DA84203D122
:1017C00022F44075CA682A434D6922F080022A43F8
:1017D00002608A68C2620A688262A04201D09842AE
:1017E00001D109690163012141610169C90703D080
:1017F000016921F001010161F0BD0000000001401C
:101800000004004000080040000C004000040140BB
:1018100000400140004401400048014000180040E1
:10182000001C004000200040F0B5036A026A22F06C
:101830000102026242688469124E24F073050C684A
:101840002C4323F002058B682B430D4DA84201D099
:10185000B04205D123F00807CB683B4323F00403D3
:10186000A84201D0B04205D14D6922F4407215431F
:101870008A692A4342608461496841630362F0BD1A
:101880000000014000040140F0B5026A036A23F041
:1018900010030362436884690D6824F4E64444EA53
:1018A00005248D6822F0200242EA05120F4D104EE9
:1018B000A84201D0B04206D1CF6822F0800242EAAD
:1018C000071222F04002A84201D0B04207D14D6970
:1018D00023F4406343EA85038D6943EA850343604B
:1018E0008461496881630262F0BD0000000001402C
:1018F00000040140F0B5026A036A23F480730362B6
:101900004368C46922F4007224F073050C68124E17
:101910002C438D6842EA05220E4DA84201D0B04208
:1019200006D1CF6822F4006242EA072222F48062E4
:10193000A84201D0B04207D14D6923F4405343EA95
:1019400005138D6943EA05134360C4614968C163A7
:101950000262F0BD000001400004014030B5046A9D
:10196000026A22F4805202624268C3690D6823F45D
:10197000E64343EA05238D6824F4005444EA053421
:10198000084DA84202D0084DA84204D14D6922F466
:10199000804242EA85124260C36149680164046280
:1019A00030BD0000000001400004014070B5044655
:1019B00000680169E26821F4405111430161216925
:1019C000A068E26908436169114308432168CA6855
:1019D00049F20C639A430243CA6020684169A269D4
:1019E00021F440711143416131492068884202D09D
:1019F0003049884202D1FEF751FF01E0FEF73EFF79
:101A0000E2690023192164253226B2F5004F62688D
:101A100028D0A0FB0101930F9200FEF725FC0146A0
:101A2000B0FBF5F06FF01802504301EB800006EBBD
:101A30000010B0FBF5F000F0F002B1FBF5F002EBA6
:101A40000012B1FBF5F06FF01803584301EB800072
:101A500006EB0010B0FBF5F000F00F002168104419
:101A6000886070BDA0FB010192185B41FEF7FCFB92
:101A70000146B0FBF5F00201B1FBF5F06FF0180381
:101A8000584301EB800006EBC000B0FBF5F000F01E
:101A9000F80002EB4002B1FBF5F0584301EB800087
:101AA00006EBC000B0FBF5F000F00700D6E7000041
:101AB0000010014000140140FEE70907090E00284C
:101AC00004DB00F1E02080F80014704700F00F0004
:101AD00000F1E02080F8141D7047FEF7B1FDFFF71C
:101AE000E5FDFFF7C3FBFFF751FCFFF7B7FCFFF77E
:101AF000E7FCFFF719FDFFF74BFDFFF77DFDFFF753
:101B000097FDFFF7B1FDFEE74FF04070E1EE100AE0
:101B100070470000000000000000010203040607F7
:101B20000809000000000102030400004C1B00082B
:101B30000000002010000000C40100085C1B000829
:101B400010000020A0080000E001000801000000D3
:0C1B500010000000000000000024F40061
:040000050800018965
:00000001FF
