:020000040800F2
:10000000800B002029020008F1250008AD1F000820
:10001000EF2500081F040008712F000800000000F1
:10002000000000000000000000000000612800083F
:10003000E5040008000000005F28000863280008AD
:10004000430200084302000843020008430200087C
:10005000430200084302000843020008430200086C
:10006000430200084302000843020008430200085C
:10007000430200084302000843020008430200084C
:100080003504000843020008430200084302000848
:10009000430200084302000843020008430200082C
:1000A000430200084302000843020008430200081C
:1000B000430200084302000843020008430200080C
:1000C00043020008430200084302000843020008FC
:1000D0004302000843020008652F0008430200089D
:1000E00043020008430200084302000843020008DC
:1000F00043020008430200084302000843020008CC
:1001000043020008430200084302000843020008BB
:1001100043020008430200080D29000819290008BD
:10012000430200084302000843020008430200089B
:10013000430200084302000843020008430200088B
:10014000430200084302000843020008430200087B
:10015000430200084302000843020008430200086B
:10016000430200084302000843020008430200085B
:100170004302000843020008430200080000000098
:10018000430200084302000800F002F800F03CF8C7
:100190000AA090E8000C82448344AAF10107DA45E2
:1001A00001D100F031F8AFF2090EBAE80F0013F0F8
:1001B000010F18BFFB1A43F001031847C42F0000BA
:1001C000E42F0000103A24BF78C878C1FAD852074B
:1001D00024BF30C830C144BF04680C6070470000C1
:1001E0000023002400250026103A28BF78C1FBD840
:1001F000520728BF30C148BF0B6070471FB502F0DF
:10020000AAFF1FBD10B510BD00F0CFF81146FFF7D3
:10021000F5FF02F0BFFE00F0EDF803B4FFF7F2FFC8
:1002200003BC00F0F5F80000094880470948004782
:10023000FEE7FEE7FEE7FEE7FEE7FEE7FEE7FEE796
:10024000FEE7FEE704480549054A064B70470000F3
:10025000FD2800088901000880050020800B00208F
:10026000800700208007002053EA020C00F069801C
:100270002DE9F04B4FF00006002B1FBFB3FA83F5BA
:1002800003FA05F424FA05F65E4012BF1643B2FAEB
:1002900082F502FA05F4C5F120051EBF22FA05FC1D
:1002A00044EA0C04203556EA044C4FEA144418BFC3
:1002B000641C4FF000084FF00009904271EB030CF2
:1002C00039D3002919BFB1FA81F701FA07F6B0FA5C
:1002D00080F700FA07F6C7F120071EBF20FA07FCD7
:1002E00046EA0C062037B6FBF4FCA7EB0507103FE7
:1002F00007F01F0BCBF120060CFA0BFB2CFA06F6CD
:1003000044BFB3460026202FA4BF5E464FF0000B2B
:100310005BEA060C08BF4FF0010B19EB0B09ABFBB6
:10032000027C48EB0608C01B06FB02CC0BFB03CC8F
:1003300071EB0C01C1E70B46024641464846BDE859
:10034000F08B13B54FF000004FF00001AFF30080C9
:10035000BDE81C4070474FF0000200B513469446BC
:100360009646203922BFA0E80C50A0E80C50B1F10D
:100370002001BFF4F7AF090728BFA0E80C5048BF21
:100380000CC05DF804EB890028BF40F8042B08BFBF
:10039000704748BF20F8022B11F0804F18BF00F8BB
:1003A000012B7047704770477047754600F02CF876
:1003B000AE4605006946534620F00700854618B052
:1003C00020B5FFF73FFFBDE820404FF000064FF09B
:1003D00000074FF000084FF0000B21F00701AC467A
:1003E000ACE8C009ACE8C009ACE8C009ACE8C00999
:1003F0008D46704710B50446AFF300802046BDE837
:100400001040FFF70ABF0000004870472005002099
:1004100001491820ABBEFEE7260002007047FEE748
:1004200010B500F1040C029C8CE81E000121017043
:1004300010BD0000014800F0B3B80000C004002067
:1004400001681823CAB2103AB2FBF3F2054B6FF3FE
:100450000901032A9B5CC36500D9091D8165084613
:10046000704700006031000810B5014600208B691C
:100470008A6A4FF0C07453B1B3F5005F15D072B102
:10048000012A0CD0022A0AD0032A09D104E01AB1A9
:10049000012A06D0022A03D1C96AC90100D5012068
:1004A00010BDC96AA142FAD010BD002AF7D0012AB6
:1004B000F2D0022AF3D0032AF3D010BD30B504687D
:1004C000256825F480252560046863608368402BD7
:1004D000036803D099600068C26030BD9A6000680C
:1004E000C16030BD704772B6FEE72DE9F0410446A9
:1004F000876D00F0C5FA064694F8350000250228FD
:1005000006D08020606584F834500120BDE8F08179
:100510002068016821F0160101602068416921F01E
:1005200080014161206C08B9A06C20B1206801688D
:1005300021F0080101602068016821F001010160DB
:100540000CE000F09DFA801B052807D9202060658B
:10055000032084F8350084F83450D7E72068006819
:10056000C007EED194F85C103F208840B8600120AD
:1005700084F8350084F834500020C7E790F835102F
:10058000022903D08021416501207047052180F8B0
:1005900035100068016821F00101016000207047FA
:1005A0002DE9F84304464FF00009CDF80090634868
:1005B0004FF41651A56D0068B0FBF1F72E6894F862
:1005C0005C10082000FA01F131420FD021680A685E
:1005D00052070BD50A6822F004020A6094F85C10F6
:1005E0008840A860606D40F00100606594F85C1080
:1005F0004FF0010808FA01F0304208D0216849693B
:10060000090604D5A860606D40F00200606594F8AA
:100610005C1004208840304208D0216809688907AE
:1006200004D5A860606D40F00400606594F85C102B
:1006300010208840304218D021680968090714D575
:10064000A86020680168490304D50068000308D544
:10065000A16C07E00168C90503D4016821F0080115
:100660000160216C09B12046884794F85C10202075
:100670008840304231D021680968C9062DD5A8606C
:1006800094F8350005282068016806D0490347D54D
:10069000006800031DD4616C1CE021F016010160AC
:1006A0002068416921F080014161206C08B9A06C8B
:1006B00020B12068016821F00801016094F85C1005
:1006C0003F208840A86084F8358084F83490216DFC
:1006D0001FE0E16B09B120468847606D00282BD0F0
:1006E000606DC00714D0052084F8350020680168CB
:1006F00021F0010101600098401C0090B84203D82D
:1007000020680068C007F6D184F8358084F83490FA
:10071000E16C002910D001B02046BDE8F043084745
:100720000168C905D5D4016821F01001016084F881
:10073000358084F83490CCE7BDE8F8830C000020C5
:100740002DE9F041044600F09BF906465CB1022019
:1007500084F83500002584F834502068016821F0C1
:10076000010101600DE00120BDE8F08100F088F991
:10077000801B052805D920206065032084F83500FA
:10078000F2E720680068C007F0D1226811682048AD
:100790000140D4E901031843D4E903363343184335
:1007A00063691843A3691843E3691843236A18432C
:1007B0000843616A042903D1D4E90B1319430843A0
:1007C000106020684069666A20F0070130460E43D9
:1007D000012704280CD1A06A0643E06A40B12046F4
:1007E000FFF742FE20B14020606584F83570BAE71B
:1007F000206846612046FFF723FE94F85C203F21E5
:1008000091408160656584F835700020ACE7000098
:100810003F8010F02DE9F0410446866D90F83400D9
:10082000002501280DD0012084F8340094F835709B
:100830000020012F07D084F8340002252846BDE8A7
:10084000F0810220FBE7022784F8357060652046BE
:10085000FFF734FE94F85C103F208840B0602068B9
:10086000016841F016010160206C20B12068016828
:1008700041F0080101602068016841F00101016058
:10088000DCE700002DE9F84FDFF8BCA100220125CC
:1008900003264FF00F090AF1040BAAF1040E00BF62
:1008A0000B6805FA02F42340A34270D10F7907F0D8
:1008B0000307012F01D0022F16D187684FEA4208A3
:1008C00006FA08FC27EA0C07D1F80CC00CFA08FC61
:1008D0004CEA070CC0F808C04768A7430C79C4F37A
:1008E000001494403C4344600C79E443A4070AD0CC
:1008F000C4684FEA420C06FA0CF7BC438F6807FA4B
:100900000CF72743C7600C7904F00304022C12D1C2
:10091000D40800EB840CDCF820405707FF0E09FADE
:1009200007F824EA0804D1F8108008FA07F848EA22
:100930000408CCF8208004684FEA420C06FA0CF751
:10094000BC430F7907F0030707FA0CF7274307604A
:100950004C6814F4403F70D03C4C276847F4804703
:100960002760246822F0030704F480440094384C84
:1009700007EB040CDCF8084897074FEA177809FAE8
:1009800008F7BC43334FB84202D1002724E054E0BB
:10099000314FB84201D101271EE0304FB84201D19A
:1009A000022719E02E4FB84201D1032714E02D4F42
:1009B000B84201D104270FE02B4FB84201D10527DF
:1009C0000AE02A4FB84201D1062705E0284FB84275
:1009D00001D1072700E0082707FA08F72743CCF8DA
:1009E0000878DAF800405746D1F804C09C435FEA23
:1009F000CC2C00D51C433C60DBF800405F46D1F8AE
:100A000004C09C435FEA8C2C00D51C433C60DEF89C
:100A100000407746D1F804C09C435FEA8C3C00D587
:100A20001C433C60084F083F3C68D1F804C09C431D
:100A30005FEACC3C00D51C433C60521C102AFFF4FA
:100A40002FAFBDE8F88F0000083C01404438024059
:100A50000030014000000240000402400008024053
:100A6000000C024000100240001402400018024036
:100A7000001C02400AB1816170470904FBE70000D5
:100A8000014880687047000000000020024881682B
:100A90000278114481607047000000200B4810B5B7
:100AA000016841F400710160016841F480610160F6
:100AB000016841F480710160032000F06FF80F209D
:100AC00000F006F800F024F8002010BD003C0240C1
:100AD00070B50D4D04464FF47A712878B1FBF0F0F3
:100AE0000A490968B1FBF0F000F09EFB48B9102CF0
:100AF00007D200222146501E00F030F800206C6022
:100B000070BD012070BD0000000000200C0000201E
:100B10000A4808B5016841F480410160006800F4AA
:100B2000804000900548001F016841F0805101603D
:100B3000006800F08050009008BD0000443802407A
:100B4000002809DB00F01F020121914040098000CC
:100B500000F1E020C0F8001170470000F0B40E4B27
:100B60001B680C46C3F30223C3F10705042D00D90B
:100B70000425191D072901D2002300E0DB1E0126F0
:100B800006FA05F1491E214099409E40761E164006
:100B90003143F0BC02F0EDB90CED00E0064900F085
:100BA000070208684FF6FF03184040EA0220034A94
:100BB00010430860704700000CED00E00000FA05EB
:100BC0002DE9F0470E46050065D0DFF81481D8F80E
:100BD0000000F7B200F00700B04207D288F80070BA
:100BE000D8F8000000F00700B04254D128683D4C0E
:100BF000810712D5400703D5206840F4E0502060FB
:100C00002878000703D5206840F460402060206801
:100C1000A96820F0F000084320602878C0072DD094
:100C2000304968680839012812D0022813D00328F7
:100C300011D00968890700292DDA216821F0030104
:100C400001432160FFF71CFF814641F2883A0EE024
:100C500009688903EFE709688901ECE7FFF710FFEE
:100C6000A0EB0901514502D90320BDE8F0872068B7
:100C7000696800F00C00B0EB810FEFD1D8F80010DC
:100C8000404601F00701B14207D90770006800F043
:100C90000700B04201D00120E7E72878400705D5DA
:100CA0002068E96820F4E0500843206028780007B5
:100CB00006D52068296920F4604040EAC100206020
:100CC00000F038F82168084AC1F30311515CC840AC
:100CD0000649086006480068FFF7FAFE0020C4E7EE
:100CE000003C024008380240683100080C00002037
:100CF000040000200448054900680968044AC1F35B
:100D00008221515CC84070470C0000200838024026
:100D1000783100080448054900680968044AC1F3AD
:100D20004231515CC84070470C0000200838024036
:100D300078310008154810B5006810F00C0214480E
:100D400013D04110042A0FD0082A0ED10F4C241FB3
:100D50002268236802F03F025B0207D52068C0F3D7
:100D60008810A0FB010106E0084610BD2168C1F310
:100D70008811A1FB00010023FFF776FA2168C1F377
:100D80000141491C4900B0FBF1F010BD0838024098
:100D90000024F4002DE9F84F04006ED02078DFF82D
:100DA0004C93C007A9F104054AD009F10400016879
:100DB000C1F38101012908D00068C0F38100022835
:100DC0000AD1D9F80000400206D52868800337D53B
:100DD00060680028E1D033E06068B0F5803F10D053
:100DE000B0F5A02F286810D020F480302860286843
:100DF00020F4802028606068A8B1FFF741FE064615
:100E00000DE0286840F48030F4E740F4802028604A
:100E1000F7E700BFFFF734FE801B642873D828680B
:100E20008003F7D50CE0FFF72BFE064605E000BF78
:100E3000FFF726FE801B6428F0D828688003F7D4CB
:100E40002078DFF8AC8280074FF0000A3ED5A74833
:100E5000001D016811F00C0F08D00068C0F381007C
:100E600002280BD1D9F80000400207D42868800777
:100E700016D5E068012800D112E033E1E068B8B18E
:100E80000120C8F80000FFF7FBFD064605E000BFA3
:100E9000FFF7F6FD801B0228C0D828688007F7D529
:100EA0002868216920F0F80040EAC10028600DE0C0
:100EB000C8F800A0FFF7E4FD064604E0FFF7E0FDF8
:100EC000801B02281FD828688007F7D420780007E5
:100ED00022D5864F87486169703771B10121016061
:100EE000FFF7CEFD064604E0FFF7CAFD801B02288F
:100EF00009D838688007F7D50EE0C0F800A0FFF7E2
:100F0000BFFD064605E082E0FFF7BAFD801B022820
:100F10007DD838688007F7D42078400768D5DFF897
:100F2000CCB100270BF13C0BDBF80000C0000BD468
:100F3000DBF8001041F08051CBF80010DBF8000026
:100F4000012700F0805000906B4E3068C00510D42F
:100F5000306840F480703060FFF792FD009005E04B
:100F6000FFF78EFD0099401A022850D83068C0055E
:100F7000F6D55E4EA0686C3601280FD00528306883
:100F800010D020F001003060306820F004003060A4
:100F9000A068B8B1FFF774FD00900FE0306840F032
:100FA0000100F4E740F004003060F7E7FFF768FD68
:100FB0000099411A41F28830814266D83068800732
:100FC000F4D50EE0FFF75CFD009007E0FFF758FD59
:100FD0000099411A41F28830814256D83068800722
:100FE000F4D42FB1DBF8001021F08051CBF80010C1
:100FF000A069C8B33D49091D0968C1F381010229EF
:101000004AD00228504607D0C8F8600000E03CE013
:10101000FFF736FD04463BE04746C8F86000FFF79F
:101020002FFD064605E000BFFFF72AFD801B0228C2
:101030002BD828688001F7D4D4E907010843A16AB6
:101040002E4A490802EB0141626A41EA82110843D3
:1010500094F82C1040EA0161C9F8001001203866AC
:10106000FFF70EFD044606E03EE000BFFFF708FD77
:10107000001B022809D828688001F7D534E000BF9A
:10108000FFF7FEFC001B022802D90320BDE8F88F01
:1010900028688001F4D427E00128F7D0D9F80000AF
:1010A000E26900F4800191421CD1226A00F03F0104
:1010B000914217D147F6C071626A0140B1EB821FBD
:1010C00010D1A26A4FF0FF3300F4403103EB52021B
:1010D000B1EB024F06D194F82C1000F07060B0EB29
:1010E000016F01D00120D1E70020CFE70438024092
:1010F00000004742800E4742007000400000FFFFA2
:1011000070B5040009D0606A002540B125616561B1
:10111000A56294F8510040B10CE0012070BD6068F8
:10112000B0F5827FF4D0E561F2E784F850502046B4
:1011300000F044F8022084F851002068016821F092
:1011400040010160A088218900F4827001F404410B
:101150000843A18901F400610843217C01F00201E8
:101160000843217D01F001010843218B01F4007146
:101170000843217F01F03801084394F8201001F062
:1011800080010843218D01F4005108432168086063
:10119000A069042101EA104094F8241001F0100124
:1011A0000843216848602068C16921F40061C16179
:1011B0006565012084F85100002070BD10B586B02F
:1011C000044614216846FFF7C6F81449206888428F
:1011D00021D113480021026842F480420260006875
:1011E00000F4804005900E481038026842F0020278
:1011F0000260006800F0020005904FF4604000902B
:101200000220CDE9010103200390052004906946E6
:101210000448FFF737FB06B010BD0000003800405F
:10122000403802400004024010B5401EB0F1807FFB
:1012300001D3012010BD4FF0E02460610F21601741
:1012400001F097FE0020A06107202061002010BD62
:101250007047704710B590F83C20012A22D0012237
:1012600080F83C20CA688C6822F4407222434C68A3
:1012700022F4806222430C6822F4006222430C694B
:1012800022F4805222434C6922F400522243C9695D
:10129000002322F480420A4301684A6480F83C300B
:1012A000002010BD022010BD70B590F83C20012A2E
:1012B00032D0012480F83C40022280F83D200368AF
:1012C0005A689D6822F070060A6832435A60134BD0
:1012D00002689A4214D0B2F1804F11D0104B9A425A
:1012E0000ED0104B9A420BD00F4B9A4208D00F4BA6
:1012F0009A4205D00E4B9A4202D00E4B9A4204D12C
:10130000496825F080031943916080F83D40002131
:1013100080F83C10084670BD022070BD00000140FE
:101320000004004000080040000C004000040140A0
:10133000004001400018004010B5040003D094F8AC
:101340003D0010B107E0012010BD002084F83C00F2
:10135000204600F01FF8022084F83D00211D20687F
:1013600001F0E0FA012084F8460084F83E0084F899
:101370003F0084F8400084F8410084F8420084F87B
:10138000430084F8440084F8450084F83D000020C0
:1013900010BD000008B5154A0168154891420ED1EC
:1013A000016841F0100101600068002200F01000A7
:1013B00000900A213620FFF7D1FB362010E00D4ABD
:1013C000914211D1016841F02001016000680022C2
:1013D00000F02000009009213720FFF7BFFB3720E5
:1013E000BDE80840FFF7ACBB08BD0000001000409E
:1013F000403802400014004090F83D10012901D00F
:1014000001207047022180F83D100168CA6842F04F
:101410000102CA6000681149884214D0B0F1804FBF
:1014200011D00F4988420ED00E4988420BD00E4988
:10143000884208D00D49884205D00D49884202D023
:101440000C49884204D1816801F00701062903D0C4
:10145000016841F001010160002070470000014077
:101460000004004000080040000C0040000401405F
:1014700000400140001800402DE9F0410D460400F5
:1014800003D094F83D0018B108E00120BDE8F081D8
:10149000002084F83C00204600F040F8022084F848
:1014A0003D002068816844F2070291438160211D5C
:1014B000206801F037FA226890689169166A2B68F3
:1014C000AF69034340F20330814341EA0721A86832
:1014D000EF6908434FF6FC418843E96840EA07207A
:1014E000014328692F6A000140EA07300843696810
:1014F0006D6926F0AA0646EA05152943936022681D
:10150000906154F8460B0162012004F81F09E07550
:101510002076E0762077A0750020B7E770B586B01A
:10152000044614216846FEF716FF2B482268002463
:10153000294910380225B2F1804F1FD0274B9A421B
:101540001AD10A6842F002020A60096801F0020139
:101550000591016841F0040101600068694600F0EE
:1015600004000590C0200090CDE901541C48CDE94D
:10157000034500BFFFF786F906B070BD0A6842F068
:1015800001020A60096801F001010591016841F05A
:1015900001010160016801F001010591016841F05C
:1015A000020101600068012600F0020005904FF47E
:1015B00000400090CDE90154CDE903466946094851
:1015C000FFF760F908200090CDE90154CDE903460A
:1015D00069460548CEE7000040380240000400405C
:1015E00000080240000002400004024070B590F87C
:1015F0003E60044690F83F5090F8423090F8432007
:10160000022021B104290ED0012E1BD114E0012E9D
:1016100018D1012B16D184F83E0084F84200012233
:101620000021206820E0012D0CD1012A0AD184F884
:101630003F0084F8430014E0012D03D1012B01D1B8
:10164000012A01D0012070BD84F83E0084F83F00DB
:1016500084F8420084F8430001220021206801F050
:10166000CDF901220421206801F0C8F92068016841
:1016700041F001010160002070BD70472DE9F0418B
:1016800004460068C66805694FF00007A90713D52E
:10169000B10711D5F91E016101202077206880690A
:1016A0008007204602D0FFF7E8FF04E000F0A8F82A
:1016B000204600F04DF92777680716D5700714D536
:1016C00021686FF00400086102202077206880699B
:1016D00010F4407F204602D0FFF7CFFF04E000F077
:1016E0008FF8204600F034F92777280715D5300702
:1016F00013D521686FF00800086104202077206866
:10170000C0698007204602D0FFF7B7FF04E000F071
:1017100077F8204600F01CF92777E80616D5F00682
:1017200014D521686FF01000086108202077206828
:10173000C06910F4407F204602D0FFF79EFF04E00E
:1017400000F05EF8204600F003F92777E80708D09C
:10175000F00706D021686FF001000861204600F014
:101760005DF9280608D5300606D521686FF080009F
:1017700008612046FFF76CFD680608D5700606D59F
:1017800021686FF040000861204600F085F9A80646
:101790000AD5B00608D521686FF020000861204600
:1017A000BDE8F041FFF755BDBDE8F08110B586B04A
:1017B000044614216846FEF7CEFD0E492068884293
:1017C00016D10D480021026842F010020260006844
:1017D00000F0100005904FF4206000900220CDE949
:1017E00001010120CDE9031069460448FFF74AF8DA
:1017F00006B010BD00000140303802400010024029
:10180000704770B5044690F83C0000260D4601284C
:101810000FD0012084F83C006AB1042A1DD0082AA8
:101820002FD00C2A3FD00126002084F83C003046FF
:1018300070BD022070BD206801F0EEF8206881695B
:1018400041F0080181612068816921F00401816112
:10185000206881692A69114311E0206801F00CF9C0
:101860002068816941F4006181612068816921F407
:1018700080618161206881692A6941EA0221816170
:10188000D2E7206801F02EF92068C16941F0080113
:10189000C1612068C16921F00401C1612068C1698A
:1018A0002A69114311E0206801F050F92068C169EC
:1018B00041F40061C1612068C16921F48061C161A6
:1018C0002068C1692A6941EA0221C161ACE710B50B
:1018D000040003D094F83D0010B107E0012010BDD2
:1018E000002084F83C00204600F01EF8022084F816
:1018F0003D00211D206801F015F8012084F8460004
:1019000084F83E0084F83F0084F8400084F84100E9
:1019100084F8420084F8430084F8440084F84500C9
:1019200084F83D00002010BD08B5006806498842D3
:1019300008D10648016841F001010160006800F02B
:101940000100009008BD0000000001404438024042
:101950007047000010B50446022249B104290ED098
:10196000082913D094F84100012816D0012010BD99
:1019700094F83E000128F9D184F83E200FE094F855
:101980003F000128F2D184F83F2008E094F840009D
:101990000128EBD184F8402001E084F841200122A5
:1019A000206801F02BF816492068164A884201D0B9
:1019B000904203D1436C43F400434364206888425F
:1019C00013D0B0F1804F10D00F4988420DD00F498D
:1019D00088420AD00E49884207D0904205D00D496E
:1019E000884202D00C49884204D1816801F0070185
:1019F000062903D0016841F001010160002010BDFB
:101A000000000140000401400004004000080040C4
:101A1000000C004000400140001800407FB5054622
:101A20001848194C854209D160681849A03000F067
:101A3000F3FAA0681649A03000F0EEFA1548854286
:101A40001ED1606800F1A001C01C00F0B0FAA068CF
:101A500000F1A001C01C00F0AAFA00200090019043
:101A600002906946CDF80C0004EB80025268D21C4B
:101A700041F82020401C0428F6DB084600F0F6FA66
:101A80007FBD000058030020D4010020C8020020C0
:101A900010030020A003002070477047704700002B
:101AA000F8B5016804460868CA684B6910F00F0F62
:101AB0004FF0000559D003F0010602F49077374348
:101AC00065D0C10705D0D10503D5616C41F0010196
:101AD0006164410705D5D90703D0616C41F002016B
:101AE0006164810705D5D90703D0616C41F0040119
:101AF0006164010707D502F02001314303D0616C16
:101B000041F008016164616C00293AD0800604D577
:101B1000900602D5204601F0F5F820684069616C16
:101B2000C0F38010090700D460B3204601F0B5F877
:101B300020684069400621D52068143050E8001F15
:101B400021F0400140E80012002AF5D1E06BA8B175
:101B50006E490165E06BFEF711FD002811D0E06BC6
:101B6000016D01B0BDE8F040084783060FD593062C
:101B70000DD52046BDE8F84001F0C4B82046FFF777
:101B80008DFFF8BD2046FFF789FF6564F8BD266B21
:101B90002023012E7DD1C6067BD5D60679D50868CF
:101BA0004868009048694FF00206400641D5E16B55
:101BB000086840680004000CE8D0A28D8242E5D994
:101BC000E085C869B0F5807F2DD020680C3050E8E2
:101BD000001F21F4807140E80012002AF5D120682E
:101BE000143050E8001F21F0010140E80012002AE3
:101BF000F5D12068143050E8001F21F0400140E882
:101C00000012002AF5D184F84230256320680C3098
:101C100050E8001F21F0100140E80012002AF5D121
:101C2000E06BFEF762FC6663A08DE18D401A81B225
:101C30002AE0A08DE18D401A81B2E08D0028A5D068
:101C40000029A3D022680C3252E8000F20F49070D3
:101C500042E80007002FF5D12068143050E8002F2B
:101C600022F0010240E80027002FF5D184F842302D
:101C7000256320680C3050E8002F22F0100240E865
:101C80000023002BF5D166632046FFF706FFF8BD61
:101C9000FFE705062BD5150629D594F84100212824
:101CA000F5D1A068B0F5805F01D12069B0B1206A9C
:101CB000411C2162216800784860E08C401E0004CD
:101CC000000CE084E3D12068C16821F08001C1608C
:101CD0002068C16841F04001C160D8E7206A0088EF
:101CE000C0F308004860206A801C2062E5E74006D7
:101CF000CDD55006CBD5CA68204622F04002CA6036
:101D000084F8413000F051F9C1E700009D2B000834
:101D100070B5040004D094F84100002510B106E02D
:101D2000012070BD84F84050204600F023F82420A4
:101D300084F841002068C16821F40051C160204648
:101D400001F042F82068016921F4904101612068A6
:101D5000416921F02A0141612068C16841F40051C4
:101D6000C1606564202084F8410084F84200656306
:101D7000002070BDF0B587B0064614216846FEF716
:101D8000EAFA4248D6F800C000254149022203235E
:101D90000727404C844517D13D481430066846F06B
:101DA00010060660006800F010000590086840F01A
:101DB000010008600868694600F0010005905802BB
:101DC0008DE8250020465CE03148DFF8CCE010309B
:101DD000F4453DD1D0F800C04CF4003CC0F800C040
:101DE000006800F400300590086840F001000860C9
:101DF0000868694600F0010005900C208DE8250078
:101E0000CDE903372046FEF73DFD254C23482060F1
:101E10004FF00060C4E901054014C4E9035080108C
:101E20006561C4E906504002C4E908052046FEF792
:101E300087FC08B1FEF757FBF46300221146262009
:101E4000A663FEF78BFE2620FEF77AFE07B0F0BDF4
:101E5000144CA445FAD1046844F48024046000685A
:101E600000F480200590086840F0080008600868C9
:101E7000694600F0080005904FF440708DE8250099
:101E80000948CDE90337FEF7FDFCDFE7001001400C
:101E900030380240000002400044004088600240A8
:101EA000C004002000480040000C024090F842307E
:101EB000202B01D00220704721B11AB10023036307
:101EC00001F008B80120704770B53549884265D1E6
:101ED0002C2234493248FFF7E9FF324A002102F54B
:101EE000EC745356502B56D1501890F90150512D87
:101EF00002D0522D28D04EE090F9025090F90360A4
:101F0000513335442B4490F904502B4490F905503B
:101F10002B4490F906502B4490F907502B4490F92C
:101F200008502B4490F9095090F90A002B44834241
:101F300031D1002063180D181544401CAD78C0B293
:101F40009D700928F7D326E090F9025090F90360BC
:101F5000523335442B4490F904502B4490F90550EA
:101F60002B4490F906502B4490F907502B4490F9DC
:101F700008502B4490F9095090F90A002B448342F1
:101F800009D1002063180D181544401CAD78C0B26B
:101F90009D720928F7D3491C2C29A2D370BD0000DB
:101FA000300400201000002070477047FEE710B595
:101FB0000446D0F8150000EE900AD4F8450000EE73
:101FC000100A204600F016FB10EE100AC4F81D009F
:101FD00010BD01F043B8000010B500210B48FFF719
:101FE000B9FC04210948FFF7B5FC3C210848FFF77C
:101FF000FDFA3C210748FFF7F9FA054947F230504E
:102000000968486203490968486210BD80020020DF
:10201000C8020020100300200A68526ADFED0F0A90
:1020200000EE102A0E4BB8EE400A30EE600A10EEB9
:10203000102A80ED000A9A420ADA10EE102A094BA3
:102040009A4205D2096847F230524A6200F092BAC9
:102050009FED050A80ED000A704700000060EA4627
:1020600000401C4600401CC60000000070B504463D
:102070000068394D394ED0F81D0000EE100AB5EE5B
:10208000C00AF1EE10FA06DC00EE100AB5EEC00A46
:10209000F1EE10FA0FD1012210212846FEF7EAFCDA
:1020A000002208212846FEF7E5FC2068D0F81D0034
:1020B00000EE100A10E0002210212846FEF7DAFC9C
:1020C000012208212846FEF7D5FC2068D0F81D0023
:1020D00000EE100AB1EE400A3168BCEEC00A10EE04
:1020E000100A48636068D0F81D0000EE100AB5EED3
:1020F000C00AF1EE10FA06DC00EE100AB5EEC00AD6
:10210000F1EE10FA0FD1002220212846FEF7B2FC92
:10211000012240212846FEF7ADFC6068D0F81D0082
:1021200000EE100A10E0012220212846FEF7A2FC52
:10213000002240212846FEF79DFC6068D0F81D0073
:1021400000EE100AB1EE400A3168BCEEC00A10EE93
:10215000100A886370BD0000001002408002002059
:10216000094808B5016841F40011016000680022C7
:1021700000F40010009011461020FEF7EFFCBDE8BF
:1021800008401020FEF7DCBC303802402DE9F04753
:1021900086B014216846FEF7DEF834480024016852
:1021A00041F010010160016801F010010591016822
:1021B00041F004010160016801F00401059101682A
:1021C00041F080010160016801F080010591016822
:1021D00041F001010160016801F001010591016810
:1021E00041F002010160016801F0020105910168FE
:1021F00041F0080101600068DFF8748000F0080019
:102200000590002228214046FEF734FCDFF8649058
:1022100042F20A06002231464846FEF72BFCDFF860
:1022200058A04FF48057002239465046FEF722FC52
:10223000282000900125CDE90154694640460394C9
:10224000FEF720FB0096CDE9015469464846039409
:10225000FEF718FB0097CDE90154694650460394F8
:10226000FEF710FB06B0BDE8F087000030380240F2
:102270000010024000080240000402400F4810B560
:102280000D4901604FF48271416000218160C1609D
:102290004FF400720161C0E90512C161016241623F
:1022A00081620A21C162FEF72BFF002803D0BDE83E
:1022B0001040FEF718B910BD003800402802002079
:1022C00010B592B000240F941C2168461094FEF7BC
:1022D00042F8202107A8FEF73EF824482249016071
:1022E0002921C0E9011440F28F11C0E903144461AF
:1022F0008461FFF7ECFA08B1FEF7F5F80F940FA927
:102300001A481094FEF7D0FF08B1FEF7ECF86020F1
:10231000CDE90004029403940494059400226946D4
:1023200012480694FFF76DFA08B1FEF7DCF80422B4
:1023300069460E48FFF765FA08B1FEF7D4F807942E
:10234000089409944FF400500A94CDE90B4007A972
:1023500006480E94FEF77EFF08B1FEF7C4F8034866
:10236000FFF724FA12B010BD0000014080020020E7
:1023700010B58CB024216846FDF7EDFF0024154808
:1023800009944FF080410A94C0E90014611EC0E92D
:102390000241046184610320CDE900040120CDE9FC
:1023A00002040494CDE9054007946946094808945D
:1023B000FFF762F808B1FEF796F8099409A90548F5
:1023C0000A94FEF771FF002801D0FEF78CF80CB0DC
:1023D00010BD0000C802002010B58CB02421684652
:1023E000FDF7B9FF00241648099414490A94C0E97E
:1023F00000144FF6FF71C0E90241046184610320BB
:10240000CDE900040120CDE902040494CDE90540A2
:10241000079469460A480894FFF72EF808B1FEF7BA
:1024200062F8099409A906480A94FEF73DFF0028BE
:1024300001D0FEF758F80CB010BD000000040040B9
:10244000100300201CB500240E4800940C49019490
:102450000160A721C0E9011440F2E7318461C16045
:10246000FEF76AFF08B1FEF73EF80094694605489A
:102470000194FEF719FF002801D0FEF734F81CBDC7
:1024800000100040580300201CB500240E480094A2
:102490000C4901940160A721C0E9011442F20F71B7
:1024A0008461C160FEF748FF08B1FEF71CF8009494
:1024B000694605480194FEF7F7FE002801D0FEF7B3
:1024C00012F81CBD00140040A00300200C4810B5F9
:1024D0000A4901604FF4E1314160002181600C2222
:1024E000C160C0E904128161C161FFF711FC0028DD
:1024F00003D0BDE81040FDF7F6BF10BD001001404D
:10250000E80300200C4810B50A4901604FF4E1319E
:102510004160002181600C22C160C0E90412816128
:10252000C161FFF7F5FB002803D0BDE81040FDF7BF
:10253000DABF10BD00440040300400200C4810B544
:102540000A4901604FF4E1314160002181600C22B1
:10255000C160C0E904128161C161FFF7D9FB0028A5
:1025600003D0BDE81040FDF7BEBF10BD00480040DD
:1025700078040020D0ED080AC0ED090AD0ED073A32
:10258000C0ED083A90ED063A80ED073AD0ED052A05
:10259000C0ED062A90ED042A80ED052AD0ED031A3D
:1025A000C0ED041A90ED021A80ED031A90ED014A75
:1025B00080ED024A90ED000A80ED010A30EE000A3B
:1025C00030EE040A30EE010A30EE210A30EE020A43
:1025D00030EE220A30EE030A30EE230A30EE200AF3
:1025E000F2EE040A80EE201A80ED0A1A7047FEE728
:1025F000FEE7000070B5D0B1D0F83D20C0F8412012
:10260000D0F8393010EE901AC0F83D30C0F81510EF
:1026100010EE101A30EEC00AC0F8191010EE101AA1
:10262000C0F8391004782CB1012C6FD179E09FEDFE
:102630006C0A70BD50F8012F00EE101A00EE902ABF
:1026400020EE800A00EE901A10EE104A0462426AF0
:1026500000EE102A426801EE102A01EE200A00EE78
:10266000903A10EE102A00EE101A4262056B30EE1E
:10267000600A4563C56A10EE101A0563C16283687B
:1026800000EE101A00EE903A20EE800A10EE103A9A
:1026900000EE102A83620169401E00EE901AB4EE2B
:1026A000E00AF1EE10FA02DDC0F8251011E000EEAC
:1026B000901A00EE102AF1EE600AB4EEE00AF1EE94
:1026C00010FA06D200EE101AB1EE400A10EE101AFF
:1026D000EAE7D0F8251000EE104A00EE901A70EEEE
:1026E000200A00EE103A30EE800A10EE102AC0F8F0
:1026F0001D2000EE102AD0F80D1000BF00EE901A39
:10270000B4EEE00AF1EE10FA08DC59E063E000BF35
:1027100000EE101AB1EE400A10EE101AC0F81D10AB
:1027200059E000EE101A00EE903A50F8014FB0EE6A
:10273000001A70EE600A00EE104A20EE800A10EED9
:10274000104A00EE101A0462456800EE905A60EEDE
:10275000800A00EE101A10EE905A00EE903A456290
:10276000066B00EEC10A00EE902A4663C66A066355
:1027700030EE200A10EE101AC162826800EE101AC4
:1027800000EE902A20EE800A00EE905A10EE101A09
:1027900000EE104A816270EE200A00EE101A50F826
:1027A0001C1F70EE800A00EE101A30EE800A10EE48
:1027B000102A40F8102900EE102A50F80D199DE754
:1027C00000EE901A00EE102AF1EE600AB4EEE00A74
:1027D000F1EE10FA9CD3D0F81D0000EE100A70BD87
:1027E0000000000000281BD00021C0F84110C0F8F4
:1027F0003D10C0F83910C0F83510C0F83110C0F8DD
:102800002D10C0F82910C0F82510C0F82110C0F80C
:102810001D1040F8151F416080F8381001634163B6
:10282000704700281AD0002A18D000F8011B116840
:102830000160516841609168816010EE101AC160BA
:1028400010EE901A0161002141630163C162C16110
:102850008162416201620164C163816370477047B4
:102860007047FEF713B9000030B593B030216846C9
:10287000FDF771FD14210CA8FDF76DFD1D48002525
:10288000016841F080510160006800F080501190B3
:102890001948016841F4804101600068022400F495
:1028A0008040119001200090000401908001CDE94A
:1028B000064008AA0420A82182E813000B9068466D
:1028C000FEF768FA08B172B6FEE70CA90F2081E89E
:1028D00031004FF4A0500F904FF48050109005211C
:1028E0000CA8FEF76DF9002801D072B6FEE713B010
:1028F00030BD0000403802400070004002480168CE
:1029000041F470010160704788ED00E00148FEF776
:10291000B5BE0000580300200148FEF7AFBE00001E
:10292000A0030020F0B50268294C2A4D2A4E2B4FF7
:102930002B4B4FF0804CA04209D0604507D0A842F5
:1029400005D0B04203D0B84201D0984204D122F061
:10295000700E4A6842EA0E02A0421BD0604519D0B0
:10296000A84217D0B04215D0B84213D0984211D027
:102970001C4DA8420ED01C4DA8420BD01B4DA842A6
:1029800008D01B4DA84205D01A4DA84202D01A4DBE
:10299000A84203D122F44075CA682A434D6922F047
:1029A00080022A4302608A68C2620A688262A04288
:1029B00001D0984201D10969016301214161016996
:1029C000C90703D0016921F001010161F0BD0000D8
:1029D000000001400004004000080040000C0040DE
:1029E0000004014000400140004401400048014013
:1029F00000180040001C00400020004010B501F00D
:102A00001F030121046A99408C430462016A9A40C1
:102A10001143016210BD0000F0B5036A026A22F0A2
:102A20000102026242688469124E24F073050C6848
:102A30002C4323F002058B682B430D4DA84201D097
:102A4000B04205D123F00807CB683B4323F00403D1
:102A5000A84201D0B04205D14D6922F4407215431D
:102A60008A692A4342608461496841630362F0BD18
:102A70000000014000040140F0B5026A036A23F03F
:102A800010030362436884690D6824F4E64444EA51
:102A900005248D6822F0200242EA05120F4D104EE7
:102AA000A84201D0B04206D1CF6822F0800242EAAB
:102AB000071222F04002A84201D0B04207D14D696E
:102AC00023F4406343EA85038D6943EA8503436049
:102AD0008461496881630262F0BD0000000001402A
:102AE00000040140F0B5026A036A23F480730362B4
:102AF0004368C46922F4007224F073050C68124E16
:102B00002C438D6842EA05220E4DA84201D0B04206
:102B100006D1CF6822F4006242EA072222F48062E2
:102B2000A84201D0B04207D14D6923F4405343EA93
:102B300005138D6943EA05134360C4614968C163A5
:102B40000262F0BD000001400004014030B5046A9B
:102B5000026A22F4805202624268C3690D6823F45B
:102B6000E64343EA05238D6824F4005444EA05341F
:102B7000084DA84202D0084DA84204D14D6922F464
:102B8000804242EA85124260C3614968016404627E
:102B900030BD0000000001400004014010B5806B12
:102BA0000021C185C184FEF779FF10BD70B5846B2B
:102BB0002068406994F84110C0F3C0100025212915
:102BC00004D118B1E584204600F08EF820684069F1
:102BD00094F84210C0F38010222904D118B1E58581
:102BE000204600F05AF8606C40F010006064204607
:102BF000FEF754FF70BD10B50146806B0968096887
:102C00004FF00002C9052ED4C28501680C3151E88D
:102C1000003F23F4807341E80034002CF5D10168B3
:102C2000143151E8003F23F0010341E80034002C47
:102C3000F5D10168143151E8003F23F0400341E829
:102C40000034002CF5D1202180F84210016B0129BD
:102C500009D101680C3151E8003F23F0100341E82D
:102C60000034002CF5D14263016B012902D0FFF73B
:102C70002BF910BD818DFEF710FF10BD10B5806BD4
:102C800001214163016B012902D0FFF78DF910BDCD
:102C9000818D4908FEF701FF10BD01680C3151E834
:102CA000002F22F4907241E80023002BF5D1016837
:102CB000143151E8002F22F0010241E80023002BDB
:102CC000F5D1016B012909D101680C3151E8002FC0
:102CD00022F0100241E80023002BF5D1202180F8DA
:102CE000421000210163704701680C3151E8002F48
:102CF00022F0C00241E80023002BF5D1202180F80A
:102D00004110704708B590F84210222901D00220E6
:102D100008BD82684FF480539A4201D1016921B104
:102D2000816A9A421BD04AB10AE00268816A5268FD
:102D3000C2F308020A80816A891C08E0026972B144
:102D40000268526802F07F020A70816A491C81623F
:102D5000C18D491E0904090CC18503D01BE002681E
:102D60005268F1E70168CA6822F02002CA6001686F
:102D7000CA6822F48072CA6001684A6922F00102BE
:102D80004A61202180F8421000214163026B012A30
:102D900003D0FFF799F8002008BD016301680C31EA
:102DA00051E8002F22F0100241E80023002BF5D15A
:102DB00001680A68D20602D50A6849680091818DC7
:102DC000FEF76BFEE7E7000070B504460068016996
:102DD000E26821F44051114301612169A068E26970
:102DE00008436169114308432168CA6849F20C63CA
:102DF0009A430243CA6020684169A26921F4407184
:102E00001143416131492068884202D030498842EB
:102E100002D1FDF77FFF01E0FDF76CFFE2690023BF
:102E2000192164253226B2F5004F626828D0A0FB34
:102E30000101930F9200FDF717FA0146B0FBF5F080
:102E40006FF01802504301EB800006EB0010B0FB5E
:102E5000F5F000F0F002B1FBF5F002EB0012B1FB6F
:102E6000F5F06FF01803584301EB800006EB0010FB
:102E7000B0FBF5F000F00F0021681044886070BDD1
:102E8000A0FB010192185B41FDF7EEF90146B0FB92
:102E9000F5F00201B1FBF5F06FF01803584301EBB8
:102EA000800006EBC000B0FBF5F000F0F80002EB8C
:102EB0004002B1FBF5F0584301EB800006EBC00087
:102EC000B0FBF5F000F00700D6E70000001001406D
:102ED0000014014038B58162044682850020134603
:102EE0006064222284F84220E56B1B4AEA63E56BAA
:102EF0001A4A2A64E56B1A4AEA64E26B10650A46CC
:102F00002168E06B091DFDF785FC206801684068B9
:102F10000090206948B120680C3050E8001F41F44F
:102F2000807140E80012002AF5D12068143050E882
:102F3000001F41F0010140E80012002AF5D120688D
:102F4000143050E8001F41F0400140E80012002A10
:102F5000F5D1002038BD0000F72B00087D2C0008BB
:102F6000AD2B00080148FEF79BBD00003004002097
:102F7000FEE70907090E002804DB00F1E02080F8D5
:102F80000014704700F00F0000F1E02080F8141DDD
:102F9000704700002DED048B82B0FDF77FFDFFF739
:102FA00063FCFFF7F3F8FFF7DBF8FFF789F9FFF7AA
:102FB000DFF9FFF711FAFFF789FAFFF7A3FAFFF736
:102FC000BDFAFFF75BF9FFF73DFAFFF75DFA9FEDFA
:102FD0001E8ADFED1C8A9FED1D9AF3EE042AB0EEE7
:102FE000682AF0EE481AB0EE481AF7EE000AB0EE82
:102FF000490A00211648FEF7ECFF1548F3EE042AB3
:10300000B0EE682AF0EE481AB0EE481AF7EE000A61
:10301000B0EE490A0021CC30FEF7DBFF00200C4A5D
:103020000B4903460090CC3201F5CC70FDF7F8F95E
:10303000FEF7D2FF0748FEF7DFF90748FEF7DCF995
:10304000FEE700000080C743000000000000C84207
:103050003C00002058030020A003002070B5044667
:103060002DED028BB0EE408A0078012800D021704F
:1030700022780120D2B3012A35D1A07084F85110F2
:1030800010EE901A11EE903A11EE105A12EE100A4C
:10309000C4F8521012EE902A02EE100A01EE903A95
:1030A000C4F85650C4F85A3002EE902A03EE905AF3
:1030B000C4F85E00B0EE424AB0EE613A00EE101A7B
:1030C000C4F86220B0EE622AF0EE441AB0EE431A61
:1030D000F0EE630A002104F1510000F02DF818EE23
:1030E000100AC4F86600BDEC028B70BDFFE760708B
:1030F000E170C4ED010AB0EE610A84ED021A84EDBC
:10310000030AB0EE414A84ED042AF0EE423AB0EEF2
:10311000603AB0EE401AC4ED052AB0EE622AF0EE35
:10312000631AF0EE440AB0EE430A0021E01C00F0FE
:1031300003F884ED068AD6E70EB503468DEC030A44
:10314000F0EE420AB0EE610A6A46FFF76AFB1846E3
:10315000FFF748FB0EBD4FF04070E1EE100A7047DC
:103160000006101600061016000000000000000007
:10317000010203040607080900000000010203041D
:10318000A03100080000002010000000C401000869
:10319000B031000810000020700B0000E0010008B2
:1031A0000100000010000000000000000024F400F6
:040000050800018965
:00000001FF
