:020000040800F2
:10000000E8060020F10100082725000895220008D5
:1000100025250008290300086134000800000000BD
:10002000000000000000000000000000932A00080B
:100030009D03000800000000912A0008952A00088E
:100040000B0200080B0200080B0200080B0200085C
:100050000B0200080B0200080B0200080B0200084C
:100060000B0200080B0200080B0200082D03000819
:100070000B0200080B0200080B0200080B0200082C
:100080000B020008000000000B0200080B02000831
:100090000B0200080B0200080B0200080B0200080C
:1000A0000B0200080B0200080B0200080B020008FC
:1000B0000B0200080B0200080B0200080B020008EC
:1000C0000B0200080B0200080B0200080B020008DC
:1000D0000B020008553400080B0200080B02000850
:1000E0000B0200080B0200080B0200080B020008BC
:1000F0000B0200080B0200080B02000800000000C1
:10010000000000000B020008000000000B020008C5
:100110000B02000800000000112B00081D2B000836
:100120000B0200080B0200080B0200080B0200087B
:100130000B02000800000000000000000B02000895
:100140000B0200080B020008000000000000000085
:10015000000000000000000000000000000000009F
:100160000000000000000000000000000B0200087A
:100170000B0200080000000000000000000000006A
:10018000000000000B02000800000000000000005A
:10019000000000000000000000000000000000005F
:1001A00000000000000000000B0200080B02000825
:1001B0000B0200080B0200080B0200080000000000
:1001C000000000000B02000800000000000000001A
:1001D0000B0200080B020008DFF810D000F092F8C4
:1001E0000048004731360008AFF30080E8060020E1
:1001F0000648804706480047FEE7FEE7FEE7FEE7C1
:10020000FEE7FEE7FEE7FEE7FEE7FEE7012B00085C
:10021000D90100082DE9F05F0546002092469B4673
:1002200088460646814640241BE02846414647460C
:10023000224600F057F853465A46C01A914110D34F
:1002400011461846224600F03EF82D1A67EB0108C9
:100250004F4622460120002100F035F817EB000937
:100260004E41201EA4F10104DFDC484631462A46F7
:100270004346BDE8F09FD2B201E000F8012B491ED1
:10028000FBD270470022F6E710B513460A46044633
:100290001946FFF7F0FF204610BD30B50B4601466A
:1002A00000202022012409E021FA02F59D4205D315
:1002B00003FA02F5491B04FA02F52844151EA2F1BF
:1002C0000102F1DC30BD202A04DB203A00FA02F101
:1002D000002070479140C2F1200320FA03F3194334
:1002E00090407047202A04DB203A21FA02F00021D6
:1002F000704721FA02F3D040C2F120029140084336
:1003000019467047064C074D06E0E06840F00103CF
:1003100094E8070098471034AC42F6D3FFF760FF2B
:100320004C3700086C370008FEE70000014800F079
:10033000A9B80000680200200D4902688A4201D273
:100340000C4901E00B492031D2B21423083AB2FB28
:10035000F3F2436C02F01F0223F00303194481649B
:1003600004498031C164012191400165704700005A
:1003700008040240000802400179074A02EB8102AA
:100380004265054A4432491E826501F01F0201217F
:100390009140C16570470000FC080240704772B68A
:1003A000FEE710B590F8253000210122022B03D082
:1003B0000421C163012122E003681C6824F00E04BB
:1003C0001C60836C1C6824F480741C6003681C68C7
:1003D00024F001041C6090F84430046C03F01F0307
:1003E00002FA03F36360D0E913345C60436D33B108
:1003F0001C6824F480741C60D0E916345C6080F8BA
:100400002520002280F82420084610BD70B590F801
:100410002520002401212346022A07D00422C2639A
:1004200080F8251080F82430012429E0026815683E
:1004300025F00E0515600268156825F001051560A8
:10044000826C156825F48075156090F84420056C61
:1004500002F01F0201FA02F26A60D0E9132555602A
:10046000426D32B1156825F480751560D0E9162506
:10047000556080F8251080F82430816B01B18847E1
:10048000204670BDF0B4016C0C6801680D6890F8EE
:10049000442002F01F06042202FA06F3234211D080
:1004A0006B070FD50B689B0603D40B6823F004037E
:1004B0000B6090F8441001F01F018A40016C4A6003
:1004C000016B1DE0022303FA06F727424FF0000CF0
:1004D0004FF0010218D0AF0716D50C68A40605D45A
:1004E0000C6824F00A040C6080F8252090F8441071
:1004F00001F01F018B40016C4B6080F824C0C16A81
:1005000000291AD0F0BC08470823B340234214D076
:100510002B0712D50B6823F00E030B6090F84410E4
:10052000036C01F01F0102FA01F15960C26380F807
:10053000252080F824C0416BE2E7F0BC7047000042
:1005400070B504000CD02B4A21681420914209D2C6
:10055000294A0A44B2FBF0F08000606427480AE0B0
:10056000012070BD234A52420A44B2FBF0F08000E1
:100570006064204808382064022084F825000A6856
:1005800047F6F0708243D4E902031843D4E90435F6
:100590002B431843A3691843E3691843236A18439C
:1005A000104308602046FFF7C7FEA0680025B0F59D
:1005B000804F00D16560A16C20790860D4E91301F7
:1005C00041606068401E032808D82046FFF7D4FE2B
:1005D000606D0560D4E91601416002E06565A565BE
:1005E000E565E563012084F8250084F824500020A7
:1005F00070BD000008040240F8FFFDBF000002408B
:1006000070B5044600F03CF90546601C02D0044871
:100610004068044400F034F9401BA042FAD370BD96
:10062000000000202DE9F04FDFF820920023012682
:100630000324A9F1040B85B00F2709F1040AABF1DB
:10064000040EFAE006FA03F52A407CD091F804C0C3
:100650000CF0030CBCF1010F02D0BCF1020F26D14B
:10066000D0F808C0CDF800C04FEA430C04FA0CF8EB
:10067000CDF810C0DDF800C02CEA080CCDF800C0A1
:10068000D1F80C80DDF810C008FA0CF8DDF800C0D5
:1006900048EA0C08C0F80880D0F804C02CEA050C21
:1006A0000D79C5F300159D4045EA0C0545600D79AF
:1006B000ED43AD070ED0C5684FEA430804FA08FCC5
:1006C00025EA0C05D1F808C00CFA08FC4CEA050C28
:1006D000C0F80CC00D7905F00305022D16D1DD0818
:1006E00000EB850CCDF808C0DCF820805D074FEAF0
:1006F000D56C07FA0CF528EA05080D6905FA0CF522
:10070000DDF808C045EA0805CCF8205005684FEA36
:10071000430CCDF808C004FA0CFC25EA0C0591F84E
:1007200004C00CF00308DDF808C008FA0CF848EA29
:100730000508C0F800804D6815F4403F7CD0444D5A
:10074000D5F860C000E077E04CF0010CC5F860C05F
:100750002D6E23F0030C05F0010500953D4D654419
:100760000295AD684FEA837C4FEA1C7807FA08FCD3
:1007700025EA0C05B0F1904F06D0DFF8DCC06045EB
:1007800005D14FF0010C20E04FF0000C1DE0DFF828
:10079000CCC0604502D14FF0020C16E0DFF8C0C0BB
:1007A000604502D14FF0030C0FE0DFF8B8C06045A0
:1007B00002D14FF0040C08E0DFF8ACC0604502D174
:1007C0004FF0050C01E04FF0060C0CFA08FC4CEA67
:1007D000050C029DC5F808C0D9F80050CC46D1F8E8
:1007E000048095435FEAC82800D51543CCF8005033
:1007F000DAF80050D446D1F8048095435FEA88289F
:1008000000D51543CCF80050DBF80050DC46D1F899
:10081000048095435FEA883800D51543CCF8005032
:10082000DEF80050F446D1F8048095435FEAC838FA
:1008300000D51543CCF800505B1C0A6832FA03F56A
:100840007FF400AF05B0BDE8F08F00000804014060
:100850000010024000000140000400480008004869
:10086000000C0048001000480014004800690840CF
:1008700000D0012070470AB18161704781627047E2
:10088000014880687047000000000020024881682D
:1008900042681144816070470000002010B50024B8
:1008A000032000F073F80F2000F008F808B10124CD
:1008B00001E000F025F8204610BD000070B50E4E96
:1008C00005460024706898B14FF47A71B1FBF0F0DE
:1008D0000A490968B1FBF0F000F05EFD40B9102D47
:1008E00006D200222946501E00F030F8356000E0A4
:1008F0000124204670BD0000000000200C000020F4
:100900000A4882B0016E41F001010166016E01F0FA
:1009100001010091816D41F080518165806D00F091
:100920008050009002B000F0A1B80000001002401A
:10093000002809DB00F01F020121914040098000DE
:1009400000F1E020C0F8001170470000F0B40E4B39
:100950001B680C46C3F30223C3F10705042D00D91D
:100960000425191D072901D2002300E0DB1E012602
:1009700006FA05F1491E214099409E40761E164018
:100980003143F0BC02F07EBD0CED00E0064900F002
:10099000070208684FF6FF03184040EA0220034AA6
:1009A00010430860704700000CED00E00000FA05FD
:1009B0002B492C4B0A6832214A432B4940B1B0F5F0
:1009C000007F086829D020F4C06040F480602CE0EB
:1009D0000868C0F34120022804D051F8800F20F4A9
:1009E000807022E0D1F8800020F48070C1F880008F
:1009F000086820F4C06040F400700860B2FBF3F0B7
:100A0000401C00E0401E4A69520501D50028F9D17A
:100A1000486940050AD503207047C0F341200228E9
:100A200006D051F8800F40F48070086000207047B5
:100A3000D1F8800040F48070C1F88000086820F48C
:100A4000C06040F400700860B2FBF3F0401C00E0AE
:100A5000401E4A695205DBD50028F9D1D8E70000CD
:100A60000C00002040420F000070004002488168E6
:100A700041F4804181607047007000402DE9F843E7
:100A80000446006800269D4D00035ED5A86D002732
:100A9000C00008D4A86D40F08050A865A86D01275B
:100AA00000F080500090DFF85892D9F8001041F41F
:100AB0008071C9F80010FFF7E3FE804606E000BF32
:100AC000FFF7DEFEA0EB080002282BD8D9F80000C3
:100AD000C005F5D5D5F8900010F4407014D0216C05
:100AE000814211D0D5F89000D5F8901020F44070D4
:100AF00041F48031C5F89010D5F8901021F4803180
:100B0000C5F89010C5F89000C00711D0FFF7B8FEE7
:100B1000804641F2883907E0FFF7B2FEA0EB0801FA
:100B2000494501D903260BE0D5F890008007F3D59D
:100B3000D5F89000216C20F440700843C5F890006F
:100B40001FB1A86D20F08050A8652078C00707D09D
:100B5000D5F88800616820F003000843C5F88800D4
:100B60002078800707D5D5F88800A16820F00C0010
:100B70000843C5F888002078400707D5D5F88800D5
:100B8000E16820F030000843C5F8880020780007AD
:100B900007D5D5F88800216920F0C0000843C5F8C2
:100BA00088002078800607D5D5F88800616920F490
:100BB00040600843C5F888002078400607D5D5F87E
:100BC0008800A16920F440500843C5F888002078C7
:100BD000000607D5D5F88800E16920F440400843B5
:100BE000C5F888002088C00507D5D5F88800216A97
:100BF00020F440300843C5F888002088800507D5D8
:100C0000D5F88800616A20F440200843C5F88800C0
:100C1000208840050FD5D5F88800A16A20F440103F
:100C20000843C5F88800A06AB0F5801F03D1E868C2
:100C300040F48010E860208800050FD5D5F88800C2
:100C4000E16A20F440000843C5F88800E06AB0F586
:100C5000800F03D1E86840F48010E8602088C00469
:100C60000FD5D5F88800216B20F040700843C5F8F7
:100C70008800206BB0F1807F03D1E86840F48010D9
:100C8000E86020884FF0006180040ED5D5F8880018
:100C9000626B20F040601043C5F88800606B8842AA
:100CA00003D1E86840F48010E860208840040ED545
:100CB000D5F88800A26B20F040601043C5F888008A
:100CC000A06B884203D1E86840F48010E860208877
:100CD00000040FD5D5F88800E16B20F040500843A0
:100CE000C5F88800E06BB0F1805F03D1E86840F49C
:100CF0008030E8603046BDE8F88300000010024014
:100D0000007000402DE9F0470E4605004FF0000747
:100D100025D0DFF8AC81D8F8000000F00F00B04219
:100D20000CD2D8F8001021F00F013143C8F80010A0
:100D3000D8F8000000F00F00B04210D12968614CD3
:100D4000C80741F2883A5AD06868DFF87C910328D6
:100D500008D0022820682DD0400500282CDB012077
:100D6000BDE8F08720688001F9D5E06800F0030253
:100D7000E068C0F30310401C032A19D0534A00BF97
:100D8000B2FBF0F0E268C2F306225043E268C2F31D
:100D90004162521C5200B0FBF2F0484517D9A068DE
:100DA00010F0F00F0CD0880711D5A86840B10EE004
:100DB000474AE5E78003D0E700F0B6F8484506D992
:100DC000A06820F0F00040F08000A0608027A068BC
:100DD000696820F003000843A060FFF751FD8146D9
:100DE00006E000BFFFF74CFDA0EB090151453AD8E2
:100DF000A068696800F00C00B0EB810FF2D12868A0
:100E0000810714D5400703D5A06840F4E060A060D6
:100E10002878000705D5A06820F4605040F4E06011
:100E2000A060A068A96820F0F000084304E0802FCB
:100E300003D1A06820F0F000A060D8F80010404670
:100E400001F00F01B14216D9016821F00F013143C1
:100E50000160FFF715FD074607E000BFFFF710FD33
:100E6000C11B514501D903207AE7D8F8000000F0F2
:100E70000F00B042F2D12878400705D5A068E96894
:100E800020F4E0600843A0602878000706D5A06839
:100E9000296920F4605040EAC100A06000F044F8E5
:100EA000A1680C4AC1F30311515C01F01F01C84055
:100EB0000949086009480068BDE8F047FFF7FEBC33
:100EC000002002400010024000B4C4040024F400DA
:100ED00000127A00323700080C00002000000020C9
:100EE0000548064900688968054AC1F30221515C3A
:100EF00001F01F01C84070470C00002000100240A4
:100F0000423700080548064900688968054AC1F368
:100F1000C221515C01F01F01C84070470C00002045
:100F20000010024042370008184910B58868C0F325
:100F300081021748012A0BD08A684310C2F381024C
:100F4000022A06D08A68C2F38102032A03D0002055
:100F500010BD184610BDCA6802F00304CA68C2F387
:100F60000312521C032C02D0B0FBF2F001E0B3FBE1
:100F7000F2F0CA68C968C2F306225043C1F3416166
:100F8000491C4900B0FBF1F010BD00000010024008
:100F90000024F4002DE9F84304007AD02078F84DBD
:100FA000C00747D0A868E96800F00C0001F0030111
:100FB0000C2802D0082817D001E0032914D060685B
:100FC000B0F5803F17D0B0F5A02F286817D020F4D7
:100FD00080302860286820F4802028606068E0B1B4
:100FE000FFF74EFC064614E02868800322D56068AF
:100FF0000028D2D01EE0286840F48030EDE740F4AD
:1010000080202860F7E700BFFFF73AFC801B6428C8
:1010100070D828688003F7D50CE0FFF731FC06464E
:1010200005E000BFFFF72CFC801B6428F0D828687F
:101030008003F7D4207880074CD5A868E96800F0D1
:101040000C0001F003010C2802D004280DD001E0AF
:1010500002290AD0E068002828682BD040F480706C
:101060002860FFF70DFC064619E02868400502D508
:10107000E068002891D06868217C20F0FE4040EABA
:1010800001606860BF480068FFF718FC002800D1C5
:1010900020E072E1FFF7F4FB801B0228B8D8286833
:1010A0004005F7D56868217C20F0FE4040EA0160E9
:1010B00068600FE020F480702860FFF7E1FB0646CF
:1010C00005E000BFFFF7DCFB801B0228A0D82868E2
:1010D0004005F7D42078000729D560690028D5F8A5
:1010E000940013D040F00100C5F89400FFF7C8FB4E
:1010F000064606E090E000BFFFF7C2FB801B022817
:1011000086D8D5F894008007F6D510E020F00100CD
:10111000C5F89400FFF7B4FB064604E0FFF7B0FB08
:10112000801B022878D8D5F894008007F6D4207860
:10113000400761D5A86D0026C00008D4A86D40F016
:101140008050A865A86D012600F0805000908E4860
:101150000168C90511D40168804641F480710160BD
:10116000FFF78EFB074604E0FFF78AFBC01B02284F
:1011700052D8D8F80000C005F6D5A068012815D0CF
:101180000528D5F8900016D020F00100C5F8900091
:10119000D5F8900020F00400C5F89000A06841F256
:1011A0008838B8B1FFF76CFB07460EE0D5F8900021
:1011B00040F00100F0E740F00400C5F89000F5E7CA
:1011C000FFF75EFBC11B414526D8D5F8900080078C
:1011D000F6D50CE0FFF754FB074604E0FFF750FBA1
:1011E000C11B414518D8D5F890008007F6D41EB130
:1011F000A86D20F08050A8652078800629D5A069C8
:101200000028D5F8980013D040F00100C5F89800E8
:10121000FFF736FB064606E075E000BFFFF730FB40
:10122000801B02286FD8D5F898008007F6D510E00B
:1012300020F00100C5F89800FFF722FB064604E005
:10124000FFF71EFB801B02285DD8D5F898008007A9
:10125000F6D4E069F0B3A968C1F3810103295DD038
:101260000228286820F08070286003D0FFF708FB70
:1012700004464BE0FFF704FB064604E0FFF700FBE3
:10128000801B02283FD828688001F7D4F4E90801C0
:101290006FF00F0202EB01110843218A5204490842
:1012A00002EB4151A26841EA02210843217D4FF03F
:1012B0007E42490802EB41610843217B40EAC1605C
:1012C000E968324A11400843E860286840F08070BD
:1012D000286000E05EE0E86840F08070E860FFF7BA
:1012E000CFFA044605E000BFFFF7CAFA001B022848
:1012F00009D828688001F7D54CE000BFFFF7C0FA95
:10130000001B022802D90320BDE8F8832868800169
:10131000F4D4E8681E490840E8603BE00128F3D0B7
:10132000E868226A00F00301914226D1616A00F068
:10133000F0020901103991421FD1A26A00F4FE4166
:10134000B1EB022F19D194F82C2000F07841B1EBC9
:10135000C26F12D1218E00F4C00249084905A1F5DF
:101360000011914209D194F8341000F0C06049088E
:101370004906A1F1007181420CD00120C4E70000B0
:101380000010024000000020007000400C809F010F
:10139000FCFFEEFE0020B7E710B5401EB0F1807FE5
:1013A00001D3012010BD4FF0E02460610F216017D0
:1013B00002F068F80020A06107202061002010BD25
:1013C000704770477047000030B590F83C20012A04
:1013D00042D0012280F83C20CA688B6822F4407217
:1013E0001A434B6822F480621A430B6822F40062AD
:1013F0001A430B6922F480521A434B6922F40052BB
:101400001A430B6B22F480421A430B8B22F4702296
:1014100042EA0342CB6922F080521A430F4D03681F
:101420000024AB4202D00E4DAB4210D10D8D22F400
:10143000700242EA05520D6A22F080722A434D6A18
:1014400022F000722A43C96A22F000520A435A6409
:1014500080F83C40002030BD022030BD002C01400F
:10146000003401407047704770470000F0B590F8B5
:101470003C20012A3AD0012580F83C50022280F815
:101480003D2003685A689C68194E1A4FB34201D038
:10149000BB4204D122F4700C4A6842EA0C02DFF825
:1014A00058C002EA0C02D1F800C04CEA020CC3F8A2
:1014B00004C00268B2420DD0B2F1804F0AD00F4B87
:1014C0009A4207D00E4B9A4204D0BA4202D00D4B3A
:1014D0009A4204D1896824F080031943916080F80E
:1014E0003D50002180F83C100846F0BD0220F0BDC0
:1014F000002C0140003401408FFFFFFD000400403C
:101500000008004000400140704710B5040003D0BF
:1015100094F83D0010B107E0012010BD002084F8D0
:101520003C00204600F022F8022084F83D00211DF6
:10153000206801F0F9FA012084F8480084F83E00A0
:1015400084F83F0084F8400084F8410084F84200A9
:1015500084F8430084F8440084F8450084F8460089
:1015600084F8470084F83D00002010BD08B5154AF6
:101570000168154891420ED1816D41F010018165DD
:10158000806D002200F01000009009213620FFF746
:10159000DDF9362010E00D4A914211D1816D41F004
:1015A00020018165806D002200F02000009008215C
:1015B0003720FFF7CBF93720BDE80840FFF7B8B96F
:1015C00008BD000000100040001002400014004060
:1015D00090F83D10012901D001207047022180F8C8
:1015E0003D100168CA6842F00102CA6000681049F3
:1015F00088420ED0B0F1804F0BD00E49884208D0FF
:101600000D49884205D00D49884202D00C498842D4
:1016100007D181680B4A1140062906D0B1F5803FF9
:1016200003D0016841F00101016000207047000013
:10163000002C01400004004000080040003401403C
:1016400000400140070001002DE9F0410D46040073
:1016500003D094F83D0018B108E00120BDE8F08106
:10166000002084F83C00204600F042F8022084F874
:101670003D00206881681D4A11408160211D20685D
:1016800001F052FA226890689169166A2B68AF6976
:10169000034340F20330814341EA0721A868EF6920
:1016A00008434FF6FC418843E96840EA07200143BC
:1016B00028692F6A000140EA0730084369686D69AC
:1016C00026F0AA0646EA0515294393602268906130
:1016D00054F8480B0162012004F81F096075A075D9
:1016E000E076207720750020B8E70000F8BFFEFF05
:1016F00010B586B0044614216846FEF7C3FD206885
:10170000B0F1804F1ED11048816D41F0010181651B
:10171000816D01F001010591C16C41F00101C164CD
:10172000C06C694600F00100059003200090022083
:101730000190002002900390012004904FF090400F
:10174000FEF770FF06B010BD0010024070B590F8B3
:101750003E60044690F83F5090F8443090F84520A1
:10176000022021B104290ED0012E1BD114E0012E3C
:1017700018D1012B16D184F83E0084F844000122D0
:101780000021206820E0012D0CD1012A0AD184F823
:101790003F0084F8450014E0012D03D1012B01D155
:1017A000012A01D0012070BD84F83E0084F83F007A
:1017B00084F8440084F8450001220021206801F0EB
:1017C00011FA01220421206801F00CFA2068016856
:1017D00041F001010160002070BD70472DE9F0412A
:1017E00004460068C66805694FF00007A90713D5CD
:1017F000B10711D5F91E01610120207720688069A9
:101800008007204602D0FFF7E8FF04E000F0E2F88E
:10181000204600F0B7F92777680716D5700714D56A
:1018200021686FF004000861022020772068806939
:1018300010F4407F204602D0FFF7CFFF04E000F015
:10184000C9F8204600F09EF92777280715D53007FC
:1018500013D521686FF00800086104202077206804
:10186000C0698007204602D0FFF7B7FF04E000F010
:10187000B1F8204600F086F92777E80616D5F0067D
:1018800014D521686FF010000861082020772068C7
:10189000C06910F4407F204602D0FFF79EFF04E0AD
:1018A00000F098F8204600F06DF92777E80708D097
:1018B000F00706D021686FF001000861204600F0B3
:1018C000E1F9280601D4A80408D5300606D5216818
:1018D0006FF4025008612046FFF773FDE80508D554
:1018E000300606D521686FF4807008612046FFF746
:1018F00067FD680608D5700606D521686FF04000C0
:101900000861204600F0E0F9A80608D5B00606D523
:1019100021686FF0200008612046FFF753FDE802C0
:1019200008D5F00206D521686FF4801008612046C2
:10193000FFF799FDA80208D5B00206D521686FF41B
:10194000001008612046FFF78DFD680208D570027F
:1019500006D521686FF4800008612046FFF784FDFA
:1019600028020AD5300208D521686FF4000008610A
:101970002046BDE8F041FFF7C7BDBDE8F08100009B
:1019800010B586B0044614216846FEF77BFC0F496B
:101990002068884217D10E48C16C41F00101C16432
:1019A000C06C694600F0010005904FF48070009013
:1019B00002200190002002900390062004904FF036
:1019C0009040FEF72FFE06B010BD0000002C014035
:1019D00000100240704770B5044690F83C000026A5
:1019E0000D4601280BD0012084F83C000C2A4AD077
:1019F00007DC82B1042A20D0082A06D131E0022077
:101A000070BD102A53D0142A63D00126002084F818
:101A10003C00304670BD206801F0F2F82068816912
:101A200041F0080181612068816921F00401816130
:101A3000206881692A69114311E0206801F02EF9BC
:101A40002068816941F4006181612068816921F425
:101A500080618161206881692A6941EA022181618E
:101A6000D4E7206801F062F92068C16941F00801FB
:101A7000C1612068C16921F00401C1612068C169A8
:101A80002A69114311E0206801F098F92068C169C2
:101A900041F40061C1612068C16921F48061C161C4
:101AA0002068C1692A6941EA0221C161AEE7206864
:101AB00001F0CCF92068016D41F008010165206852
:101AC000016D21F0040101652068016D2A6911434F
:101AD00011E0206801F0F2F92068016D41F4006125
:101AE00001652068016D21F4806101652068016D48
:101AF0002A6941EA0221016588E710B5040003D094
:101B000094F83D0010B107E0012010BD002084F8DA
:101B10003C00204600F022F8022084F83D00211D00
:101B2000206801F001F8012084F8480084F83E00A4
:101B300084F83F0084F8400084F8410084F84200B3
:101B400084F8430084F8440084F8450084F8460093
:101B500084F8470084F83D00002010BD08B50068F7
:101B60000649884208D10648016E41F400610166C9
:101B7000006E00F40060009008BD0000002C0140E1
:101B8000001002407047000030B50446022269B1DF
:101B9000042912D0082917D00C291CD0102921D0D3
:101BA00094F84300012824D0012030BD94F83E0071
:101BB0000128F9D184F83E201DE094F83F00012867
:101BC000F2D184F83F2016E094F840000128EBD1D0
:101BD00084F840200FE094F841000128E4D184F813
:101BE000412008E094F842000128DDD184F8422029
:101BF00001E084F843200122206800F0F3FF194B34
:101C000020681949194A984209D0884207D0904261
:101C100005D0174DA84202D0164DA84203D1456CFD
:101C200045F400454564206898420CD0B0F1804FDF
:101C300009D0114B984206D0104B984203D08842ED
:101C400001D0904207D181680D4A1140062906D083
:101C5000B1F5803F03D0016841F00101016000202F
:101C600030BD0000002C0140003401400040014024
:101C700000440140004801400004004000080040CA
:101C8000070001000C4910B5884213D10B480068C9
:101C900050F8151F406800EE901A00EE100A084830
:101CA00000F042FCBCEEC00A064910EE100A0968BA
:101CB00080B2486310BD0000880100203800002079
:101CC00054000020A4000020704790F884100129DF
:101CD00018D0012180F884102421C0F888100168F0
:101CE0000A680B6823F001030B6022F00051002208
:101CF0004266036819602021C0F8881080F88420AB
:101D000010467047022070477047704770B5044610
:101D100090F8840001281DD0012084F8840024203C
:101D2000C4F8880020680568026822F00102026099
:101D30002068826822F060620A438260204601F0D7
:101D4000F5F8206805602020C4F88800002084F899
:101D5000840070BD022070BD70B5044690F8840008
:101D600001281DD0012084F884002420C4F88800B4
:101D700020680568026822F001020260206882681B
:101D800022F060420A438260204601F0CFF82068CA
:101D900005602020C4F88800002084F8840070BD0D
:101DA000022070BD70477047704700002DE9F04178
:101DB00003680446D86919689A6840F60F052842F6
:101DC0004FF000054FF002060AD187067ED501F0DC
:101DD000200702F0805C57EA0C0777D0616F3AE188
:101DE000B24FDFF8CCC2174001EA0C0C57EA0C0CDA
:101DF0006CD05FEAC07C0CD05FEAC15C09D54FF0C3
:101E0000010CC3F820C0D4F8903043F00103C4F8AB
:101E10009030830709D5D30707D023681E62D4F812
:101E2000903043F00403C4F8903043070AD5D30739
:101E300008D0266804233362D4F8903043F00203BC
:101E4000C4F8903003070CD501F020033B4308D0C1
:101E5000266808233362D4F8903043F00803C4F8AE
:101E6000903003050BD54B0109D526684FF400636C
:101E70003362D4F8903043F02003C4F89030D4F8A3
:101E80009030002B3DD0800609D501F0200002F0F3
:101E90008051084303D0616F09B120468847D4F8C8
:101EA000900021688968490602D410F0280F2AD0D2
:101EB000204601F021F92068806840061ED5206880
:101EC000083050E8001F21F0400100E021E040E828
:101ED0000012002AF3D1D4F8800078B175498163EB
:101EE000D4F88000FEF792FA00280AD0D4F88000D7
:101EF000816B00E02046BDE8F04108472046FFF72F
:101F000053FFBDE8F0812046FFF74EFFC4F8905024
:101F1000F7E7D4F86CC02027BCF1010F7ED15FEA4F
:101F2000C06C7BD55FEAC16C78D510201862206840
:101F30008068400645D5D4F88010086840680004E1
:101F4000000CDED0B4F85C208242DAD9A4F85E003E
:101F50000868006880062CD4216851E8000F20F43E
:101F6000807041E80002002AF6D12068083050E86D
:101F7000001F21F0010140E80012002AF5D120687D
:101F8000083050E8001F21F0400140E80012002A0C
:101F9000F5D1C4F88C70E566206850E8001F21F088
:101FA000100140E80012002AF6D1D4F88000FEF7B4
:101FB000F8F92667B4F85C00B4F85E10401A81B2F4
:101FC00030E0B4F85C00B4F85E10401A81B2B4F8A6
:101FD0005E00002895D0002993D0226852E8000FB7
:101FE00020F4907042E80003002BF6D12F4BDB4326
:101FF0002068083050E8002F1A4040E8002CBCF15F
:10200000000FF5D1C4F88C70E5666567226852E868
:10201000000F20F0100042E8000300E006E0002B73
:10202000F4D126672046FFF76FFE6AE7C60209D59E
:10203000560207D54FF4801018622046BDE8F041E3
:10204000FFF7B1BE03060AD501F0800302F40002D7
:10205000134304D0A16F00297FF44CAF51E742062F
:1020600011D54A060FD52046026852E8001F21F01C
:10207000400142E80013002BF6D1C0F88870856754
:1020800000F007F93DE7020206D54A0004D52046D4
:10209000BDE8F041FFF786BEC001C6D50029C4DA0D
:1020A0002046BDE8F041FFF730BE000001000010FF
:1020B00020010004E530000810B5040003D0D4F876
:1020C000880010B107E0012010BD002084F88400D2
:1020D000204600F027F82420C4F888002068016812
:1020E00021F001010160A06A10B1204600F040FF1C
:1020F000204601F02BF80128E6D02068416821F441
:10210000904141602068816821F02A018160206847
:10211000016841F0010101602046BDE8104000F077
:102120008BBF000070B598B00646142111A8FEF7C9
:10213000A9F844216846FEF7A5F826493068884288
:1021400046D101200025CDE900056846FEF796FC42
:1021500008B1FEF724F92049086E40F48040086673
:10216000086E00F480401690C86C40F00100C8640E
:10217000C86C11A900F0010016904FF4C0601190D6
:102180000220CDE912050720CDE914504FF0904010
:10219000FEF748FA124C11482060192060601020A8
:1021A000C4E902058020C4E90405A561E561204673
:1021B0002562FEF7C5F908B1FEF7F1F8F4670022D1
:1021C0000A212520A662FEF7C1FB2520FEF7B0FB01
:1021D00018B070BD003801400010024008000240F5
:1021E000680200202DE9F8430446D0F8880098469C
:1021F00016460D46202802D00220BDE8F883A5B17E
:102200009EB10020C4F890002120C4F88800183442
:10221000FEF736FBA6878146E68754F8100C202788
:10222000183CB0F5805F02D003E00120E5E72069AB
:1022300010B12E46002510E000260EE08021204639
:1022400001F0BEF8C0B9DEB116F8010B2168886252
:10225000B4F85600401EA4F85600B4F856004B4699
:102260004FF00002CDF800800028E7D14FF0400188
:10227000204601F0A5F840B1C4F888700320BCE7FF
:1022800035F8020BC0F30800E0E7C4F888700020BE
:10229000B3E77047FEE700000D4808B5816C41F0D8
:1022A00004018164816C01F004010091816C41F0B2
:1022B00001018164806C002200F001000090114651
:1022C0000B20FEF743FBBDE808400B20FEF730BBB8
:1022D000001002400D4808B5C16C41F00401C16412
:1022E000C16C01F004010091C16C41F02001C16496
:1022F000C16C01F020010091C16C41F00101C16489
:10230000C06C00F00100009008BD00000010024009
:1023100010B598B00024149415941C210DA816949F
:10232000FDF7B0FF34216846FDF7ACFF2348224992
:1023300001609521C0E901146321C0E903144461DF
:102340008461FFF7DAFB08B1FEF729F814941594BD
:1023500014A91A481694FFF789F808B1FEF71FF878
:102360006020CDE90D040F94109411941294002272
:102370000DA912481394FFF72EFB08B1FEF70FF8D2
:1023800000944FF40050CDE9044003940003CDE9DC
:10239000084001940294069407940A940B946946A9
:1023A00006480C94FFF710F808B1FDF7F8FF034852
:1023B000FFF7E6FA18B010BD002C0140A400002081
:1023C00010B58CB024216846FDF75CFF0024154849
:1023D00009940A944FF080410B94C0E9001412490B
:1023E000C0E90241046184610320CDE900040120B9
:1023F000CDE902040494CDE90540079469460948F3
:102400000894FFF721F908B1FDF7C9FF099409A95C
:1024100004480B94FFF72AF8002801D0FDF7BFFF0E
:102420000CB010BDF00000209F8601003EB50024D6
:102430000F48009401940D49029401609521C0E970
:10244000011440F2E7318461C160FFF75EF808B122
:10245000FDF7A5FF0094694605480294FFF706F8CA
:10246000002801D0FDF79BFF3EBD0000001000409A
:102470003C0100203EB500240F48009401940D4912
:10248000029401609521C0E9011442F20F71846148
:10249000C160FFF73AF808B1FDF781FF0094694683
:1024A00005480294FEF7E2FF002801D0FDF777FF10
:1024B0003EBD00000014004088010020184810B5FF
:1024C000164901604FF4E1314160002181600C2226
:1024D000C160C0E904128161C1610162416281622F
:1024E000FFF7EAFD08B1FDF75AFF00210C48FFF79E
:1024F00033FC08B1FDF753FF00210948FFF706FC44
:1025000008B1FDF74CFF0648FFF7DFFB002803D0BA
:10251000BDE81040FDF743BF10BD0000003801408A
:10252000D4010020FEE7FEE770B5D0B1D0F83D2021
:10253000C0F84120D0F8393010EE901AC0F83D3084
:10254000C0F8151010EE101A30EEC00AC0F81910BD
:1025500010EE101AC0F8391004782CB1012C6FD18C
:1025600079E09FED6C0A70BD50F8012F00EE101A53
:1025700000EE902A20EE800A00EE901A10EE104A2B
:102580000462426A00EE102A426801EE102A01EE4F
:10259000200A00EE903A10EE102A00EE101A426265
:1025A000056B30EE600A4563C56A10EE101A0563CC
:1025B000C162836800EE101A00EE903A20EE800AA5
:1025C00010EE103A00EE102A83620169401E00EE00
:1025D000901AB4EEE00AF1EE10FA02DDC0F8251010
:1025E00011E000EE901A00EE102AF1EE600AB4EE4F
:1025F000E00AF1EE10FA06D200EE101AB1EE400A2F
:1026000010EE101AEAE7D0F8251000EE104A00EE9E
:10261000901A70EE200A00EE103A30EE800A10EEAA
:10262000102AC0F81D2000EE102AD0F80D1000BFAF
:1026300000EE901AB4EEE00AF1EE10FA08DC59E070
:1026400063E000BF00EE101AB1EE400A10EE101A5F
:10265000C0F81D1059E000EE101A00EE903A50F844
:10266000014FB0EE001A70EE600A00EE104A20EE44
:10267000800A10EE104A00EE101A0462456800EE5F
:10268000905A60EE800A00EE101A10EE905A00EE9A
:10269000903A4562066B00EEC10A00EE902A46634E
:1026A000C66A066330EE200A10EE101AC162826814
:1026B00000EE101A00EE902A20EE800A00EE905AEA
:1026C00010EE101A00EE104A816270EE200A00EE41
:1026D000101A50F81C1F70EE800A00EE101A30EE2F
:1026E000800A10EE102A40F8102900EE102A50F847
:1026F0000D199DE700EE901A00EE102AF1EE600A27
:10270000B4EEE00AF1EE10FA9CD3D0F81D0000EE12
:10271000100A70BD000000000020044902460A545F
:10272000401CC0B20928FAD370470000C80200203C
:102730002DE9F84380460120ADF80000214F00212B
:102740007970ADF80000204C45024FF6FF7630E07E
:10275000BDF8000010EA080F01D0012200E00022BD
:1027600020212046FEF787F8012229462046FEF761
:1027700082F80520FDF744FF002229462046FEF797
:102780007AF80520FDF73CFF012229462046FEF796
:1027900072F810212046FEF769F820B17878BDF86C
:1027A000001008437870BDF8000006EA4000ADF85C
:1027B0000000BDF80000FF28CAD9BDE8F84310208A
:1027C000FDF71EBFC80200200004004870B5FFF7E7
:1027D000A3FF00F07FF80B480B4BB0F803100A483A
:1027E0001B1D41800020012413F8105000F101004E
:1027F0006D1E04FA05F20A42C0B202D01028F3D3CB
:10280000002070BDC80200201000002010B5174C39
:10281000002280212046FEF72EF81020FDF7F0FE62
:102820000120FFF785FF4320FFF782FF0020FFF71D
:102830007FFF0120FFF77CFF0020FFF779FF0020DA
:10284000FFF776FF0020FFF773FF0020FFF770FF10
:102850000020FFF76DFF012280212046FEF70BF8D4
:10286000BDE810401020FDF7CBBE0000000400487A
:1028700010B5174C002280212046FDF7FCFF1020E8
:10288000FDF7BEFE0120FFF753FF4320FFF750FF87
:102890000020FFF74DFF0020FFF74AFF5A20FFF707
:1028A00047FF5A20FFF744FF5A20FFF741FF5A2005
:1028B000FFF73EFF5A20FFF73BFF01228021204611
:1028C000FDF7D9FFBDE810401020FDF799BE0000CC
:1028D000000400482DE9FC4100208DF8000001248F
:1028E000ADF804402C4E024680213046FDF7C3FF70
:1028F0002A4D2878FFF71CFF6878FFF719FF0220A0
:102900008DF80000A04634460502254F4FF6FF76AD
:1029100036E0404626E0012229462046FDF7ABFF7F
:102920000520FDF76DFE002229462046FDF7A3FF96
:102930000520FDF765FE012229462046FDF79BFF95
:1029400010212046FDF792FF40B19DF80000BDF830
:102950000410385C08439DF800107854BDF804005A
:1029600006EA4000ADF80400BDF80400FF28D2D903
:102970001020FDF745FE9DF80000401C8DF800007A
:102980009DF800000928C4D302B02046BDE8F041FC
:1029900001228021FDF76FBF0004004810000020D5
:1029A000C802002010B5074800F10C04C17921606D
:1029B000017A61604179A1608079E060FFF706FFEC
:1029C000206110BDC802002010B500F00DF800F025
:1029D0000BF800F009F8FFF719FF00F02BF8BDE83D
:1029E0001040FFF745BF000010B5114C00228021B8
:1029F0002046FDF740FF1020FDF702FE0120FFF703
:102A000097FE4220FFF794FE0020FFF791FE002082
:102A1000FFF78EFE0020FFF78BFE0122802120466B
:102A2000FDF729FFBDE810401020FDF7E9BD0000CB
:102A30000004004810B5154C002280212046FDF707
:102A40001AFF0120FFF774FE4420FFF771FE0020FB
:102A5000FFF76EFE0120FFF76BFE0320FFF768FE15
:102A60000020FFF765FE0020FFF762FE0020FFF761
:102A70005FFE0020FFF75CFE012280212046FDF76B
:102A8000FAFEBDE810401020FDF7BABD0004004872
:102A900070477047FDF7FABE10B594B0382168460C
:102AA000FDF7F0FB14210EA8FDF7ECFB4FF40070CE
:102AB000FDF77EFF01200090000401900220032416
:102AC000CDE907044B21CDE909010B900C900D9045
:102AD0006846FEF75FFA08B172B6FEE70F20CDE94F
:102AE0000E04002010901190129004210EA8FEF701
:102AF00009F9002801D072B6FEE714B010BD00003D
:102B00000248016841F470010160704788ED00E0FF
:102B10000148FEF763BE00003C0100200148FEF7BB
:102B20005DBE0000880100202DE9F0430268264BBD
:102B3000264D274E274C4FF08049984207D04845F4
:102B400005D0A84203D0B04201D0A04203D122F068
:102B500070074A683A43204FDFF880C0DFF8808072
:102B600098420DD048450BD0A84209D0B04207D0BA
:102B7000A04205D0B84203D0604501D0404503D102
:102B800022F44075CA682A434D6922F080022A4324
:102B900002608A68C2620A688262984207D0A042D4
:102BA00005D0B84203D0604501D0404501D1096944
:102BB0000163012141610169C90703D0016921F065
:102BC00001010161BDE8F083002C014000040040D8
:102BD0000008004000340140004001400044014032
:102BE0000048014010B501F01F030121046A99401B
:102BF0008C430462016A9A401143016210BD0000D7
:102C00002DE9F043056A026A22F00102026243687C
:102C100082691C4C25F0020522400C6822F0030258
:102C200014438A68194E2A43174D194FDFF864C0C0
:102C3000DFF86490A84207D0B04205D0B84203D074
:102C4000604501D0484506D122F00808CA6842EA2A
:102C5000080222F00402A84207D0B04205D0B842D0
:102C600003D0604501D0484505D14D6923F4407338
:102C70001D438B692B434360846149684163026251
:102C8000BDE8F0838FFFFEFF002C014000340140BF
:102C9000004001400044014000480140F0B5056A91
:102CA000026A22F01002026242688369194C1B4ECC
:102CB00023400C6823F4407343EA042425F02003E6
:102CC0008D6843EA0513144DA84201D0B04206D1E5
:102CD000CF6823F0800343EA071323F04003A842A0
:102CE0000AD0B04208D00E4DA84205D00D4DA842E2
:102CF00002D00D4DA84207D14D6922F4406242EA4C
:102D000085028D6942EA8502426084614968816377
:102D10000362F0BDFF8FFFFE002C01400034014034
:102D2000004001400044014000480140F0B5056A00
:102D3000026A22F4807202624368C269194C1B4E17
:102D400022400C6822F00302144325F400728D68BF
:102D500042EA0522144DA84201D0B04206D1CF6804
:102D600022F4006242EA072222F48062A8420AD0DA
:102D7000B04208D00E4DA84205D00E4DA84202D058
:102D80000D4DA84207D14D6923F4405343EA051382
:102D90008D6943EA05134360C4614968C1630262F7
:102DA000F0BD00008FFFFEFF002C01400034014009
:102DB000004001400044014000480140F0B5056A70
:102DC000026A22F4805202624268C369194C1B4EA7
:102DD00023400C6823F4407343EA042425F4005391
:102DE0008D6843EA0533144DA84201D0B04206D1A4
:102DF000CF6823F4004343EA073323F48043A84217
:102E00000AD0B04208D00E4DA84205D00D4DA842C0
:102E100002D00D4DA84207D14D6922F4404242EA4A
:102E200085128D6942EA85124260C4614968016475
:102E30000362F0BDFF8FFFFE002C01400034014013
:102E400000400140004401400048014030B5056A9F
:102E5000026A22F4803202624268036D114C234000
:102E60000C681C4325F400330D8943EA05430E4DDD
:102E7000A8420BD00D4DA84208D00D4DA84205D058
:102E80000C4DA84202D00C4DA84204D14D6922F449
:102E9000803242EA05224260046549688164036227
:102EA00030BD00008FFFFEFF002C014000340140C8
:102EB00000400140004401400048014030B5046A30
:102EC000026A22F4801202624268036D114D24F4FA
:102ED00000142B400D6843EA05230D8944EA05548C
:102EE0000D4DA8420BD00D4DA84208D00C4DA84264
:102EF00005D00C4DA84202D00B4DA84204D14D691B
:102F000022F4802242EA8522426003654968C16456
:102F1000046230BDFF8FFFFE002C014000340140F1
:102F200000400140004401400048014030B5416E7E
:102F3000B9B1026891689268C1F342610B4B520FBC
:102F40009C5CE50003F10804A25CB5FBF2F2A0F87A
:102F50006A205A5C615CD200B2FBF1F1A0F8681003
:102F600030BD0121A0F86A10F8E700002237000800
:102F700090F82810090706D501684A68836B22F487
:102F800000421A434A6090F82810C90706D0016829
:102F90004A68C36A22F400321A434A6090F8281043
:102FA000890706D501684A68036B22F480321A4308
:102FB0004A6090F82810490706D501684A68436BB3
:102FC00022F480221A434A6090F82810C90606D5D8
:102FD00001688A68C36B22F480521A438A6090F8B1
:102FE0002810890606D501688A68036C22F400520D
:102FF0001A438A6090F82810490611D501684A687A
:10300000436C22F480121A434A60416CB1F5801F70
:1030100006D101684A68836C22F4C0021A434A60F0
:1030200090F82810090606D501684A68C06C22F499
:10303000002202434A6070472DE9F8430026044607
:10304000C0F89060FDF71CFC8046206800684FF0D7
:10305000200500076FF07E4713D543460022290460
:103060002046009700F0ACF958B1216851E8000FF4
:1030700020F0800041E80002002AF6D1C4F8885010
:1030800021E020680068400722D5434600224FF423
:1030900080012046009700F093F9C8B1216851E8FB
:1030A000000F20F4907041E80002002AF6D1206859
:1030B000083050E8001F21F0010140E80012002A0A
:1030C000F5D1C4F88C5084F884600320BDE8F883FF
:1030D000C4F88850C4F88C5044F86C6F666026764B
:1030E0000020F3E710B5806A0021A0F85E10A0F878
:1030F0005610FEF759FE10BD10B5026852E8001FC9
:1031000021F4907142E80013002BF6D10E4B0268B7
:10311000083252E8001F194042E80014002CF6D192
:10312000C16E012908D1016851E8002F22F0100278
:1031300041E80023002BF6D12021C0F88C1000219B
:10314000C166416710BD0000FEFFFFEF2DE9F041B1
:103150000446016880682269E369104362690025BA
:103160001A431043DFF82CC20A688B4B1A40024303
:103170000A6020684168E26821F4405111434160CF
:103180002168A069614501D0226A10438A68834B97
:103190001A4002438A602068C16A626A21F00F0106
:1031A0001143C1627E4923687E488B420DD1D0F81D
:1031B000880010F0030006D0012855D0022842D024
:1031C00003283FD152E001203DE077498B420BD1EB
:1031D000D0F8880010F00C0035D0042833D008282F
:1031E00040D00C282ED141E070498B420BD1D0F851
:1031F000880010F0300026D0102835D0202831D09B
:1032000030281FD132E06A498B420BD1D0F88800B8
:1032100010F0C00017D0402826D0802822D0C02827
:1032200010D123E063450DD1D0F8880010F4406040
:1032300009D0B0F5806F17D0B0F5006F12D0B0F59F
:10324000406F13D010205B495B4F00264FF40042C3
:1032500063453BD160B1022813D004280BD0082865
:1032600072D10DE00220EEE70420ECE70820EAE747
:10327000FDF736FE01E0FDF757FE010001D17CE0CD
:103280001146606A37F810206768B1FBF2F007EB6F
:103290004703834270D8B0EB073F6DD80023084640
:1032A0001946FCF7B7FF090241EA106102027808EB
:1032B000101871413A460023FCF7ACFF3F4AA0F5D5
:1032C0004071914258D82168C86056E0E3694FF6D2
:1032D000EF7893422CD109284ED2DFE800F00508A0
:1032E000114D0D4D4D4D1000FDF7FAFD01E0FDF7BC
:1032F00009FE010004D140E0FDF716FEF9E7114692
:10330000606A37F81000B1FBF0F04100606801EB33
:103310005001B1FBF0F0A0F1100141452CD84FF65F
:10332000F0710140C0F3420001432068C16024E015
:10333000092821D2DFE800F0050912200E20202004
:103340001100FDF7CDFD02E016E0FDF7DBFD010009
:1033500004D112E0FDF7E8FDF9E71146606A37F89D
:103360001000B1FBF0F1606801EB5001B1FBF0F02F
:10337000A0F1100141450AD901250120A4F86A00F5
:1033800024F8680F2846E6602661BDE8F08180B227
:1033900099E7000000800040F369FFCFFFF4FF11C0
:1033A0000038014000100240004400400048004046
:1033B000004C00400024F4000A370008FFFC0F0016
:1033C0002DE9F047994617460D4604464FF0000890
:1033D000089E33E0701C31D0FDF752FAA0EB0900D3
:1033E000B04218D8BEB120680168490726D5802DA3
:1033F00024D0402D22D0C169C94309070DD4082526
:1034000005622046FFF778FEC4F8905084F8848067
:103410000120BDE8F0870320FBE7C069C043000539
:103420000CD421684FF4006008622046FFF764FE68
:103430002020C4F8900084F88480ECE72068C069FC
:1034400035EA000004D00020B842C3D00020E0E7F5
:103450000120F9E70148FEF7A9BC0000D4010020D3
:10346000FEE700000FB4054B10B503A9044A02980B
:1034700000F028F810BC5DF814FB000019360008B5
:10348000340000200907090E002804DB00F1E020C9
:1034900080F80014704700F00F0000F1E02080F881
:1034A000141D704702E008C8121F08C1002AFAD193
:1034B00070477047002001E001C1121F002AFBD1B4
:1034C000704700002DE9FF4F89B09B460446002558
:1034D00006E025280BD05A460B999047641C6D1CBA
:1034E00020780028F5D10DB02846BDE8F08F0027E0
:1034F000B8460122474900E0074314F8013F203B4A
:1035000002FA03F00842F7D120782E2819D114F8D6
:10351000010F47F004072A280ED06FF02F02207801
:10352000A0F1300109290CD808EB880102EB410118
:1035300000EB0108641CF2E70A98641C50F8048B45
:103540000A9020780028CED0642808D0692806D0B8
:1035500075281ED05A460B9990476D1C58E00A9961
:103560004FF00A0901C90A91002802DA40422D21D0
:1035700002E0390504D52B218DF82010012103E04C
:10358000F90704D02021F7E78A4608AE0DE00021B4
:10359000FAE70A994FF00A0901C90A91F7E7494683
:1035A000FCF77BFE303106F8011D0028F7D1ADEBAA
:1035B000060000F12009780701D44FF00108C84542
:1035C00002DDA8EB090000E000208046002706E0AD
:1035D00008A85A46C05D0B9990476D1C7F1C574543
:1035E000F6DB04E030205A460B9990476D1CB8F189
:1035F0000001A8F10108F5DC05E016F8010B5A46B8
:103600000B9990476D1CB9F10001A9F10109F4DC97
:10361000641C65E70928010013B54FF6FF7301220A
:1036200069460248FEF7DEFD00981CBDD40100206B
:10363000FDF734F9FFF730FAFEF74CFEFEF72CFEEB
:10364000FEF73CFFFEF764FEFEF7BAFEFEF7EEFE65
:10365000FEF710FF00F02CF81149124800F04AF86C
:10366000FFF7B2F9104C4FF47A7500BFFFF79AF9E3
:103670000EA02168FFF7F6FE0CA06168FFF7F2FECE
:103680000AA0A168FFF7EEFE08A0E168FFF7EAFED6
:1036900006A02169FFF7E6FE2846FCF7B1FFE5E743
:1036A00068020020D4010020D402002025640A0012
:1036B00010B500210B48FEF767FA3C210A48FEF7D7
:1036C00045F80A4C00224FF480412046FDF7D3F81C
:1036D0000122D1032046FDF7CEF8BDE81040044892
:1036E000FDF776BFA4000020F00000200004004891
:1036F0003C0100200068026842F020020260086875
:10370000016841F0010101607047010002000400FE
:10371000060008000A000C00100020004000800095
:10372000000101010103070100000804020408016F
:103730000101000000000000000001020304060770
:103740000809000000000102030400006C370008B3
:103750000000002038000000A4340008A43700084E
:1037600038000020B0060000B4340008100000004B
:1037700001000000000000000024F40001420000ED
:103780000100020003000400050006000700080015
:1037900009000A000B000C000D000E000F001000C5
:0437A0000000000025
:04000005080001D915
:00000001FF
