:020000040800F2
:10000000B8070020290200083F1C0008ED1A00086C
:100010003D1C00081F040008092000080000000023
:10002000000000000000000000000000431C000869
:10003000C104000800000000411C0008451C000825
:10004000430200084302000843020008430200087C
:10005000430200084302000843020008430200086C
:10006000430200084302000843020008430200085C
:100070003904000843020008430200084302000854
:10008000430200084302000843020008430200083C
:10009000210400082D040008430200084302000860
:1000A000430200084302000843020008430200081C
:1000B000430200084302000843020008430200080C
:1000C00043020008430200084302000843020008FC
:1000D000430200084302000843020008FD1F000815
:1000E00043020008430200084302000843020008DC
:1000F00043020008ED1C0008430200084302000808
:1001000043020008430200084302000843020008BB
:1001100043020008430200084302000843020008AB
:10012000430200084302000843020008430200089B
:10013000430200084302000843020008430200088B
:10014000430200084302000843020008430200087B
:10015000430200084302000843020008430200086B
:10016000430200084302000843020008430200085B
:100170004302000843020008430200080000000098
:10018000430200084302000800F002F800F03CF8C7
:100190000AA090E8000C82448344AAF10107DA45E2
:1001A00001D100F031F8AFF2090EBAE80F0013F0F8
:1001B000010F18BFFB1A43F001031847B81E0000D7
:1001C000D81E0000103A24BF78C878C1FAD8520768
:1001D00024BF30C830C144BF04680C6070470000C1
:1001E0000023002400250026103A28BF78C1FBD840
:1001F000520728BF30C148BF0B6070471FB501F0E0
:1002000023FF1FBD10B510BD00F0CFF81146FFF75A
:10021000F5FF01F00AFF00F0EDF803B4FFF7F2FF7D
:1002200003BC00F0F5F80000094880470948004782
:10023000FEE7FEE7FEE7FEE7FEE7FEE7FEE7FEE796
:10024000FEE7FEE704480549054A064B70470000F3
:10025000DD1C000889010008B8010020B807002053
:10026000B8030020B803002053EA020C00F06980B4
:100270002DE9F04B4FF00006002B1FBFB3FA83F5BA
:1002800003FA05F424FA05F65E4012BF1643B2FAEB
:1002900082F502FA05F4C5F120051EBF22FA05FC1D
:1002A00044EA0C04203556EA044C4FEA144418BFC3
:1002B000641C4FF000084FF00009904271EB030CF2
:1002C00039D3002919BFB1FA81F701FA07F6B0FA5C
:1002D00080F700FA07F6C7F120071EBF20FA07FCD7
:1002E00046EA0C062037B6FBF4FCA7EB0507103FE7
:1002F00007F01F0BCBF120060CFA0BFB2CFA06F6CD
:1003000044BFB3460026202FA4BF5E464FF0000B2B
:100310005BEA060C08BF4FF0010B19EB0B09ABFBB6
:10032000027C48EB0608C01B06FB02CC0BFB03CC8F
:1003300071EB0C01C1E70B46024641464846BDE859
:10034000F08B13B54FF000004FF00001AFF30080C9
:10035000BDE81C4070474FF0000200B513469446BC
:100360009646203922BFA0E80C50A0E80C50B1F10D
:100370002001BFF4F7AF090728BFA0E80C5048BF21
:100380000CC05DF804EB890028BF40F8042B08BFBF
:10039000704748BF20F8022B11F0804F18BF00F8BB
:1003A000012B7047704770477047754600F02CF876
:1003B000AE4605006946534620F00700854618B052
:1003C00020B5FFF73FFFBDE820404FF000064FF09B
:1003D00000074FF000084FF0000B21F00701AC467A
:1003E000ACE8C009ACE8C009ACE8C009ACE8C00999
:1003F0008D46704710B50446AFF300802046BDE837
:100400001040FFF70ABF0000004870475401002069
:1004100001491820ABBEFEE7260002007047FEE748
:10042000014800F051B8000014000020014800F01D
:100430004BB8000014000020014800F0B9BA0000D9
:10044000AC00002001681823CAB2103AB2FBF3F2E4
:10045000054B6FF30901032A9B5CC36500D9091D95
:1004600081650846704700005220000810B501461B
:1004700000208B698A6A4FF0C07453B1B3F5005FF6
:1004800015D072B1012A0CD0022A0AD0032A09D150
:1004900004E01AB1012A06D0022A03D1C96AC901AF
:1004A00000D5012010BDC96AA142FAD010BD002AB2
:1004B000F7D0012AF2D0022AF3D0032AF3D010BDDC
:1004C000704772B6FEE770472DE9F05F0546006899
:1004D00000244669D0F804908768D0F80CB0D0F8B2
:1004E00010A0D0F81880F10748D0F90714D00121E6
:1004F0008160B80703D5284600F0F8F90CE07807CA
:1005000002D54FF4006407E0380702D54FF4805459
:1005100002E0284600F0E9F9F80516D529684FF4FD
:1005200080708860B80503D5284600F0E1F90CE03A
:10053000780502D544F4005407E0380502D544F4A8
:10054000804402E0284600F0D2F9F80316D5296865
:100550004FF480308860B80303D5284600F0CAF90C
:100560000CE0780302D544F4004407E0380302D5D8
:1005700044F4803402E0284600F0BBF9300707D588
:100580005FEACB6004D52968102044F40074C86089
:1005900070074FF0080707D55FEA0B7004D528688D
:1005A000C760284600F09CF9B00706D52868C068E7
:1005B000800702D0284600F094F9700607D55FEA5C
:1005C000CA6004D52968102044F480640861B0062C
:1005D00007D55FEA0A7004D528680761284600F04D
:1005E00081F9F00606D528680069800702D0284600
:1005F00000F079F9B00308D55FEAC96005D529682C
:1006000010204860284600F06FF9F00307D55FEA34
:10061000097004D528684760284600F06CF930045A
:1006200046D55FEA497040D5F00504D55FEAC87049
:1006300001D044F00104B00504D55FEA887001D50B
:1006400044F00204700504D55FEA487001D544F017
:100650000404300529D518F0700F26D008F070007A
:10066000402815D006DC102809D020280AD03028D0
:1006700016D10AE050280ED0602811D10EE044F0C7
:1006800008040DE044F010040AE044F0200407E000
:1006900044F0400404E044F0800401E044F4807439
:1006A0002868816921F0700181612968042048600F
:1006B000002C05D0686A204368622846FFF703FFD4
:1006C000BDE8F09F70B5040003D094F8200010B18D
:1006D00004E0012070BD204600F082F82068016827
:1006E00041F00101016000F095FB0546052604E09C
:1006F00000F090FB401B0A2811D820684068C00712
:10070000F6D02068016821F00201016000F082FB50
:1007100005460BE000F07EFB401B0A2806D9606A04
:1007200040F40030606284F82060D2E720684068BE
:100730008007EFD4207E0128206801683DD021F099
:1007400080010160607E01282068016838D021F0B6
:1007500040010160A07E01282068016833D021F0AB
:1007600020010160E07E0128206801682ED041F060
:1007700010010160207F01282068016829D021F044
:1007800008010160607F01282068016824D021F001
:1007900004010160D4E902010843D4E904121143C1
:1007A00008436168491E08432168C86100206062EF
:1007B000012084F82000002070BD41F08001C0E7D6
:1007C00041F04001C5E741F02001CAE721F01001E6
:1007D000CFE741F00801D4E741F00401D9E7000078
:1007E000F0B587B0044614216846FFF7B4FD374BD7
:1007F0003748DFF8D4E01968D4F800C0344A03253C
:100800000226092710300024491CF4452DD1196017
:10081000012907D1016841F000710160006800F012
:1008200000700590106840F0080010601068CDE975
:10083000005600F00800CDE9047069462548CDE96E
:10084000024500F0EFF900221146142000F07CFB75
:10085000142000F06BFB00221146152000F074FB01
:10086000152000F063FB07B0F0BDDFF86CE0F44545
:10087000F9D1D0F800C04CF0806CC0F800C0D0F8BE
:1008800000C001290CF0806CCDF814C0196007D1AC
:10089000016841F000710160006800F0007005908F
:1008A000106840F002001060106802AB00F0020017
:1008B00005906020CDE9000683E8B000694607484E
:1008C00000F0B0F9CFE70000006400400000002015
:1008D00030380240000C0240006800400004024032
:1008E0007047704770477047704770477047704750
:1008F00070477047704770472DE9F0410446876D97
:1009000000F088FA064694F835000025022806D043
:100910008020606584F834500120BDE8F0812068B3
:10092000016821F0160101602068416921F0800111
:100930004161206C08B9A06C20B12068016821F0E9
:10094000080101602068016821F0010101600CE0EC
:1009500000F060FA801B052807D92020606503207D
:1009600084F8350084F83450D7E720680068C00761
:10097000EED194F85C103F208840B860012084F8E4
:10098000350084F834500020C7E790F8351002296C
:1009900003D08021416501207047052180F8351082
:1009A0000068016821F0010101600020704700002B
:1009B0002DE9F84304464FF00009CDF80090634854
:1009C0004FF41651A56D0068B0FBF1F72E6894F84E
:1009D0005C10082000FA01F131420FD021680A684A
:1009E00052070BD50A6822F004020A6094F85C10E2
:1009F0008840A860606D40F00100606594F85C106C
:100A00004FF0010808FA01F0304208D02168496926
:100A1000090604D5A860606D40F00200606594F896
:100A20005C1004208840304208D02168096889079A
:100A300004D5A860606D40F00400606594F85C1017
:100A400010208840304218D021680968090714D561
:100A5000A86020680168490304D50068000308D530
:100A6000A16C07E00168C90503D4016821F0080101
:100A70000160216C09B12046884794F85C10202061
:100A80008840304231D021680968C9062DD5A86058
:100A900094F8350005282068016806D0490347D539
:100AA000006800031DD4616C1CE021F01601016098
:100AB0002068416921F080014161206C08B9A06C77
:100AC00020B12068016821F00801016094F85C10F1
:100AD0003F208840A86084F8358084F83490216DE8
:100AE0001FE0E16B09B120468847606D00282BD0DC
:100AF000606DC00714D0052084F8350020680168B7
:100B000021F0010101600098401C0090B84203D818
:100B100020680068C007F6D184F8358084F83490E6
:100B2000E16C002910D001B02046BDE8F043084731
:100B30000168C905D5D4016821F01001016084F86D
:100B4000358084F83490CCE7BDE8F88310000020AD
:100B50002DE9F041044600F05DF906465CB1022043
:100B600084F83500002584F834502068016821F0AD
:100B7000010101600DE00120BDE8F08100F04AF9BB
:100B8000801B052805D920206065032084F83500E6
:100B9000F2E720680068C007F0D122681168204899
:100BA0000140D4E901031843D4E903363343184321
:100BB00063691843A3691843E3691843236A184318
:100BC0000843616A042903D1D4E90B13194308438C
:100BD000106020684069666A20F0070130460E43C5
:100BE000012704280CD1A06A0643E06A40B12046E0
:100BF000FFF73CFC20B14020606584F83570BAE70F
:100C0000206846612046FFF71DFC94F85C203F21D8
:100C100091408160656584F835700020ACE7000084
:100C20003F8010F02DE9F84FDFF8BCA1002201252C
:100C300003264FF00F090AF1040BAAF1040E00BFBE
:100C40000B6805FA02F42340A34270D10F7907F034
:100C50000307012F01D0022F16D187684FEA4208FF
:100C600006FA08FC27EA0C07D1F80CC00CFA08FCBD
:100C70004CEA070CC0F808C04768A7430C79C4F3D6
:100C8000001494403C4344600C79E443A4070AD028
:100C9000C4684FEA420C06FA0CF7BC438F6807FAA7
:100CA0000CF72743C7600C7904F00304022C12D11F
:100CB000D40800EB840CDCF820405707FF0E09FA3B
:100CC00007F824EA0804D1F8108008FA07F848EA7F
:100CD0000408CCF8208004684FEA420C06FA0CF7AE
:100CE000BC430F7907F0030707FA0CF727430760A7
:100CF0004C6814F4403F70D03C4C276847F4804760
:100D00002760246822F0030704F480440094384CE0
:100D100007EB040CDCF8084897074FEA177809FA44
:100D200008F7BC43334FB84202D1002724E054E017
:100D3000314FB84201D101271EE0304FB84201D1F6
:100D4000022719E02E4FB84201D1032714E02D4F9E
:100D5000B84201D104270FE02B4FB84201D105273B
:100D60000AE02A4FB84201D1062705E0284FB842D1
:100D700001D1072700E0082707FA08F72743CCF836
:100D80000878DAF800405746D1F804C09C435FEA7F
:100D9000CC2C00D51C433C60DBF800405F46D1F80A
:100DA00004C09C435FEA8C2C00D51C433C60DEF8F9
:100DB00000407746D1F804C09C435FEA8C3C00D5E4
:100DC0001C433C60084F083F3C68D1F804C09C437A
:100DD0005FEACC3C00D51C433C60521C102AFFF457
:100DE0002FAFBDE8F88F0000083C014044380240B6
:100DF00000300140000002400004024000080240B0
:100E0000000C024000100240001402400018024092
:100E1000001C024001488068704700000400002068
:100E20000248816802781144816070470400002004
:100E30000B4810B5016841F400710160016841F48C
:100E400080610160016841F480710160032000F05D
:100E50009BF80F2000F006F800F050F8002010BDBD
:100E6000003C024030B505461F4887B000240168A9
:100E700041F480710160006806A900F48070009060
:100E800001A800F02DF90498A8B100F049F940003C
:100E90001649174AB0FBF1F11648491E026040F2AC
:100EA000E732C0E90324C0E90114846100F042FB89
:100EB000040003D015E000F033F9E9E70D4800F035
:100EC00067FB04000DD12D2000F030F8102D07D263
:100ED000002229462D2000F037F80748056000E081
:100EE000012407B0204630BD4038024040420F0088
:100EF000002000400C010020080000200A4808B52E
:100F0000016841F480410160006800F48040009075
:100F10000548001F016841F080510160006800F041
:100F20008050009008BD000044380240002809DBD2
:100F300000F01F02012191404009800000F1E020F3
:100F4000C0F8001170470000F0B40E4B1B680C464F
:100F5000C3F30223C3F10705042D00D90425191D8D
:100F6000072901D2002300E0DB1E012606FA05F165
:100F7000491E214099409E40761E16403143F0BCE8
:100F800001F043B80CED00E0064900F007020868E4
:100F90004FF6FF03184040EA0220034A104308605E
:100FA000704700000CED00E00000FA052DE9F04765
:100FB0000E46050065D0DFF81481D8F80000F7B2BE
:100FC00000F00700B04207D288F80070D8F800009F
:100FD00000F00700B04254D128683D4C810712D57B
:100FE000400703D5206840F4E050206028780007CF
:100FF00003D5206840F4604020602068A96820F094
:10100000F000084320602878C0072DD03049686878
:101010000839012812D0022813D0032811D00968FA
:10102000890700292DDA216821F00301014321609D
:10103000FFF7F0FE814641F2883A0EE00968890325
:10104000EFE709688901ECE7FFF7E4FEA0EB09018F
:10105000514502D90320BDE8F0872068696800F097
:101060000C00B0EB810FEFD1D8F80010404601F032
:101070000701B14207D90770006800F00700B042CD
:1010800001D00120E7E72878400705D52068E96806
:1010900020F4E050084320602878000706D5206837
:1010A000296920F4604040EAC100206000F058F84F
:1010B0002168084AC1F30311515CC8400649086021
:1010C00006480068FFF7CEFE0020C4E7003C02405F
:1010D000083802405A2000081000002008000020B4
:1010E0000F2202600C4A136803F003034360136885
:1010F00003F0F0038360136803F4E053C3601268E5
:101100004FF4E05303EAD20202610448006800F0A1
:10111000070008607047000008380240003C0240A9
:101120000448054900680968044AC1F38221515CFA
:10113000C840704710000020083802406A200008AC
:101140000448054900680968044AC1F34231515C0A
:10115000C840704710000020083802406A2000088C
:10116000154810B5006810F00C02144813D014494B
:10117000042A0FD0082A0ED10F4C241F226823689E
:1011800002F03F025B0207D52068C0F38810A0FB85
:10119000010106E0084610BD2168C1F38811A1FBDA
:1011A00000010023FFF760F82168C1F30141491CE9
:1011B0004900B0FBF1F010BD083802400024F400F3
:1011C000001BB7002DE9F84F04006ED02078DFF83F
:1011D0004C93C007A9F104054AD009F10400016845
:1011E000C1F38101012908D00068C0F38100022801
:1011F0000AD1D9F80000400206D52868800337D507
:1012000060680028E1D033E06068B0F5803F10D01E
:10121000B0F5A02F286810D020F48030286028680E
:1012200020F4802028606068A8B1FFF7F3FD06462F
:101230000DE0286840F48030F4E740F48020286016
:10124000F7E700BFFFF7E6FD801B642873D8286826
:101250008003F7D50CE0FFF7DDFD064605E000BF93
:10126000FFF7D8FD801B6428F0D828688003F7D4E6
:101270002078DFF8AC8280074FF0000A3ED5A748FF
:10128000001D016811F00C0F08D00068C0F3810048
:1012900002280BD1D9F80000400207D42868800743
:1012A00016D5E068012800D112E033E1E068B8B15A
:1012B0000120C8F80000FFF7ADFD064605E000BFBD
:1012C000FFF7A8FD801B0228C0D828688007F7D543
:1012D0002868216920F0F80040EAC10028600DE08C
:1012E000C8F800A0FFF796FD064604E0FFF792FD60
:1012F000801B02281FD828688007F7D420780007B1
:1013000022D5864F87486169703771B1012101602C
:10131000FFF780FD064604E0FFF77CFD801B0228F6
:1013200009D838688007F7D50EE0C0F800A0FFF7AD
:1013300071FD064605E082E0FFF76CFD801B022888
:101340007DD838688007F7D42078400768D5DFF863
:10135000CCB100270BF13C0BDBF80000C0000BD434
:10136000DBF8001041F08051CBF80010DBF80000F2
:10137000012700F0805000906B4E3068C00510D4FB
:10138000306840F480703060FFF744FD009005E065
:10139000FFF740FD0099401A022850D83068C00578
:1013A000F6D55E4EA0686C3601280FD0052830684F
:1013B00010D020F001003060306820F00400306070
:1013C000A068B8B1FFF726FD00900FE0306840F04C
:1013D0000100F4E740F004003060F7E7FFF71AFD82
:1013E0000099411A41F28830814266D830688007FE
:1013F000F4D50EE0FFF70EFD009007E0FFF70AFDC1
:101400000099411A41F28830814256D830688007ED
:10141000F4D42FB1DBF8001021F08051CBF800108C
:10142000A069C8B33D49091D0968C1F381010229BA
:101430004AD00228504607D0C8F8600000E03CE0DF
:10144000FFF7E8FC04463BE04746C8F86000FFF7BA
:10145000E1FC064605E000BFFFF7DCFC801B02282C
:101460002BD828688001F7D4D4E907010843A16A82
:101470002E4A490802EB0141626A41EA821108439F
:1014800094F82C1040EA0161C9F800100120386678
:10149000FFF7C0FC044606E03EE000BFFFF7BAFCE1
:1014A000001B022809D828688001F7D534E000BF66
:1014B000FFF7B0FC001B022802D90320BDE8F88F1B
:1014C00028688001F4D427E00128F7D0D9F800007B
:1014D000E26900F4800191421CD1226A00F03F01D0
:1014E000914217D147F6C071626A0140B1EB821F89
:1014F00010D1A26A4FF0FF3300F4403103EB5202E7
:10150000B1EB024F06D194F82C1000F07060B0EBF4
:10151000016F01D00120D1E70020CFE7043802405D
:1015200000004742800E4742007000400000FFFF6D
:101530007047704710B5040003D094F83D0010B117
:1015400007E0012010BD002084F83C00204600F098
:101550001EF8022084F83D00211D206800F0CCFB1D
:10156000012084F8460084F83E0084F83F0084F8A7
:10157000400084F8410084F8420084F8430084F875
:10158000440084F8450084F83D00002010BD7047F9
:1015900090F83D10012901D001207047022180F808
:1015A0003D100168CA6842F00102CA600068114932
:1015B000884214D0B0F1804F11D00F4988420ED02C
:1015C0000E4988420BD00E49884208D00D49884206
:1015D00005D00D49884202D00C49884204D1816867
:1015E00001F00701062903D0016841F00101016003
:1015F0000020704700000140000400400008004047
:10160000000C004000040140004001400018004070
:1016100070472DE9F04104460068C66805694FF03F
:101620000007A90713D5B10711D5F91E01610120E3
:101630002077206880698007204602D0FFF7E8FF06
:1016400004E000F07EF8204600F07CF82777680779
:1016500016D5700714D521686FF0040008610220C8
:1016600020772068806910F4407F204602D0FFF781
:10167000CFFF04E000F065F8204600F063F827771C
:10168000280715D5300713D521686FF008000861C9
:10169000042020772068C0698007204602D0FFF729
:1016A000B7FF04E000F04DF8204600F04BF8277734
:1016B000E80616D5F00614D521686FF01000086111
:1016C000082020772068C06910F4407F204602D0AF
:1016D000FFF79EFF04E000F034F8204600F032F8F7
:1016E0002777E80708D0F00706D021686FF00100DF
:1016F0000861204600F028F8280608D5300606D5EF
:1017000021686FF0800008612046FFF711FF68062E
:1017100008D5700606D521686FF0400008612046A4
:1017200000F01CF8A8060AD5B00608D521686FF0AD
:10173000200008612046BDE8F041FFF7FABEBDE891
:10174000F08170477047000000680349884201D16A
:10175000FFF766BB704700000020004070477047ED
:1017600070470000F8B5016804460868CA684B690C
:1017700010F00F0F4FF0000559D003F0010602F4EE
:101780009077374365D0C10705D0D10503D5616C8B
:1017900041F001016164410705D5D90703D0616CAF
:1017A00041F002016164810705D5D90703D0616C5E
:1017B00041F004016164010707D502F020013143C3
:1017C00003D0616C41F008016164616C00293AD07A
:1017D000800604D5900602D5204600F028FB20683C
:1017E0004069616CC0F38010090700D460B32046E3
:1017F00000F0F6FA20684069400621D520681430D0
:1018000050E8001F21F0400140E80012002AF5D105
:10181000E06BA8B16E490165E06BFFF7B6F80028F0
:1018200011D0E06B016D01B0BDE8F04008478306C0
:101830000FD593060DD52046BDE8F84000F0F7BA65
:101840002046FFF78DFFF8BD2046FFF789FF65644E
:10185000F8BD266B2023012E7DD1C6067BD5D6068A
:1018600079D508684868009048694FF0020640063C
:1018700041D5E16B086840680004000CE8D0A28DF7
:101880008242E5D9E085C869B0F5807F2DD0206817
:101890000C3050E8001F21F4807140E80012002A4B
:1018A000F5D12068143050E8001F21F0010140E814
:1018B0000012002AF5D12068143050E8001F21F0F2
:1018C000400140E80012002AF5D184F84230256337
:1018D00020680C3050E8001F21F0100140E8001291
:1018E000002AF5D1E06BFFF707F86663A08DE18D64
:1018F000401A81B22AE0A08DE18D401A81B2E08DBC
:101900000028A5D00029A3D022680C3252E8000F8D
:1019100020F4907042E80007002FF5D120681430C1
:1019200050E8002F22F0010240E80027002FF5D1F7
:1019300084F84230256320680C3050E8002F22F0F4
:10194000100240E80023002BF5D166632046FFF724
:1019500006FFF8BDFFE705062BD5150629D594F837
:1019600041002128F5D1A068B0F5805F01D1206940
:10197000B0B1206A411C2162216800784860E08C87
:10198000401E0004000CE084E3D12068C16821F00F
:101990008001C1602068C16841F04001C160D8E7A2
:1019A000206A0088C0F308004860206A801C20621A
:1019B000E5E74006CDD55006CBD5CA68204622F0D3
:1019C0004002CA6084F8413000F08FF8C1E700009F
:1019D000D11D000870B5040004D094F84100002522
:1019E00010B106E0012070BD84F84050204600F0A0
:1019F00023F8242084F841002068C16821F40051B4
:101A0000C160204600F074FA2068016921F4904119
:101A100001612068416921F02A0141612068C168A3
:101A200041F40051C1606564202084F8410084F8CD
:101A300042006563002070BD70B586B00646142173
:101A40006846FEF788FC23493068884240D1224826
:101A50000025016841F480210160006800F48020C5
:101A600005901D481038016841F0040101600068CC
:101A7000694600F0040005904FF440600090022099
:101A8000CDE9010503200390072004901348FFF7D8
:101A9000C9F8144C124820604FF00060C4E90105F9
:101AA0004014C4E903506561A561E56125622046E3
:101AB0006562FFF74DF808B1FEF703FDF4630022FD
:101AC00011462720A663FFF73FFA2720FFF72EFADB
:101AD00006B070BD00480040403802400008024097
:101AE00028600240AC00002070477047FEE700000D
:101AF0000F4810B50D4901600321416000214FF4EA
:101B000000228160C0E903124FF440124261017665
:101B100041768176C17601774177FEF7D3FD0028C3
:101B200003D0BDE81040FEF7CCBC10BD00640040FF
:101B3000140000200F4810B50D49016003214160D9
:101B400000214FF400228160C0E903124FF44012DB
:101B50004261017641768176C17601774177FEF761
:101B6000B1FD002803D0BDE81040FEF7AABC10BDAF
:101B7000006800403C000020094808B5016841F4B5
:101B8000001101600068002200F40010009011466E
:101B90000C20FFF7D9F9BDE808400C20FFF7C6B9C3
:101BA00030380240154808B5016841F00201016073
:101BB000016801F002010091016841F0010101603A
:101BC000016801F001010091016841F00801016024
:101BD000016801F008010091016841F00401016011
:101BE000016801F004010091016841F08001016089
:101BF000006800F08000009008BD0000303802400E
:101C00000C4810B50A4901600B4941600021816010
:101C10000C22C160C0E904128161C161FFF7DAFEE4
:101C2000002803D0BDE81040FEF74BBC10BD0000FB
:101C30000048004064000020A0860100FEE7FEE7A7
:101C4000704770477047000030B593B03021684648
:101C5000FEF781FB14210CA8FEF77DFB1D48002533
:101C6000016841F080510160006800F080501190DF
:101C70001948016841F4804101600068022400F4C1
:101C80008040119001200090000401908001CDE976
:101C9000064006200890A820CDE9090404200B90F6
:101CA0006846FFF78FFA08B172B6FEE70CA90F205D
:101CB00081E831004FF4A0500F904FF48050109005
:101CC00005210CA8FFF772F9002801D072B6FEE7D3
:101CD00013B030BD40380240007000400248016837
:101CE00041F470010160704788ED00E00148FFF7A2
:101CF00090BC00000C010020F0B50268294C2A4D70
:101D00002A4E2B4F2B4B4FF0804CA04209D0604500
:101D100007D0A84205D0B04203D0B84201D09842C3
:101D200004D122F0700E4A6842EA0E02A0421BD093
:101D3000604519D0A84217D0B04215D0B84213D090
:101D4000984211D01C4DA8420ED01C4DA8420BD079
:101D50001B4DA84208D01B4DA84205D01A4DA842E1
:101D600002D01A4DA84203D122F44075CA682A4312
:101D70004D6922F080022A4302608A68C2620A68C2
:101D80008262A04201D0984201D109690163012118
:101D900041610169C90703D0016921F001010161B5
:101DA000F0BD0000000001400004004000080040B9
:101DB000000C00400004014000400140004401408C
:101DC0000048014000180040001C00400020004076
:101DD00010B5806B0021C185C184FFF7C1FC10BD27
:101DE00001680C3151E8002F22F4907241E8002381
:101DF000002BF5D10168143151E8002F22F00102C7
:101E000041E80023002BF5D1016B012909D10168BC
:101E10000C3151E8002F22F0100241E80023002B82
:101E2000F5D1202180F8421000210163704708B5E8
:101E300090F84210222901D0022008BD82684FF498
:101E400080539A4201D1016921B1816A9A421BD023
:101E50004AB10AE00268816A5268C2F308020A8045
:101E6000816A891C08E0026972B10268526802F056
:101E70007F020A70816A491C8162C18D491E090472
:101E8000090CC18503D01BE002685268F1E70168C4
:101E9000CA6822F02002CA600168CA6822F480720F
:101EA000CA6001684A6922F001024A61202180F873
:101EB000421000214163026B012A03D0FFF714FE98
:101EC000002008BD016301680C3151E8002F22F0A9
:101ED000100241E80023002BF5D101680A68D20600
:101EE00002D50A6849680091818DFFF738FCE7E761
:101EF00070B5044600680169E26821F4405111435D
:101F000001612169A068E2690843616911430843DE
:101F10002168CA6849F20C639A430243CA60206888
:101F20004169A26921F4407111434161314920683E
:101F3000884202D03049884202D1FFF701F901E01E
:101F4000FFF7EEF8E2690023192164253226B2F585
:101F5000004F626828D0A0FB0101930F9200FEF7AA
:101F600083F90146B0FBF5F06FF01802504301EB26
:101F7000800006EB0010B0FBF5F000F0F002B1FBC2
:101F8000F5F002EB0012B1FBF5F06FF018035843C7
:101F900001EB800006EB0010B0FBF5F000F00F0045
:101FA00021681044886070BDA0FB010192185B415C
:101FB000FEF75AF90146B0FBF5F00201B1FBF5F06E
:101FC0006FF01803584301EB800006EBC000B0FB34
:101FD000F5F000F0F80002EB4002B1FBF5F05843D9
:101FE00001EB800006EBC000B0FBF5F000F007004D
:101FF000D6E7000000100140001401400148FFF73F
:10200000B1BB000064000020FEE70907090E0028AC
:1020100004DB00F1E02080F80014704700F00F00AE
:1020200000F1E02080F8141D7047FEF701FFFFF774
:102030000BFEFFF7B7FDFFF79FFDFFF759FDFFF719
:1020400079FDFFF7DDFDFEE74FF04070E1EE100A8D
:102050007047000610160006101600000000000071
:102060000000010203040607080900000000010245
:102070000304000094200008000000201400000069
:10208000C4010008A820000814000020A4070000D4
:10209000E001000800000000010000001000000046
:0820A000000000000024F40020
:040000050800018965
:00000001FF
