:020000040800F2
:10000000600A002029020008B11A00082B16000817
:10001000AF1A00081F040008552100080000000066
:100020000000000000000000000000000F1E00089B
:1000300021040008000000000D1E0008111E000829
:10004000430200084302000843020008430200087C
:10005000430200084302000843020008430200086C
:10006000430200084302000843020008430200085C
:10007000430200084302000843020008430200084C
:10008000430200084302000843020008430200083C
:10009000430200084302000843020008430200082C
:1000A000430200084302000843020008430200081C
:1000B000430200084302000843020008430200080C
:1000C00043020008430200084302000843020008FC
:1000D00043020008430200084302000843020008EC
:1000E00043020008430200084302000843020008DC
:1000F00043020008D11E0008430200084302000822
:1001000043020008430200084302000843020008BB
:100110004302000843020008B91E0008C51E00087B
:10012000430200084302000843020008430200089B
:10013000430200084302000843020008430200088B
:10014000430200084302000843020008430200087B
:10015000430200084302000843020008430200086B
:10016000430200084302000843020008430200085B
:100170004302000843020008430200080000000098
:10018000430200084302000800F002F800F03CF8C7
:100190000AA090E8000C82448344AAF10107DA45E2
:1001A00001D100F031F8AFF2090EBAE80F0013F0F8
:1001B000010F18BFFB1A43F0010318479C270000EA
:1001C000BC270000103A24BF78C878C1FAD852077B
:1001D00024BF30C830C144BF04680C6070470000C1
:1001E0000023002400250026103A28BF78C1FBD840
:1001F000520728BF30C148BF0B6070471FB502F0DF
:10020000A1F81FBD10B510BD00F0CFF81146FFF7E3
:10021000F5FF01F0B1FF00F0EDF803B4FFF7F2FFD6
:1002200003BC00F0F5F80000094880470948004782
:10023000FEE7FEE7FEE7FEE7FEE7FEE7FEE7FEE796
:10024000FEE7FEE704480549054A064B70470000F3
:10025000A91E00088901000860040020600A00202F
:10026000600600206006002053EA020C00F069805E
:100270002DE9F04B4FF00006002B1FBFB3FA83F5BA
:1002800003FA05F424FA05F65E4012BF1643B2FAEB
:1002900082F502FA05F4C5F120051EBF22FA05FC1D
:1002A00044EA0C04203556EA044C4FEA144418BFC3
:1002B000641C4FF000084FF00009904271EB030CF2
:1002C00039D3002919BFB1FA81F701FA07F6B0FA5C
:1002D00080F700FA07F6C7F120071EBF20FA07FCD7
:1002E00046EA0C062037B6FBF4FCA7EB0507103FE7
:1002F00007F01F0BCBF120060CFA0BFB2CFA06F6CD
:1003000044BFB3460026202FA4BF5E464FF0000B2B
:100310005BEA060C08BF4FF0010B19EB0B09ABFBB6
:10032000027C48EB0608C01B06FB02CC0BFB03CC8F
:1003300071EB0C01C1E70B46024641464846BDE859
:10034000F08B13B54FF000004FF00001AFF30080C9
:10035000BDE81C4070474FF0000200B513469446BC
:100360009646203922BFA0E80C50A0E80C50B1F10D
:100370002001BFF4F7AF090728BFA0E80C5048BF21
:100380000CC05DF804EB890028BF40F8042B08BFBF
:10039000704748BF20F8022B11F0804F18BF00F8BB
:1003A000012B7047704770477047754600F02CF876
:1003B000AE4605006946534620F00700854618B052
:1003C00020B5FFF73FFFBDE820404FF000064FF09B
:1003D00000074FF000084FF0000B21F00701AC467A
:1003E000ACE8C009ACE8C009ACE8C009ACE8C00999
:1003F0008D46704710B50446AFF300802046BDE837
:100400001040FFF70ABF00000048704700040020BA
:1004100001491820ABBEFEE7260002007047FEE748
:10042000704772B6FEE7000070B5044600F00CF9A4
:100430000546601C02D004480078044400F004F92A
:10044000401BA042FAD370BD000000202DE9F84FF8
:10045000DFF8BCA10022012503264FF00F090AF1A5
:10046000040BAAF1040E00BF0B6805FA02F4234046
:10047000A34270D10F7907F00307012F01D0022F9B
:1004800016D187684FEA420806FA08FC27EA0C07EB
:10049000D1F80CC00CFA08FC4CEA070CC0F808C0F4
:1004A0004768A7430C79C4F3001494403C4344606C
:1004B0000C79E443A4070AD0C4684FEA420C06FA58
:1004C0000CF7BC438F6807FA0CF72743C7600C7919
:1004D00004F00304022C12D1D40800EB840CDCF8E5
:1004E00020405707FF0E09FA07F824EA0804D1F85C
:1004F000108008FA07F848EA0408CCF8208004685D
:100500004FEA420C06FA0CF7BC430F7907F00307D9
:1005100007FA0CF7274307604C6814F4403F70D08B
:100520003C4C276847F480472760246822F0030783
:1005300004F480440094384C07EB040CDCF80848C1
:1005400097074FEA177809FA08F7BC43334FB842C8
:1005500002D1002724E054E0314FB84201D10127F5
:100560001EE0304FB84201D1022719E02E4FB842A9
:1005700001D1032714E02D4FB84201D104270FE029
:100580002B4FB84201D105270AE02A4FB84201D1CA
:10059000062705E0284FB84201D1072700E00827C9
:1005A00007FA08F72743CCF80878DAF800405746EE
:1005B000D1F804C09C435FEACC2C00D51C433C60BE
:1005C000DBF800405F46D1F804C09C435FEA8C2C06
:1005D00000D51C433C60DEF800407746D1F804C0EB
:1005E0009C435FEA8C3C00D51C433C60084F083FAD
:1005F0003C68D1F804C09C435FEACC3C00D51C4366
:100600003C60521C102AFFF42FAFBDE8F88F0000A9
:10061000083C0140443802400030014000000240E4
:100620000004024000080240000C0240001002409A
:100630000014024000180240001C02400AB181610F
:1006400070470904FBE7000001488068704700001C
:1006500000000020024881680278114481607047E0
:10066000000000200B4810B5016841F400710160E2
:10067000016841F480610160016841F480710160AA
:10068000032000F09BF80F2000F006F800F050F86F
:10069000002010BD003C024030B505461F4887B021
:1006A0000024016841F480710160006806A900F42B
:1006B0008070009001A800F02DF90498A8B100F016
:1006C00049F940001649174AB0FBF1F11648491E96
:1006D000026040F2E732C0E90324C0E901148461FA
:1006E00000F0A2FB040003D015E000F033F9E9E7C5
:1006F0000D4800F0F9FB04000DD12D2000F030F87A
:10070000102D07D2002229462D2000F037F8074887
:10071000056000E0012407B0204630BD40380240AB
:1007200040420F0000200040B803002004000020D9
:100730000A4808B5016841F480410160006800F48E
:10074000804000900548001F016841F08051016021
:10075000006800F08050009008BD0000443802405E
:10076000002809DB00F01F020121914040098000B0
:1007700000F1E020C0F8001170470000F0B40E4B0B
:100780001B680C46C3F30223C3F10705042D00D9EF
:100790000425191D072901D2002300E0DB1E0126D4
:1007A00006FA05F1491E214099409E40761E1640EA
:1007B0003143F0BC01F0CFBC0CED00E0064900F085
:1007C000070208684FF6FF03184040EA0220034A78
:1007D00010430860704700000CED00E00000FA05CF
:1007E0002DE9F0470E46050065D0DFF81481D8F8F2
:1007F0000000F7B200F00700B04207D288F800709E
:10080000D8F8000000F00700B04254D128683D4CF1
:10081000810712D5400703D5206840F4E0502060DE
:100820002878000703D5206840F4604020602068E5
:10083000A96820F0F000084320602878C0072DD078
:10084000304968680839012812D0022813D00328DB
:1008500011D00968890700292DDA216821F00301E8
:1008600001432160FFF7F0FE814641F2883A0EE035
:1008700009688903EFE709688901ECE7FFF7E4FEFF
:10088000A0EB0901514502D90320BDE8F08720689B
:10089000696800F00C00B0EB810FEFD1D8F80010C0
:1008A000404601F00701B14207D90770006800F027
:1008B0000700B04201D00120E7E72878400705D5BE
:1008C0002068E96820F4E050084320602878000799
:1008D00006D52068296920F4604040EAC100206004
:1008E00000F048F82168084AC1F30311515CC84080
:1008F0000649086006480068FFF7CEFE0020C4E7FE
:10090000003C0240083802404E2300080C00002042
:10091000040000200F2202600C4A136803F0030356
:100920004360136803F0F0038360136803F4E0533B
:10093000C36012684FF4E05303EAD2020261044834
:10094000006800F0070008607047000008380240A7
:10095000003C02400448054900680968044AC1F3A4
:100960008221515CC84070470C00002008380240CA
:100970005E230008154810B5006810F00C021448FA
:1009800013D04110042A0FD0082A0ED10F4C241F77
:100990002268236802F03F025B0207D52068C0F39B
:1009A0008810A0FB010106E0084610BD2168C1F3D4
:1009B0008811A1FB00010023FFF756FC2168C1F359
:1009C0000141491C4900B0FBF1F010BD083802405C
:1009D0000024F4002DE9F84F04006ED02078DFF8F1
:1009E0004C93C007A9F104054AD009F1040001683D
:1009F000C1F38101012908D00068C0F381000228F9
:100A00000AD1D9F80000400206D52868800337D5FE
:100A100060680028E1D033E06068B0F5803F10D016
:100A2000B0F5A02F286810D020F480302860286806
:100A300020F4802028606068A8B1FFF705FE064614
:100A40000DE0286840F48030F4E740F4802028600E
:100A5000F7E700BFFFF7F8FD801B642873D828680C
:100A60008003F7D50CE0FFF7EFFD064605E000BF79
:100A7000FFF7EAFD801B6428F0D828688003F7D4CC
:100A80002078DFF8AC8280074FF0000A3ED5A748F7
:100A9000001D016811F00C0F08D00068C0F3810040
:100AA00002280BD1D9F80000400207D4286880073B
:100AB00016D5E068012800D112E033E1E068B8B152
:100AC0000120C8F80000FFF7BFFD064605E000BFA3
:100AD000FFF7BAFD801B0228C0D828688007F7D529
:100AE0002868216920F0F80040EAC10028600DE084
:100AF000C8F800A0FFF7A8FD064604E0FFF7A4FD34
:100B0000801B02281FD828688007F7D420780007A8
:100B100022D5864F87486169703771B10121016024
:100B2000FFF792FD064604E0FFF78EFD801B0228CA
:100B300009D838688007F7D50EE0C0F800A0FFF7A5
:100B400083FD064605E082E0FFF77EFD801B02285C
:100B50007DD838688007F7D42078400768D5DFF85B
:100B6000CCB100270BF13C0BDBF80000C0000BD42C
:100B7000DBF8001041F08051CBF80010DBF80000EA
:100B8000012700F0805000906B4E3068C00510D4F3
:100B9000306840F480703060FFF756FD009005E04B
:100BA000FFF752FD0099401A022850D83068C0055E
:100BB000F6D55E4EA0686C3601280FD00528306847
:100BC00010D020F001003060306820F00400306068
:100BD000A068B8B1FFF738FD00900FE0306840F032
:100BE0000100F4E740F004003060F7E7FFF72CFD68
:100BF0000099411A41F28830814266D830688007F6
:100C0000F4D50EE0FFF720FD009007E0FFF71CFD94
:100C10000099411A41F28830814256D830688007E5
:100C2000F4D42FB1DBF8001021F08051CBF8001084
:100C3000A069C8B33D49091D0968C1F381010229B2
:100C40004AD00228504607D0C8F8600000E03CE0D7
:100C5000FFF7FAFC04463BE04746C8F86000FFF7A0
:100C6000F3FC064605E000BFFFF7EEFC801B022800
:100C70002BD828688001F7D4D4E907010843A16A7A
:100C80002E4A490802EB0141626A41EA8211084397
:100C900094F82C1040EA0161C9F800100120386670
:100CA000FFF7D2FC044606E03EE000BFFFF7CCFCB5
:100CB000001B022809D828688001F7D534E000BF5E
:100CC000FFF7C2FC001B022802D90320BDE8F88F01
:100CD00028688001F4D427E00128F7D0D9F8000073
:100CE000E26900F4800191421CD1226A00F03F01C8
:100CF000914217D147F6C071626A0140B1EB821F81
:100D000010D1A26A4FF0FF3300F4403103EB5202DE
:100D1000B1EB024F06D194F82C1000F07060B0EBEC
:100D2000016F01D00120D1E70020CFE70438024055
:100D300000004742800E4742007000400000FFFF65
:100D40007047704710B590F83C20012A22D001224C
:100D500080F83C20CA688C6822F4407222434C68B8
:100D600022F4806222430C6822F4006222430C6960
:100D700022F4805222434C6922F400522243C96972
:100D8000002322F480420A4301684A6480F83C3020
:100D9000002010BD022010BD70B590F83C20012A43
:100DA00032D0012480F83C40022280F83D200368C4
:100DB0005A689D6822F070060A6832435A60134BE5
:100DC00002689A4214D0B2F1804F11D0104B9A426F
:100DD0000ED0104B9A420BD00F4B9A4208D00F4BBB
:100DE0009A4205D00E4B9A4202D00E4B9A4204D141
:100DF000496825F080031943916080F83D40002147
:100E000080F83C10084670BD022070BD0000014013
:100E10000004004000080040000C004000040140B5
:100E2000004001400018004010B5040003D094F8C1
:100E30003D0010B107E0012010BD002084F83C0007
:100E4000204600F01FF8022084F83D00211D206894
:100E500001F044F8012084F8460084F83E0084F84C
:100E60003F0084F8400084F8410084F8420084F890
:100E7000430084F8440084F8450084F83D000020D5
:100E800010BD000008B5154A0168154891420ED101
:100E9000016841F0100101600068002200F01000BC
:100EA00000900A213620FFF769FC362010E00D4A39
:100EB000914211D1016841F02001016000680022D7
:100EC00000F0200000900A213720FFF757FC372060
:100ED000BDE80840FFF744BC08BD0000001000401A
:100EE000403802400014004090F83D10012901D024
:100EF00001207047022180F83D100168CA6842F065
:100F00000102CA6000681149884214D0B0F1804FD4
:100F100011D00F4988420ED00E4988420BD00E499D
:100F2000884208D00D49884205D00D49884202D038
:100F30000C49884204D1816801F00701062903D0D9
:100F4000016841F00101016000207047000001408C
:100F50000004004000080040000C00400004014074
:100F600000400140001800402DE9F0410D4604000A
:100F700003D094F83D0018B108E00120BDE8F081ED
:100F8000002084F83C00204600F040F8022084F85D
:100F90003D002068816844F2070291438160211D71
:100FA000206800F09BFF226890689169166A2B68A0
:100FB000AF69034340F20330814341EA0721A86847
:100FC000EF6908434FF6FC418843E96840EA07208F
:100FD000014328692F6A000140EA07300843696825
:100FE0006D6926F0AA0646EA051529439360226832
:100FF000906154F8460B0162012004F81F09E07566
:101000002076E0762077A0750020B7E770B586B02F
:10101000044614216846FFF79EF9444923680024DA
:10102000424A103902254248B3F1804F19D0414E4F
:10103000B34245D1106840F002001060106800F023
:1010400002000590086840F00400086008686946DE
:1010500000F004000590C0200090CDE9015436480E
:1010600061E0136843F001031360126802F00102AB
:1010700005920A6842F001020A600A6802F0010261
:1010800005920A6842F002020A600968012601F02E
:10109000020105914FF400410091CDE90154CDE9E1
:1010A00003466946FFF7D2F908200090CDE90154C4
:1010B000CDE9034669462148FFF7C8F906B070BD7F
:1010C0001F4EB34217D1106840F004001060106842
:1010D00000F004000590086840F008000860086807
:1010E000694600F0080005904FF440500090CDE9AB
:1010F0000154144817E0144EB342DFD1136843F093
:1011000008031360126802F0080205920A6842F0B0
:1011100001020A60096801F00101059103210091B3
:10112000CDE901546946CDE90345C5E740380240A1
:101130000000024000040040000802400004024099
:1011400000080040000C0240000C004070B590F810
:101150003E60044690F83F5090F8423090F84320AB
:10116000022021B104290ED0012E1BD114E0012E42
:1011700018D1012B16D184F83E0084F842000122D8
:101180000021206820E0012D0CD1012A0AD184F829
:101190003F0084F8430014E0012D03D1012B01D15D
:1011A000012A01D0012070BD84F83E0084F83F0080
:1011B00084F8420084F8430001220021206800F0F6
:1011C000F9FE01220421206800F0F4FE2068016885
:1011D00041F001010160002070BD70472DE9F04130
:1011E00004460068C66805694FF00007A90713D5D3
:1011F000B10711D5F91E01610120207720688069AF
:101200008007204602D0FFF7E8FF04E000F0A8F8CE
:10121000204600F04DF92777680716D5700714D5DA
:1012200021686FF00400086102202077206880693F
:1012300010F4407F204602D0FFF7CFFF04E000F01B
:101240008FF8204600F034F92777280715D53007A6
:1012500013D521686FF0080008610420207720680A
:10126000C0698007204602D0FFF7B7FF04E000F016
:1012700077F8204600F01CF92777E80616D5F00627
:1012800014D521686FF010000861082020772068CD
:10129000C06910F4407F204602D0FFF79EFF04E0B3
:1012A00000F05EF8204600F003F92777E80708D041
:1012B000F00706D021686FF001000861204600F0B9
:1012C0005DF9280608D5300606D521686FF0800044
:1012D00008612046FFF734FD680608D5700606D57C
:1012E00021686FF040000861204600F09DF9A806D3
:1012F0000AD5B00608D521686FF0200008612046A5
:10130000BDE8F041FFF71DBDBDE8F08110B586B026
:10131000044614216846FFF71EF80E4920688842EB
:1013200016D10D480021026842F0100202600068E8
:1013300000F0100005904FF4D44000900220CDE959
:1013400001010120CDE9031069460448FFF77EF84A
:1013500006B010BD000001403038024000100240CD
:10136000704770B5044690F83C0000260D460128F1
:101370000FD0012084F83C006AB1042A1DD0082A4D
:101380002FD00C2A3FD00126002084F83C003046A4
:1013900070BD022070BD206800F01AFE20688169CF
:1013A00041F0080181612068816921F004018161B7
:1013B000206881692A69114311E0206800F038FE35
:1013C0002068816941F4006181612068816921F4AC
:1013D00080618161206881692A6941EA0221816115
:1013E000D2E7206800F05AFE2068C16941F0080188
:1013F000C1612068C16921F00401C1612068C1692F
:101400002A69114311E0206800F07CFE2068C16960
:1014100041F40061C1612068C16921F48061C1614A
:101420002068C1692A6941EA0221C161ACE710B5AF
:10143000040003D094F83D0010B107E0012010BD76
:10144000002084F83C00204600F01EF8022084F8BA
:101450003D00211D206800F041FD012084F8460078
:1014600084F83E0084F83F0084F8400084F841008E
:1014700084F8420084F8430084F8440084F845006E
:1014800084F83D00002010BD08B500680649884278
:1014900008D10648016841F001010160006800F0D0
:1014A0000100009008BD00000000014044380240E7
:1014B0007047000010B50446022249B104290ED03D
:1014C000082913D094F84100012816D0012010BD3E
:1014D00094F83E000128F9D184F83E200FE094F8FA
:1014E0003F000128F2D184F83F2008E094F8400042
:1014F0000128EBD184F8402001E084F8412001224A
:10150000206800F057FD16492068164A884201D02D
:10151000904203D1436C43F4004343642068884203
:1015200013D0B0F1804F10D00F4988420DD00F4931
:1015300088420AD00E49884207D0904205D00D4912
:10154000884202D00C49884204D1816801F0070129
:10155000062903D0016841F001010160002010BD9F
:101560000000014000040140000400400008004069
:10157000000C0040004001400018004070B50646D5
:101580002248864238D1224800F054FA21480068A7
:10159000416A1F4C00EE101A0025B8EE400A84ED97
:1015A000000A456204F12C0000F044FA1A48006871
:1015B000416A00EE101AB8EE400A84ED0B0A45624B
:1015C00004F1580000F036FA14480068416A00EE51
:1015D000101AB8EE400A84ED160A456204F1840040
:1015E00000F028FA0E480068416A00EE101AB8EEC2
:1015F000400A84ED210A45620A493068884203D1D5
:10160000BDE87040FFF726B870BD00002803002039
:101610001001002008020020500200209802002043
:10162000E0020020002000407047FEE72DE9F04373
:1016300087B014216846FEF78EFE3A480024016800
:1016400041F010010160016801F01001059101688D
:1016500041F004010160016801F004010591016895
:1016600041F080010160016801F08001059101688D
:1016700041F001010160016801F00101059101687B
:1016800041F008010160016801F00801059101685D
:1016900041F0020101600068234E00F00200059055
:1016A000002278213046FEF7C9FF204F0022162184
:1016B0003846FEF7C3FFDFF878800022F02140466D
:1016C000FEF7BCFFDFF86C90002260214846FEF771
:1016D000B5FF782000900125CDE9015469463046D8
:1016E0000394FEF7B3FE16200090CDE9015469463D
:1016F00038460394FEF7AAFEF0200090CDE901548D
:10170000694640460394FEF7A1FE60200090CDE9B3
:101710000154694648460394FEF798FE07B0BDE8B9
:10172000F083000030380240001002400008024000
:1017300000000240000C024010B592B000240F944B
:101740001C2168461094FEF706FE202107A8FEF72C
:1017500002FE2C482A490160A721C0E9011440F289
:10176000E731C0E9031444618461FFF760FE08B10A
:10177000FEF757FE0F940FA922481094FFF70CFBB9
:1017800008B1FEF74EFE6020CDE9000402940394F8
:1017900004940594002269461A480694FFF7E1FD77
:1017A00008B1FEF73EFE042269461648FFF7D9FD50
:1017B00008B1FEF736FE082269461248FFF7D1FD50
:1017C00008B1FEF72EFE0C2269460E48FFF7C9FD50
:1017D00008B1FEF726FE0794089409944FF40050D0
:1017E0000A94CDE90B4007A906480E94FFF7AAFA20
:1017F00008B1FEF716FE0348FFF788FD12B010BDD2
:1018000000000140C001002010B58CB024216846C2
:10181000FEF7A1FD0024154809944FF080410A9479
:10182000C0E90014611EC0E9024104618461032023
:10183000CDE900040120CDE902040494CDE905407E
:101840000794694609480894FFF78EFB08B1FEF734
:10185000E8FD099409A905480A94FFF79DFA0028B4
:1018600001D0FEF7DEFD0CB010BD00000802002024
:1018700010B58CB024216846FEF76DFD0024154894
:10188000099413490A94C0E900144FF6FF71C0E9A6
:101890000241046184610120CDE90004CDE9020424
:1018A0000494CDE90540079469460A480894FFF777
:1018B0005BFB08B1FEF7B5FD099409A905480A9438
:1018C000FFF76AFA002801D0FEF7ABFD0CB010BD9F
:1018D000000400405002002010B58CB0242168465E
:1018E000FEF739FD00241648099414490A94C0E90A
:1018F00000144FF6FF71C0E90241046184610320C6
:10190000CDE900040120CDE902040494CDE90540AD
:10191000079469460A480894FFF726FB08B1FEF7CA
:1019200080FD099409A906480A94FFF735FA0028B2
:1019300001D0FEF776FD0CB010BD0000000800409D
:101940009802002010B58CB024216846FEF703FDF4
:1019500000241548099413490A94C0E90014611E33
:10196000C0E90241046184610120CDE90004CDE9B0
:1019700002040494CDE90540079469460A48089496
:10198000FFF7F2FA08B1FEF74CFD099409A90648E1
:101990000A94FFF701FA002801D0FEF742FD0CB0CF
:1019A00010BD0000000C0040E00200201CB5002427
:1019B0000E4800940C4901940160A721C0E901146C
:1019C00040F2E7318461C160FFF72EFA08B1FEF7FB
:1019D00028FD0094694605480194FFF7DDF90028C9
:1019E00001D0FEF71EFD1CBD0010004028030020A2
:1019F0001CB500240E4800940C4901940160A721F5
:101A0000C0E9011442F20F718461C160FFF70CFA62
:101A100008B1FEF706FD0094694605480194FFF7FA
:101A2000BBF9002801D0FEF7FCFC1CBD00140040EF
:101A300070030020D0ED080AC0ED090AD0ED073A86
:101A4000C0ED083A90ED063A80ED073AD0ED052A50
:101A5000C0ED062A90ED042A80ED052AD0ED031A88
:101A6000C0ED041A90ED021A80ED031A90ED014AC0
:101A700080ED024A90ED000A80ED010A30EE000A86
:101A800030EE040A30EE010A30EE210A30EE020A8E
:101A900030EE220A30EE030A30EE230A30EE200A3E
:101AA000F2EE040A80EE201A80ED0A1A7047FEE773
:101AB000FEE770B5002404F1B000C0B2002100F0D0
:101AC0006DF90021084600F069F90021102000F0AE
:101AD00065F900250121002000F060F96D1CEDB2D0
:101AE000802DF7D3641CE4B2082CE4D370BD000051
:101AF00010B5012210214A48FEF7A0FD494C0122F1
:101B000020212046FEF79AFD012280212046FEF783
:101B100095FD012240212046FEF790FD0122102173
:101B20002046FEF78BFD0021AE2000F037F90021A2
:101B3000084600F033F90021102000F02FF90021B1
:101B4000402000F02BF90021812000F027F900212E
:101B5000CF2000F023F90021A12000F01FF900217F
:101B6000C82000F01BF90021A62000F017F9002181
:101B7000A82000F013F900213F2000F00FF9002108
:101B8000D32000F00BF90021084600F007F90021EE
:101B9000D52000F003F90021F02000F0FFF800212B
:101BA000D92000F0FBF80021F12000F0F7F8002127
:101BB000DA2000F0F3F80021122000F0EFF8002105
:101BC000DB2000F0EBF80021402000F0E7F80021D6
:101BD000202000F0E3F80021022000F0DFF80021CF
:101BE0008D2000F0DBF80021142000F0D7F8002150
:101BF000A42000F0D3F80021A62000F0CFF80021A7
:101C0000AF2000F0CBF80021AF2000F0C7F8FFF7BD
:101C100050FF0021BDE81040084600F005B8000064
:101C2000000802400000024010B50446B031C8B2BE
:101C3000002100F0B3F8102040EA1410002100F059
:101C4000ADF804F00F00BDE8104040F001000021A5
:101C500000F0A4B82DE9F04115460E460746FFF7FF
:101C6000E3FF0F48002400EB85150121285D00F0FB
:101C700095F8641CE4B2102CF7D3761CF1B2384608
:101C8000FFF7D2FF00242819012190F8200000F06E
:101C900085F8641CE4B2102CF5D3BDE8F081000097
:101CA000100000202DE9F041203A00240D46804626
:101CB000D7B27F2803D900208D1C8046EDB229467B
:101CC000FFF7B2FF0F4E00BF04EB07100121305C9D
:101CD00000F064F8641CE4B2082CF5D36D1CE9B282
:101CE0004046FFF7A1FF002404EB07103044012118
:101CF000007A00F053F8641CE4B2082CF4D3BDE879
:101D0000F0810000662300082DE9F0478046002698
:101D100008981D4691468A463446470821E0281B0C
:101D2000401EC1B20A2000F005FBB9FBF0F00A2109
:101D3000B0FBF1F201FB120026B9691E8C4201DAF8
:101D400030B101263030C2B207FB0480C0B203E0DC
:101D500007FB0480C0B220225146FFF7A3FF641C9A
:101D6000E4B2AC42DBD3BDE8F0872DE9F041174681
:101D70000E46044600250CE031462046FFF792FF50
:101D80000834E4B2782C02D90024B61CF6B26D1CDB
:101D9000EDB27A5D002AEFD1BDE8F08170B51A4E40
:101DA000054609B1012200E0002240213046FEF73D
:101DB00045FC002210213046FEF740FC00240022A2
:101DC00020213046FEF73AFC280601D5012200E02A
:101DD000002280213046FEF731FC012220213046CE
:101DE000FEF72CFC6806641C050EE4B2082CE6D352
:101DF000012210213046FEF721FC3046BDE870403C
:101E000001224021FEF71ABC0000024070477047D3
:101E10007047000030B593B030216846FEF79BFA5A
:101E200014210CA8FEF797FA1D480025016841F01F
:101E300080510160006800F08050119019480168DD
:101E400041F4804101600068022400F48040119058
:101E500001200090000401908001CDE9064008AA0D
:101E60000420A82182E813000B906846FEF7B2FD1B
:101E700008B172B6FEE70CA90F2081E831004FF4DB
:101E8000A0500F904FF48050109005210CA8FEF741
:101E9000A7FC002801D072B6FEE713B030BD0000E9
:101EA00040380240007000400248016841F470016F
:101EB0000160704788ED00E00148FFF78FB900002E
:101EC000280300200148FFF789B9000070030020B3
:101ED0000148FFF783B90000B8030020F0B502689D
:101EE000294C2A4D2A4E2B4F2B4B4FF0804CA042B1
:101EF00009D0604507D0A84205D0B04203D0B8420F
:101F000001D0984204D122F0700E4A6842EA0E02D3
:101F1000A0421BD0604519D0A84217D0B04215D0BE
:101F2000B84213D0984211D01C4DA8420ED01C4D7F
:101F3000A8420BD01B4DA84208D01B4DA84205D08B
:101F40001A4DA84202D01A4DA84203D122F440757E
:101F5000CA682A434D6922F080022A4302608A68D7
:101F6000C2620A688262A04201D0984201D1096926
:101F70000163012141610169C90703D0016921F0B1
:101F800001010161F0BD00000000014000040040BB
:101F900000080040000C00400004014000400140E7
:101FA000004401400048014000180040001C00406F
:101FB0000020004010B501F01F030121046A994080
:101FC0008C430462016A9A401143016210BD000013
:101FD000F0B5036A026A22F0010202624268846973
:101FE000124E24F073050C682C4323F002058B6815
:101FF0002B430D4DA84201D0B04205D123F0080774
:10200000CB683B4323F00403A84201D0B04205D182
:102010004D6922F4407215438A692A434260846103
:10202000496841630362F0BD0000014000040140C3
:10203000F0B5026A036A23F01003036243688469FF
:102040000D6824F4E64444EA05248D6822F0200259
:1020500042EA05120F4D104EA84201D0B04206D1FF
:10206000CF6822F0800242EA071222F04002A84222
:1020700001D0B04207D14D6923F4406343EA8503A0
:102080008D6943EA85034360846149688163026224
:10209000F0BD00000000014000040140F0B5026AFC
:1020A000036A23F4807303624368C46922F40072F4
:1020B00024F073050C68124E2C438D6842EA052209
:1020C0000E4DA84201D0B04206D1CF6822F4006282
:1020D00042EA072222F48062A84201D0B04207D12E
:1020E0004D6923F4405343EA05138D6943EA051310
:1020F0004360C4614968C1630262F0BD00000140F1
:102100000004014030B5046A026A22F4805202627F
:102110004268C3690D6823F4E64343EA05238D68EA
:1021200024F4005444EA0534084DA84202D0084D76
:10213000A84204D14D6922F4804242EA85124260ED
:10214000C36149680164046230BD000000000140C1
:1021500000040140FEE70907090E002804DB00F136
:10216000E02080F80014704700F00F0000F1E0203C
:1021700080F8141D7047000008B5FEF773FAFFF7EA
:1021800049FEFFF753FAFFF7D7FAFFF73DFBFFF7DA
:10219000A3FBFFF70BFCFFF72BFCFFF7D3FBFFF7CD
:1021A00067FB00215048FFF785F93C214F48FEF7B7
:1021B000CDFF04214C48FFF77DF93C214C48FEF748
:1021C000C5FF08214848FFF775F93C214948FEF74B
:1021D000BDFF0C214448FFF76DF93C214648FEF74E
:1021E000B5FF4149C8200A6850630A6890630A68CD
:1021F000D06309680864414C002240212046FEF764
:102200001DFA012220212046FEF718FA3C4C01223B
:1022100002212046FEF712FA002204212046FEF792
:102220000DFA384C002240212046FEF707FA012221
:1022300020212046FEF702FA012208212046FEF75F
:10224000FDF9002210212046FEF7F8F92E48FEF78E
:102250004BFE2E48FEF748FEFFF74AFCFFF729FC2D
:10226000202410254FF4FA66FFF723FC00221146C4
:102270001220FFF7EFFC012200212420FFF7EAFCE7
:10228000022200213620FFF7E5FC0322002148202E
:10229000FFF7E0FC042200215A20FFF7DBFC1CA220
:1022A00003210620FFF761FD1EA206210020FFF793
:1022B0005CFD1EA206213F20FFF757FD22460621A6
:1022C0003020FFF7EFFC641CE4B27E2C00D9202400
:1022D00003232246062167200095FFF715FD3046AF
:1022E000FEF7A2F8C0E70000C001002008020020AD
:1022F000E00200209802002050020020000C024062
:102300000008024000100240280300207003002053
:10231000302E3936202720204F4C45442054455339
:102320005400000041534349493A0000434F44459B
:102330003A0000000246012000E05043491EC9B2A5
:10234000FBD270474FF04070E1EE100A704700007A
:102350000000000000000102030406070809000055
:102360000000010203040000000000000000000063
:10237000000000000000000000F800000000000065
:1023800000333000000000100C06100C06000000A6
:1023900000000000000040C07840C0784000043FCA
:1023A00004043F040400007088FC0830000000189A
:1023B00020FF211E0000F008F000E01800000021BE
:1023C0001C031E211E0000F00888700000001E2162
:1023D00023241927211010160E0000000000000011
:1023E000000000000000000000E0180402000000EF
:1023F00000071820400000020418E0000000004020
:10240000201807000000404080F080404000020299
:10241000010F01020200000000F0000000000101B5
:10242000011F01010100000000000000000080B059
:10243000700000000000000000000000000000012B
:102440000101010101010000000000000000003056
:1024500030000000000000000000806018040060F0
:1024600018060100000000E010080810E000000F4E
:10247000102020100F00001010F8000000000020B5
:10248000203F2020000000700808088870000030FD
:1024900028242221300000300888884830000018A5
:1024A000202020110E000000C02010F800000007BE
:1024B0000424243F240000F8088888080800001934
:1024C000212020110E0000E0108888180000000F65
:1024D000112020110E0000380808C838080000003C
:1024E000003F000000000070880808887000001C91
:1024F000222121221C0000E010080810E00000004A
:10250000312222110F00000000C0C00000000000B6
:1025100000303000000000000080000000000000DB
:1025200080600000000000008040201008000001D2
:102530000204081020004040404040404000040495
:10254000040404040400000810204080000000205F
:10255000100804020100007048080808F00000009C
:10256000003036010000C030C828E810E00007182D
:10257000272423140B000000C038E0000000203C9A
:1025800023020227382008F8888888700000203F3E
:10259000202020110E00C030080808083800071855
:1025A00020202010080008F808080810E000203F4C
:1025B000202020100F0008F88888E8081000203F2D
:1025C00020202320180008F88888E8081000203F01
:1025D000200003000000C030080808380000071879
:1025E0002020221E020008F808000008F808203FFA
:1025F000210101213F20000808F808080000002000
:10260000203F2020000000000808F8080800C080D3
:1026100080807F00000008F888C028180800203F4C
:1026200020012638200008F8080000000000203FA4
:1026300020202020300008F8F800F8F80800203F9B
:10264000003F003F200008F830C00008F808203F95
:10265000200007183F00E01008080810E0000F10E5
:10266000202020100F0008F808080808F000203F7C
:10267000210101010000E01008080810E0000F1817
:10268000242438504F0008F8888888887000203F3C
:102690002000030C3020007088080808380000383B
:1026A000202121221C00180808F808081800000042
:1026B000203F2000000008F808000008F808001F6C
:1026C000202020201F000878880000C8380800005B
:1026D00007380E010000F80800F80008F800033C75
:1026E0000700073C0300081868808068180820303D
:1026F0002C03032C30200838C800C838080000001C
:10270000203F2000000010080808C83808002038C2
:10271000262120201800000000FE02020200000016
:10272000007F40404000000C30C00000000000006E
:1027300000010638C00000020202FE000000004056
:1027400040407F000000000004020202040000007C
:102750000000000000000000000000000000808079
:102760008080808080800002020400000000000061
:102770000000000000000000808080800000001940
:10278000242222223F2008F8008080000000003F21
:10279000112020110E000000008080800000000E3B
:1027A000112020201100000000808088F800000E19
:1027B000112020103F200000808080800000001F3A
:1027C000222222221300008080F0888888180020AE
:1027D000203F202000000000808080808000006B6F
:1027E00094949493600008F8008080800000203F5B
:1027F000210000203F200080989800000000002069
:10280000203F20200000000000809898000000C0B9
:102810008080807F000008F8000080808000203FDA
:1028200024022D302000000808F8000000000020DD
:10283000203F202000008080808080808000203F1A
:1028400020003F20003F8080008080800000203FEB
:10285000210000203F200000808080800000001FB9
:10286000202020201F00808000808000000080FF4A
:10287000A12020110E000000008080808000000E4A
:10288000112020A0FF808080800080808000202098
:102890003F21200001000000808080808000003304
:1028A000242424241900008080E08080000000009F
:1028B000001F202000008080000000808000001F9A
:1028C000202020103F208080800000808080000138
:1028D0000E300806010080800080008080800F306C
:1028E0000C030C300F0000808000808080000020EE
:1028F000312E0E3120008080800000808080808119
:102900008E70180601000080808080808000002189
:10291000302C2221300000000000807C02020000E8
:102920000000003F404000000000FF0000000000E9
:102930000000FF0000000002027C80000000004058
:10294000403F0000000000060101020204040000F4
:1029500000000000000000007829000800000020AE
:1029600010010000C4010008882A0008100100209E
:1029700050090000E0010008010000001000000004
:10298000000000000024F40000E020A0604040C0EF
:102990007040404040400000000000000000000087
:1029A0000000000000000000003F10131C10132A5C
:1029B000223F020A0A12000000000000000000008E
:1029C00000000000000000000000E0A0A0A0A0E0C7
:1029D000A0A0A0A0E0000000000000000000000097
:1029E0000000000000000000100803023A22262B1D
:1029F00022221A0A0B100000000000000000000054
:102A0000000000000000000000E020A0A0A0A0A0A6
:102A1000A0A0A020E00000000000000000000000D6
:102A20000000000000000000003F00001E0A0A0A2B
:102A30000A2E20203F0000000000000000000000DF
:102A40000000000000000000000000000000000086
:102A50000013151509000000000000000000000030
:102A6000000000000000000000E000000000000086
:102A7000001F12111111190E0000000000000000CB
:082A800000000000000000004E
:040000050800018965
:00000001FF
