:020000040800F2
:10000000B809002029020008A51A0008DB1500081D
:10001000A31A00081F040008D11D000800000000FA
:10002000000000000000000000000000A91A000805
:100030002104000800000000A71A0008AB1A0008FD
:10004000430200084302000843020008430200087C
:10005000430200084302000843020008430200086C
:10006000430200084302000843020008430200085C
:10007000430200084302000843020008430200084C
:10008000430200084302000843020008430200083C
:10009000430200084302000843020008430200082C
:1000A000430200084302000843020008430200081C
:1000B000430200084302000843020008430200080C
:1000C00043020008430200084302000843020008FC
:1000D00043020008430200084302000843020008EC
:1000E00043020008430200084302000843020008DC
:1000F00043020008691B000843020008430200088D
:1001000043020008430200084302000843020008BB
:100110004302000843020008511B00085D1B000851
:10012000430200084302000843020008430200089B
:10013000430200084302000843020008430200088B
:10014000430200084302000843020008430200087B
:10015000430200084302000843020008430200086B
:10016000430200084302000843020008430200085B
:100170004302000843020008430200080000000098
:10018000430200084302000800F002F800F03CF8C7
:100190000AA090E8000C82448344AAF10107DA45E2
:1001A00001D100F031F8AFF2090EBAE80F0013F0F8
:1001B000010F18BFFB1A43F001031847881C000009
:1001C000A81C0000103A24BF78C878C1FAD852079A
:1001D00024BF30C830C144BF04680C6070470000C1
:1001E0000023002400250026103A28BF78C1FBD840
:1001F000520728BF30C148BF0B6070471FB501F0E0
:100200000FFE1FBD10B510BD00F0CFF81146FFF76F
:10021000F5FF01F0EEFD00F0EDF803B4FFF7F2FF9B
:1002200003BC00F0F5F80000094880470948004782
:10023000FEE7FEE7FEE7FEE7FEE7FEE7FEE7FEE796
:10024000FEE7FEE704480549054A064B70470000F3
:10025000411B000889010008B8030020B8090020EC
:10026000B8050020B805002053EA020C00F06980B0
:100270002DE9F04B4FF00006002B1FBFB3FA83F5BA
:1002800003FA05F424FA05F65E4012BF1643B2FAEB
:1002900082F502FA05F4C5F120051EBF22FA05FC1D
:1002A00044EA0C04203556EA044C4FEA144418BFC3
:1002B000641C4FF000084FF00009904271EB030CF2
:1002C00039D3002919BFB1FA81F701FA07F6B0FA5C
:1002D00080F700FA07F6C7F120071EBF20FA07FCD7
:1002E00046EA0C062037B6FBF4FCA7EB0507103FE7
:1002F00007F01F0BCBF120060CFA0BFB2CFA06F6CD
:1003000044BFB3460026202FA4BF5E464FF0000B2B
:100310005BEA060C08BF4FF0010B19EB0B09ABFBB6
:10032000027C48EB0608C01B06FB02CC0BFB03CC8F
:1003300071EB0C01C1E70B46024641464846BDE859
:10034000F08B13B54FF000004FF00001AFF30080C9
:10035000BDE81C4070474FF0000200B513469446BC
:100360009646203922BFA0E80C50A0E80C50B1F10D
:100370002001BFF4F7AF090728BFA0E80C5048BF21
:100380000CC05DF804EB890028BF40F8042B08BFBF
:10039000704748BF20F8022B11F0804F18BF00F8BB
:1003A000012B7047704770477047754600F02CF876
:1003B000AE4605006946534620F00700854618B052
:1003C00020B5FFF73FFFBDE820404FF000064FF09B
:1003D00000074FF000084FF0000B21F00701AC467A
:1003E000ACE8C009ACE8C009ACE8C009ACE8C00999
:1003F0008D46704710B50446AFF300802046BDE837
:100400001040FFF70ABF0000004870475803002063
:1004100001491820ABBEFEE7260002007047FEE748
:10042000704772B6FEE700002DE9F84FDFF8BCA177
:100430000022012503264FF00F090AF1040BAAF14F
:10044000040E00BF0B6805FA02F42340A34270D1EA
:100450000F7907F00307012F01D0022F16D187680B
:100460004FEA420806FA08FC27EA0C07D1F80CC04C
:100470000CFA08FC4CEA070CC0F808C04768A74310
:100480000C79C4F3001494403C4344600C79E44379
:10049000A4070AD0C4684FEA420C06FA0CF7BC4322
:1004A0008F6807FA0CF72743C7600C7904F0030440
:1004B000022C12D1D40800EB840CDCF82040570742
:1004C000FF0E09FA07F824EA0804D1F8108008FAA8
:1004D00007F848EA0408CCF8208004684FEA420C88
:1004E00006FA0CF7BC430F7907F0030707FA0CF77D
:1004F000274307604C6814F4403F70D03C4C276899
:1005000047F480472760246822F0030704F48044FE
:100510000094384C07EB040CDCF8084897074FEAC6
:10052000177809FA08F7BC43334FB84202D10027C5
:1005300024E054E0314FB84201D101271EE0304F92
:10054000B84201D1022719E02E4FB84201D103274A
:1005500014E02D4FB84201D104270FE02B4FB842D1
:1005600001D105270AE02A4FB84201D1062705E04C
:10057000284FB84201D1072700E0082707FA08F7FB
:100580002743CCF80878DAF800405746D1F804C081
:100590009C435FEACC2C00D51C433C60DBF8004058
:1005A0005F46D1F804C09C435FEA8C2C00D51C4305
:1005B0003C60DEF800407746D1F804C09C435FEA17
:1005C0008C3C00D51C433C60084F083F3C68D1F888
:1005D00004C09C435FEACC3C00D51C433C60521CE9
:1005E000102AFFF42FAFBDE8F88F0000083C01404F
:1005F0004438024000300140000002400004024044
:1006000000080240000C02400010024000140240AA
:1006100000180240001C02400AB1816170470904C1
:10062000FBE70000014880687047000000000020E0
:100630000248816802781144816070470000002000
:100640000B4810B5016841F400710160016841F484
:1006500080610160016841F480710160032000F055
:100660009BF80F2000F006F800F050F8002010BDB5
:10067000003C024030B505461F4887B000240168A1
:1006800041F480710160006806A900F48070009058
:1006900001A800F02DF90498A8B100F049F9400034
:1006A0001649174AB0FBF1F11648491E026040F2A4
:1006B000E732C0E90324C0E90114846100F036FC8C
:1006C000040003D015E000F033F9E9E70D4800F02D
:1006D0008DFC04000DD12D2000F030F8102D07D234
:1006E000002229462D2000F037F80748056000E079
:1006F000012407B0204630BD4038024040420F0080
:100700000020004010030020040000200A4808B523
:10071000016841F480410160006800F4804000906D
:100720000548001F016841F080510160006800F039
:100730008050009008BD000044380240002809DBCA
:1007400000F01F02012191404009800000F1E020EB
:10075000C0F8001170470000F0B40E4B1B680C4647
:10076000C3F30223C3F10705042D00D90425191D85
:10077000072901D2002300E0DB1E012606FA05F15D
:10078000491E214099409E40761E16403143F0BCE0
:1007900001F01FBB0CED00E0064900F007020868FD
:1007A0004FF6FF03184040EA0220034A1043086056
:1007B000704700000CED00E00000FA052DE9F0475D
:1007C0000E46050065D0DFF81481D8F80000F7B2B6
:1007D00000F00700B04207D288F80070D8F8000097
:1007E00000F00700B04254D128683D4C810712D573
:1007F000400703D5206840F4E050206028780007C7
:1008000003D5206840F4604020602068A96820F08B
:10081000F000084320602878C0072DD03049686870
:100820000839012812D0022813D0032811D00968F2
:10083000890700292DDA216821F003010143216095
:10084000FFF7F0FE814641F2883A0EE0096889031D
:10085000EFE709688901ECE7FFF7E4FEA0EB090187
:10086000514502D90320BDE8F0872068696800F08F
:100870000C00B0EB810FEFD1D8F80010404601F02A
:100880000701B14207D90770006800F00700B042C5
:1008900001D00120E7E72878400705D52068E968FE
:1008A00020F4E050084320602878000706D520682F
:1008B000296920F4604040EAC100206000F048F857
:1008C0002168084AC1F30311515CC8400649086019
:1008D00006480068FFF7CEFE0020C4E7003C024057
:1008E000083802402A1E00080C00002004000020E6
:1008F0000F2202600C4A136803F00303436013687D
:1009000003F0F0038360136803F4E053C3601268DC
:100910004FF4E05303EAD20202610448006800F099
:10092000070008607047000008380240003C0240A1
:100930000448054900680968044AC1F38221515CF2
:10094000C84070470C000020083802403A1E0008DA
:10095000154810B5006810F00C02144813D041106F
:10096000042A0FD0082A0ED10F4C241F22682368B6
:1009700002F03F025B0207D52068C0F38810A0FB9D
:10098000010106E0084610BD2168C1F38811A1FBF2
:1009900000010023FFF768FC2168C1F30141491CF5
:1009A0004900B0FBF1F010BD083802400024F4000B
:1009B0002DE9F84F04006ED02078DFF84C93C00783
:1009C000A9F104054AD009F104000168C1F38101CD
:1009D000012908D00068C0F3810002280AD1D9F8A3
:1009E0000000400206D52868800337D560680028DB
:1009F000E1D033E06068B0F5803F10D0B0F5A02FB3
:100A0000286810D020F480302860286820F48020E6
:100A100028606068A8B1FFF705FE06460DE028686B
:100A200040F48030F4E740F480202860F7E700BF0E
:100A3000FFF7F8FD801B642873D828688003F7D57A
:100A40000CE0FFF7EFFD064605E000BFFFF7EAFD0B
:100A5000801B6428F0D828688003F7D42078DFF85A
:100A6000AC8280074FF0000A3ED5A748001D016800
:100A700011F00C0F08D00068C0F3810002280BD1E0
:100A8000D9F80000400207D42868800716D5E0682E
:100A9000012800D112E033E1E068B8B10120C8F8C4
:100AA0000000FFF7BFFD064605E000BFFFF7BAFDF7
:100AB000801B0228C0D828688007F7D528682169DC
:100AC00020F0F80040EAC10028600DE0C8F800A05E
:100AD000FFF7A8FD064604E0FFF7A4FD801B0228EF
:100AE0001FD828688007F7D42078000722D5864FC2
:100AF00087486169703771B101210160FFF792FD8C
:100B0000064604E0FFF78EFD801B022809D83868EE
:100B10008007F7D50EE0C0F800A0FFF783FD06467A
:100B200005E082E0FFF77EFD801B02287DD8386853
:100B30008007F7D42078400768D5DFF8CCB10027CC
:100B40000BF13C0BDBF80000C0000BD4DBF800100D
:100B500041F08051CBF80010DBF80000012700F0D5
:100B6000805000906B4E3068C00510D4306840F45F
:100B700080703060FFF756FD009005E0FFF752FDF2
:100B80000099401A022850D83068C005F6D55E4E4C
:100B9000A0686C3601280FD00528306810D020F0EE
:100BA00001003060306820F004003060A068B8B107
:100BB000FFF738FD00900FE0306840F00100F4E7E7
:100BC00040F004003060F7E7FFF72CFD0099411A70
:100BD00041F28830814266D830688007F4D50EE053
:100BE000FFF720FD009007E0FFF71CFD0099411A78
:100BF00041F28830814256D830688007F4D42FB152
:100C0000DBF8001021F08051CBF80010A069C8B3C8
:100C10003D49091D0968C1F3810102294AD0022812
:100C2000504607D0C8F8600000E03CE0FFF7FAFC4F
:100C300004463BE04746C8F86000FFF7F3FC064671
:100C400005E000BFFFF7EEFC801B02282BD82868C8
:100C50008001F7D4D4E907010843A16A2E4A490864
:100C600002EB0141626A41EA8211084394F82C10B8
:100C700040EA0161C9F8001001203866FFF7D2FC94
:100C8000044606E03EE000BFFFF7CCFC001B022854
:100C900009D828688001F7D534E000BFFFF7C2FC0F
:100CA000001B022802D90320BDE8F88F28688001C4
:100CB000F4D427E00128F7D0D9F80000E26900F465
:100CC000800191421CD1226A00F03F01914217D16C
:100CD00047F6C071626A0140B1EB821F10D1A26A6F
:100CE0004FF0FF3300F4403103EB5202B1EB024FFF
:100CF00006D194F82C1000F07060B0EB016F01D0B9
:100D00000120D1E70020CFE704380240000047422D
:100D1000800E4742007000400000FFFF70B50400E5
:100D200009D0606A002540B125616561A56294F82B
:100D3000510040B10CE0012070BD6068B0F5827FC9
:100D4000F4D0E561F2E784F85050204600F044F812
:100D5000022084F851002068016821F04001016000
:100D6000A088218900F4827001F404410843A1891C
:100D700001F400610843217C01F002010843217D58
:100D800001F001010843218B01F400710843217F28
:100D900001F03801084394F8201001F08001084365
:100DA000218D01F40051084321680860A0690421E5
:100DB00001EA104094F8241001F010010843216862
:100DC00048602068C16921F40061C1616565012046
:100DD00084F85100002070BD10B586B0044614217F
:100DE0006846FFF7B8FA14492068884221D11348B1
:100DF0000021026842F480420260006800F48040F2
:100E000005900E481038026842F002020260006845
:100E100000F0020005904FF4604000900220CDE900
:100E20000101032003900520049069460448FFF760
:100E3000FBFA06B010BD0000003800404038024008
:100E4000000402407047704710B590F83C20012A1A
:100E500022D0012280F83C20CA688C6822F44072BB
:100E600022434C6822F4806222430C6822F4006220
:100E700022430C6922F4805222434C6922F400522E
:100E80002243C969002322F480420A4301684A646C
:100E900080F83C30002010BD022010BD70B590F8E5
:100EA0003C20012A32D0012480F83C40022280F804
:100EB0003D2003685A689D6822F070060A68324334
:100EC0005A60134B02689A4214D0B2F1804F11D08D
:100ED000104B9A420ED0104B9A420BD00F4B9A42B5
:100EE00008D00F4B9A4205D00E4B9A4202D00E4BBF
:100EF0009A4204D1496825F080031943916080F833
:100F00003D40002180F83C10084670BD022070BDB5
:100F1000000001400004004000080040000C0040B8
:100F200000040140004001400018004010B50400DA
:100F300003D094F83D0010B107E0012010BD00205F
:100F400084F83C00204600F01FF8022084F83D00A1
:100F5000211D206800F00EFE012084F8460084F870
:100F60003E0084F83F0084F8400084F8410084F893
:100F7000420084F8430084F8440084F8450084F873
:100F80003D00002010BD000008B5154A0168154855
:100F900091420ED1016841F0100101600068002209
:100FA00000F0100000900A213620FFF7D5FB362014
:100FB00010E00D4A914211D1016841F02001016019
:100FC0000068002200F0200000900A213720FFF77F
:100FD000C3FB3720BDE80840FFF7B0BB08BD0000E9
:100FE00000100040403802400014004090F83D10CE
:100FF000012901D001207047022180F83D100168CD
:10100000CA6842F00102CA6000681149884214D0DF
:10101000B0F1804F11D00F4988420ED00E4988425E
:101020000BD00E49884208D00D49884205D00D49A1
:10103000884202D00C49884204D1816801F007013E
:10104000062903D0016841F00101016000207047CA
:10105000000001400004004000080040000C004077
:101060000004014000400140001800402DE9F0411B
:101070000D46040003D094F83D0018B108E00120AB
:10108000BDE8F081002084F83C00204600F040F8E4
:10109000022084F83D002068816844F207029143F1
:1010A0008160211D206800F065FD226890689169CB
:1010B000166A2B68AF69034340F20330814341EA6B
:1010C0000721A868EF6908434FF6FC418843E968A7
:1010D00040EA0720014328692F6A000140EA0730EF
:1010E000084369686D6926F0AA0646EA0515294392
:1010F00093602268906154F8460B0162012004F865
:101100001F09E0752076E0762077A0750020B7E70C
:1011100070B586B0044614216846FFF71CF94449AF
:1011200023680024424A103902254248B3F1804F17
:1011300019D0414EB34245D1106840F00200106012
:10114000106800F002000590086840F00400086094
:101150000868694600F004000590C0200090CDE9C1
:101160000154364861E0136843F0010313601268CC
:1011700002F0010205920A6842F001020A600A6860
:1011800002F0010205920A6842F002020A60096850
:10119000012601F0020105914FF400410091CDE9D3
:1011A0000154CDE903466946FFF73EF90820009057
:1011B000CDE90154CDE9034669462148FFF734F9EA
:1011C00006B070BD1F4EB34217D1106840F0040046
:1011D0001060106800F004000590086840F00800F6
:1011E00008600868694600F0080005904FF4405018
:1011F0000090CDE90154144817E0144EB342DFD1FA
:10120000136843F008031360126802F008020592A5
:101210000A6842F001020A60096801F001010591C3
:1012200003210091CDE901546946CDE90345C5E7A5
:101230004038024000000240000400400008024024
:101240000004024000080040000C0240000C004076
:1012500070472DE9F04104460068C66805694FF003
:101260000007A90713D5B10711D5F91E01610120A7
:101270002077206880698007204602D0FFF7E8FFCA
:1012800004E000F0A9F8204600F04EF9277768073F
:1012900016D5700714D521686FF00400086102208C
:1012A00020772068806910F4407F204602D0FFF745
:1012B000CFFF04E000F090F8204600F035F92777E2
:1012C000280715D5300713D521686FF0080008618D
:1012D000042020772068C0698007204602D0FFF7ED
:1012E000B7FF04E000F078F8204600F01DF92777FA
:1012F000E80616D5F00614D521686FF010000861D5
:10130000082020772068C06910F4407F204602D072
:10131000FFF79EFF04E000F05FF8204600F004F9BC
:101320002777E80708D0F00706D021686FF00100A2
:101330000861204600F0FAF8280608D5300606D5E0
:1013400021686FF0800008612046FFF77BFD68068A
:1013500008D5700606D521686FF040000861204668
:1013600000F03AF9A8060AD5B00608D521686FF052
:10137000200008612046BDE8F041FFF764BDBDE8EC
:10138000F081000010B586B0044614216846FEF7CF
:10139000E2FF0E492068884216D10D4800210268FC
:1013A00042F010020260006800F0100005904FF457
:1013B000D44000900220CDE901010120CDE90310C5
:1013C00069460448FFF730F806B010BD0000014040
:1013D0003038024000100240704770B5044690F863
:1013E0003C0000260D4601280FD0012084F83C0067
:1013F0006AB1042A1DD0082A2FD00C2A3FD001261A
:10140000002084F83C00304670BD022070BD20688A
:1014100000F01CFC2068816941F0080181612068AE
:10142000816921F004018161206881692A69114381
:1014300011E0206800F03AFC2068816941F4006105
:1014400081612068816921F48061816120688169FE
:101450002A6941EA02218161D2E7206800F05CFC40
:101460002068C16941F00801C1612068C16921F0AB
:101470000401C1612068C1692A69114311E0206833
:1014800000F07EFC2068C16941F40061C161206800
:10149000C16921F48061C1612068C1692A6941EA9A
:1014A0000221C161ACE710B5040003D094F83D00FF
:1014B00010B107E0012010BD002084F83C00204658
:1014C00000F01EF8022084F83D00211D206800F085
:1014D00051FB012084F8460084F83E0084F83F0068
:1014E00084F8400084F8410084F8420084F8430006
:1014F00084F8440084F8450084F83D00002010BDC5
:1015000008B500680649884208D10648016841F0DC
:1015100001010160006800F00100009008BD0000BA
:1015200000000140443802407047000070B5064694
:101530002248864238D1224800F076FA21480068D5
:10154000416A1F4C00EE101A0025B8EE400A84EDE7
:10155000000A456204F12C0000F066FA1A4800689F
:10156000416A00EE101AB8EE400A84ED0B0A45629B
:1015700004F1580000F058FA14480068416A00EE7F
:10158000101AB8EE400A84ED160A456204F1840090
:1015900000F04AFA0E480068416A00EE101AB8EEF0
:1015A000400A84ED210A45620A493068884203D125
:1015B000BDE87040FFF73CB870BD0000800200201D
:1015C0001000002060010020A8010020F001002090
:1015D00038020020002000407047FEE72DE9F0436C
:1015E00087B014216846FEF7B6FE3A480024016829
:1015F00041F010010160016801F0100105910168DE
:1016000041F004010160016801F0040105910168E5
:1016100041F080010160016801F0800105910168DD
:1016200041F001010160016801F0010105910168CB
:1016300041F002010160016801F0020105910168B9
:1016400041F0080101600068234E00F00800059099
:10165000002278213046FEF7DFFF204F00221621BE
:101660003846FEF7D9FFDFF878800022F0214046A7
:10167000FEF7D2FFDFF86C90002260214846FEF7AB
:10168000CBFF782000900125CDE901546946304612
:101690000394FEF7C9FE16200090CDE90154694677
:1016A00038460394FEF7C0FEF0200090CDE90154C7
:1016B000694640460394FEF7B7FE60200090CDE9EE
:1016C0000154694648460394FEF7AEFE07B0BDE8F4
:1016D000F083000030380240001002400008024051
:1016E00000000240000C02400F4810B50D49016097
:1016F0004FF48271416000218160C1604FF400723B
:101700000161C0E90512C1610162416281620A2181
:10171000C162FFF703FB002803D0BDE81040FEF7CD
:1017200080BE10BD00380040C000002010B592B04F
:1017300000240F941C2168461094FEF70CFE202113
:1017400007A8FEF708FE2C482A490160A721C0E936
:10175000011440F2E731C0E9031444618461FFF7EA
:10176000A2FE08B1FEF75DFE0F940FA92248109467
:10177000FFF794FB08B1FEF754FE6020CDE90004AA
:101780000294039404940594002269461A4806942E
:10179000FFF723FE08B1FEF744FE0422694616480F
:1017A000FFF71BFE08B1FEF73CFE0822694612480F
:1017B000FFF713FE08B1FEF734FE0C2269460E480F
:1017C000FFF70BFE08B1FEF72CFE0794089409946E
:1017D0004FF400500A94CDE90B4007A906480E9437
:1017E000FFF732FB08B1FEF71CFE0348FFF7CAFD06
:1017F00012B010BD000001401801002010B58CB0DF
:1018000024216846FEF7A7FD0024154809944FF0EF
:1018100080410A94C0E90014611EC0E902410461DC
:1018200084610320CDE900040120CDE90204049481
:10183000CDE905400794694609480894FFF716FC6E
:1018400008B1FEF7EEFD099409A905480A94FFF7CF
:1018500025FB002801D0FEF7E4FD0CB010BD000010
:101860006001002010B58CB024216846FEF773FD9E
:1018700000241548099413490A94C0E900144FF64E
:10188000FF71C0E90241046184610120CDE90004D7
:10189000CDE902040494CDE90540079469460A485D
:1018A0000894FFF7E3FB08B1FEF7BBFD099409A913
:1018B00005480A94FFF7F2FA002801D0FEF7B1FDBF
:1018C0000CB010BD00040040A801002010B58CB081
:1018D00024216846FEF73FFD002416480994144968
:1018E0000A94C0E900144FF6FF71C0E90241046197
:1018F00084610320CDE900040120CDE902040494B1
:10190000CDE90540079469460A480894FFF7AEFB05
:1019100008B1FEF786FD099409A906480A94FFF765
:10192000BDFA002801D0FEF77CFD0CB010BD000010
:1019300000080040F001002010B58CB0242168465A
:10194000FEF709FD00241548099413490A94C0E9DB
:101950000014611EC0E90241046184610120CDE9E7
:101960000004CDE902040494CDE9054007946946DA
:101970000A480894FFF77AFB08B1FEF752FD099474
:1019800009A906480A94FFF789FA002801D0FEF752
:1019900048FD0CB010BD0000000C004038020020D3
:1019A0001CB500240E4800940C4901940160A72145
:1019B000C0E9011440F2E7318461C160FFF7B6FA73
:1019C00008B1FEF72EFD0094694605480194FFF723
:1019D00065FA002801D0FEF724FD1CBD0010004070
:1019E000800200201CB500240E4800940C4901948C
:1019F0000160A721C0E9011442F20F718461C16046
:101A0000FFF794FA08B1FEF70CFD0094694605480B
:101A10000194FFF743FA002801D0FEF702FD1CBD38
:101A200000140040C8020020D0ED080AC0ED090AE9
:101A3000D0ED073AC0ED083A90ED063A80ED073A4E
:101A4000D0ED052AC0ED062A90ED042A80ED052A86
:101A5000D0ED031AC0ED041A90ED021A80ED031ABE
:101A600090ED014A80ED024A90ED000A80ED010AF6
:101A700030EE000A30EE040A30EE010A30EE210AA0
:101A800030EE020A30EE220A30EE030A30EE230A6C
:101A900030EE200AF2EE040A80EE201A80ED0A1AD7
:101AA0007047FEE7FEE770477047704730B593B068
:101AB00030216846FEF74FFC14210CA8FEF74BFCC2
:101AC0001D480025016841F080510160006800F068
:101AD000805011901948016841F48041016000680C
:101AE000022400F480401190012000900004019035
:101AF0008001CDE9064008AA0420A82182E813004D
:101B00000B906846FEF754FF08B172B6FEE70CA9C9
:101B10000F2081E831004FF4A0500F904FF4805017
:101B2000109005210CA8FEF749FE002801D072B6DE
:101B3000FEE713B030BD00004038024000700040A6
:101B40000248016841F470010160704788ED00E0CF
:101B50000148FFF77EBB0000800200200148FFF72C
:101B600078BB0000C80200200148FFF772BB0000EC
:101B700010030020F0B50268294C2A4D2A4E2B4F45
:101B80002B4B4FF0804CA04209D0604507D0A842B3
:101B900005D0B04203D0B84201D0984204D122F01F
:101BA000700E4A6842EA0E02A0421BD0604519D06E
:101BB000A84217D0B04215D0B84213D0984211D0E5
:101BC0001C4DA8420ED01C4DA8420BD01B4DA84264
:101BD00008D01B4DA84205D01A4DA84202D01A4D7C
:101BE000A84203D122F44075CA682A434D6922F005
:101BF00080022A4302608A68C2620A688262A04246
:101C000001D0984201D10969016301214161016953
:101C1000C90703D0016921F001010161F0BD000095
:101C2000000001400004004000080040000C00409B
:101C300000040140004001400044014000480140D0
:101C400000180040001C004000200040F0B5036A6E
:101C5000026A22F00102026242688469124E24F094
:101C600073050C682C4323F002058B682B430D4D44
:101C7000A84201D0B04205D123F00807CB683B430E
:101C800023F00403A84201D0B04205D14D6922F4EB
:101C9000407215438A692A434260846149684163FE
:101CA0000362F0BD0000014000040140F0B5026A8B
:101CB000036A23F010030362436884690D6824F407
:101CC000E64444EA05248D6822F0200242EA051227
:101CD0000F4D104EA84201D0B04206D1CF6822F07D
:101CE000800242EA071222F04002A84201D0B0422C
:101CF00007D14D6923F4406343EA85038D6943EAC4
:101D0000850343608461496881630262F0BD00001D
:101D10000000014000040140F0B5026A036A23F4A8
:101D2000807303624368C46922F4007224F073056F
:101D30000C68124E2C438D6842EA05220E4DA842D3
:101D400001D0B04206D1CF6822F4006242EA0722F5
:101D500022F48062A84201D0B04207D14D6923F439
:101D6000405343EA05138D6943EA05134360C46198
:101D70004968C1630262F0BD0000014000040140F7
:101D800030B5046A026A22F4805202624268C36972
:101D90000D6823F4E64343EA05238D6824F40054D8
:101DA00044EA0534084DA84202D0084DA84204D1A7
:101DB0004D6922F4804242EA85124260C36149685B
:101DC0000164046230BD00000000014000040140D5
:101DD000FEE70907090E002804DB00F1E02080F887
:101DE0000014704700F00F0000F1E02080F8141D8F
:101DF0007047FEF725FCFFF759FEFFF7EFFBFFF7F3
:101E000095FCFFF7FBFCFFF761FDFFF7C9FDFFF74E
:101E1000E9FDFFF791FDFFF725FDFFF765FCFEE704
:101E20004FF04070E1EE100A704700000000000023
:101E30000000010203040607080900000000010277
:101E400003040000641E00080000002010000000D1
:101E5000C4010008741E000810000020A80900003A
:101E6000E001000801000000100000000000000078
:041E70000024F40056
:040000050800018965
:00000001FF
