:020000040800F2
:10000000384A0020E9020008A32900083527000823
:10001000A1290008CD070008D13000080000000029
:10002000000000000000000000000000290200089D
:100030006D0A00080000000085020008252C000859
:100040000303000803030008030300080303000878
:100050000303000803030008030300080303000868
:100060000303000803030008030300080303000858
:10007000B109000803030008030300080303000894
:100080000303000803030008030300080303000838
:10009000D107000803030008030300080303000856
:1000A0000303000803030008030300080303000818
:1000B0000303000803030008030300080303000808
:1000C00003030008030300080303000803030008F8
:1000D000030300080303000803030008C5300008F9
:1000E00003030008030300080303000803030008D8
:1000F00003030008012D00080303000803030008A0
:1001000003030008030300080303000803030008B7
:100110000303000803030008F52C0008030300088C
:100120000303000803030008030300080303000897
:100130000303000803030008030300080303000887
:10014000DD07000803030008030300080303000899
:100150000303000803030008BD09000803030008A7
:100160000303000803030008030300080303000857
:100170000303000803030008030300080000000055
:10018000030300080303000800F002F800F03CF845
:100190000AA090E8000C82448344AAF10107DA45E2
:1001A00001D100F031F8AFF2090EBAE80F0013F0F8
:1001B000010F18BFFB1A43F001031847A0450000C8
:1001C000C0450000103A24BF78C878C1FAD8520759
:1001D00024BF30C830C144BF04680C6070470000C1
:1001E0000023002400250026103A28BF78C1FBD840
:1001F000520728BF30C148BF0B6070471FB504F0DD
:100200006EFA1FBD10B510BD00F074F91146FFF76E
:10021000F5FF02F0ABFF00F092F903B4FFF7F2FF35
:1002200003BC00F095F900002C4B19680868B0E891
:10023000F04F80F30988BFF36F8F4FF0000080F319
:10024000118870470000000008480068006880F3CB
:1002500008884FF0000080F3148862B661B6BFF3DF
:100260004F8FBFF36F8F00DF00BF00BF08ED00E0CE
:10027000DFF80C00016841F470010160704700BFB5
:1002800088ED00E0EFF30980BFF36F8F134B1A681E
:100290001EF0100F08BF20ED108A20E9F04F10600B
:1002A00009B44FF0500080F31188BFF34F8FBFF3B4
:1002B0006F8F03F087FB4FF0000080F3118809BCBB
:1002C00019680868B0E8F04F1EF0100F08BFB0ECD6
:1002D000108A80F30988BFF36F8F70471C000020DD
:1002E000EFF3058070470000094880470948004740
:1002F000FEE7FEE7FEE7FEE7FEE7FEE7FEE7FEE7D6
:10030000FEE7FEE704480549054A064B7047000032
:10031000E52C00088901000838440020384A0020F4
:10032000384600203846002053EA020C00F069806D
:100330002DE9F04B4FF00006002B1FBFB3FA83F5F9
:1003400003FA05F424FA05F65E4012BF1643B2FA2A
:1003500082F502FA05F4C5F120051EBF22FA05FC5C
:1003600044EA0C04203556EA044C4FEA144418BF02
:10037000641C4FF000084FF00009904271EB030C31
:1003800039D3002919BFB1FA81F701FA07F6B0FA9B
:1003900080F700FA07F6C7F120071EBF20FA07FC16
:1003A00046EA0C062037B6FBF4FCA7EB0507103F26
:1003B00007F01F0BCBF120060CFA0BFB2CFA06F60C
:1003C00044BFB3460026202FA4BF5E464FF0000B6B
:1003D0005BEA060C08BF4FF0010B19EB0B09ABFBF6
:1003E000027C48EB0608C01B06FB02CC0BFB03CCCF
:1003F00071EB0C01C1E70B46024641464846BDE899
:10040000F08B13B54FF000004FF00001AFF3008008
:10041000BDE81C40704710B5203AC0F00B80B1E831
:100420001850203AA0E81850B1E81850A0E8185029
:10043000BFF4F5AF5FEA027C24BFB1E81850A0E832
:10044000185044BF18C918C0BDE810405FEA827C4C
:1004500024BF51F8043B40F8043B08BF7047D20763
:1004600028BF31F8023B48BF11F8012B28BF20F804
:10047000023B48BF00F8012B70474FF0000200B567
:10048000134694469646203922BFA0E80C50A0E8B7
:100490000C50B1F12001BFF4F7AF090728BFA0E865
:1004A0000C5048BF0CC05DF804EB890028BF40F831
:1004B000042B08BF704748BF20F8022B11F0804F73
:1004C00018BF00F8012B704770477047704710B590
:1004D00000F008F8006810BD10B5044600F002F8FE
:1004E000046010BD00487047D443002000487047A6
:1004F000D44300207546FFF7F9FFAE460500694674
:10050000534620F00700854618B020B5FFF7FAFEE5
:10051000BDE820404FF000064FF000074FF0000804
:100520004FF0000B21F00701AC46ACE8C009ACE885
:10053000C009ACE8C009ACE8C0098D46704710B5E9
:100540000446AFF300802046BDE81040FFF765BECB
:1005500001491820ABBEFEE72600020070470000EC
:100560002DE9F04104462DED068B0129017203D1DE
:1005700004F5C67080EC030A00297DD001297CD1E6
:10058000D4F8940104F03AF841EC180B9FED899BE4
:10059000B0EE490AF0EE690A02F0ABFDB0EE40AAF7
:1005A00094ED630AF0EE60AAD4ED640AB1EE400A5D
:1005B00030EE601A11EE100A04F020F853EC1A2BFA
:1005C00003F0A2FC53EC182B03F0F6FB03F0C2FB84
:1005D000C4F82E00D4F8940104F010F841EC180B84
:1005E000B0EE490AF0EE690A02F083FDB0EE40AACF
:1005F000F0EE60AAD4ED640A94ED630A30EEC01AFE
:1006000011EE100A03F0FAFF53EC1A2B03F07CFCF6
:1006100053EC182B03F0D0FB03F09CFBE067D4F8FD
:10062000940103F0EBFF41EC180BB0EE490AF0EE39
:10063000690A02F05EFDB0EE401AF0EE601A94ED29
:10064000630AD4ED640AB0EE41AAF0EE61AA30EE7E
:10065000200A10EE100A03F0D1FF53EC1A2B03F01E
:1006600053FC53EC182B03F0A7FB03F073FBC4F807
:10067000CA00D4F8940101E051E097E003F0BEFF16
:1006800041EC180BB0EE490AF0EE690A02F031FDB8
:10069000B0EE409AF0EE609A94ED630AD4ED640AED
:1006A00030EE600A10EE100A03F0A8FF53EC192B8D
:1006B00003F02AFC53EC182B03F07EFB03F04AFBFB
:1006C0000025C4F8180100BFC5EBC50000EB4510BC
:1006D00004EB4000D0F82E10193000EE901A05EB14
:1006E000850104EB4101B1F9561100EE101AB8EE84
:1006F000C00A02F057F96D1CEDB2042DE4D304F1E9
:1007000011010D46204603F003F8BDEC068B2A4686
:100710000023BDE8F0412949294800F0BCB9B4F9EB
:100720005601B4F96011B4F974210844B4F96A119E
:1007300004F5AA7411444618304603F03DFD0F46F7
:1007400047EC100B9FED1F9B054653EC192B51EC0A
:10075000100B03F0D9FB03F0FDFA08EE100A47EC8A
:10076000105B84ED0A8A53EC192B51EC100B03F04B
:10077000CBFB03F0EFFA00EE906A00EE100AF8EE01
:10078000E00A84ED0B0AC4ED0C0A68EE080A40EE9C
:10079000000A10EE900A03F031FF41EC100B02F05A
:1007A000A8FC51EC100B03F0D5FA6063BDEC068B8E
:1007B000BDE8F0810000000000000040B406002009
:1007C00084040020516B9A779CA2F63FFEE700005C
:1007D000014800F0CABA000084040020014800F07B
:1007E000C4BA0000AC04002070B504462DED048BA3
:1007F00013460846C4E900120222194600F062F8C6
:100800009FED178ADFED178A9FED179ADFED179A94
:10081000002500BFC5EBC50000EB451004EB400010
:10082000B0EE482AF0EE681AB0EE491AF0EE690A06
:10083000B7EE000A0021193002F0FEFC6D1CEDB28B
:10084000042DE7D39FED0A0A84ED630A84ED640A60
:100850009FED080A84ED650ABDEC048B70BD0000B5
:1008600000007A4400008046CDCCCC3DCDCC4C3D40
:10087000000000000000FA4410B501212DED028BAC
:100880009FED0D8ADFED0D8A0D48B0EE481AF0EEAF
:10089000480AB0EE680AFFF763FEB0EE481AF0EEC1
:1008A000480AB0EE680ABDEC028B0021BDE810409A
:1008B0000348FFF755BE0000000000000000FA44A6
:1008C000840000202DE9F74F0D46364901240E27FC
:1008D0008AB080464FF0080B4FF488764FF000093D
:1008E0004FF4007A884229D12F4A51464846C2F82F
:1008F00000A0C2F80890C2E9039B15B1012D08D0F1
:100900001CE0CDE906040091CDE90160039004905C
:1009100006E0CDE906040091CDE90160CDE90304CC
:10092000CDE9084705906946404600F01DF940466C
:1009300000F09EFC40460C9900F09BF81B4988454E
:1009400022D1194A514618324846C2F800A0C2F8CE
:100950000890C2E9039B1B22CDB1012D14D1CDE932
:1009600006040091CDE90160CDE9030469460597CD
:10097000CDE90842404600F0F7F8404600F078FC28
:1009800040460C9900F075F80DB0BDE8F08FCDE948
:1009900006040091CDE90160CDE9040769460390A2
:1009A000E6E7000084040020B4060020AC04002028
:1009B000014800F0EBBC00000C060020014800F0EC
:1009C000E5BC0000AC05002001681823CAB2103A4B
:1009D000B2FBF3F2054B6FF30901032A9B5CC3657D
:1009E00000D9091D81650846704700002C470008A2
:1009F00010B5014600208B698A6A4FF0C07453B16C
:100A0000B3F5005F15D072B1012A0CD0022A0AD0CA
:100A1000032A09D104E01AB1012A06D0022A03D11F
:100A2000C96AC90100D5012010BDC96AA142FAD026
:100A300010BD002AF7D0012AF2D0022AF3D0032AEF
:100A4000F3D010BD30B50468256825F480252560F5
:100A5000046863608368402B036803D09960006872
:100A6000C26030BD9A600068C16030BD704772B628
:100A7000FEE790F82020012A07D0022A05D0416A1B
:100A800041F48021416201207047006842690A43B5
:100A9000426100207047F0B590F820500468A468C7
:100AA000012D05D0022D03D0416A41F4802157E089
:100AB00014F0406F01D1E5004FD5C4F30164012566
:100AC000A5401D608D684FF4C0739DB1CE6835435D
:100AD0004E6845EAC605066803EB0417F5514FF466
:100AE000C275076805EB04150E697E51097D012961
:100AF00005D009E00E88CD6845EA4655EBE7016868
:100B00004E5946F480764E511179D579567941EA9D
:100B1000056195792D0445EA062529434FF4C676EB
:100B2000056806EB0416A9511178D57841EA0561EC
:100B3000957852782D0445EA022211434FF4C4758A
:100B4000026805EB04155151006803EB041142588B
:100B500042F0010242500020F0BD416A41F4001110
:100B600041620120F0BD000010B590F82020012A5C
:100B700007D0022A05D0416A41F480214162012058
:100B800010BD3B48D0F8002242F00102C0F800221C
:100B9000D0F8002222F47C52C0F80022D0F80022C3
:100BA0004B6A42EA0322C0F800220A7D02F01F03CA
:100BB00001229A40D0F81C329343C0F81C32CB6912
:100BC000B3B9D0F80C329343C0F80C328C894B681F
:100BD00064F31F434C6900EBC404C4F840320C8931
:100BE0000B6864F31F434C6900EBC404C4F844323F
:100BF000CB69012B16D1D0F80C321343C0F80C325C
:100C00000C884B6864F31F434C6900EBC404C4F8C0
:100C100040320C89CB6864F31F434C6900EBC40479
:100C2000C4F844328B69002BD0F804320ED0134341
:100C3000C0F804320B69002BD0F8143208D01343EB
:100C4000C0F81432096A012904D008E09343EFE7A1
:100C50009343F5E7D0F81C121143C0F81C12D0F8EA
:100C6000001221F00101C0F80012002010BD0000A8
:100C700000640040704770B590F82040012C05D00A
:100C8000022C03D0416A41F4802128E0046809B3B2
:100C90002469A40720D04FF4D874056804EB01142C
:100CA0002D5915F00405956005682D591AD0ED08E9
:100CB000556005682C5904F00204D4604FF4DA74CE
:100CC000056804EB01142E5906F00F06082E0CD30C
:100CD00008250DE0E468DCE7416A41F40011416257
:100CE000012070BD6D0D1560E3E72D5905F00F056E
:100CF000156105682D59C5F30725956105682C59BF
:100D0000240C54614FF4DC72046802EB0112A45805
:100D10001C700468A458240A5C700468A458240C4D
:100D20009C700468A258120EDA704FF4DE720468E8
:100D300002EB0112A4581C710468A458240A5C71C7
:100D40000468A458240C9C710468A258120EDA712D
:100D5000006829B1016941F020010161002070BDE6
:100D6000C16841F02001C160F8E72DE9F05F054658
:100D7000006800244669D0F804908768D0F80CB069
:100D8000D0F810A0D0F81880F10748D0F90714D097
:100D900001218160B80703D5284600F096FA0CE0DF
:100DA000780702D54FF4006407E0380702D54FF406
:100DB000805402E0284600F087FAF80516D5296825
:100DC0004FF480708860B80503D5284600F07FFA9C
:100DD0000CE0780502D544F4005407E0380502D54C
:100DE00044F4804402E0284600F070FAF80316D577
:100DF00029684FF480308860B80303D5284600F096
:100E000068FA0CE0780302D544F4004407E03803A4
:100E100002D544F4803402E0284600F059FA300745
:100E200007D55FEACB6004D52968102044F400742C
:100E3000C86070074FF0080707D55FEA0B7004D54C
:100E40002868C760284600F099F9B00706D52868D9
:100E5000C068800702D0284600F092F9700607D5D6
:100E60005FEACA6004D52968102044F480640861F0
:100E7000B00607D55FEA0A7004D5286807612846DE
:100E800000F0F2F9F00606D528680069800702D064
:100E9000284600F0EAF9B00308D55FEAC96005D535
:100EA000296810204860284600F0E0F9F00307D5D3
:100EB0005FEA097004D528684760284600F00AFAFE
:100EC000300446D55FEA497040D5F00504D55FEAA5
:100ED000C87001D044F00104B00504D55FEA887001
:100EE00001D544F00204700504D55FEA487001D5CD
:100EF00044F00404300529D518F0700F26D008F00E
:100F00007000402815D006DC102809D020280AD00F
:100F1000302816D10AE050280ED0602811D10EE0FA
:100F200044F008040DE044F010040AE044F020040A
:100F300007E044F0400404E044F0800401E044F49D
:100F400080742868816921F070018161296804201A
:100F50004860002C05D0686A204368622846FFF785
:100F600089FEBDE8F09F70B5040003D094F820001E
:100F700010B104E0012070BD204600F081F8206827
:100F8000016841F00101016000F070FC0546052692
:100F900004E000F06BFC401B0A2811D82068406870
:100FA000C007F6D02068016821F00201016000F05E
:100FB0005DFC05460BE000F059FC401B0A2806D9F1
:100FC000606A40F40030606284F82060D2E72068F4
:100FD00040688007EFD4207E0128206801683DD05A
:100FE00021F080010160607E01282068016838D00E
:100FF00021F040010160A07E01282068016833D003
:1010000021F020010160E07E0128206801682ED0D7
:1010100041F010010160207F01282068016829D07B
:1010200021F008010160607F01282068016824D058
:1010300021F004010160D4E902010843D4E904125B
:10104000114308436168491E08432168C8610020B4
:101050006062012084F82000002070BD41F0800112
:10106000C0E741F04001C5E741F02001CAE721F0A7
:101070001001CFE741F00801D4E741F00401D9E7BE
:10108000F0B587B0044614216846FFF7F6F9364BF1
:101090003648DFF8D0E01968D4F800C0334A032599
:1010A0000226092710300024491CF44522D119607A
:1010B000012907D1016841F000710160006800F06A
:1010C00000700590106840F0080010601068CDE9CD
:1010D000005600F00800CDE9047069462448CDE9C7
:1010E000024500F0C5FA00220521142000F05CFC46
:1010F000142033E0DFF87CE0F44531D1D0F800C0B3
:101100004CF0806CC0F800C0D0F800C001290CF091
:10111000806CCDF814C0196007D1016841F00071EE
:101120000160006800F000700590106840F0020057
:101130001060106802AB00F00200059042F220003F
:10114000CDE9000683E8B00069460B4800F090FA4C
:1011500000220521402000F027FC402000F016FC72
:1011600007B0F0BD006400400800002030380240A5
:10117000000C02400068004000040240704700007C
:1011800000B587B0364B6A4600213648FFF773FD3D
:10119000334800990938A1F50071013906D00129B9
:1011A00019D002292CD0032953D13EE0B0F85411B4
:1011B000A0F8521130F8091F49BAA0F84B11418824
:1011C00049BAA0F84D11818849BAA0F84F11817928
:1011D000A0F851113DE0B0F85E11A0F85C1130F8B4
:1011E000091F49BAA0F85511418849BAA0F857110A
:1011F000818849BAA0F859118179A0F85B1128E0DB
:10120000B0F86811A0F8661130F8091F49BAA0F8C3
:101210005F11418849BAA0F86111818849BAA0F8E4
:1012200063118179A0F8651113E0B0F87211A0F88C
:10123000701130F8091F49BAA0F86911418849BAFC
:10124000A0F86B11818849BAA0F86D118179A0F8D6
:101250006F1102210348FFF70CFC07B000BD00002E
:101260008D00002084040020704770477047000004
:1012700070B5044690F82000012804D0606A40F45C
:101280000020606218E0022084F8200020680168D5
:1012900021F00101016000F0E9FA05460EE000BF0F
:1012A00000F0E4FA401B0A2808D9606A40F40030D4
:1012B0006062052084F82000012070BD206840682D
:1012C000C007EDD1606270BD7047704770477047CE
:1012D0007047704770472DE9F0410446876D00F074
:1012E000C5FA064694F835000025022806D080206D
:1012F000606584F834500120BDE8F0812068016801
:1013000021F0160101602068416921F080014161EE
:10131000206C08B9A06C20B12068016821F0080198
:1013200001602068016821F0010101600CE000F01B
:101330009DFA801B052807D920206065032084F8CA
:10134000350084F83450D7E720680068C007EED134
:1013500094F85C103F208840B860012084F8350084
:1013600084F834500020C7E790F83510022903D0E4
:101370008021416501207047052180F83510006803
:10138000016821F001010160002070472DE9F84358
:1013900004464FF00009CDF8009063484FF4165111
:1013A000A56D0068B0FBF1F72E6894F85C1008207A
:1013B00000FA01F131420FD021680A6852070BD5BB
:1013C0000A6822F004020A6094F85C108840A86061
:1013D000606D40F00100606594F85C104FF001080A
:1013E00008FA01F0304208D021684969090604D59D
:1013F000A860606D40F00200606594F85C10042005
:101400008840304208D021680968890704D5A8605F
:10141000606D40F00400606594F85C101020884016
:10142000304218D021680968090714D5A8602068DF
:101430000168490304D50068000308D5A16C07E0E2
:101440000168C90503D4016821F008010160216C1D
:1014500009B12046884794F85C102020884030422B
:1014600031D021680968C9062DD5A86094F83500E7
:1014700005282068016806D0490347D500680003A5
:101480001DD4616C1CE021F01601016020684169E7
:1014900021F080014161206C08B9A06C20B1206866
:1014A000016821F00801016094F85C103F20884039
:1014B000A86084F8358084F83490216D1FE0E16BDA
:1014C00009B120468847606D00282BD0606DC007A9
:1014D00014D0052084F835002068016821F001014E
:1014E00001600098401C0090B84203D82068006852
:1014F000C007F6D184F8358084F83490E16C002977
:1015000010D001B02046BDE8F04308470168C90586
:10151000D5D4016821F01001016084F8358084F889
:101520003490CCE7BDE8F883180000202DE9F041A5
:10153000044600F09BF906465CB1022084F83500B1
:10154000002584F834502068016821F00101016011
:101550000DE00120BDE8F08100F088F9801B05282E
:1015600005D920206065032084F83500F2E7206863
:101570000068C007F0D12268116820480140D4E912
:1015800001031843D4E9033633431843636918430E
:10159000A3691843E3691843236A18430843616A3F
:1015A000042903D1D4E90B131943084310602068C0
:1015B0004069666A20F0070130460E43012704287F
:1015C0000CD1A06A0643E06A40B12046FFF710FA4A
:1015D00020B14020606584F83570BAE72068466124
:1015E0002046FFF7F1F994F85C203F21914081609B
:1015F000656584F835700020ACE700003F8010F08E
:101600002DE9F0410446866D90F83400002501284C
:101610000DD0012084F8340094F835700020012F9B
:1016200007D084F8340002252846BDE8F081022066
:10163000FBE7022784F8357060652046FFF702FA61
:1016400094F85C103F208840B0602068016841F049
:1016500016010160206C20B12068016841F008018A
:1016600001602068016841F001010160DCE70000D1
:101670002DE9F84FDFF8BCA10022012503264FF029
:101680000F090AF1040BAAF1040E00BF0B6805FA5A
:1016900002F42340A34270D10F7907F00307012F12
:1016A00001D0022F16D187684FEA420806FA08FCDB
:1016B00027EA0C07D1F80CC00CFA08FC4CEA070C1E
:1016C000C0F808C04768A7430C79C4F300149440DD
:1016D0003C4344600C79E443A4070AD0C4684FEA51
:1016E000420C06FA0CF7BC438F6807FA0CF7274345
:1016F000C7600C7904F00304022C12D1D40800EB6B
:10170000840CDCF820405707FF0E09FA07F824EA9A
:101710000804D1F8108008FA07F848EA0408CCF861
:10172000208004684FEA420C06FA0CF7BC430F799C
:1017300007F0030707FA0CF7274307604C6814F417
:10174000403F70D03C4C276847F4804727602468AE
:1017500022F0030704F480440094384C07EB040C97
:10176000DCF8084897074FEA177809FA08F7BC43EE
:10177000334FB84202D1002724E054E0314FB84241
:1017800001D101271EE0304FB84201D1022719E0F4
:101790002E4FB84201D1032714E02D4FB84201D19A
:1017A00004270FE02B4FB84201D105270AE02A4F4A
:1017B000B84201D1062705E0284FB84201D10727DA
:1017C00000E0082707FA08F72743CCF80878DAF88A
:1017D00000405746D1F804C09C435FEACC2C00D5AA
:1017E0001C433C60DBF800405F46D1F804C09C43DA
:1017F0005FEA8C2C00D51C433C60DEF80040774645
:10180000D1F804C09C435FEA8C3C00D51C433C608B
:10181000084F083F3C68D1F804C09C435FEACC3CC9
:1018200000D51C433C60521C102AFFF42FAFBDE8CA
:10183000F88F0000083C014044380240003001406D
:10184000000002400004024000080240000C024078
:10185000001002400014024000180240001C024028
:101860000AB1816170470904FBE700000148806804
:10187000704700000C000020024881680278114483
:10188000816070470C0000200B4810B5016841F4DE
:1018900000710160016841F480610160016841F4F8
:1018A00080710160032000F09FF80F2000F006F81F
:1018B00000F050F8002010BD003C024030B5054655
:1018C0001F4887B00024016841F4807101600068FE
:1018D00006A900F48070009001A800F031F9049886
:1018E000A8B100F04DF940001649174AB0FBF1F1DC
:1018F0001648491E026040F2E732C0E90324C0E9FD
:101900000114846100F08EFB040003D015E000F0A8
:1019100037F9E9E70D4800F0D1FB04000DD12D2087
:1019200000F034F8102D07D2002229462D2000F0B7
:101930003BF80748056000E0012407B0204630BDB1
:101940004038024040420F00002000406C0600205A
:10195000100000200C4882B0016841F48041016011
:10196000006800F4804000900748001F016841F0C3
:10197000805101600068002200F0805000900F212B
:10198000901E02B000F010B844380240002809DB75
:1019900000F01F02012191404009800000F1E02089
:1019A000C0F8001170470000F0B40E4B1B680C46E5
:1019B000C3F30223C3F10705042D00D90425191D23
:1019C000072901D2002300E0DB1E012606FA05F1FB
:1019D000491E214099409E40761E16403143F0BC7E
:1019E00001F077BB0CED00E0064900F00702086843
:1019F0004FF6FF03184040EA0220034A10430860F4
:101A0000704700000CED00E00000FA052DE9F047FA
:101A10000E46050065D0DFF81481D8F80000F7B253
:101A200000F00700B04207D288F80070D8F8000034
:101A300000F00700B04254D128683D4C810712D510
:101A4000400703D5206840F4E05020602878000764
:101A500003D5206840F4604020602068A96820F029
:101A6000F000084320602878C0072DD0304968680E
:101A70000839012812D0022813D0032811D0096890
:101A8000890700292DDA216821F003010143216033
:101A9000FFF7ECFE814641F2883A0EE009688903BF
:101AA000EFE709688901ECE7FFF7E0FEA0EB090129
:101AB000514502D90320BDE8F0872068696800F02D
:101AC0000C00B0EB810FEFD1D8F80010404601F0C8
:101AD0000701B14207D90770006800F00700B04263
:101AE00001D00120E7E72878400705D52068E9689C
:101AF00020F4E050084320602878000706D52068CD
:101B0000296920F4604040EAC100206000F058F8E4
:101B10002168084AC1F30311515CC84006490860B6
:101B200006480068FFF7CAFE0020C4E7003C0240F8
:101B30000838024034470008180000201000002038
:101B40000F2202600C4A136803F00303436013681A
:101B500003F0F0038360136803F4E053C36012687A
:101B60004FF4E05303EAD20202610448006800F037
:101B7000070008607047000008380240003C02403F
:101B80000448054900680968044AC1F38221515C90
:101B9000C840704718000020083802404447000839
:101BA0000448054900680968044AC1F34231515CA0
:101BB000C840704718000020083802404447000819
:101BC000154810B5006810F00C02144813D01449E1
:101BD000042A0FD0082A0ED10F4C241F2268236834
:101BE00002F03F025B0207D52068C0F38810A0FB1B
:101BF000010106E0084610BD2168C1F38811A1FB70
:101C000000010023FEF790FB2168C1F30141491C4C
:101C10004900B0FBF1F010BD083802400024F40088
:101C2000001BB7002DE9F84F04006ED02078DFF8D4
:101C30004C93C007A9F104054AD009F104000168DA
:101C4000C1F38101012908D00068C0F38100022896
:101C50000AD1D9F80000400206D52868800337D59C
:101C600060680028E1D033E06068B0F5803F10D0B4
:101C7000B0F5A02F286810D020F4803028602868A4
:101C800020F4802028606068A8B1FFF7EFFD0646C9
:101C90000DE0286840F48030F4E740F480202860AC
:101CA000F7E700BFFFF7E2FD801B642873D82868C0
:101CB0008003F7D50CE0FFF7D9FD064605E000BF2D
:101CC000FFF7D4FD801B6428F0D828688003F7D480
:101CD0002078DFF8AC8280074FF0000A3ED5A74895
:101CE000001D016811F00C0F08D00068C0F38100DE
:101CF00002280BD1D9F80000400207D428688007D9
:101D000016D5E068012800D112E033E1E068B8B1EF
:101D10000120C8F80000FFF7A9FD064605E000BF56
:101D2000FFF7A4FD801B0228C0D828688007F7D5DC
:101D30002868216920F0F80040EAC10028600DE021
:101D4000C8F800A0FFF792FD064604E0FFF78EFDFD
:101D5000801B02281FD828688007F7D42078000746
:101D600022D5864F87486169703771B101210160C2
:101D7000FFF77CFD064604E0FFF778FD801B022894
:101D800009D838688007F7D50EE0C0F800A0FFF743
:101D90006DFD064605E082E0FFF768FD801B022826
:101DA0007DD838688007F7D42078400768D5DFF8F9
:101DB000CCB100270BF13C0BDBF80000C0000BD4CA
:101DC000DBF8001041F08051CBF80010DBF8000088
:101DD000012700F0805000906B4E3068C00510D491
:101DE000306840F480703060FFF740FD009005E0FF
:101DF000FFF73CFD0099401A022850D83068C00512
:101E0000F6D55E4EA0686C3601280FD005283068E4
:101E100010D020F001003060306820F00400306005
:101E2000A068B8B1FFF722FD00900FE0306840F0E5
:101E30000100F4E740F004003060F7E7FFF716FD1B
:101E40000099411A41F28830814266D83068800793
:101E5000F4D50EE0FFF70AFD009007E0FFF706FD5E
:101E60000099411A41F28830814256D83068800783
:101E7000F4D42FB1DBF8001021F08051CBF8001022
:101E8000A069C8B33D49091D0968C1F38101022950
:101E90004AD00228504607D0C8F8600000E03CE075
:101EA000FFF7E4FC04463BE04746C8F86000FFF754
:101EB000DDFC064605E000BFFFF7D8FC801B0228CA
:101EC0002BD828688001F7D4D4E907010843A16A18
:101ED0002E4A490802EB0141626A41EA8211084335
:101EE00094F82C1040EA0161C9F80010012038660E
:101EF000FFF7BCFC044606E03EE000BFFFF7B6FC7F
:101F0000001B022809D828688001F7D534E000BFFB
:101F1000FFF7ACFC001B022802D90320BDE8F88FB4
:101F200028688001F4D427E00128F7D0D9F8000010
:101F3000E26900F4800191421CD1226A00F03F0165
:101F4000914217D147F6C071626A0140B1EB821F1E
:101F500010D1A26A4FF0FF3300F4403103EB52027C
:101F6000B1EB024F06D194F82C1000F07060B0EB8A
:101F7000016F01D00120D1E70020CFE704380240F3
:101F800000004742800E4742007000400000FFFF03
:101F90007047704770B590F83C20012A32D0012478
:101FA00080F83C40022280F83D2003685A689D6812
:101FB00022F070060A6832435A60134B02689A4254
:101FC00014D0B2F1804F11D0104B9A420ED0104B6A
:101FD0009A420BD00F4B9A4208D00F4B9A4205D031
:101FE0000E4B9A4202D00E4B9A4204D1496825F01A
:101FF00080031943916080F83D40002180F83C1037
:10200000084670BD022070BD000001400004004081
:1020100000080040000C0040000401400040014066
:102020000018004010B5040003D094F83D0010B132
:1020300007E0012010BD002084F83C00204600F09D
:102040001FF8022084F83D00211D206800F05EFE8C
:10205000012084F8460084F83E0084F83F0084F8AC
:10206000400084F8410084F8420084F8430084F87A
:10207000440084F8450084F83D00002010BD0000B5
:1020800008B500680B49884212D10B48016841F03D
:10209000100101600068002200F01000009005218E
:1020A0003620FFF781FCBDE808403620FFF76EBC04
:1020B00008BD0000001000404038024090F83D107C
:1020C000012901D001207047022180F83D100168EC
:1020D000CA6842F00102CA6000681149884214D0FF
:1020E000B0F1804F11D00F4988420ED00E4988427E
:1020F0000BD00E49884208D00D49884205D00D49C1
:10210000884202D00C49884204D1816801F007015D
:10211000062903D0016841F00101016000207047E9
:10212000000001400004004000080040000C004096
:1021300000040140004001400018004070472DE9B4
:10214000F04104460068C66805694FF00007A9071A
:1021500013D5B10711D5F91E016101202077206840
:1021600080698007204602D0FFF7E8FF04E000F016
:102170007EF8204600F07CF82777680716D57007B0
:1021800014D521686FF004000861022020772068D0
:10219000806910F4407F204602D0FFF7CFFF04E0B3
:1021A00000F065F8204600F063F82777280715D57A
:1021B000300713D521686FF00800086104202077EC
:1021C0002068C0698007204602D0FFF7B7FF04E00F
:1021D00000F04DF8204600F04BF82777E80616D5BA
:1021E000F00614D521686FF01000086108202077F0
:1021F0002068C06910F4407F204602D0FFF79EFFA0
:1022000004E000F034F8204600F032F82777E807C1
:1022100008D0F00706D021686FF001000861204661
:1022200000F028F8280608D5300606D521686FF09A
:10223000800008612046FFF7ABFE680608D57006EF
:1022400006D521686FF040000861204600F01CF8B8
:10225000A8060AD5B00608D521686FF020000861ED
:102260002046BDE8F041FFF794BEBDE8F08170471D
:102270007047000000680349884201D1FFF7FCBAAB
:102280007047000000200040704770477047000012
:10229000F8B5016804460868CA684B6910F00F0F6A
:1022A0004FF0000559D003F0010602F49077374350
:1022B00065D0C10705D0D10503D5616C41F001019E
:1022C0006164410705D5D90703D0616C41F0020173
:1022D0006164810705D5D90703D0616C41F0040121
:1022E0006164010707D502F02001314303D0616C1E
:1022F00041F008016164616C00293AD0800604D580
:10230000900602D5204600F0F5FD20684069616C1A
:10231000C0F38010090700D460B3204600F0B5FD7B
:1023200020684069400621D52068143050E8001F1D
:1023300021F0400140E80012002AF5D1E06BA8B17D
:102340006E490165E06BFFF70FF8002811D0E06BD4
:10235000016D01B0BDE8F040084783060FD5930634
:102360000DD52046BDE8F84000F0C4BD2046FFF77B
:102370008DFFF8BD2046FFF789FF6564F8BD266B29
:102380002023012E7DD1C6067BD5D60679D50868D7
:102390004868009048694FF00206400641D5E16B5D
:1023A000086840680004000CE8D0A28D8242E5D99C
:1023B000E085C869B0F5807F2DD020680C3050E8EA
:1023C000001F21F4807140E80012002AF5D1206836
:1023D000143050E8001F21F0010140E80012002AEB
:1023E000F5D12068143050E8001F21F0400140E88A
:1023F0000012002AF5D184F84230256320680C30A1
:1024000050E8001F21F0100140E80012002AF5D129
:10241000E06BFEF760FF6663A08DE18D401A81B22C
:102420002AE0A08DE18D401A81B2E08D0028A5D070
:102430000029A3D022680C3252E8000F20F49070DB
:1024400042E80007002FF5D12068143050E8002F33
:1024500022F0010240E80027002FF5D184F8423035
:10246000256320680C3050E8002F22F0100240E86D
:102470000023002BF5D166632046FFF706FFF8BD69
:10248000FFE705062BD5150629D594F8410021282C
:10249000F5D1A068B0F5805F01D12069B0B1206AA4
:1024A000411C2162216800784860E08C401E0004D5
:1024B000000CE084E3D12068C16821F08001C16094
:1024C0002068C16841F04001C160D8E7206A0088F7
:1024D000C0F308004860206A801C2062E5E74006DF
:1024E000CDD55006CBD5CA68204622F04002CA603E
:1024F00084F8413000F01CF9C1E70000E52D000828
:1025000070B5040004D094F84100002510B106E035
:10251000012070BD84F84050204600F023F82420AC
:1025200084F841002068C16821F40051C160204650
:1025300000F042FD2068016921F4904101612068AA
:10254000416921F02A0141612068C16841F40051CC
:10255000C1606564202084F8410084F8420065630E
:10256000002070BD2DE9F04186B006461421684672
:10257000FDF783FFDFF808C10222316800244148DB
:102580000323072597064FF48068614534D13D4900
:102590001431D1F800C04CF0100CC1F800C009682B
:1025A00001F010010591016841F00201016000682D
:1025B000694600F002000590C0208DE81500CDE9C5
:1025C00003353148FFF754F8314D3048E5E802074C
:1025D0004020A5E811012E4845F81449AC61EC6192
:1025E0002C626C62FEF7A2FF08B1FEF740FAB563F9
:1025F000AE6306B0BDE8F081DFF898C06145F8D160
:1026000020491031D1F800C04CF4802CC1F800C032
:10261000096801F480210591016841F0040101601D
:102620000068694600F0040005904FF440608DE8B2
:102630001500CDE903351848FFF71AF8144D17486F
:1026400060352860C5E90174C5E9034880156C61EF
:10265000C5E906404FF44030C5E908042846FEF7B6
:1026600065FF08B1FEF703FAF56300220521272074
:10267000AE63FFF799F92720FFF788F9B9E7000063
:10268000001001403038024000040240B8640240AB
:10269000AC050020004800400008024028600240CD
:1026A0000349884203D10349014800F0DFBD704768
:1026B0001C0500208400002070B5044690F84100FD
:1026C000202801D0022070BD49B342B32162A28408
:1026D000E28400206064212384F84130A56B114B13
:1026E000EB63A56B104B2B64A56B104BEB64A36BDA
:1026F0001865256813462A1DA06BFEF781FF216827
:102700006FF0400008602068143050E8001F41F06E
:10271000800140E80012002AF5D1002070BD0120A0
:1027200070BD00003F2E0008812E0008F52D000826
:1027300070477047FEE700000F4810B50D49016073
:102740000321416000214FF400228160C0E903129F
:102750004FF440124261017641768176C17601776D
:102760004177FEF700FC002803D0BDE81040FEF7DB
:102770007EB910BD00640040840400200F4810B5ED
:102780000D4901600321416000214FF40022816066
:10279000C0E903124FF4401242610176417681761E
:1027A000C17601774177FEF7DEFB002803D0BDE854
:1027B0001040FEF75CB910BD00680040AC0400207A
:1027C000114808B5016841F400110160016801F485
:1027D00000110091016841F480010160006800224D
:1027E00000F48000009005210C20FFF7DDF80C209C
:1027F000FFF7CCF8002205214620FFF7D5F8BDE809
:1028000008404620FFF7C2B83038024010B58EB0FD
:102810001C220B496846FDF7FEFD0021684600F0CA
:10282000E1FC084C06491C2220601C3107A8FDF77A
:10283000F2FD002107A800F0D5FC60600EB010BDCD
:10284000F44600080000002030B587B01421684627
:10285000FDF713FE21480024016841F002010160E8
:10286000016801F002010591016841F00101016078
:10287000016801F001010591016841F00801016062
:10288000016801F008010591016841F0040101604F
:10289000016801F004010591016841F080010160C7
:1028A000016801F080010591016841F0200101609B
:1028B00000680B4D00F02000059000221E212846E4
:1028C000FEF7CEFF1E2000900120CDE901046946ED
:1028D00028460394FEF7CCFE07B030BD30380240E6
:1028E000001402401CB500240E4800940C490194C9
:1028F0000160A721C0E9011440F2E7318461C160A1
:10290000FFF790FB08B1FEF7B2F80094694605485E
:102910000194FFF73FFB002801D0FEF7A8F81CBD8B
:1029200000100040D40400200C4810B50A49016092
:102930004FF4E1314160002181600C22C160C0E9A7
:1029400004128161C161FFF7DBFD002803D0BDE8FF
:102950001040FEF78CB810BD001001401C0500208F
:102960000D4810B50B4901600C49416000214FF43E
:1029700080628160C0E903120C22C0E90521C161B7
:10298000FFF7BEFD002803D0BDE81040FEF76FB88A
:1029900010BD00000048004064050020A086010032
:1029A000FEE7FEE770B5D0B1D0F83D20C0F8412079
:1029B000D0F8393010EE901AC0F83D30C0F815103C
:1029C00010EE101A30EEC00AC0F8191010EE101AEE
:1029D000C0F8391004782CB1012C6FD179E09FED4B
:1029E0006C0A70BD50F8012F00EE101A00EE902A0C
:1029F00020EE800A00EE901A10EE104A0462426A3D
:102A000000EE102A426801EE102A01EE200A00EEC4
:102A1000903A10EE102A00EE101A4262056B30EE6A
:102A2000600A4563C56A10EE101A0563C1628368C7
:102A300000EE101A00EE903A20EE800A10EE103AE6
:102A400000EE102A83620169401E00EE901AB4EE77
:102A5000E00AF1EE10FA02DDC0F8251011E000EEF8
:102A6000901A00EE102AF1EE600AB4EEE00AF1EEE0
:102A700010FA06D200EE101AB1EE400A10EE101A4B
:102A8000EAE7D0F8251000EE104A00EE901A70EE3A
:102A9000200A00EE103A30EE800A10EE102AC0F83C
:102AA0001D2000EE102AD0F80D1000BF00EE901A85
:102AB000B4EEE00AF1EE10FA08DC59E063E000BF82
:102AC00000EE101AB1EE400A10EE101AC0F81D10F8
:102AD00059E000EE101A00EE903A50F8014FB0EEB7
:102AE000001A70EE600A00EE104A20EE800A10EE26
:102AF000104A00EE101A0462456800EE905A60EE2B
:102B0000800A00EE101A10EE905A00EE903A4562DC
:102B1000066B00EEC10A00EE902A4663C66A0663A1
:102B200030EE200A10EE101AC162826800EE101A10
:102B300000EE902A20EE800A00EE905A10EE101A55
:102B400000EE104A816270EE200A00EE101A50F872
:102B50001C1F70EE800A00EE101A30EE800A10EE94
:102B6000102A40F8102900EE102A50F80D199DE7A0
:102B700000EE901A00EE102AF1EE600AB4EEE00AC0
:102B8000F1EE10FA9CD3D0F81D0000EE100A70BDD3
:102B90000000000000281BD00021C0F84110C0F840
:102BA0003D10C0F83910C0F83510C0F83110C0F829
:102BB0002D10C0F82910C0F82510C0F82110C0F859
:102BC0001D1040F8151F416080F838100163416303
:102BD000704700281AD0002A18D000F8011B11688D
:102BE0000160516841609168816010EE101AC16007
:102BF00010EE901A0161002141630163C162C1615D
:102C00008162416201620164C16381637047FDF7C3
:102C100033FE012000F0DAFAF9E7012000F0D6FADD
:102C2000FBE7000010B5502080F31188BFF34F8FF1
:102C3000BFF36F8F00F0C6FF18B104494FF080500A
:102C40000860002080F3118810BD000004ED00E052
:102C500030B593B030216846FDF70FFC14210CA865
:102C6000FDF70BFC1D480025016841F08051016013
:102C7000006800F0805011901948016841F48041CB
:102C800001600068022400F480401190012000904F
:102C9000000401908001CDE9064006200890A8209C
:102CA000CDE9090404200B906846FEF7BBFF08B18C
:102CB00072B6FEE70CA90F2081E831004FF4A05056
:102CC0000F904FF48050109005210CA8FEF79EFE47
:102CD000002801D072B6FEE713B030BD4038024084
:102CE000007000400248016841F4700101607047C3
:102CF00088ED00E00148FFF722BA0000D40400206C
:102D00000148FFF71CBA00006C060020F0B502680D
:102D1000294C2A4D2A4E2B4F2B4B4FF0804CA04272
:102D200009D0604507D0A84205D0B04203D0B842D0
:102D300001D0984204D122F0700E4A6842EA0E0295
:102D4000A0421BD0604519D0A84217D0B04215D080
:102D5000B84213D0984211D01C4DA8420ED01C4D41
:102D6000A8420BD01B4DA84208D01B4DA84205D04D
:102D70001A4DA84202D01A4DA84203D122F4407540
:102D8000CA682A434D6922F080022A4302608A6899
:102D9000C2620A688262A04201D0984201D10969E8
:102DA0000163012141610169C90703D0016921F073
:102DB00001010161F0BD000000000140000400407D
:102DC00000080040000C00400004014000400140A9
:102DD000004401400048014000180040001C004031
:102DE0000020004010B5806B0021C185C184FFF731
:102DF0004DFA10BD70B5846B2068406994F841109D
:102E0000C0F3C0100025212904D118B1E584204663
:102E100000F062F82068406994F84210C0F3801016
:102E2000222904D118B1E585204600F02EF8606C07
:102E300040F0100060642046FFF728FA70BD10B51E
:102E40000146806B09680968C90516D40021C18450
:102E50000168143151E8002F22F0800241E800237C
:102E6000002BF5D101680C3151E8002F42F04002EF
:102E700041E80023002BF5D110BDFFF759FC10BD30
:102E800010B5806BFFF755FC10BD01680C3151E89F
:102E9000002F22F4907241E80023002BF5D1016845
:102EA000143151E8002F22F0010241E80023002BE9
:102EB000F5D1016B012909D101680C3151E8002FCE
:102EC00022F0100241E80023002BF5D1202180F8E8
:102ED000421000210163704701680C3151E8002F56
:102EE00022F0C00241E80023002BF5D1202180F818
:102EF0004110704708B590F84210222901D00220F5
:102F000008BD82684FF480539A4201D1016921B112
:102F1000816A9A421BD04AB10AE00268816A52680B
:102F2000C2F308020A80816A891C08E0026972B152
:102F30000268526802F07F020A70816A491C81624D
:102F4000C18D491E0904090CC18503D01BE002682C
:102F50005268F1E70168CA6822F02002CA6001687D
:102F6000CA6822F48072CA6001684A6922F00102CC
:102F70004A61202180F8421000214163026B012A3E
:102F800003D0FFF78DFB002008BD016301680C3101
:102F900051E8002F22F0100241E80023002BF5D168
:102FA00001680A68D20602D50A6849680091818DD5
:102FB000FFF76BF9E7E7000070B5044600680169A8
:102FC000E26821F44051114301612169A068E2697E
:102FD00008436169114308432168CA6849F20C63D8
:102FE0009A430243CA6020684169A26921F4407192
:102FF0001143416131492068884202D030498842FA
:1030000002D1FEF7CDFD01E0FEF7BAFDE269002333
:10301000192164253226B2F5004F626828D0A0FB42
:103020000101930F9200FDF77FF90146B0FBF5F027
:103030006FF01802504301EB800006EB0010B0FB6C
:10304000F5F000F0F002B1FBF5F002EB0012B1FB7D
:10305000F5F06FF01803584301EB800006EB001009
:10306000B0FBF5F000F00F0021681044886070BDDF
:10307000A0FB010192185B41FDF756F90146B0FB38
:10308000F5F00201B1FBF5F06FF01803584301EBC6
:10309000800006EBC000B0FBF5F000F0F80002EB9A
:1030A0004002B1FBF5F0584301EB800006EBC00095
:1030B000B0FBF5F000F00700D6E70000001001407B
:1030C000001401400148FFF7E3B800006405002048
:1030D000FEE70907090E002804DB00F1E02080F874
:1030E0000014704700F00F0000F1E02080F8141D7C
:1030F000704700B52DED048BB0EE409AF0EE609A6B
:1031000083B051EC190B01F0C3F841EC180B18EE29
:10311000100A18EE901A8DED008B002818BF0120C0
:10312000084320F00040C0F17F6000F1E040C00F94
:1031300014D019EE101A19EE900A8DED009B00299B
:1031400018BF0121084320F00040C0F17F6000F16A
:10315000E040C00F04BF0120FDF7BEF9B0EE480A01
:1031600003B0F0EE680ABDEC048B00BDFEF78CFBEB
:10317000FFF76EFDFFF768FBFFF722FBFFF7DCFAB6
:10318000FFF7B0FBFFF7D0FBFFF7EAFBFFF7F6FA1C
:103190000223002206490748FDF726FB0649074897
:1031A00000F059F8FFF732FB00F017F8FEE70000D7
:1031B0008404002084000020AC0500201C050020B1
:1031C00001460020842900D0C81C704710B500B902
:1031D000012000F093FB002010BD10B500F0B4FBFF
:1031E000002010BD7FB50D4604464169B0F90800C6
:1031F00081B1A16971B1FFF7E3FFD4E905128DE850
:103200000700D4E900102B46226900F0B0FC0390BF
:1032100004B070BDFFF7D4FF03A9CDE90001208AF7
:103220002B4682B2D4E9001000F074FC012801D0D2
:103230000020EDE70398EBE70EB503468DEC030A9B
:10324000F0EE420AB0EE610A6A46FFF7C2FC184689
:10325000FFF7A0FC0EBD0068C26842F02002C26009
:103260000868016841F001010160704770B5ADF573
:10327000806D0D4606464FF47F716C4601A8FDF740
:10328000FCF80D48006800905FF0010095ED5F0AC2
:10329000BDEEC00A10EE101A44F82010401CC0B257
:1032A0000B28F3D34FF4806269463046FFF704FAE7
:1032B0000DF5806D70BD00004C4700082DE9F04110
:1032C000184C0F460546E6682068001D00F04FFACE
:1032D00038B9206890F82C1001208840216981437A
:1032E0002161681C07D137B12168BDE8F0410E4863
:1032F000091D00F07FBA20683544B5424560216859
:1033000005D2A06BBDE8F041091D00F05BBA606B0F
:10331000091D00F057FAA06A854200D2A562BDE8F7
:10332000F08100001C000020C00700202DE9F041C2
:10333000054600F06BFA2E4CA068401CA060206887
:103340002C4F10B1606940B32DE02560A0680128C2
:1033500029D1002606EB860007EB800000F024FA56
:10336000761C072EF6D323488C3000F01DFA214836
:10337000A03000F019FA1F48B43000F015FA1D48CB
:10338000C83000F011FA1B48DC3000F00DFA194883
:103390008C3060631430A06305E02068E96AC06A7D
:1033A000884200D82560606A401C6062E96A01209A
:1033B000226988401043206101EB810007EB800007
:1033C000291D00F017FA00F041FA606900280CD0BE
:1033D0002068E96AC06A884207D207494FF08050E6
:1033E0000860BFF34F8FBFF36F8FBDE8F08100001F
:1033F0001C000020E406002004ED00E010B50446A7
:1034000090F8510058B101280CD002280FD050205C
:1034100080F31188BFF34F8FBFF36F8FFEE7206BF0
:1034200000F028FA2046BDE8104000F023BA10BD95
:1034300010484FF47051420706D0C01D0D4920F0CE
:103440000700411AC1F570510B4A00230144C2E93B
:1034500000030839183A21F0070111604B600B6036
:103460000B1AC0E9001393604FF0004053605061A5
:1034700070470000D407002070000020144E154C47
:10348000A6F1C8074FF08058DFF84C9012E000BF5B
:1034900000F0BCF9F068C568281D00F068F9A06864
:1034A000401EA0606068401E606000F0CFF92846B2
:1034B000FFF7A4FF60680028EAD138680128F9D92D
:1034C000C9F80080BFF34F8FBFF36F8FF2E70000A2
:1034D000AC0700201C00002004ED00E02DE9F047BF
:1034E0009A46DDE9098481466FF00303206B03EB04
:1034F00082021044089E20F00707780707D050206A
:1035000080F31188BFF34F8FBFF36F8FFEE7002565
:1035100061B1002023180A5C83F834200A5C12B1E0
:10352000401C1028F6D384F8435001E084F834504E
:10353000072E00D30626E662C4E91165201D00F0BF
:103540003EF904F1180000F03AF92461C6F10700D1
:103550006462A061E56484F850505246494638469A
:1035600000F0C0F82060B8F1000F01D0C8F80040AA
:10357000BDE8F08730B5114900E011460A68824283
:10358000FBD34B685C18844203D140681844486000
:10359000084643681C18944209D1084C183C24681A
:1035A000A24209D052681A4442600A681268026056
:1035B000814200D0086030BD0460F9E7700000204F
:1035C0000648416B096829B1416BC968C9684968F7
:1035D000816270474FF0FF31FAE700001C000020C5
:1035E00008484068401C4FF0500080F3118804D018
:1035F000BFF34F8FBFF36F8FFEE7BFF34F8FBFF364
:103600006F8FFEE7780000202DE9F0410546002786
:1036100000F0D0F9324E306808B9FFF709FF706941
:1036200005424ED1C5B3083568070ED005F0070036
:10363000C0F108000544680707D0502080F31188C6
:10364000BFF34F8FBFF36F8FFEE72DB370688542D6
:1036500037D82348183001460C6801E020460C4654
:103660006168A94202D221680029F7D131688C42F1
:1036700027D007682168016060680837411B10295E
:103680000FD96019420708D0502080F31188BFF38A
:103690004F8FBFF36F8FFEE713E041606560FFF768
:1036A00069FF61687068401A7060B268904200D229
:1036B000B060706901430020C4E90001F068401C5B
:1036C000F06000F0E5FA780707D0502080F3118809
:1036D000BFF34F8FBFF36F8FFEE73846BDE8F08131
:1036E0005800002010B5031F4FF080741C601B1F92
:1036F00021F001011960191F044B0B6014390A6095
:10370000091F6FF0020244380A6010BDE13500085D
:103710001CB5002200926C46CDF80420C2EBC20317
:1037200003EB421300EB4303D3F8363000EE103ABC
:10373000BDEEC00A10EE103A24F81230521CD2B27C
:10374000042AEBD3BDF80000020A0A704870BDF8E5
:103750000200020A8A70C870BDF80400020A0A71E9
:103760004871BDF80600020A8A71C8711CBDD0E913
:10377000013201699A60D0E901235A604A688242A5
:1037800001D182684A60002202610868401E086018
:1037900008687047034B036003F154000860802001
:1037A000106070473002002000F108014FF0FF3236
:1037B000C0E90112C1600161002101607047002170
:1037C0000161704730B50B685A1C02D000F1080245
:1037D00002E0026904E02246546825689D42FAD955
:1037E00053684B6099608A60516008610168491CA8
:1037F000016030BD42684A6093688B60936859608D
:10380000916008610168491C01607047502080F395
:103810001188BFF34F8FBFF36F8F0A494868401C70
:10382000486001280CD10848006810F0FF0F07D04D
:10383000502080F31188BFF34F8FBFF36F8FFEE7E7
:10384000704700007800002004ED00E00849486857
:1038500028B1401E486001D180F311887047502084
:1038600080F31188BFF34F8FBFF36F8FFEE7000027
:103870007800002070B500282AD0164DA0F1080469
:1038800060686969084207D1502080F31188BFF34E
:103890004F8FBFF36F8FFEE722683AB1502080F35D
:1038A0001188BFF34F8FBFF36F8FFEE788436060CF
:1038B00000F080F860686968084468602046FFF797
:1038C00059FE2869401C2861BDE8704000F0E0B94D
:1038D00070BD0000580000204FF0E0200021016181
:1038E000816105494FF47A720968B1FBF2F1491E12
:1038F00041610721016170471800002010B50200E6
:1039000014D00F48006B38B1502080F31188BFF3FA
:103910004F8FBFF36F8FFEE700F04CF80021104689
:10392000FFF7CCFC00F0B4F9002807D105494FF0AF
:1039300080500860BFF34F8FBFF36F8F10BD000042
:103940001C00002004ED00E010B586B000240394B4
:1039500005AA04A903A80494FFF71CFFDDE90301ED
:103960000094CDE9011000230EA11048059A00F043
:10397000FEF80F490028C86211D0502080F311884A
:10398000BFF34F8FBFF36F8F4FF0FF30886201207E
:103990004861CC6006B0BDE8104000F041B806B008
:1039A00010BD000049444C45000000007D34000873
:1039B0001C0000200248016B491C01637047000095
:1039C0001C0000201448016B11B10121C161704736
:1039D0000021C1610169B1FA81F1C1F11F0101EB5F
:1039E00081020E4951F822306BB101EB820101F1E5
:1039F00008034A6852684A609A4201D152684A6094
:103A0000D16801607047502080F31188BFF34F8F59
:103A1000BFF36F8FFEE700001C000020E4060020CB
:103A20001CB537480168374A914207D1502080F3CE
:103A30001188BFF34F8FBFF36F8FFEE700683149E6
:103A4000491E884207D1502080F31188BFF34F8F61
:103A5000BFF36F8FFEE72C4908780190FF200870B4
:103A600008788DF800009DF800009DF8002000F017
:103A7000F000904207D0502080F31188BFF34F8FA1
:103A8000BFF36F8FFEE79DF80000204C00F0500060
:103A900020700720A06005E09DF8002052008DF8FE
:103AA0000020401E9DF800201206F5D4A0600328D7
:103AB00007D0502080F31188BFF34F8FBFF36F8F73
:103AC000FEE74FF44070A060019808700C48203069
:103AD000016841F470010160016841F070410160CA
:103AE000FFF7FAFE00206060FCF7C2FB084801689F
:103AF00041F040410160FCF7A7FB00201CBD000025
:103B000000ED00E071C20F4100E400E07800002009
:103B100034EF00E02DE9FF5F8346DDE90E8799462B
:103B200016468A469000FFF76FFD05001CD0542012
:103B3000FFF76AFD040014D00020256384F85100CB
:103B4000CDE90240CDE900874B4632465146584602
:103B5000FFF7C4FC2046FFF7E9FB012004B0BDE8F5
:103B6000F09F2846FFF786FE4FF0FF30F6E7F0B5EE
:103B700085B0DDE90B640A9DA6B1DCB1542700973E
:103B80002663022684F85160002604AFCDE9024680
:103B9000CDE90057FFF7A2FC2046FFF7C7FB0498CA
:103BA00005B0F0BD502080F31188BFF34F8FBFF3F5
:103BB0006F8FFEE7502080F31188BFF34F8FBFF364
:103BC0006F8FFEE72DE9F0412F4C0026206B28B1C6
:103BD000A069401CA0613046BDE8F081E5686D1C1D
:103BE000E56013D1606B006838B1502080F3118814
:103BF000BFF34F8FBFF36F8FFEE7606BA16B616305
:103C0000A063206A401C2062FFF7DAFCA06ADFF89C
:103C10007C80854209D3606B0068A0B1606BC0688E
:103C2000C7687868854211D2A0622068C06A00EB3C
:103C3000800158F82100012800D90126E0690028F8
:103C4000C9D00126C7E74FF0FF30EDE7381DFFF779
:103C50008EFDB86A18B107F11800FFF788FDF96A00
:103C60000120226988401043206101EB810108EBAB
:103C70008100391DFFF7BEFDF86A2168C96A8842D4
:103C8000C9D30126C7E700001C000020E40600207D
:103C90002DE9F0472C4D00242746286B38B1FFF75B
:103CA000B5FD286B401E2863286B40B146E05020CC
:103CB00080F31188BFF34F8FBFF36F8FFEE7A968C2
:103CC000224E0120D1B3A6F1B40980463068E8B194
:103CD000F068C46804F11800FFF749FD201DFFF7E4
:103CE00046FDE06A2A6908FA00F11143296100EBF8
:103CF000800109EB8100211DFFF77CFDE06A296846
:103D0000C96A8842E2D3C5F81C80DFE70CB1FFF72F
:103D100057FCAC6944B14646FFF754FF00B1EE6171
:103D2000641EF9D10020A861E86938B1084901276B
:103D300038070860BFF34F8FBFF36F8FFFF786FD23
:103D40003846BDE8F08700001C00002098070020DE
:103D500004ED00E021F00042A2F16052B2F5801FB4
:103D600001F0004328BFD2F17F6C0BD95FEA001C41
:103D700043EAC20242EB507018BF704728BF20F0E0
:103D800001007047B2F5801FBCBF184670474FEA6C
:103D9000410C1CF5001F02D2084600F0A5BC70B50E
:103DA00000F021FA00000089FFF7F6BF4FF0004055
:103DB000A0F580007047000010B591EA030F48BFDE
:103DC00083F0004300F13883841A71EB030C05D2B1
:103DD000121943EB0C03001B61EB0C01DFF824E12B
:103DE0004FEA1154A4EB135C1EEA430F18BF9EEA7E
:103DF000445F73D023EA0E03DCF1200E21EA045164
:103E000043F4801332D322FA0CFE10EB0E0023FA97
:103E10000CFE41EB0E01CCF1200E03FA0EFE10EB6E
:103E20000E0051F10001B1F5801FCCF1200E32D20D
:103E300001EB045112FA0EF2BDE8104058BF704772
:103E4000401C38BF5FEA420218BF7047002814BF09
:103E500020F0010041F100014FEA410313F5001F7A
:103E600038BF7047A1F1C04100F00BBA012A43EB03
:103E70000302ACF1200CDCF11F0E32BF4FF0000E3C
:103E800023FA0CF310EB030041EB0451B4EB115F88
:103E9000D0D0A1EB045101F5801149085FEA300050
:103EA00001EB04510ED350F1000038BF12FA0EFEA0
:103EB00008D1BDE81040C9E7401C38BF5FEA4202A4
:103EC000CAD1C3E7BDE810404FEA410313F5001F14
:103ED00038BF7047A1F1C04100F0D3B99EEA445FFA
:103EE00008D011EA5E0FBDE8104004BF01F00041A8
:103EF00000207047BDE8104070B500F074F900BFB5
:103F000064FBBE3E0000E0FF2DE9C04130B4DFF8A5
:103F1000A0C23CEA111418BF3CEA131400F0EC8074
:103F200081EA03051CEA111444EAD57418BF1CEA9F
:103F3000131500F0C780A4EB05044FF0004545EAD7
:103F4000C12145EAC32341EA505143EA525304F1E7
:103F50007F74994204F500344FEAC0204FEAC22230
:103F600008BF904200F09C804FEA13650FF24016A4
:103F7000765D4FEA134506FB05F7C7F1807706FB30
:103F800007F74FEAD737A7FB03687642C8F58038B2
:103F9000A7FB06CE38BFA8F1010807FB08E64FF0E3
:103FA000000EA6FB028CE6FB03CEDCF1000CCEF18A
:103FB000004E38BFAEF1010EA6FB0C584FF00007C3
:103FC0004FF00005E6FB0E87A1FB08C6A0FB07CE5D
:103FD00016EB0E0645F10005E1FB076515F1E04E15
:103FE0007EBFA4F580345FEA46066D4116F1800776
:103FF00045F100054FEA17274FEA066647EA0567CD
:10400000A6F1DE46B6F1805F4FEA15251FD9384686
:1040100024F0010C05EBC471BCF1FE6F01EB0C1137
:1040200002D8F0BCBDE8008124425CBF01F5801ECF
:104030009EEAC47F02D4F0BCBDE80081244238D49B
:10404000F0BCA1F1C041BDE8004100F01AB94FEA4F
:10405000D22242EA43524FEAD323A7FB02864FEA19
:10406000D02040EA415007FB03661EEA0E0F4FEADC
:10407000D12105FB026658BFA6EB0056B6EB0056F1
:104080004FEA520E4EEAC37E18EB0E0E56EB530E5D
:10409000BDD518EB02085E417F1C55F10005B6E75F
:1040A0004FF480154FF000074FF000064FF0000866
:1040B000ADE7F0BC4FF0000001F1C04101F000415C
:1040C000BDE8008111EA0C1F0CEA131500D00CE0CA
:1040D00013EA0C1F00F025804FF00000F0BC81EACD
:1040E000030101F00041BDE80081F0BCBDE80041E2
:1040F00081EA030100F0C5B8F0BCBDE8004170B52D
:1041000000F071F8097EFC3E00F007B881EA030177
:104110004FF0000001F00041704781EA030100F018
:10412000B0B8F0BCBDE800414FF000002149704735
:10413000FFFDFBF9F7F5F4F2F0EEEDEBE9E8E6E46C
:10414000E3E1E0DEDDDBDAD8D7D5D4D3D1D0CFCDF3
:10415000CCCBCAC8C7C6C5C4C2C1C0BFBEBDBCBB2C
:10416000BAB9B8B7B6B5B4B3B2B1B0AFAEADACAB27
:10417000AAA9A8A8A7A6A5A4A3A3A2A1A09F9F9E01
:104180009D9C9C9B9A9999989797969595949393B3
:10419000929191908F8F8E8E8D8C8C8B8B8A89894A
:1041A00088888787868585848483838282818180CD
:1041B0000000FF070000F87F10F0004248BF4042B7
:1041C000B0FA80F310FA03F10AD0C3F11D0303F52E
:1041D00080634FEA415002EB035202EBD12170475A
:1041E0004FF0000070470EF1020E2EF0030E5EF845
:1041F000046B364205D4012A43EB030515F5001F75
:1042000012D8012841EB010C1CF5001F0CD80ED16F
:104210004FEAD17C15F5001F0CEB4C0C0CF1020C95
:1042200008BF4CEBD37C04E04FF0080C01E04FEAF0
:10423000D37C0CEB4C0526FA05F606F00706B6F122
:10424000040C06D20EEB860CBDE870404CF0010C5D
:104250006047DFE80CF0090B02024FF000414FF01D
:104260000000A1F5002170BD19461046012851EB50
:10427000010418BFD4F5001484BF002001F00041F0
:1042800070BD0808A0F500114FEA31017047000029
:104290002DE9F04101F5801CBCF5001FC0F2A9809A
:1042A0004FEA115C21EA0C510CF1FD0C41F4801134
:1042B0005FEA5C0C0CF5C07C01D34000494130A49E
:1042C000890241EA905187028E0E0A0CA45D04FB1C
:1042D00004F602FB06F6C6F14046A4FB0662F60DA4
:1042E00046EA422606FB06F4A4FB01235242C3F130
:1042F000404338BF5B1EA6FB02420024E6FB0324BA
:10430000D20B42EA4446A6FB0623A1FB02E2A3FB32
:1043100007E4E3FB61426442C2F1404E38BFAEF1B4
:10432000010EA6FB04234FF00002E6FB0E32A2FBB7
:1043300003463400E2FB6264A1FB06E6A4FB07E847
:10434000E4FB61687642C8F1405838BFA8F1010823
:10435000A2FB06E4A3FB08E5E2FB6854A1FB05E62B
:10436000A7FB04E8E1FB648618F1200556F100067E
:10437000A809A8F11B08B10908F03F08B8F10A0F15
:1043800040EA86601CD901EB0C51BDE8F08100BF0A
:10439000FCF5EEE8E2DDD8D3CFCBC7C3C0BDB9B6DC
:1043A000B4B1AEACA9A7A5A3A19F9D9B9A989695E1
:1043B0009392908F8D8C8B89888786858483828168
:1043C000A0FB006800FB01F208EB4208B8EB87286D
:1043D00007D5341858EB0104D5D5401C51F1000124
:1043E000D1E7341A78EB0104CDD4401E71F10001FD
:1043F000C9E75FEA4C0C5FEA9C5C0DD105D34FF036
:10440000000001F00041BDE8F081BDE8F04170B569
:10441000FFF7E9FE6DDBFFBEBDE8F0414FF00000A5
:10442000004970470000F87F10B591EA030F48BFBC
:1044300083F000433FF5C8AC841A71EB030C07D23C
:1044400012198CF0004C43EB0C03001B61EB0C01C8
:10445000DFF8A4E14FEA1154A4EB135C1EEA430F0A
:1044600018BF9EEA445F00F0B08023EA6E03524218
:1044700021EA0451C3EB6E0338BF5B1EDCF1200E52
:1044800025D322FA0CFE10EB0E0043FA0CFE41EB92
:104490000E01CCF1200E03FA0EFE10EB0E0051F1CE
:1044A0000001CCF1200E29D412FA0EF201EB0451D6
:1044B000BDE8104058BF7047401C1CBFB2F1004F10
:1044C000704700280CBF491C20F00100704712EB18
:1044D000020E43EB030218BF4FF0010E4EEA4202F8
:1044E000ACF1200CDCF11E0E54D943FA0CFE10EB9B
:1044F0000E0051F1FF31CCF11E0ED5D50EF1010E9B
:1045000012FA0EFE404141EB010101EB445C5FEA0F
:104510005C5C10D910EBDE7001EB045138BFBEF1CA
:10452000004FBDE8104018BF704700280CBF491C61
:1045300020F00100704730D24FEAD42C11F5001161
:1045400024F400641BD0B1FA81F20B3AA41AA41E21
:10455000D2F12003914030FA03F31943904001EB6C
:10456000CC71002C01EB0451BDE81040A8BF70478E
:1045700001F1C0414FF0000001F000417047B0FA76
:1045800080F310FA03F100D110BDE41A173C48057E
:10459000C90AE4E701EB045110BD491001EB0451D5
:1045A000BDE810404FEA300002E04FF000017047D4
:1045B0004A0008BF0042F8D0B2F5001F28BF70477C
:1045C00001F000414FF0000070479EEA445F07D0C1
:1045D00011EA5E0FBDE8104004BF002100207047C3
:1045E000BDE8104070B5FFF7FEFD00BF40DFF63EAE
:1045F00083F00041104670470000E0FF43004FEA9F
:10460000D30C4FEA3C0C43401FBF40070CF16051F4
:1046100013F0FE4F70471CF0006F03D100200CF028
:10462000004170470CF0004343EA507010B540EA77
:10463000CC0000F00EF800BF000000924FEA00012D
:10464000FFF71FBE4FF000414FF00000A1F5002121
:1046500070470EF1020E2EF0030E5EF8044B24425A
:1046600004D44FEA4102B2F17F4F11D84FEA400320
:10467000B3F17F4F0CD80ED14FEAD07CB2F17F4F0F
:104680000CEB4C0C0CF1020C08BF4CEBD17C04E0A1
:104690004FF0080C01E04FEAD17C0CEB4C0324FAFC
:1046A00003F404F00704B4F1040C06D20EEB840CFE
:1046B000BDE810404CF0010C6047DFE80CF0070843
:1046C00002024FF00040A0F5800010BD08464200F5
:1046D00018BFD2F1807288BF00F0004010BD4FF0CB
:1046E0004070E1EE100A7047FF2141EAD050C0054A
:1046F00070470000584700080F2C00080000000019
:1047000000000000000100000000000000000000A8
:10471000544700081B2C0008FDFF000000000000AB
:1047200080000000000000000000000000061016DD
:104730000006101600000000000000000102030443
:10474000060708090000000001020304AB00000096
:104750000900000052430000436C61007C470008E0
:104760000000002084000000C40100080048000888
:1047700084000020B4490000E001000800000000AF
:104780000000000000000000010000001000000018
:10479000000000000024F400000000000000000001
:1047A0000000000000000000000000000000000009
:1047B00000000000000000000000000000000000F9
:1047C00000000000000000000000000000000000E9
:1047D00000000000000000000000000000000000D9
:1047E00000000000000000000000000000000000C9
:1047F0000000000000000000AAAAAAAA0000000011
:040000050800018965
:00000001FF
